{
  "_format": "hh-sol-artifact-1",
  "contractName": "CommitmentPoolERC20",
  "sourceName": "contracts/core/commitment/CommitmentPoolERC20.sol",
  "abi": [
    {
      "inputs": [
        {
          "internalType": "uint8",
          "name": "_treeHeight",
          "type": "uint8"
        },
        {
          "internalType": "contract IERC20Metadata",
          "name": "_token",
          "type": "address"
        }
      ],
      "stateMutability": "nonpayable",
      "type": "constructor"
    },
    {
      "inputs": [],
      "name": "AuditorIndexError",
      "type": "error"
    },
    {
      "inputs": [],
      "name": "AuditorNotesLengthError",
      "type": "error"
    },
    {
      "inputs": [],
      "name": "AuditorPublicKeyNotChanged",
      "type": "error"
    },
    {
      "inputs": [],
      "name": "CommitmentHasBeenSubmitted",
      "type": "error"
    },
    {
      "inputs": [
        {
          "internalType": "string",
          "name": "param",
          "type": "string"
        }
      ],
      "name": "Duplicated",
      "type": "error"
    },
    {
      "inputs": [],
      "name": "IndexOutOfBound",
      "type": "error"
    },
    {
      "inputs": [
        {
          "internalType": "string",
          "name": "param",
          "type": "string"
        }
      ],
      "name": "Invalid",
      "type": "error"
    },
    {
      "inputs": [],
      "name": "NewRootIsDuplicated",
      "type": "error"
    },
    {
      "inputs": [],
      "name": "NotChanged",
      "type": "error"
    },
    {
      "inputs": [],
      "name": "NoteHasBeenSpent",
      "type": "error"
    },
    {
      "inputs": [],
      "name": "NumInputsGreaterThanZero",
      "type": "error"
    },
    {
      "inputs": [],
      "name": "OnlyOperator",
      "type": "error"
    },
    {
      "inputs": [],
      "name": "OnlyWhitelistedRoller",
      "type": "error"
    },
    {
      "inputs": [],
      "name": "OnlyWhitelistedSender",
      "type": "error"
    },
    {
      "inputs": [],
      "name": "OutputNotesLessThanThree",
      "type": "error"
    },
    {
      "inputs": [],
      "name": "RollupFeeToFew",
      "type": "error"
    },
    {
      "inputs": [],
      "name": "RollupSizeNotPowerOfTwo",
      "type": "error"
    },
    {
      "inputs": [],
      "name": "SanctionedAddress",
      "type": "error"
    },
    {
      "inputs": [],
      "name": "TreeHeightLessThanZero",
      "type": "error"
    },
    {
      "inputs": [],
      "name": "TreeHeightOutOfBounds",
      "type": "error"
    },
    {
      "inputs": [],
      "name": "TreeIsFull",
      "type": "error"
    },
    {
      "inputs": [],
      "name": "VerifierUpdatesHasBeenDisabled",
      "type": "error"
    },
    {
      "anonymous": false,
      "inputs": [
        {
          "indexed": true,
          "internalType": "uint256",
          "name": "index",
          "type": "uint256"
        },
        {
          "indexed": false,
          "internalType": "uint256",
          "name": "publicKey",
          "type": "uint256"
        }
      ],
      "name": "AuditorPublicKey",
      "type": "event"
    },
    {
      "anonymous": false,
      "inputs": [
        {
          "indexed": true,
          "internalType": "uint256",
          "name": "commitment",
          "type": "uint256"
        }
      ],
      "name": "CommitmentIncluded",
      "type": "event"
    },
    {
      "anonymous": false,
      "inputs": [
        {
          "indexed": true,
          "internalType": "uint256",
          "name": "commitment",
          "type": "uint256"
        },
        {
          "indexed": false,
          "internalType": "uint256",
          "name": "rollupFee",
          "type": "uint256"
        },
        {
          "indexed": false,
          "internalType": "uint256",
          "name": "leafIndex",
          "type": "uint256"
        },
        {
          "indexed": false,
          "internalType": "bytes",
          "name": "encryptedNote",
          "type": "bytes"
        }
      ],
      "name": "CommitmentQueued",
      "type": "event"
    },
    {
      "anonymous": false,
      "inputs": [
        {
          "indexed": true,
          "internalType": "uint256",
          "name": "rootHash",
          "type": "uint256"
        },
        {
          "indexed": true,
          "internalType": "uint256",
          "name": "serialNumber",
          "type": "uint256"
        }
      ],
      "name": "CommitmentSpent",
      "type": "event"
    },
    {
      "anonymous": false,
      "inputs": [
        {
          "indexed": false,
          "internalType": "uint64",
          "name": "id",
          "type": "uint64"
        },
        {
          "indexed": false,
          "internalType": "uint256",
          "name": "auditorPublicKey",
          "type": "uint256"
        },
        {
          "indexed": false,
          "internalType": "uint256",
          "name": "encryptedAuditorNote",
          "type": "uint256"
        }
      ],
      "name": "EncryptedAuditorNote",
      "type": "event"
    },
    {
      "anonymous": false,
      "inputs": [
        {
          "components": [
            {
              "internalType": "uint64",
              "name": "id",
              "type": "uint64"
            },
            {
              "internalType": "uint256",
              "name": "publicKey",
              "type": "uint256"
            },
            {
              "internalType": "uint256",
              "name": "note",
              "type": "uint256"
            }
          ],
          "indexed": false,
          "internalType": "struct CommitmentPool.AuditorNote[]",
          "name": "notes",
          "type": "tuple[]"
        }
      ],
      "name": "EncryptedAuditorNotes",
      "type": "event"
    },
    {
      "anonymous": false,
      "inputs": [
        {
          "indexed": true,
          "internalType": "address",
          "name": "operator",
          "type": "address"
        }
      ],
      "name": "OperatorChanged",
      "type": "event"
    },
    {
      "anonymous": false,
      "inputs": [
        {
          "indexed": false,
          "internalType": "bool",
          "name": "state",
          "type": "bool"
        }
      ],
      "name": "RollupWhitelistDisabled",
      "type": "event"
    },
    {
      "anonymous": false,
      "inputs": [
        {
          "indexed": false,
          "internalType": "bool",
          "name": "state",
          "type": "bool"
        }
      ],
      "name": "SanctionsCheck",
      "type": "event"
    },
    {
      "anonymous": false,
      "inputs": [
        {
          "indexed": false,
          "internalType": "contract ISanctionsList",
          "name": "sanctions",
          "type": "address"
        }
      ],
      "name": "SanctionsList",
      "type": "event"
    },
    {
      "anonymous": false,
      "inputs": [
        {
          "indexed": false,
          "internalType": "bool",
          "name": "state",
          "type": "bool"
        }
      ],
      "name": "VerifierUpdateDisabled",
      "type": "event"
    },
    {
      "inputs": [
        {
          "internalType": "uint256",
          "name": "_fullPath",
          "type": "uint256"
        },
        {
          "internalType": "uint32",
          "name": "_rollupSize",
          "type": "uint32"
        }
      ],
      "name": "_pathIndices",
      "outputs": [
        {
          "internalType": "uint256",
          "name": "",
          "type": "uint256"
        }
      ],
      "stateMutability": "pure",
      "type": "function"
    },
    {
      "inputs": [
        {
          "internalType": "address",
          "name": "_actor",
          "type": "address"
        }
      ],
      "name": "addEnqueueWhitelist",
      "outputs": [],
      "stateMutability": "nonpayable",
      "type": "function"
    },
    {
      "inputs": [
        {
          "internalType": "address",
          "name": "_roller",
          "type": "address"
        }
      ],
      "name": "addRollupWhitelist",
      "outputs": [],
      "stateMutability": "nonpayable",
      "type": "function"
    },
    {
      "inputs": [],
      "name": "assetDecimals",
      "outputs": [
        {
          "internalType": "uint8",
          "name": "",
          "type": "uint8"
        }
      ],
      "stateMutability": "view",
      "type": "function"
    },
    {
      "inputs": [],
      "name": "assetName",
      "outputs": [
        {
          "internalType": "string",
          "name": "",
          "type": "string"
        }
      ],
      "stateMutability": "view",
      "type": "function"
    },
    {
      "inputs": [],
      "name": "assetSymbol",
      "outputs": [
        {
          "internalType": "string",
          "name": "",
          "type": "string"
        }
      ],
      "stateMutability": "view",
      "type": "function"
    },
    {
      "inputs": [],
      "name": "assetType",
      "outputs": [
        {
          "internalType": "enum AssetPool.AssetType",
          "name": "",
          "type": "uint8"
        }
      ],
      "stateMutability": "pure",
      "type": "function"
    },
    {
      "inputs": [],
      "name": "auditorCount",
      "outputs": [
        {
          "internalType": "uint256",
          "name": "",
          "type": "uint256"
        }
      ],
      "stateMutability": "view",
      "type": "function"
    },
    {
      "inputs": [
        {
          "internalType": "address",
          "name": "_newOperator",
          "type": "address"
        }
      ],
      "name": "changeOperator",
      "outputs": [],
      "stateMutability": "nonpayable",
      "type": "function"
    },
    {
      "inputs": [
        {
          "internalType": "uint32",
          "name": "_rollupSize",
          "type": "uint32"
        }
      ],
      "name": "disableRollupVerifier",
      "outputs": [],
      "stateMutability": "nonpayable",
      "type": "function"
    },
    {
      "inputs": [],
      "name": "disableSanctionsCheck",
      "outputs": [],
      "stateMutability": "nonpayable",
      "type": "function"
    },
    {
      "inputs": [
        {
          "internalType": "uint32",
          "name": "_numInputs",
          "type": "uint32"
        },
        {
          "internalType": "uint32",
          "name": "_numOutputs",
          "type": "uint32"
        }
      ],
      "name": "disableTransactVerifier",
      "outputs": [],
      "stateMutability": "nonpayable",
      "type": "function"
    },
    {
      "inputs": [
        {
          "internalType": "uint32",
          "name": "_rollupSize",
          "type": "uint32"
        },
        {
          "internalType": "contract IVerifier",
          "name": "_rollupVerifier",
          "type": "address"
        }
      ],
      "name": "enableRollupVerifier",
      "outputs": [],
      "stateMutability": "nonpayable",
      "type": "function"
    },
    {
      "inputs": [],
      "name": "enableSanctionsCheck",
      "outputs": [],
      "stateMutability": "nonpayable",
      "type": "function"
    },
    {
      "inputs": [
        {
          "internalType": "uint32",
          "name": "_numInputs",
          "type": "uint32"
        },
        {
          "internalType": "uint32",
          "name": "_numOutputs",
          "type": "uint32"
        },
        {
          "internalType": "contract IVerifier",
          "name": "_transactVerifier",
          "type": "address"
        }
      ],
      "name": "enableTransactVerifier",
      "outputs": [],
      "stateMutability": "nonpayable",
      "type": "function"
    },
    {
      "inputs": [
        {
          "components": [
            {
              "internalType": "uint256",
              "name": "amount",
              "type": "uint256"
            },
            {
              "internalType": "uint256",
              "name": "commitment",
              "type": "uint256"
            },
            {
              "internalType": "uint256",
              "name": "executorFee",
              "type": "uint256"
            },
            {
              "internalType": "uint256",
              "name": "rollupFee",
              "type": "uint256"
            },
            {
              "internalType": "bytes",
              "name": "encryptedNote",
              "type": "bytes"
            }
          ],
          "internalType": "struct ICommitmentPool.CommitmentRequest",
          "name": "_request",
          "type": "tuple"
        },
        {
          "internalType": "address",
          "name": "_executor",
          "type": "address"
        }
      ],
      "name": "enqueue",
      "outputs": [],
      "stateMutability": "nonpayable",
      "type": "function"
    },
    {
      "inputs": [],
      "name": "getAllAuditorPublicKeys",
      "outputs": [
        {
          "internalType": "uint256[]",
          "name": "",
          "type": "uint256[]"
        }
      ],
      "stateMutability": "view",
      "type": "function"
    },
    {
      "inputs": [
        {
          "internalType": "uint256",
          "name": "_index",
          "type": "uint256"
        }
      ],
      "name": "getAuditorPublicKey",
      "outputs": [
        {
          "internalType": "uint256",
          "name": "",
          "type": "uint256"
        }
      ],
      "stateMutability": "view",
      "type": "function"
    },
    {
      "inputs": [],
      "name": "getCommitmentCount",
      "outputs": [
        {
          "internalType": "uint256",
          "name": "",
          "type": "uint256"
        }
      ],
      "stateMutability": "view",
      "type": "function"
    },
    {
      "inputs": [],
      "name": "getCommitmentIncludedCount",
      "outputs": [
        {
          "internalType": "uint256",
          "name": "",
          "type": "uint256"
        }
      ],
      "stateMutability": "view",
      "type": "function"
    },
    {
      "inputs": [],
      "name": "getCommitmentQueuedCount",
      "outputs": [
        {
          "internalType": "uint256",
          "name": "",
          "type": "uint256"
        }
      ],
      "stateMutability": "view",
      "type": "function"
    },
    {
      "inputs": [],
      "name": "getMinRollupFee",
      "outputs": [
        {
          "internalType": "uint256",
          "name": "",
          "type": "uint256"
        }
      ],
      "stateMutability": "view",
      "type": "function"
    },
    {
      "inputs": [],
      "name": "getNullifierCount",
      "outputs": [
        {
          "internalType": "uint256",
          "name": "",
          "type": "uint256"
        }
      ],
      "stateMutability": "view",
      "type": "function"
    },
    {
      "inputs": [],
      "name": "getQueuedCommitments",
      "outputs": [
        {
          "internalType": "uint256[]",
          "name": "",
          "type": "uint256[]"
        }
      ],
      "stateMutability": "view",
      "type": "function"
    },
    {
      "inputs": [],
      "name": "getTreeCapacity",
      "outputs": [
        {
          "internalType": "uint256",
          "name": "",
          "type": "uint256"
        }
      ],
      "stateMutability": "view",
      "type": "function"
    },
    {
      "inputs": [
        {
          "internalType": "uint256",
          "name": "_commitment",
          "type": "uint256"
        }
      ],
      "name": "isHistoricCommitment",
      "outputs": [
        {
          "internalType": "bool",
          "name": "",
          "type": "bool"
        }
      ],
      "stateMutability": "view",
      "type": "function"
    },
    {
      "inputs": [
        {
          "internalType": "uint256",
          "name": "root",
          "type": "uint256"
        }
      ],
      "name": "isKnownRoot",
      "outputs": [
        {
          "internalType": "bool",
          "name": "",
          "type": "bool"
        }
      ],
      "stateMutability": "view",
      "type": "function"
    },
    {
      "inputs": [],
      "name": "isRollupWhitelistDisabled",
      "outputs": [
        {
          "internalType": "bool",
          "name": "",
          "type": "bool"
        }
      ],
      "stateMutability": "view",
      "type": "function"
    },
    {
      "inputs": [
        {
          "internalType": "uint256",
          "name": "_serialNumber",
          "type": "uint256"
        }
      ],
      "name": "isSpentSerialNumber",
      "outputs": [
        {
          "internalType": "bool",
          "name": "",
          "type": "bool"
        }
      ],
      "stateMutability": "view",
      "type": "function"
    },
    {
      "inputs": [],
      "name": "isVerifierUpdateDisabled",
      "outputs": [
        {
          "internalType": "bool",
          "name": "",
          "type": "bool"
        }
      ],
      "stateMutability": "view",
      "type": "function"
    },
    {
      "inputs": [
        {
          "internalType": "address",
          "name": "_actor",
          "type": "address"
        }
      ],
      "name": "removeEnqueueWhitelist",
      "outputs": [],
      "stateMutability": "nonpayable",
      "type": "function"
    },
    {
      "inputs": [
        {
          "internalType": "address",
          "name": "_roller",
          "type": "address"
        }
      ],
      "name": "removeRollupWhitelist",
      "outputs": [],
      "stateMutability": "nonpayable",
      "type": "function"
    },
    {
      "inputs": [
        {
          "components": [
            {
              "components": [
                {
                  "components": [
                    {
                      "internalType": "uint256",
                      "name": "X",
                      "type": "uint256"
                    },
                    {
                      "internalType": "uint256",
                      "name": "Y",
                      "type": "uint256"
                    }
                  ],
                  "internalType": "struct IVerifier.G1Point",
                  "name": "a",
                  "type": "tuple"
                },
                {
                  "components": [
                    {
                      "internalType": "uint256[2]",
                      "name": "X",
                      "type": "uint256[2]"
                    },
                    {
                      "internalType": "uint256[2]",
                      "name": "Y",
                      "type": "uint256[2]"
                    }
                  ],
                  "internalType": "struct IVerifier.G2Point",
                  "name": "b",
                  "type": "tuple"
                },
                {
                  "components": [
                    {
                      "internalType": "uint256",
                      "name": "X",
                      "type": "uint256"
                    },
                    {
                      "internalType": "uint256",
                      "name": "Y",
                      "type": "uint256"
                    }
                  ],
                  "internalType": "struct IVerifier.G1Point",
                  "name": "c",
                  "type": "tuple"
                }
              ],
              "internalType": "struct IVerifier.Proof",
              "name": "proof",
              "type": "tuple"
            },
            {
              "internalType": "uint32",
              "name": "rollupSize",
              "type": "uint32"
            },
            {
              "internalType": "uint256",
              "name": "newRoot",
              "type": "uint256"
            },
            {
              "internalType": "uint256",
              "name": "leafHash",
              "type": "uint256"
            }
          ],
          "internalType": "struct ICommitmentPool.RollupRequest",
          "name": "_request",
          "type": "tuple"
        }
      ],
      "name": "rollup",
      "outputs": [],
      "stateMutability": "nonpayable",
      "type": "function"
    },
    {
      "inputs": [],
      "name": "sanctionsCheck",
      "outputs": [
        {
          "internalType": "bool",
          "name": "",
          "type": "bool"
        }
      ],
      "stateMutability": "view",
      "type": "function"
    },
    {
      "inputs": [],
      "name": "sanctionsList",
      "outputs": [
        {
          "internalType": "contract ISanctionsList",
          "name": "",
          "type": "address"
        }
      ],
      "stateMutability": "view",
      "type": "function"
    },
    {
      "inputs": [
        {
          "internalType": "uint256",
          "name": "_minRollupFee",
          "type": "uint256"
        }
      ],
      "name": "setMinRollupFee",
      "outputs": [],
      "stateMutability": "nonpayable",
      "type": "function"
    },
    {
      "inputs": [
        {
          "internalType": "bool",
          "name": "_state",
          "type": "bool"
        }
      ],
      "name": "setRollupWhitelistDisabled",
      "outputs": [],
      "stateMutability": "nonpayable",
      "type": "function"
    },
    {
      "inputs": [
        {
          "internalType": "bool",
          "name": "_state",
          "type": "bool"
        }
      ],
      "name": "setVerifierUpdateDisabled",
      "outputs": [],
      "stateMutability": "nonpayable",
      "type": "function"
    },
    {
      "inputs": [
        {
          "components": [
            {
              "components": [
                {
                  "components": [
                    {
                      "internalType": "uint256",
                      "name": "X",
                      "type": "uint256"
                    },
                    {
                      "internalType": "uint256",
                      "name": "Y",
                      "type": "uint256"
                    }
                  ],
                  "internalType": "struct IVerifier.G1Point",
                  "name": "a",
                  "type": "tuple"
                },
                {
                  "components": [
                    {
                      "internalType": "uint256[2]",
                      "name": "X",
                      "type": "uint256[2]"
                    },
                    {
                      "internalType": "uint256[2]",
                      "name": "Y",
                      "type": "uint256[2]"
                    }
                  ],
                  "internalType": "struct IVerifier.G2Point",
                  "name": "b",
                  "type": "tuple"
                },
                {
                  "components": [
                    {
                      "internalType": "uint256",
                      "name": "X",
                      "type": "uint256"
                    },
                    {
                      "internalType": "uint256",
                      "name": "Y",
                      "type": "uint256"
                    }
                  ],
                  "internalType": "struct IVerifier.G1Point",
                  "name": "c",
                  "type": "tuple"
                }
              ],
              "internalType": "struct IVerifier.Proof",
              "name": "proof",
              "type": "tuple"
            },
            {
              "internalType": "uint256",
              "name": "rootHash",
              "type": "uint256"
            },
            {
              "internalType": "uint256[]",
              "name": "serialNumbers",
              "type": "uint256[]"
            },
            {
              "internalType": "uint256[]",
              "name": "sigHashes",
              "type": "uint256[]"
            },
            {
              "internalType": "bytes32",
              "name": "sigPk",
              "type": "bytes32"
            },
            {
              "internalType": "uint256",
              "name": "publicAmount",
              "type": "uint256"
            },
            {
              "internalType": "uint256",
              "name": "relayerFeeAmount",
              "type": "uint256"
            },
            {
              "internalType": "uint256[]",
              "name": "outCommitments",
              "type": "uint256[]"
            },
            {
              "internalType": "uint256[]",
              "name": "outRollupFees",
              "type": "uint256[]"
            },
            {
              "internalType": "address",
              "name": "publicRecipient",
              "type": "address"
            },
            {
              "internalType": "address",
              "name": "relayerAddress",
              "type": "address"
            },
            {
              "internalType": "bytes[]",
              "name": "outEncryptedNotes",
              "type": "bytes[]"
            },
            {
              "internalType": "uint256",
              "name": "randomAuditingPublicKey",
              "type": "uint256"
            },
            {
              "internalType": "uint256[]",
              "name": "encryptedAuditorNotes",
              "type": "uint256[]"
            }
          ],
          "internalType": "struct ICommitmentPool.TransactRequest",
          "name": "_request",
          "type": "tuple"
        },
        {
          "internalType": "bytes",
          "name": "_signature",
          "type": "bytes"
        }
      ],
      "name": "transact",
      "outputs": [],
      "stateMutability": "nonpayable",
      "type": "function"
    },
    {
      "inputs": [
        {
          "internalType": "uint256",
          "name": "_index",
          "type": "uint256"
        },
        {
          "internalType": "uint256",
          "name": "_publicKey",
          "type": "uint256"
        }
      ],
      "name": "updateAuditorPublicKey",
      "outputs": [],
      "stateMutability": "nonpayable",
      "type": "function"
    },
    {
      "inputs": [
        {
          "internalType": "contract ISanctionsList",
          "name": "_sanction",
          "type": "address"
        }
      ],
      "name": "updateSanctionsListAddress",
      "outputs": [],
      "stateMutability": "nonpayable",
      "type": "function"
    }
  ],
  "bytecode": "0x60a0604052600180546001600160a81b031916740140c57923924b5c5c5455c48d93317139addac8fb1790556000600781905560088190556009553480156200004757600080fd5b506040516200478c3803806200478c8339810160408190526200006a91620007cc565b6001600055808260ff81166200009357604051632c4f29b160e21b815260040160405180910390fd5b600c80546001600160a01b03191633179055600160ff82161b608052620000ba8162000103565b600b8190556000908152600a60205260409020805460ff1916600117905550601680546001600160a01b039092166001600160a01b0319909216919091179055506200081b9050565b600060ff82166200013557507f09f658457775074ff4c842032a5ec2f1134c32784cca59d594caac8c503b7923919050565b8160ff16600114156200016957507f1a77569b79cb7c2eaf9368de9e3b1efc0a606561e5ab299c2337340f3cdd576a919050565b8160ff16600214156200019d57507f111bd0002b1e3b8f1978c932b5ccb2fab87fdb0acab2ddb266f9a346dcb11ee1919050565b8160ff1660031415620001d157507f040868ea2a363e05d7ae44280f69b49e429ab096ca2844efe91f8d6b3dad57dd919050565b8160ff16600414156200020457507ef8f605c92c8502c8fe83be1b83b24e3f67312a388f30cbadb5dee8974137c3919050565b8160ff16600514156200023857507f1adc043c99adbc0c86a60a36db0f661e2dd96f36ede322f954386d8935a0c5d9919050565b8160ff16600614156200026c57507f2a1fedfa71da723ac3e9b35cef752fa1b647b2b737a23e91241cb7bdc419e3f4919050565b8160ff1660071415620002a057507f17fe1974543c4c4b228e1292f7e3200d31435fc910ee5a8c5cafd329cc4b256b919050565b8160ff1660081415620002d457507f0e84a586eb63a0eec0f1fe5785022441f0e29e4ae859c7ce1f5fc88a42ad2e6b919050565b8160ff16600914156200030857507f193deb901f6eeb032e02e093280db17e373d4ff52bafda9215b46bb9b0a86f3e919050565b8160ff16600a14156200033c57507f1d10ca7b985697cb519565a5006c3f44b020b2edab9b7422ed15dc34532f9406919050565b8160ff16600b14156200037057507f1dc200763555467a4e583e00badfdc1fb4d3d3f8f1cc81f31fd2f8b387776081919050565b8160ff16600c1415620003a457507f203dd11fdba0ed13b20ca2d6952f3feb7461836a03512e0cccce8467b320b2f6919050565b8160ff16600d1415620003d857507f0591af64e64a3e69caf23eee2bdea90885343a49f547ee9464e95d8d6267e4f7919050565b8160ff16600e14156200040c57507f2af572f1077a32f46dc8e307d43c0fa6753b400b2107325976b8df7380545ff6919050565b8160ff16600f14156200044057507f043227ae4b70b1aacd04e35e6aaed7b56d91220c31e97aaf52e12a6a56984e52919050565b8160ff16601014156200047457507f2976f1f6a91d83d4c528dad69ece6d3d91934b0e5657e915b360c8c4c2fb54e6919050565b8160ff1660111415620004a757507ee5c251c9e093658be0cd1b0df55b6f70f3d09146c1c8b4212a4ddcde700dbc919050565b8160ff1660121415620004db57507f0267cbbc1bc2f1c3e3073d2ee60df8cc0bfef39fe3cee735c9ad5c8ad30064d2919050565b8160ff16601314156200050f57507f2f356057bc56f67dbf159a0e8935022acd5e982dce9f4071adc43e4d57ce27e6919050565b8160ff16601414156200054357507f273db68f52f12a9d8022ae524050064e42d4d1661c9bcce958acf89b5e8b127b919050565b8160ff16601514156200057757507f0496a18ad4cca81b7c98ceb197439ad925e0f7f62d69dfa42cf9574be77fe30f919050565b8160ff1660161415620005ab57507f24f89a3f943d421b2f3a554b65459f42b820ac09d6fd9d693df5f8ba732ab596919050565b8160ff1660171415620005df57507f1b55bfd751c6807df36876cdce68034ab43210be2bc8afa8043c7f428604e7a7919050565b8160ff16601814156200061357507f16d6595a398cf20f2489b90e958166f1e19c537c0c46e9b8ea5462391ee8f143919050565b8160ff16601914156200064757507f0f01447ef8f621592474b678ed2fc404ebaf22a6fce15364bb4152a88c113613919050565b8160ff16601a14156200067b57507f026c2dffee48bacbc9d21cf90aa7c6e525ab01db6966a9e7e53b3d3f4d1f5a4d919050565b8160ff16601b1415620006af57507f234fe90732795745b2c504c791242a2bb193baa1cbeab57db9324b6bb9134817919050565b8160ff16601c1415620006e357507f23a8e0a7e60981c52ebb498c260d5bef4d7c65145d17128996a77c33a3262a7e919050565b8160ff16601d14156200071757507f24ee69d2565210c7027ff6fc2657ed029278bc79f41077fe3281ea5d5d8e80f9919050565b8160ff16601e14156200074b57507f1de402fa32463bb2917b733aeef0197a49cacacd1fe860c3acc8cd3b65a30a68919050565b8160ff16601f14156200077f57507f1d3015a0f6a7b3f754171d0540628107e50e25debceb16e0e33ae4205501896d919050565b8160ff1660201415620007b357507f264a260539342647256819046bae05bed903a8d19b3c90439d67317d5d881322919050565b604051639780f42960e01b815260040160405180910390fd5b60008060408385031215620007e057600080fd5b825160ff81168114620007f257600080fd5b60208401519092506001600160a01b03811681146200081057600080fd5b809150509250929050565b608051613f4762000845600039600081816103c8015281816111a30152611ac10152613f476000f3fe608060405234801561001057600080fd5b50600436106102d35760003560e01c80637cbf0ff611610186578063b3b75631116100e3578063deeff7cd11610097578063f2da1d4111610071578063f2da1d41146105bc578063f8f05388146105cf578063ffa89b88146105e257600080fd5b8063deeff7cd14610576578063e500f50414610589578063ec571c6a1461059157600080fd5b8063c2d41601116100c8578063c2d416011461054c578063c9230c5d14610566578063dd757c341461056e57600080fd5b8063b3b7563114610526578063c259e2e61461053957600080fd5b80639cc6b3541161013a578063a9b1d2961161011f578063a9b1d296146104f7578063b08892d01461050a578063b1c394221461051257600080fd5b80639cc6b354146104c1578063a6232a93146104d457600080fd5b8063866ac6581161016b578063866ac6581461049357806387780df91461049b5780639b0a6fea146104ae57600080fd5b80637cbf0ff61461046d5780637fa4b09c1461048057600080fd5b80633fe3347a1161023457806357060016116101e857806372082971116101cd578063720829711461043f57806378d60cd7146104525780637a5537441461046557600080fd5b8063570600161461040757806363bc7d321461042a57600080fd5b80634eb069f7116102195780634eb069f7146103ec578063555d75f0146103f75780635688881f146103ff57600080fd5b80633fe3347a146103b7578063484eb652146103c657600080fd5b8063115f574c1161028b578063176de7a811610270578063176de7a81461035c57806330f49cac146103715780633bb8d1b41461038457600080fd5b8063115f574c1461032e57806314a7737d1461034957600080fd5b806303db9874116102bc57806303db9874146102f557806306394c9b146103085780630c8867e61461031b57600080fd5b806301dbf19f146102d857806302d498f1146102e2575b600080fd5b6102e06105f2565b005b6102e06102f03660046134aa565b610676565b6102e06103033660046134aa565b6106c5565b6102e06103163660046134aa565b610711565b6102e061032936600461386e565b6107c2565b610336600581565b6040519081526020015b60405180910390f35b6102e061035736600461361f565b610891565b610364610df4565b6040516103409190613bbb565b6102e061037f3660046134aa565b610e7a565b6103a7610392366004613855565b60009081526005602052604090205460ff1690565b6040519015158152602001610340565b60006040516103409190613b93565b7f0000000000000000000000000000000000000000000000000000000000000000610336565b60105460ff166103a7565b600754610336565b610336610f07565b6103a7610415366004613855565b60009081526004602052604090205460ff1690565b610432610f19565b6040516103409190613b80565b6102e061044d366004613693565b610f96565b6102e0610460366004613578565b611a68565b600954610336565b6102e061047b366004613855565b611b97565b6102e061048e36600461392f565b611c15565b610432611cf8565b6103366104a9366004613855565b611da5565b6102e06104bc3660046138b3565b611de3565b6102e06104cf3660046134aa565b611edb565b6103a76104e2366004613855565b6000908152600a602052604090205460ff1690565b6102e06105053660046134aa565b611f27565b600d54610336565b6001546103a790600160a01b900460ff1681565b6102e06105343660046134c7565b611f76565b6102e0610547366004613905565b611fe2565b610554612086565b60405160ff9091168152602001610340565b610364612103565b6102e0612148565b6102e06105843660046138ce565b6121c0565b600854610336565b6001546105a4906001600160a01b031681565b6040516001600160a01b039091168152602001610340565b6103366105ca366004613890565b612300565b6102e06105dd3660046134c7565b612389565b601054610100900460ff166103a7565b600c546001600160a01b0316331461061d576040516327e1f1e560e01b815260040160405180910390fd5b6001805460ff60a01b1916600160a01b908117918290556040517fa5ffe1601eb93a7fefd0d0eeb5fc94a2f65475f333836fe2b87fd7bbf59520699261066c92900460ff161515815260200190565b60405180910390a1565b600c546001600160a01b031633146106a1576040516327e1f1e560e01b815260040160405180910390fd5b6001600160a01b03166000908152600e60205260409020805460ff19166001179055565b600c546001600160a01b031633146106f0576040516327e1f1e560e01b815260040160405180910390fd5b6001600160a01b03166000908152600f60205260409020805460ff19169055565b600c546001600160a01b0316331461073c576040516327e1f1e560e01b815260040160405180910390fd5b600c546001600160a01b038281169116141561076b576040516336a1c33f60e01b815260040160405180910390fd5b600c805473ffffffffffffffffffffffffffffffffffffffff19166001600160a01b0383169081179091556040517f4721129e0e676ed6a92909bb24e853ccdd63ad72280cc2e974e38e480e0e6e5490600090a250565b600c546001600160a01b031633146107ed576040516327e1f1e560e01b815260040160405180910390fd5b6005821061080e5760405163318c434560e21b815260040160405180910390fd5b806011836005811061082257610822613ec2565b0154141561084257604051624a706760e31b815260040160405180910390fd5b806011836005811061085657610856613ec2565b015560405181815282907f94adca83ce41447cfb8e07d1c9c4536a1b8afbff6c7c83c2d918214adc68102f9060200160405180910390a25050565b601054610100900460ff161580156108b95750336000908152600e602052604090205460ff16155b156108d7576040516321ce01f360e01b815260040160405180910390fd5b6040808201516000908152600a602052205460ff161561090a5760405163e2e1210360e01b815260040160405180910390fd5b600754816020015163ffffffff161180610946575060208181015163ffffffff16600090815260039091526040902054600160a01b900460ff16155b15610986576040516314e8955b60e21b815260206004820152600a602482015269726f6c6c757053697a6560b01b60448201526064015b60405180910390fd5b600854602082015161099e9063ffffffff1682613e74565b156109d9576040516314e8955b60e21b815260206004820152600a602482015269726f6c6c757053697a6560b01b604482015260640161097d565b60006109e9828460200151612300565b90506000836020015163ffffffff1667ffffffffffffffff811115610a1057610a10613ed8565b604051908082528060200260200182016040528015610a39578160200160208202803683370190505b5090506000805b856020015163ffffffff16811015610b37576000610a5e8287613d42565b600081815260066020908152604091829020825180840190935280548084526001909101549183019190915291925090610aab5760405163d3482f7b60e01b815260040160405180910390fd5b8060000151858481518110610ac257610ac2613ec2565b602002602001018181525050806020015184610ade9190613d42565b60008381526006602052604080822082815560010182905583519051929650917ffe6b097b46a78e08506a3143b6337c2505ba77df76fe05c3663a987395d634139190a250508080610b2f90613e35565b915050610a40565b50846020015163ffffffff1660076000828254610b549190613dcd565b9250508190555060007f30644e72e131a029b85045b68181585d2833e84879b9709143e1f593f000000183604051602001610b8f9190613acb565b6040516020818303038152906040528051906020012060001c610bb29190613e74565b905080866060015114610c08576040516314e8955b60e21b815260206004820152600860248201527f6c65616648617368000000000000000000000000000000000000000000000000604482015260640161097d565b60408051600480825260a0820190925260009160208201608080368337019050509050600b5481600081518110610c4157610c41613ec2565b602002602001018181525050866040015181600181518110610c6557610c65613ec2565b6020026020010181815250508181600281518110610c8557610c85613ec2565b6020026020010181815250508481600381518110610ca557610ca5613ec2565b6020908102919091018101919091528781015163ffffffff16600090815260039091526040808220548951915163c941764760e01b81526001600160a01b039091169163c941764791610cfd91908690600401613bce565b602060405180830381600087803b158015610d1757600080fd5b505af1158015610d2b573d6000803e3d6000fd5b505050506040513d601f19601f82011682018060405250810190610d4f91906134e4565b905080610d9f576040516314e8955b60e21b815260206004820152600560248201527f70726f6f66000000000000000000000000000000000000000000000000000000604482015260640161097d565b876020015163ffffffff1660086000828254610dbb9190613d42565b9091555050604080890151600b8190556000908152600a60205220805460ff19166001179055610dea846123fd565b5050505050505050565b601654604080516395d89b4160e01b815290516060926001600160a01b0316916395d89b41916004808301926000929190829003018186803b158015610e3957600080fd5b505afa158015610e4d573d6000803e3d6000fd5b505050506040513d6000823e601f3d908101601f19168201604052610e759190810190613501565b905090565b600c546001600160a01b03163314610ea5576040516327e1f1e560e01b815260040160405180910390fd5b6001805473ffffffffffffffffffffffffffffffffffffffff19166001600160a01b0383169081179091556040519081527fbe1808917e09814fca7d80289a9760a4065f10d624ac1aee0b9f903c4f5d92b1906020015b60405180910390a150565b6000600754600854610e759190613d42565b60408051600580825260c08201909252606091600091906020820160a08036833701905050905060005b6005811015610f905760118160058110610f5f57610f5f613ec2565b0154828281518110610f7357610f73613ec2565b602090810291909101015280610f8881613e35565b915050610f43565b50919050565b60026000541415610fe95760405162461bcd60e51b815260206004820152601f60248201527f5265656e7472616e637947756172643a207265656e7472616e742063616c6c00604482015260640161097d565b60026000908155604083015151610fff90612417565b905060006110118460e0015151612417565b63ffffffff838116600090815260026020908152604080832093851683529290522054909150600160a01b900460ff1661108e576040516314e8955b60e21b815260206004820152600a60248201527f692f6f206c656e67746800000000000000000000000000000000000000000000604482015260640161097d565b8163ffffffff16846060015151146110e9576040516314e8955b60e21b815260206004820152601060248201527f736967486173686573206c656e67746800000000000000000000000000000000604482015260640161097d565b8063ffffffff168461010001515114611145576040516314e8955b60e21b815260206004820152601460248201527f6f7574526f6c6c757046656573206c656e677468000000000000000000000000604482015260640161097d565b8063ffffffff1684610160015151146111a1576040516314e8955b60e21b815260206004820152601860248201527f6f7574456e637279707465644e6f746573206c656e6774680000000000000000604482015260640161097d565b7f00000000000000000000000000000000000000000000000000000000000000008163ffffffff166007546008546111d99190613d42565b6111e39190613d42565b111561120257604051633b5ccb4360e21b815260040160405180910390fd5b61120b32612497565b1561122957604051632e70c0b160e01b815260040160405180910390fd5b611237846101200151612497565b1561125557604051632e70c0b160e01b815260040160405180910390fd5b611266600563ffffffff8416613d82565b846101a00151511461128b57604051633acf48bb60e21b815260040160405180910390fd5b600061129685612536565b90506112a281856126c2565b6001600160a01b031660001b856080015114611301576040516314e8955b60e21b815260206004820152600960248201527f7369676e61747572650000000000000000000000000000000000000000000000604482015260640161097d565b600061130e846002613da1565b63ffffffff1690506000611323856002613da1565b61132e906004613d5a565b63ffffffff1690506000611343856002613da1565b6113539063ffffffff1683613d42565b905060006005611364886002613d5a565b63ffffffff166113749190613d82565b61137f836002613d42565b6113899190613d42565b67ffffffffffffffff8111156113a1576113a1613ed8565b6040519080825280602002602001820160405280156113ca578160200160208202803683370190505b506020808b01516000908152600a909152604090205490915060ff1661141c576040516314e8955b60e21b815260040161097d906020808252600490820152631c9bdbdd60e21b604082015260600190565b88602001518160008151811061143457611434613ec2565b6020908102919091010152600061144c886001613d5a565b63ffffffff16905060005b8863ffffffff168110156115585760008b60400151828151811061147d5761147d613ec2565b6020908102919091018101516000818152600590925260409091205490915060ff16156114d6576040517fff556e2000000000000000000000000000000000000000000000000000000000815260040160405180910390fd5b80846114e3846001613d42565b815181106114f3576114f3613ec2565b6020026020010181815250508b60600151828151811061151557611515613ec2565b602002602001015184848461152a9190613d42565b8151811061153a5761153a613ec2565b6020908102919091010152508061155081613e35565b915050611457565b5060808a01518261156a876001613d42565b8151811061157a5761157a613ec2565b602090810291909101015260a08a015182611596876002613d42565b815181106115a6576115a6613ec2565b602090810291909101015260c08a0151826115c2876003613d42565b815181106115d2576115d2613ec2565b602090810291909101015260006115ef63ffffffff891686613d42565b905060005b8863ffffffff1681101561176957600460008d60e00151838151811061161c5761161c613ec2565b60209081029190910181015182528101919091526040016000205460ff16156116885760405163bee3611160e01b815260206004820152600a60248201527f636f6d6d69746d656e7400000000000000000000000000000000000000000000604482015260640161097d565b600d548c610100015182815181106116a2576116a2613ec2565b602002602001015110156116c95760405163784f02bd60e11b815260040160405180910390fd5b8b60e0015181815181106116df576116df613ec2565b60200260200101518487836116f49190613d42565b8151811061170457611704613ec2565b6020026020010181815250508b6101000151818151811061172757611727613ec2565b602002602001015184838361173c9190613d42565b8151811061174c5761174c613ec2565b60209081029190910101528061176181613e35565b9150506115f4565b506117758b84866126e6565b63ffffffff808a166000908152600260209081526040808320938c168352929052818120548d51925163c941764760e01b815291926001600160a01b039091169163c9417647916117ca918890600401613bce565b602060405180830381600087803b1580156117e457600080fd5b505af11580156117f8573d6000803e3d6000fd5b505050506040513d601f19601f8201168201806040525081019061181c91906134e4565b90508061186c576040516314e8955b60e21b815260206004820152600e60248201527f7472616e736163742070726f6f66000000000000000000000000000000000000604482015260640161097d565b60005b8a63ffffffff16811015611940576001600560008f60400151848151811061189957611899613ec2565b6020026020010151815260200190815260200160002060006101000a81548160ff0219169083151502179055506001600960008282546118d99190613d42565b909155505060408d01518051829081106118f5576118f5613ec2565b60200260200101518d602001517f3c2372ab6130817bd6b8fc6dbaecae947e84201b49535d358debaa6c34c23ecf60405160405180910390a38061193881613e35565b91505061186f565b5060005b8963ffffffff16811015611a11576001600460008f60e00151848151811061196e5761196e613ec2565b6020026020010151815260200190815260200160002060006101000a81548160ff0219169083151502179055506119ff8d60e0015182815181106119b4576119b4613ec2565b60200260200101518e610100015183815181106119d3576119d3613ec2565b60200260200101518f610160015184815181106119f2576119f2613ec2565b60200260200101516128dd565b80611a0981613e35565b915050611944565b5060a08c015115611a2f57611a2f8c61012001518d60a0015161297c565b60c08c015115611a4c57611a4c8c61014001518d60c0015161297c565b611a558c612993565b5050600160005550505050505050505050565b336000908152600f602052604090205460ff16611a985760405163f75e9fc760e01b815260040160405180910390fd5b600d5482606001511015611abf5760405163784f02bd60e11b815260040160405180910390fd5b7f0000000000000000000000000000000000000000000000000000000000000000600754600854611af09190613d42565b10611b0e57604051633b5ccb4360e21b815260040160405180910390fd5b60208083015160009081526004909152604090205460ff1615611b445760405163e38cd14d60e01b815260040160405180910390fd5b60208083018051600090815260049092526040909120805460ff191660011790555160608301516080840151611b7b9291906128dd565b604082015115611b9357611b9381836040015161297c565b5050565b600c546001600160a01b03163314611bc2576040516327e1f1e560e01b815260040160405180910390fd5b80611c10576040516314e8955b60e21b815260206004820152600d60248201527f5f6d696e526f6c6c757046656500000000000000000000000000000000000000604482015260640161097d565b600d55565b600c546001600160a01b03163314611c40576040516327e1f1e560e01b815260040160405180910390fd5b60105460ff1615611c64576040516336e3e09560e01b815260040160405180910390fd5b63ffffffff8316611c8857604051639f7bd94b60e01b815260040160405180910390fd5b6040805180820182526001600160a01b0392831681526001602080830191825263ffffffff9687166000908152600282528481209690971687529490945293209251835492511515600160a01b0274ffffffffffffffffffffffffffffffffffffffffff19909316911617179055565b6060600060075467ffffffffffffffff811115611d1757611d17613ed8565b604051908082528060200260200182016040528015611d40578160200160208202803683370190505b50905060005b600754811015610f9057600081600854611d609190613d42565b600081815260066020526040902054845191925090849084908110611d8757611d87613ec2565b60209081029190910101525080611d9d81613e35565b915050611d46565b600060058210611dc85760405163318c434560e21b815260040160405180910390fd5b60118260058110611ddb57611ddb613ec2565b015492915050565b600c546001600160a01b03163314611e0e576040516327e1f1e560e01b815260040160405180910390fd5b60105460ff1615611e32576040516336e3e09560e01b815260040160405180910390fd5b63ffffffff81161580611e4c57506104008163ffffffff16115b15611e87576040516314e8955b60e21b815260206004820152600a602482015269726f6c6c757053697a6560b01b604482015260640161097d565b611e92600182613de4565b811663ffffffff16600014611eba576040516322717ff960e01b815260040160405180910390fd5b63ffffffff166000908152600360205260409020805460ff60a01b19169055565b600c546001600160a01b03163314611f06576040516327e1f1e560e01b815260040160405180910390fd5b6001600160a01b03166000908152600e60205260409020805460ff19169055565b600c546001600160a01b03163314611f52576040516327e1f1e560e01b815260040160405180910390fd5b6001600160a01b03166000908152600f60205260409020805460ff19166001179055565b600c546001600160a01b03163314611fa1576040516327e1f1e560e01b815260040160405180910390fd5b6010805460ff19168215159081179091556040519081527fcf54e49cbf0fd7613fb6b5b09f2e8c1255a9df94a826390f783d35cf2b4da7e490602001610efc565b600c546001600160a01b0316331461200d576040516327e1f1e560e01b815260040160405180910390fd5b60105460ff1615612031576040516336e3e09560e01b815260040160405180910390fd5b63ffffffff821661205557604051639f7bd94b60e01b815260040160405180910390fd5b63ffffffff91821660009081526002602090815260408083209390941682529190915220805460ff60a01b19169055565b6016546040805163313ce56760e01b815290516000926001600160a01b03169163313ce567916004808301926020929190829003018186803b1580156120cb57600080fd5b505afa1580156120df573d6000803e3d6000fd5b505050506040513d601f19601f82011682018060405250810190610e759190613976565b601654604080516306fdde0360e01b815290516060926001600160a01b0316916306fdde03916004808301926000929190829003018186803b158015610e3957600080fd5b600c546001600160a01b03163314612173576040516327e1f1e560e01b815260040160405180910390fd5b6001805460ff60a01b1916908190556040517fa5ffe1601eb93a7fefd0d0eeb5fc94a2f65475f333836fe2b87fd7bbf59520699161066c91600160a01b90910460ff161515815260200190565b600c546001600160a01b031633146121eb576040516327e1f1e560e01b815260040160405180910390fd5b60105460ff161561220f576040516336e3e09560e01b815260040160405180910390fd5b63ffffffff8216158061222957506104008263ffffffff16115b15612264576040516314e8955b60e21b815260206004820152600a602482015269726f6c6c757053697a6560b01b604482015260640161097d565b61226f600183613de4565b821663ffffffff16600014612297576040516322717ff960e01b815260040160405180910390fd5b6040805180820182526001600160a01b0392831681526001602080830191825263ffffffff90951660009081526003909552919093209251835491511515600160a01b0274ffffffffffffffffffffffffffffffffffffffffff19909216921691909117179055565b60006101008263ffffffff16106123265760088263ffffffff16901c9150600883901c92505b60108263ffffffff16106123495760048263ffffffff16901c9150600483901c92505b60048263ffffffff161061236c5760028263ffffffff16901c9150600283901c92505b60028263ffffffff161061238257600183901c92505b5090919050565b600c546001600160a01b031633146123b4576040516327e1f1e560e01b815260040160405180910390fd5b601080548215156101000261ff00199091161790556040517f9a24ee704854e0c531da821c99604540690f2af5577d2c892c2921cea409b47990610efc90831515815260200190565b601654612414906001600160a01b03163383612ba8565b50565b600063ffffffff8211156124935760405162461bcd60e51b815260206004820152602660248201527f53616665436173743a2076616c756520646f65736e27742066697420696e203360448201527f3220626974730000000000000000000000000000000000000000000000000000606482015260840161097d565b5090565b600154600090600160a01b900460ff166124b357506000919050565b60015460405163df592f7d60e01b81526001600160a01b0384811660048301529091169063df592f7d9060240160206040518083038186803b1580156124f857600080fd5b505afa15801561250c573d6000803e3d6000fd5b505050506040513d601f19601f8201168201806040525081019061253091906134e4565b92915050565b610160810151516000906003811061256157604051633fb1945d60e11b815260040160405180910390fd5b6060816125b5576101208401516101408501516040516bffffffffffffffffffffffff19606093841b811660208301529190921b1660348201526048015b604051602081830303815290604052905061266d565b81600114156125fc578361012001518461014001518561016001516000815181106125e2576125e2613ec2565b602002602001015160405160200161259f93929190613a29565b83610120015184610140015185610160015160008151811061262057612620613ec2565b602002602001015186610160015160018151811061264057612640613ec2565b602002602001015160405160200161265b9493929190613a6f565b60405160208183030381529060405290505b8051602091820120604080517f19457468657265756d205369676e6564204d6573736167653a0a33320000000081850152603c8082019390935281518082039093018352605c01905280519101209392505050565b60008060006126d18585612c14565b915091506126de81612c84565b509392505050565b6101808301516040805180820182526000808252602091820152815180830190925260ff83901c8083526001600160ff1b0390931690820152835190919084908490811061273657612736613ec2565b6020026020010181815250508060200151838360016127559190613d42565b8151811061276557612765613ec2565b6020908102919091010152600061277d836002613d42565b9050600061278c600583613d42565b9050600061279c60056002613d82565b6127a69084613d42565b905060005b6005811015612872576000612806601183600581106127cc576127cc613ec2565b01546040805180820182526000808252602091820152815180830190925260ff83901c82526001600160ff1b039092169181019190915290565b8051909150886128168488613d42565b8151811061282657612826613ec2565b60200260200101818152505080602001518883866128449190613d42565b8151811061285457612854613ec2565b6020908102919091010152508061286a81613e35565b9150506127ab565b5060005b876101a0015151811015610dea57876101a00151818151811061289b5761289b613ec2565b60200260200101518782846128b09190613d42565b815181106128c0576128c0613ec2565b6020908102919091010152806128d581613e35565b915050612876565b60006008546007546128ef9190613d42565b604080518082018252868152602080820187815260008581526006909252928120915182559151600191820155600780549394509092909190612933908490613d42565b92505081905550837ff533f9705aac5020e21695ea3553ac7b6881070d2b6900ab2b1e3050304b5bf984838560405161296e93929190613c36565b60405180910390a250505050565b601654611b93906001600160a01b03168383612ba8565b600060058260400151516129a79190613d82565b905060008167ffffffffffffffff8111156129c4576129c4613ed8565b604051908082528060200260200182016040528015612a2357816020015b612a106040518060600160405280600067ffffffffffffffff16815260200160008152602001600081525090565b8152602001906001900390816129e25790505b5090506000805b8460400151518163ffffffff161015612b6a5760005b60058163ffffffff161015612b57578063ffffffff1660208363ffffffff1667ffffffffffffffff16901b17848481518110612a7e57612a7e613ec2565b602090810291909101015167ffffffffffffffff9091169052601163ffffffff821660058110612ab057612ab0613ec2565b0154848481518110612ac457612ac4613ec2565b60200260200101516020018181525050856101a001518163ffffffff1660058463ffffffff16612af49190613d82565b612afe9190613d42565b81518110612b0e57612b0e613ec2565b6020026020010151848481518110612b2857612b28613ec2565b60209081029190910101516040015282612b4181613e35565b9350508080612b4f90613e50565b915050612a40565b5080612b6281613e50565b915050612a2a565b507f6af07ebcb33931abd348e785f70c6d259390cf799191f8c99124245b96e1a61382604051612b9a9190613b1d565b60405180910390a150505050565b604080516001600160a01b038416602482015260448082018490528251808303909101815260649091019091526020810180517bffffffffffffffffffffffffffffffffffffffffffffffffffffffff1663a9059cbb60e01b179052612c0f908490612e3f565b505050565b600080825160411415612c4b5760208301516040840151606085015160001a612c3f87828585612f24565b94509450505050612c7d565b825160401415612c755760208301516040840151612c6a868383613011565b935093505050612c7d565b506000905060025b9250929050565b6000816004811115612c9857612c98613eac565b1415612ca15750565b6001816004811115612cb557612cb5613eac565b1415612d035760405162461bcd60e51b815260206004820152601860248201527f45434453413a20696e76616c6964207369676e61747572650000000000000000604482015260640161097d565b6002816004811115612d1757612d17613eac565b1415612d655760405162461bcd60e51b815260206004820152601f60248201527f45434453413a20696e76616c6964207369676e6174757265206c656e67746800604482015260640161097d565b6003816004811115612d7957612d79613eac565b1415612dd25760405162461bcd60e51b815260206004820152602260248201527f45434453413a20696e76616c6964207369676e6174757265202773272076616c604482015261756560f01b606482015260840161097d565b6004816004811115612de657612de6613eac565b14156124145760405162461bcd60e51b815260206004820152602260248201527f45434453413a20696e76616c6964207369676e6174757265202776272076616c604482015261756560f01b606482015260840161097d565b6000612e94826040518060400160405280602081526020017f5361666545524332303a206c6f772d6c6576656c2063616c6c206661696c6564815250856001600160a01b031661304a9092919063ffffffff16565b805190915015612c0f5780806020019051810190612eb291906134e4565b612c0f5760405162461bcd60e51b815260206004820152602a60248201527f5361666545524332303a204552433230206f7065726174696f6e20646964206e60448201527f6f74207375636365656400000000000000000000000000000000000000000000606482015260840161097d565b6000807f7fffffffffffffffffffffffffffffff5d576e7357a4501ddfe92f46681b20a0831115612f5b5750600090506003613008565b8460ff16601b14158015612f7357508460ff16601c14155b15612f845750600090506004613008565b6040805160008082526020820180845289905260ff881692820192909252606081018690526080810185905260019060a0016020604051602081039080840390855afa158015612fd8573d6000803e3d6000fd5b5050604051601f1901519150506001600160a01b03811661300157600060019250925050613008565b9150600090505b94509492505050565b6000806001600160ff1b0383168161302e60ff86901c601b613d42565b905061303c87828885612f24565b935093505050935093915050565b60606130598484600085613063565b90505b9392505050565b6060824710156130db5760405162461bcd60e51b815260206004820152602660248201527f416464726573733a20696e73756666696369656e742062616c616e636520666f60448201527f722063616c6c0000000000000000000000000000000000000000000000000000606482015260840161097d565b6001600160a01b0385163b6131325760405162461bcd60e51b815260206004820152601d60248201527f416464726573733a2063616c6c20746f206e6f6e2d636f6e7472616374000000604482015260640161097d565b600080866001600160a01b0316858760405161314e9190613b01565b60006040518083038185875af1925050503d806000811461318b576040519150601f19603f3d011682016040523d82523d6000602084013e613190565b606091505b50915091506131a08282866131ab565b979650505050505050565b606083156131ba57508161305c565b8251156131ca5782518084602001fd5b8160405162461bcd60e51b815260040161097d9190613bbb565b80356131ef81613eee565b919050565b600082601f83011261320557600080fd5b8135602061321a61321583613cf6565b613cc5565b80838252828201915082860187848660051b890101111561323a57600080fd5b6000805b8681101561327d57823567ffffffffffffffff81111561325c578283fd5b61326a8b88838d0101613350565b865250938501939185019160010161323e565b509198975050505050505050565b600082601f83011261329c57600080fd5b6132a4613c55565b8083856040860111156132b657600080fd5b60005b60028110156132d85781358452602093840193909101906001016132b9565b509095945050505050565b600082601f8301126132f457600080fd5b8135602061330461321583613cf6565b80838252828201915082860187848660051b890101111561332457600080fd5b60005b8581101561334357813584529284019290840190600101613327565b5090979650505050505050565b600082601f83011261336157600080fd5b813561336f61321582613d1a565b81815284602083860101111561338457600080fd5b816020850160208301376000918101602001919091529392505050565b6000604082840312156133b357600080fd5b6040516040810181811067ffffffffffffffff821117156133d6576133d6613ed8565b604052823581526020928301359281019290925250919050565b600081830361010081121561340457600080fd5b6040516060810181811067ffffffffffffffff8211171561342757613427613ed8565b60405291508161343785856133a1565b81526080603f198301121561344b57600080fd5b613453613c55565b9150613462856040860161328b565b8252613471856080860161328b565b60208301528160208201526134898560c086016133a1565b6040820152505092915050565b803563ffffffff811681146131ef57600080fd5b6000602082840312156134bc57600080fd5b813561305c81613eee565b6000602082840312156134d957600080fd5b813561305c81613f03565b6000602082840312156134f657600080fd5b815161305c81613f03565b60006020828403121561351357600080fd5b815167ffffffffffffffff81111561352a57600080fd5b8201601f8101841361353b57600080fd5b805161354961321582613d1a565b81815285602083850101111561355e57600080fd5b61356f826020830160208601613e09565b95945050505050565b6000806040838503121561358b57600080fd5b823567ffffffffffffffff808211156135a357600080fd5b9084019060a082870312156135b757600080fd5b6135bf613c7e565b823581526020830135602082015260408301356040820152606083013560608201526080830135828111156135f357600080fd5b6135ff88828601613350565b6080830152509350613616915050602084016131e4565b90509250929050565b6000610160828403121561363257600080fd5b6040516080810181811067ffffffffffffffff8211171561365557613655613ed8565b60405261366284846133f0565b81526136716101008401613496565b6020820152610120830135604082015261014090920135606083015250919050565b600080604083850312156136a657600080fd5b823567ffffffffffffffff808211156136be57600080fd5b908401906102a082870312156136d357600080fd5b6136db613ca1565b6136e587846133f0565b8152610100808401356020830152610120808501358481111561370757600080fd5b6137138a8288016132e3565b604085015250610140808601358581111561372d57600080fd5b6137398b8289016132e3565b6060860152506101608087013560808601526101808088013560a08701526101a08089013560c08801526101c08901358881111561377657600080fd5b6137828e828c016132e3565b60e0890152506101e08901358881111561379b57600080fd5b6137a78e828c016132e3565b87890152506137b96102008a016131e4565b858801526137ca6102208a016131e4565b848801526102408901359550878611156137e357600080fd5b6137ef8d878b016131f4565b838801526102608901358288015261028089013595508786111561381257600080fd5b61381e8d878b016132e3565b908701525093975050505060208601359250508082111561383e57600080fd5b5061384b85828601613350565b9150509250929050565b60006020828403121561386757600080fd5b5035919050565b6000806040838503121561388157600080fd5b50508035926020909101359150565b600080604083850312156138a357600080fd5b8235915061361660208401613496565b6000602082840312156138c557600080fd5b61305c82613496565b600080604083850312156138e157600080fd5b6138ea83613496565b915060208301356138fa81613eee565b809150509250929050565b6000806040838503121561391857600080fd5b61392183613496565b915061361660208401613496565b60008060006060848603121561394457600080fd5b61394d84613496565b925061395b60208501613496565b9150604084013561396b81613eee565b809150509250925092565b60006020828403121561398857600080fd5b815160ff8116811461305c57600080fd5b8060005b60028110156139bc57815184526020938401939091019060010161399d565b50505050565b600081518084526020808501945080840160005b838110156139f2578151875295820195908201906001016139d6565b509495945050505050565b60008151808452613a15816020860160208601613e09565b601f01601f19169290920160200192915050565b60006bffffffffffffffffffffffff19808660601b168352808560601b166014840152508251613a60816028850160208701613e09565b91909101602801949350505050565b60006bffffffffffffffffffffffff19808760601b168352808660601b166014840152508351613aa6816028850160208801613e09565b835190830190613abd816028840160208801613e09565b016028019695505050505050565b815160009082906020808601845b83811015613af557815185529382019390820190600101613ad9565b50929695505050505050565b60008251613b13818460208701613e09565b9190910192915050565b602080825282518282018190526000919060409081850190868401855b82811015613b73578151805167ffffffffffffffff16855286810151878601528501518585015260609093019290850190600101613b3a565b5091979650505050505050565b60208152600061305c60208301846139c2565b6020810160028310613bb557634e487b7160e01b600052602160045260246000fd5b91905290565b60208152600061305c60208301846139fd565b6000610120613be883865180518252602090810151910152565b6020850151613bfb604085018251613999565b60200151613c0c6080850182613999565b506040850151805160c08501526020015160e0840152610100830181905261356f818401856139c2565b83815282602082015260606040820152600061356f60608301846139fd565b6040805190810167ffffffffffffffff81118282101715613c7857613c78613ed8565b60405290565b60405160a0810167ffffffffffffffff81118282101715613c7857613c78613ed8565b6040516101c0810167ffffffffffffffff81118282101715613c7857613c78613ed8565b604051601f8201601f1916810167ffffffffffffffff81118282101715613cee57613cee613ed8565b604052919050565b600067ffffffffffffffff821115613d1057613d10613ed8565b5060051b60200190565b600067ffffffffffffffff821115613d3457613d34613ed8565b50601f01601f191660200190565b60008219821115613d5557613d55613e96565b500190565b600063ffffffff808316818516808303821115613d7957613d79613e96565b01949350505050565b6000816000190483118215151615613d9c57613d9c613e96565b500290565b600063ffffffff80831681851681830481118215151615613dc457613dc4613e96565b02949350505050565b600082821015613ddf57613ddf613e96565b500390565b600063ffffffff83811690831681811015613e0157613e01613e96565b039392505050565b60005b83811015613e24578181015183820152602001613e0c565b838111156139bc5750506000910152565b6000600019821415613e4957613e49613e96565b5060010190565b600063ffffffff80831681811415613e6a57613e6a613e96565b6001019392505050565b600082613e9157634e487b7160e01b600052601260045260246000fd5b500690565b634e487b7160e01b600052601160045260246000fd5b634e487b7160e01b600052602160045260246000fd5b634e487b7160e01b600052603260045260246000fd5b634e487b7160e01b600052604160045260246000fd5b6001600160a01b038116811461241457600080fd5b801515811461241457600080fdfea2646970667358221220a0163bc0227e59ca66e282648388be25087d65f4dce7ed49bec46fbdeffe905a64736f6c63430008070033",
  "linkReferences": {},
  "deployedLinkReferences": {}
}