{
  "_format": "hh-sol-artifact-1",
  "contractName": "CommitmentPoolERC20",
  "sourceName": "contracts/core/commitment/CommitmentPoolERC20.sol",
  "abi": [
    {
      "inputs": [
        {
          "internalType": "uint8",
          "name": "_treeHeight",
          "type": "uint8"
        },
        {
          "internalType": "uint256",
          "name": "_minRollupFee",
          "type": "uint256"
        },
        {
          "internalType": "contract IERC20Metadata",
          "name": "_token",
          "type": "address"
        },
        {
          "internalType": "address",
          "name": "_settingsCenter",
          "type": "address"
        }
      ],
      "stateMutability": "nonpayable",
      "type": "constructor"
    },
    {
      "inputs": [
        {
          "internalType": "address",
          "name": "target",
          "type": "address"
        }
      ],
      "name": "AddressEmptyCode",
      "type": "error"
    },
    {
      "inputs": [
        {
          "internalType": "address",
          "name": "account",
          "type": "address"
        }
      ],
      "name": "AddressInsufficientBalance",
      "type": "error"
    },
    {
      "inputs": [],
      "name": "AssociatedPoolNotMatched",
      "type": "error"
    },
    {
      "inputs": [],
      "name": "AuditorNotesLengthError",
      "type": "error"
    },
    {
      "inputs": [],
      "name": "CommitmentHasBeenSubmitted",
      "type": "error"
    },
    {
      "inputs": [
        {
          "internalType": "string",
          "name": "param",
          "type": "string"
        }
      ],
      "name": "Duplicated",
      "type": "error"
    },
    {
      "inputs": [],
      "name": "ECDSAInvalidSignature",
      "type": "error"
    },
    {
      "inputs": [
        {
          "internalType": "uint256",
          "name": "length",
          "type": "uint256"
        }
      ],
      "name": "ECDSAInvalidSignatureLength",
      "type": "error"
    },
    {
      "inputs": [
        {
          "internalType": "bytes32",
          "name": "s",
          "type": "bytes32"
        }
      ],
      "name": "ECDSAInvalidSignatureS",
      "type": "error"
    },
    {
      "inputs": [],
      "name": "FailedInnerCall",
      "type": "error"
    },
    {
      "inputs": [],
      "name": "IndexOutOfBound",
      "type": "error"
    },
    {
      "inputs": [
        {
          "internalType": "string",
          "name": "param",
          "type": "string"
        }
      ],
      "name": "Invalid",
      "type": "error"
    },
    {
      "inputs": [],
      "name": "NewRootIsDuplicated",
      "type": "error"
    },
    {
      "inputs": [],
      "name": "NoteHasBeenSpent",
      "type": "error"
    },
    {
      "inputs": [],
      "name": "OutputNotesLessThanThree",
      "type": "error"
    },
    {
      "inputs": [],
      "name": "ReentrancyGuardReentrantCall",
      "type": "error"
    },
    {
      "inputs": [],
      "name": "RejectRelay",
      "type": "error"
    },
    {
      "inputs": [],
      "name": "RejectRollup",
      "type": "error"
    },
    {
      "inputs": [],
      "name": "RollupFeeToFew",
      "type": "error"
    },
    {
      "inputs": [
        {
          "internalType": "uint256",
          "name": "rollupSize",
          "type": "uint256"
        }
      ],
      "name": "RollupVerifierDisabled",
      "type": "error"
    },
    {
      "inputs": [
        {
          "internalType": "uint8",
          "name": "bits",
          "type": "uint8"
        },
        {
          "internalType": "uint256",
          "name": "value",
          "type": "uint256"
        }
      ],
      "name": "SafeCastOverflowedUintDowncast",
      "type": "error"
    },
    {
      "inputs": [
        {
          "internalType": "address",
          "name": "token",
          "type": "address"
        }
      ],
      "name": "SafeERC20FailedOperation",
      "type": "error"
    },
    {
      "inputs": [],
      "name": "SanctionedAddress",
      "type": "error"
    },
    {
      "inputs": [
        {
          "internalType": "uint32",
          "name": "inputNumber",
          "type": "uint32"
        },
        {
          "internalType": "uint32",
          "name": "outputNumber",
          "type": "uint32"
        }
      ],
      "name": "TransactVerifierDisabled",
      "type": "error"
    },
    {
      "inputs": [],
      "name": "TreeHeightLessThanZero",
      "type": "error"
    },
    {
      "inputs": [],
      "name": "TreeHeightOutOfBounds",
      "type": "error"
    },
    {
      "inputs": [],
      "name": "TreeIsFull",
      "type": "error"
    },
    {
      "anonymous": false,
      "inputs": [
        {
          "indexed": true,
          "internalType": "uint256",
          "name": "commitment",
          "type": "uint256"
        }
      ],
      "name": "CommitmentIncluded",
      "type": "event"
    },
    {
      "anonymous": false,
      "inputs": [
        {
          "indexed": true,
          "internalType": "uint256",
          "name": "commitment",
          "type": "uint256"
        },
        {
          "indexed": false,
          "internalType": "uint256",
          "name": "rollupFee",
          "type": "uint256"
        },
        {
          "indexed": false,
          "internalType": "uint256",
          "name": "leafIndex",
          "type": "uint256"
        },
        {
          "indexed": false,
          "internalType": "bytes",
          "name": "encryptedNote",
          "type": "bytes"
        }
      ],
      "name": "CommitmentQueued",
      "type": "event"
    },
    {
      "anonymous": false,
      "inputs": [
        {
          "indexed": true,
          "internalType": "uint256",
          "name": "rootHash",
          "type": "uint256"
        },
        {
          "indexed": true,
          "internalType": "uint256",
          "name": "serialNumber",
          "type": "uint256"
        }
      ],
      "name": "CommitmentSpent",
      "type": "event"
    },
    {
      "anonymous": false,
      "inputs": [
        {
          "indexed": false,
          "internalType": "uint64",
          "name": "id",
          "type": "uint64"
        },
        {
          "indexed": false,
          "internalType": "uint256",
          "name": "auditorPublicKey",
          "type": "uint256"
        },
        {
          "indexed": false,
          "internalType": "uint256",
          "name": "encryptedAuditorNote",
          "type": "uint256"
        }
      ],
      "name": "EncryptedAuditorNote",
      "type": "event"
    },
    {
      "anonymous": false,
      "inputs": [
        {
          "components": [
            {
              "internalType": "uint64",
              "name": "id",
              "type": "uint64"
            },
            {
              "internalType": "uint256",
              "name": "publicKey",
              "type": "uint256"
            },
            {
              "internalType": "uint256",
              "name": "note",
              "type": "uint256"
            }
          ],
          "indexed": false,
          "internalType": "struct CommitmentPool.AuditorNote[]",
          "name": "notes",
          "type": "tuple[]"
        }
      ],
      "name": "EncryptedAuditorNotes",
      "type": "event"
    },
    {
      "inputs": [],
      "name": "AUDITOR_COUNT",
      "outputs": [
        {
          "internalType": "uint256",
          "name": "",
          "type": "uint256"
        }
      ],
      "stateMutability": "view",
      "type": "function"
    },
    {
      "inputs": [
        {
          "internalType": "uint256",
          "name": "_fullPath",
          "type": "uint256"
        },
        {
          "internalType": "uint32",
          "name": "_rollupSize",
          "type": "uint32"
        }
      ],
      "name": "_pathIndices",
      "outputs": [
        {
          "internalType": "uint256",
          "name": "",
          "type": "uint256"
        }
      ],
      "stateMutability": "pure",
      "type": "function"
    },
    {
      "inputs": [],
      "name": "assetAddress",
      "outputs": [
        {
          "internalType": "address",
          "name": "",
          "type": "address"
        }
      ],
      "stateMutability": "view",
      "type": "function"
    },
    {
      "inputs": [],
      "name": "assetDecimals",
      "outputs": [
        {
          "internalType": "uint8",
          "name": "",
          "type": "uint8"
        }
      ],
      "stateMutability": "view",
      "type": "function"
    },
    {
      "inputs": [],
      "name": "assetName",
      "outputs": [
        {
          "internalType": "string",
          "name": "",
          "type": "string"
        }
      ],
      "stateMutability": "view",
      "type": "function"
    },
    {
      "inputs": [],
      "name": "assetSymbol",
      "outputs": [
        {
          "internalType": "string",
          "name": "",
          "type": "string"
        }
      ],
      "stateMutability": "view",
      "type": "function"
    },
    {
      "inputs": [],
      "name": "assetType",
      "outputs": [
        {
          "internalType": "enum AssetPool.AssetType",
          "name": "",
          "type": "uint8"
        }
      ],
      "stateMutability": "pure",
      "type": "function"
    },
    {
      "inputs": [],
      "name": "defaultMinRollupFee",
      "outputs": [
        {
          "internalType": "uint256",
          "name": "",
          "type": "uint256"
        }
      ],
      "stateMutability": "view",
      "type": "function"
    },
    {
      "inputs": [
        {
          "components": [
            {
              "internalType": "uint256",
              "name": "amount",
              "type": "uint256"
            },
            {
              "internalType": "uint256",
              "name": "commitment",
              "type": "uint256"
            },
            {
              "internalType": "uint256",
              "name": "executorFee",
              "type": "uint256"
            },
            {
              "internalType": "uint256",
              "name": "rollupFee",
              "type": "uint256"
            },
            {
              "internalType": "bytes",
              "name": "encryptedNote",
              "type": "bytes"
            }
          ],
          "internalType": "struct ICommitmentPool.CommitmentRequest",
          "name": "_request",
          "type": "tuple"
        },
        {
          "internalType": "address",
          "name": "_executor",
          "type": "address"
        }
      ],
      "name": "enqueue",
      "outputs": [],
      "stateMutability": "nonpayable",
      "type": "function"
    },
    {
      "inputs": [],
      "name": "getAllAuditorPublicKeys",
      "outputs": [
        {
          "internalType": "uint256[]",
          "name": "",
          "type": "uint256[]"
        }
      ],
      "stateMutability": "view",
      "type": "function"
    },
    {
      "inputs": [
        {
          "internalType": "uint256",
          "name": "_index",
          "type": "uint256"
        }
      ],
      "name": "getAuditorPublicKey",
      "outputs": [
        {
          "internalType": "uint256",
          "name": "",
          "type": "uint256"
        }
      ],
      "stateMutability": "view",
      "type": "function"
    },
    {
      "inputs": [],
      "name": "getCommitmentCount",
      "outputs": [
        {
          "internalType": "uint256",
          "name": "",
          "type": "uint256"
        }
      ],
      "stateMutability": "view",
      "type": "function"
    },
    {
      "inputs": [],
      "name": "getCommitmentIncludedCount",
      "outputs": [
        {
          "internalType": "uint256",
          "name": "",
          "type": "uint256"
        }
      ],
      "stateMutability": "view",
      "type": "function"
    },
    {
      "inputs": [],
      "name": "getCommitmentQueuedCount",
      "outputs": [
        {
          "internalType": "uint256",
          "name": "",
          "type": "uint256"
        }
      ],
      "stateMutability": "view",
      "type": "function"
    },
    {
      "inputs": [],
      "name": "getMinRollupFee",
      "outputs": [
        {
          "internalType": "uint256",
          "name": "",
          "type": "uint256"
        }
      ],
      "stateMutability": "view",
      "type": "function"
    },
    {
      "inputs": [],
      "name": "getNullifierCount",
      "outputs": [
        {
          "internalType": "uint256",
          "name": "",
          "type": "uint256"
        }
      ],
      "stateMutability": "view",
      "type": "function"
    },
    {
      "inputs": [],
      "name": "getQueuedCommitments",
      "outputs": [
        {
          "internalType": "uint256[]",
          "name": "",
          "type": "uint256[]"
        }
      ],
      "stateMutability": "view",
      "type": "function"
    },
    {
      "inputs": [],
      "name": "getTreeCapacity",
      "outputs": [
        {
          "internalType": "uint256",
          "name": "",
          "type": "uint256"
        }
      ],
      "stateMutability": "view",
      "type": "function"
    },
    {
      "inputs": [
        {
          "internalType": "uint256",
          "name": "_commitment",
          "type": "uint256"
        }
      ],
      "name": "isHistoricCommitment",
      "outputs": [
        {
          "internalType": "bool",
          "name": "",
          "type": "bool"
        }
      ],
      "stateMutability": "view",
      "type": "function"
    },
    {
      "inputs": [
        {
          "internalType": "uint256",
          "name": "root",
          "type": "uint256"
        }
      ],
      "name": "isKnownRoot",
      "outputs": [
        {
          "internalType": "bool",
          "name": "",
          "type": "bool"
        }
      ],
      "stateMutability": "view",
      "type": "function"
    },
    {
      "inputs": [
        {
          "internalType": "uint256",
          "name": "_serialNumber",
          "type": "uint256"
        }
      ],
      "name": "isSpentSerialNumber",
      "outputs": [
        {
          "internalType": "bool",
          "name": "",
          "type": "bool"
        }
      ],
      "stateMutability": "view",
      "type": "function"
    },
    {
      "inputs": [
        {
          "components": [
            {
              "components": [
                {
                  "components": [
                    {
                      "internalType": "uint256",
                      "name": "X",
                      "type": "uint256"
                    },
                    {
                      "internalType": "uint256",
                      "name": "Y",
                      "type": "uint256"
                    }
                  ],
                  "internalType": "struct IVerifier.G1Point",
                  "name": "a",
                  "type": "tuple"
                },
                {
                  "components": [
                    {
                      "internalType": "uint256[2]",
                      "name": "X",
                      "type": "uint256[2]"
                    },
                    {
                      "internalType": "uint256[2]",
                      "name": "Y",
                      "type": "uint256[2]"
                    }
                  ],
                  "internalType": "struct IVerifier.G2Point",
                  "name": "b",
                  "type": "tuple"
                },
                {
                  "components": [
                    {
                      "internalType": "uint256",
                      "name": "X",
                      "type": "uint256"
                    },
                    {
                      "internalType": "uint256",
                      "name": "Y",
                      "type": "uint256"
                    }
                  ],
                  "internalType": "struct IVerifier.G1Point",
                  "name": "c",
                  "type": "tuple"
                }
              ],
              "internalType": "struct IVerifier.Proof",
              "name": "proof",
              "type": "tuple"
            },
            {
              "internalType": "uint32",
              "name": "rollupSize",
              "type": "uint32"
            },
            {
              "internalType": "uint256",
              "name": "newRoot",
              "type": "uint256"
            },
            {
              "internalType": "uint256",
              "name": "leafHash",
              "type": "uint256"
            }
          ],
          "internalType": "struct ICommitmentPool.RollupRequest",
          "name": "_request",
          "type": "tuple"
        }
      ],
      "name": "rollup",
      "outputs": [],
      "stateMutability": "nonpayable",
      "type": "function"
    },
    {
      "inputs": [],
      "name": "settings",
      "outputs": [
        {
          "internalType": "contract MystikoSettings",
          "name": "",
          "type": "address"
        }
      ],
      "stateMutability": "view",
      "type": "function"
    },
    {
      "inputs": [
        {
          "components": [
            {
              "components": [
                {
                  "components": [
                    {
                      "internalType": "uint256",
                      "name": "X",
                      "type": "uint256"
                    },
                    {
                      "internalType": "uint256",
                      "name": "Y",
                      "type": "uint256"
                    }
                  ],
                  "internalType": "struct IVerifier.G1Point",
                  "name": "a",
                  "type": "tuple"
                },
                {
                  "components": [
                    {
                      "internalType": "uint256[2]",
                      "name": "X",
                      "type": "uint256[2]"
                    },
                    {
                      "internalType": "uint256[2]",
                      "name": "Y",
                      "type": "uint256[2]"
                    }
                  ],
                  "internalType": "struct IVerifier.G2Point",
                  "name": "b",
                  "type": "tuple"
                },
                {
                  "components": [
                    {
                      "internalType": "uint256",
                      "name": "X",
                      "type": "uint256"
                    },
                    {
                      "internalType": "uint256",
                      "name": "Y",
                      "type": "uint256"
                    }
                  ],
                  "internalType": "struct IVerifier.G1Point",
                  "name": "c",
                  "type": "tuple"
                }
              ],
              "internalType": "struct IVerifier.Proof",
              "name": "proof",
              "type": "tuple"
            },
            {
              "internalType": "uint256",
              "name": "rootHash",
              "type": "uint256"
            },
            {
              "internalType": "uint256[]",
              "name": "serialNumbers",
              "type": "uint256[]"
            },
            {
              "internalType": "uint256[]",
              "name": "sigHashes",
              "type": "uint256[]"
            },
            {
              "internalType": "bytes32",
              "name": "sigPk",
              "type": "bytes32"
            },
            {
              "internalType": "uint256",
              "name": "publicAmount",
              "type": "uint256"
            },
            {
              "internalType": "uint256",
              "name": "relayerFeeAmount",
              "type": "uint256"
            },
            {
              "internalType": "uint256[]",
              "name": "outCommitments",
              "type": "uint256[]"
            },
            {
              "internalType": "uint256[]",
              "name": "outRollupFees",
              "type": "uint256[]"
            },
            {
              "internalType": "address",
              "name": "publicRecipient",
              "type": "address"
            },
            {
              "internalType": "address",
              "name": "relayerAddress",
              "type": "address"
            },
            {
              "internalType": "bytes[]",
              "name": "outEncryptedNotes",
              "type": "bytes[]"
            },
            {
              "internalType": "uint256",
              "name": "randomAuditingPublicKey",
              "type": "uint256"
            },
            {
              "internalType": "uint256[]",
              "name": "encryptedAuditorNotes",
              "type": "uint256[]"
            }
          ],
          "internalType": "struct ICommitmentPool.TransactRequest",
          "name": "_request",
          "type": "tuple"
        },
        {
          "internalType": "bytes",
          "name": "_signature",
          "type": "bytes"
        }
      ],
      "name": "transact",
      "outputs": [],
      "stateMutability": "nonpayable",
      "type": "function"
    }
  ],
  "bytecode": "0x60a060405260006004556000600555600060065534801561001f57600080fd5b50604051613cb1380380613cb183398101604081905261003e91610783565b8184848360016000819055508260ff1660000361006e57604051632c4f29b160e21b815260040160405180910390fd5b600160ff84161b608052610081836100e0565b60088190556000908152600760205260409020805460ff19166001179055600991909155600a80546001600160a01b039283166001600160a01b031991821617909155600b805494909216931692909217909155506107de9350505050565b60008160ff1660000361011457507f09f658457775074ff4c842032a5ec2f1134c32784cca59d594caac8c503b7923919050565b8160ff1660010361014657507f1a77569b79cb7c2eaf9368de9e3b1efc0a606561e5ab299c2337340f3cdd576a919050565b8160ff1660020361017857507f111bd0002b1e3b8f1978c932b5ccb2fab87fdb0acab2ddb266f9a346dcb11ee1919050565b8160ff166003036101aa57507f040868ea2a363e05d7ae44280f69b49e429ab096ca2844efe91f8d6b3dad57dd919050565b8160ff166004036101db57507ef8f605c92c8502c8fe83be1b83b24e3f67312a388f30cbadb5dee8974137c3919050565b8160ff1660050361020d57507f1adc043c99adbc0c86a60a36db0f661e2dd96f36ede322f954386d8935a0c5d9919050565b8160ff1660060361023f57507f2a1fedfa71da723ac3e9b35cef752fa1b647b2b737a23e91241cb7bdc419e3f4919050565b8160ff1660070361027157507f17fe1974543c4c4b228e1292f7e3200d31435fc910ee5a8c5cafd329cc4b256b919050565b8160ff166008036102a357507f0e84a586eb63a0eec0f1fe5785022441f0e29e4ae859c7ce1f5fc88a42ad2e6b919050565b8160ff166009036102d557507f193deb901f6eeb032e02e093280db17e373d4ff52bafda9215b46bb9b0a86f3e919050565b8160ff16600a0361030757507f1d10ca7b985697cb519565a5006c3f44b020b2edab9b7422ed15dc34532f9406919050565b8160ff16600b0361033957507f1dc200763555467a4e583e00badfdc1fb4d3d3f8f1cc81f31fd2f8b387776081919050565b8160ff16600c0361036b57507f203dd11fdba0ed13b20ca2d6952f3feb7461836a03512e0cccce8467b320b2f6919050565b8160ff16600d0361039d57507f0591af64e64a3e69caf23eee2bdea90885343a49f547ee9464e95d8d6267e4f7919050565b8160ff16600e036103cf57507f2af572f1077a32f46dc8e307d43c0fa6753b400b2107325976b8df7380545ff6919050565b8160ff16600f0361040157507f043227ae4b70b1aacd04e35e6aaed7b56d91220c31e97aaf52e12a6a56984e52919050565b8160ff1660100361043357507f2976f1f6a91d83d4c528dad69ece6d3d91934b0e5657e915b360c8c4c2fb54e6919050565b8160ff1660110361046457507ee5c251c9e093658be0cd1b0df55b6f70f3d09146c1c8b4212a4ddcde700dbc919050565b8160ff1660120361049657507f0267cbbc1bc2f1c3e3073d2ee60df8cc0bfef39fe3cee735c9ad5c8ad30064d2919050565b8160ff166013036104c857507f2f356057bc56f67dbf159a0e8935022acd5e982dce9f4071adc43e4d57ce27e6919050565b8160ff166014036104fa57507f273db68f52f12a9d8022ae524050064e42d4d1661c9bcce958acf89b5e8b127b919050565b8160ff1660150361052c57507f0496a18ad4cca81b7c98ceb197439ad925e0f7f62d69dfa42cf9574be77fe30f919050565b8160ff1660160361055e57507f24f89a3f943d421b2f3a554b65459f42b820ac09d6fd9d693df5f8ba732ab596919050565b8160ff1660170361059057507f1b55bfd751c6807df36876cdce68034ab43210be2bc8afa8043c7f428604e7a7919050565b8160ff166018036105c257507f16d6595a398cf20f2489b90e958166f1e19c537c0c46e9b8ea5462391ee8f143919050565b8160ff166019036105f457507f0f01447ef8f621592474b678ed2fc404ebaf22a6fce15364bb4152a88c113613919050565b8160ff16601a0361062657507f026c2dffee48bacbc9d21cf90aa7c6e525ab01db6966a9e7e53b3d3f4d1f5a4d919050565b8160ff16601b0361065857507f234fe90732795745b2c504c791242a2bb193baa1cbeab57db9324b6bb9134817919050565b8160ff16601c0361068a57507f23a8e0a7e60981c52ebb498c260d5bef4d7c65145d17128996a77c33a3262a7e919050565b8160ff16601d036106bc57507f24ee69d2565210c7027ff6fc2657ed029278bc79f41077fe3281ea5d5d8e80f9919050565b8160ff16601e036106ee57507f1de402fa32463bb2917b733aeef0197a49cacacd1fe860c3acc8cd3b65a30a68919050565b8160ff16601f0361072057507f1d3015a0f6a7b3f754171d0540628107e50e25debceb16e0e33ae4205501896d919050565b8160ff1660200361075257507f264a260539342647256819046bae05bed903a8d19b3c90439d67317d5d881322919050565b604051639780f42960e01b815260040160405180910390fd5b6001600160a01b038116811461078057600080fd5b50565b6000806000806080858703121561079957600080fd5b845160ff811681146107aa57600080fd5b6020860151604087015191955093506107c28161076b565b60608601519092506107d38161076b565b939692955090935050565b6080516134aa6108076000396000818161023901528181610e3601526117d201526134aa6000f3fe608060405234801561001057600080fd5b50600436106101985760003560e01c80637a553744116100e3578063b2316c331161008c578063e06174e411610066578063e06174e414610356578063e500f50414610369578063f2da1d411461037157600080fd5b8063b2316c331461032b578063c2d4160114610334578063c9230c5d1461034e57600080fd5b8063a592bd69116100bd578063a592bd69146102f8578063a6232a9314610300578063b08892d01461032357600080fd5b80637a553744146102d5578063866ac658146102dd57806387780df9146102e557600080fd5b8063555d75f01161014557806363bc7d321161011f57806363bc7d321461029a57806372082971146102af57806378d60cd7146102c257600080fd5b8063555d75f0146102675780635688881f1461026f578063570600161461027757600080fd5b80633bb8d1b4116101765780633bb8d1b4146101f55780633fe3347a14610228578063484eb6521461023757600080fd5b806314a7737d1461019d578063176de7a8146101b25780631ba46cfd146101d0575b600080fd5b6101b06101ab366004612998565b610384565b005b6101ba6109ed565b6040516101c79190612a5e565b60405180910390f35b600b546001600160a01b03165b6040516001600160a01b0390911681526020016101c7565b610218610203366004612a71565b60009081526002602052604090205460ff1690565b60405190151581526020016101c7565b60006040516101c79190612aa0565b7f00000000000000000000000000000000000000000000000000000000000000005b6040519081526020016101c7565b600454610259565b610259610a64565b610218610285366004612a71565b60009081526001602052604090205460ff1690565b6102a2610a76565b6040516101c79190612b04565b6101b06102bd366004612cc4565b610ae8565b6101b06102d0366004612eb7565b611707565b600654610259565b6102a26118ab565b6102596102f3366004612a71565b611954565b610259600581565b61021861030e366004612a71565b60009081526007602052604090205460ff1690565b6102596119c8565b61025960095481565b61033c611a51565b60405160ff90911681526020016101c7565b6101ba611abf565b600a546101dd906001600160a01b031681565b600554610259565b61025961037f366004612f62565b611b09565b6020818101516040805160a0810182523081523393810193845263ffffffff909216828201818152600480546060860190815260055460808701908152600a54955162039b1360e11b815287516001600160a01b039081169482019490945297518316602489015292516044880152516064870152905160848601529093911690620736269060a401602060405180830381865afa15801561042a573d6000803e3d6000fd5b505050506040513d601f19601f8201168201806040525081019061044e9190612f95565b610484576040517fff4e342300000000000000000000000000000000000000000000000000000000815260040160405180910390fd5b60055460408085015160009081526007602052205460ff16156104ba5760405163e2e1210360e01b815260040160405180910390fd5b600454846020015163ffffffff161115610509576040516314e8955b60e21b815260206004820152600a602482015269726f6c6c757053697a6560b01b60448201526064015b60405180910390fd5b602084015161051e9063ffffffff1682612fb0565b15610559576040516314e8955b60e21b815260206004820152600a602482015269726f6c6c757053697a6560b01b6044820152606401610500565b600a5460208501516040516305afd53360e31b815263ffffffff90911660048201526000916001600160a01b031690632d7ea998906024016040805180830381865afa1580156105ad573d6000803e3d6000fd5b505050506040513d601f19601f820116820180604052508101906105d19190612fd2565b9050806020015161060357602085015160405163f5735a5f60e01b815263ffffffff9091166004820152602401610500565b6000610613838760200151611b09565b90506000866020015163ffffffff1667ffffffffffffffff81111561063a5761063a6127a1565b604051908082528060200260200182016040528015610663578160200160208202803683370190505b5090506000805b886020015163ffffffff168110156107565760006106888288613029565b6000818152600360209081526040808320815180830190925280548083526001909101549282019290925292935090036106d55760405163d3482f7b60e01b815260040160405180910390fd5b80600001518584815181106106ec576106ec61303c565b6020026020010181815250508060200151846107089190613029565b60008381526003602052604080822082815560010182905583519051929650917ffe6b097b46a78e08506a3143b6337c2505ba77df76fe05c3663a987395d634139190a2505060010161066a565b50876020015163ffffffff16600460008282546107739190613052565b9250508190555060007f30644e72e131a029b85045b68181585d2833e84879b9709143e1f593f0000001836040516020016107ae9190613065565b6040516020818303038152906040528051906020012060001c6107d19190612fb0565b905080896060015114610827576040516314e8955b60e21b815260206004820152600860248201527f6c656166486173680000000000000000000000000000000000000000000000006044820152606401610500565b60408051600480825260a0820190925260009160208201608080368337019050509050600854816000815181106108605761086061303c565b6020026020010181815250508960400151816001815181106108845761088461303c565b60200260200101818152505081816002815181106108a4576108a461303c565b60200260200101818152505084816003815181106108c4576108c461303c565b602090810291909101015285518a5160405163c941764760e01b81526000926001600160a01b03169163c941764791610902919086906004016130be565b6020604051808303816000875af1158015610921573d6000803e3d6000fd5b505050506040513d601f19601f820116820180604052508101906109459190612f95565b905080610995576040516314e8955b60e21b815260206004820152600560248201527f70726f6f660000000000000000000000000000000000000000000000000000006044820152606401610500565b8a6020015163ffffffff16600560008282546109b19190613029565b90915550506040808c015160088190556000908152600760205220805460ff191660011790556109e084611b92565b5050505050505050505050565b600b54604080516395d89b4160e01b815290516060926001600160a01b0316916395d89b419160048083019260009291908290030181865afa158015610a37573d6000803e3d6000fd5b505050506040513d6000823e601f3d908101601f19168201604052610a5f9190810190613130565b905090565b6000600454600554610a5f9190613029565b600a5460408051633044b79b60e21b815290516060926001600160a01b03169163c112de6c9160048083019260009291908290030181865afa158015610ac0573d6000803e3d6000fd5b505050506040513d6000823e601f3d908101601f19168201604052610a5f91908101906131a7565b610af0611bac565b6000610b00836040015151611bd6565b90506000610b128460e0015151611bd6565b600a54604051631dcdf73160e31b81523060048201529192506001600160a01b03169063ee6fb98890602401602060405180830381865afa158015610b5b573d6000803e3d6000fd5b505050506040513d601f19601f82011682018060405250810190610b7f9190612f95565b8015610b90575063ffffffff811615155b15610bbe576040516368975a4760e01b815263ffffffff808416600483015282166024820152604401610500565b60c084015115610c73576040805180820182523081523360208201908152600a549251635ee36ce960e01b815282516001600160a01b03908116600483015291518216602482015291921690635ee36ce990604401602060405180830381865afa158015610c30573d6000803e3d6000fd5b505050506040513d601f19601f82011682018060405250810190610c549190612f95565b610c715760405163324af8d960e11b815260040160405180910390fd5b505b600a546040516385e861eb60e01b815263ffffffff8085166004830152831660248201526000916001600160a01b0316906385e861eb906044016040805180830381865afa158015610cc9573d6000803e3d6000fd5b505050506040513d601f19601f82011682018060405250810190610ced9190612fd2565b90508060200151610d21576040516368975a4760e01b815263ffffffff808516600483015283166024820152604401610500565b8263ffffffff1685606001515114610d7c576040516314e8955b60e21b815260206004820152601060248201527f736967486173686573206c656e677468000000000000000000000000000000006044820152606401610500565b8163ffffffff168561010001515114610dd8576040516314e8955b60e21b815260206004820152601460248201527f6f7574526f6c6c757046656573206c656e6774680000000000000000000000006044820152606401610500565b8163ffffffff168561016001515114610e34576040516314e8955b60e21b815260206004820152601860248201527f6f7574456e637279707465644e6f746573206c656e67746800000000000000006044820152606401610500565b7f00000000000000000000000000000000000000000000000000000000000000008263ffffffff16600454600554610e6c9190613029565b610e769190613029565b1115610e9557604051633b5ccb4360e21b815260040160405180910390fd5b600a5460405163df592f7d60e01b81523260048201526001600160a01b039091169063df592f7d90602401602060405180830381865afa158015610edd573d6000803e3d6000fd5b505050506040513d601f19601f82011682018060405250810190610f019190612f95565b15610f1f57604051632e70c0b160e01b815260040160405180910390fd5b600a5461012086015160405163df592f7d60e01b81526001600160a01b03918216600482015291169063df592f7d90602401602060405180830381865afa158015610f6e573d6000803e3d6000fd5b505050506040513d601f19601f82011682018060405250810190610f929190612f95565b15610fb057604051632e70c0b160e01b815260040160405180910390fd5b610fc1600563ffffffff8516613233565b856101a001515114610fe657604051633acf48bb60e21b815260040160405180910390fd5b610ff08585611c0b565b6000610ffd84600261324a565b63ffffffff169050600061101285600261324a565b61101d906004613270565b63ffffffff169050600061103285600261324a565b6110429063ffffffff1683613029565b905060006005611053886002613270565b63ffffffff166110639190613233565b61106e836002613029565b6110789190613029565b67ffffffffffffffff811115611090576110906127a1565b6040519080825280602002602001820160405280156110b9578160200160208202803683370190505b506020808b015160009081526007909152604090205490915060ff1661110b576040516314e8955b60e21b8152600401610500906020808252600490820152631c9bdbdd60e21b604082015260600190565b8860200151816000815181106111235761112361303c565b6020908102919091010152600061113b886001613270565b63ffffffff16905060005b8863ffffffff1681101561123d5760008b60400151828151811061116c5761116c61303c565b6020908102919091018101516000818152600290925260409091205490915060ff16156111c5576040517fff556e2000000000000000000000000000000000000000000000000000000000815260040160405180910390fd5b80846111d2846001613029565b815181106111e2576111e261303c565b6020026020010181815250508b6060015182815181106112045761120461303c565b60200260200101518484846112199190613029565b815181106112295761122961303c565b602090810291909101015250600101611146565b5060808a01518261124f876001613029565b8151811061125f5761125f61303c565b602090810291909101015260a08a01518261127b876002613029565b8151811061128b5761128b61303c565b602090810291909101015260c08a0151826112a7876003613029565b815181106112b7576112b761303c565b602090810291909101015260006112d463ffffffff891686613029565b905060006112e06119c8565b905060005b8963ffffffff1681101561144e57600160008e60e00151838151811061130d5761130d61303c565b60209081029190910181015182528101919091526040016000205460ff16156113795760405163bee3611160e01b815260206004820152600a60248201527f636f6d6d69746d656e74000000000000000000000000000000000000000000006044820152606401610500565b818d610100015182815181106113915761139161303c565b602002602001015110156113b85760405163784f02bd60e11b815260040160405180910390fd5b8c60e0015181815181106113ce576113ce61303c565b60200260200101518588836113e39190613029565b815181106113f3576113f361303c565b6020026020010181815250508c610100015181815181106114165761141661303c565b602002602001015185848361142b9190613029565b8151811061143b5761143b61303c565b60209081029190910101526001016112e5565b5061145a8c8587611de8565b87518c5160405163c941764760e01b81526001600160a01b039092169163c94176479161148b9188906004016130be565b6020604051808303816000875af11580156114aa573d6000803e3d6000fd5b505050506040513d601f19601f820116820180604052508101906114ce9190612f95565b61151b576040516314e8955b60e21b815260206004820152600e60248201527f7472616e736163742070726f6f660000000000000000000000000000000000006044820152606401610500565b60005b8a63ffffffff168110156115e5576001600260008f6040015184815181106115485761154861303c565b6020026020010151815260200190815260200160002060006101000a81548160ff0219169083151502179055506001600660008282546115889190613029565b909155505060408d01518051829081106115a4576115a461303c565b60200260200101518d602001517f3c2372ab6130817bd6b8fc6dbaecae947e84201b49535d358debaa6c34c23ecf60405160405180910390a360010161151e565b5060005b8963ffffffff168110156116ab5760018060008f60e0015184815181106116125761161261303c565b6020026020010151815260200190815260200160002060006101000a81548160ff0219169083151502179055506116a38d60e0015182815181106116585761165861303c565b60200260200101518e610100015183815181106116775761167761303c565b60200260200101518f610160015184815181106116965761169661303c565b6020026020010151612052565b6001016115e9565b5060a08c0151156116c9576116c98c61012001518d60a001516120f1565b60c08c0151156116e6576116e68c61014001518d60c001516120f1565b6116ef8c612108565b505050505050505050506117036001600055565b5050565b600a546040516341fb697960e01b81523360048201526000916001600160a01b0316906341fb697990602401602060405180830381865afa158015611750573d6000803e3d6000fd5b505050506040513d601f19601f82011682018060405250810190611774919061328c565b90506001600160a01b038116301461179f57604051635335a04560e01b815260040160405180910390fd5b60006117a96119c8565b905080846060015110156117d05760405163784f02bd60e11b815260040160405180910390fd5b7f00000000000000000000000000000000000000000000000000000000000000006004546005546118019190613029565b1061181f57604051633b5ccb4360e21b815260040160405180910390fd5b60208085015160009081526001909152604090205460ff16156118555760405163e38cd14d60e01b815260040160405180910390fd5b60208085018051600090815260019283905260409020805460ff1916909217909155516060850151608086015161188d929190612052565b6040840151156118a5576118a58385604001516120f1565b50505050565b6060600060045467ffffffffffffffff8111156118ca576118ca6127a1565b6040519080825280602002602001820160405280156118f3578160200160208202803683370190505b50905060005b60045481101561194e576000816005546119139190613029565b60008181526003602052604090205484519192509084908490811061193a5761193a61303c565b6020908102919091010152506001016118f9565b50919050565b600a5460405163dbda082960e01b8152600481018390526000916001600160a01b03169063dbda082990602401602060405180830381865afa15801561199e573d6000803e3d6000fd5b505050506040513d601f19601f820116820180604052508101906119c291906132a9565b92915050565b600a5460405163c3c4bd0b60e01b815230600482015260009182916001600160a01b039091169063c3c4bd0b90602401602060405180830381865afa158015611a15573d6000803e3d6000fd5b505050506040513d601f19601f82011682018060405250810190611a3991906132a9565b90508015611a475780611a4b565b6009545b91505090565b600b546040805163313ce56760e01b815290516000926001600160a01b03169163313ce5679160048083019260209291908290030181865afa158015611a9b573d6000803e3d6000fd5b505050506040513d601f19601f82011682018060405250810190610a5f91906132c2565b600b54604080516306fdde0360e01b815290516060926001600160a01b0316916306fdde039160048083019260009291908290030181865afa158015610a37573d6000803e3d6000fd5b60006101008263ffffffff1610611b2f5760088263ffffffff16901c9150600883901c92505b60108263ffffffff1610611b525760048263ffffffff16901c9150600483901c92505b60048263ffffffff1610611b755760028263ffffffff16901c9150600283901c92505b60028263ffffffff1610611b8b57600183901c92505b5090919050565b600b54611ba9906001600160a01b0316338361239c565b50565b600260005403611bcf57604051633ee5aeb560e01b815260040160405180910390fd5b6002600055565b600063ffffffff821115611c07576040516306dfcc6560e41b81526020600482015260248101839052604401610500565b5090565b6101608201515160038110611c3357604051633fb1945d60e11b815260040160405180910390fd5b606081600003611c8a576101208401516101408501516040516bffffffffffffffffffffffff19606093841b811660208301529190921b1660348201526048015b6040516020818303038152906040529050611d41565b81600103611cd057836101200151846101400151856101600151600081518110611cb657611cb661303c565b6020026020010151604051602001611c74939291906132e5565b836101200151846101400151856101600151600081518110611cf457611cf461303c565b6020026020010151866101600151600181518110611d1457611d1461303c565b6020026020010151604051602001611d2f9493929190613336565b60405160208183030381529060405290505b805160208201207f19457468657265756d205369676e6564204d6573736167653a0a3332000000006000908152601c91909152603c9020611d828185612408565b6001600160a01b031660001b856080015114611de1576040516314e8955b60e21b815260206004820152600960248201527f7369676e617475726500000000000000000000000000000000000000000000006044820152606401610500565b5050505050565b6101808301516040805180820182526000808252602091820152815180830190925260ff83901c8083526001600160ff1b03909316908201528351909190849084908110611e3857611e3861303c565b602002602001018181525050806020015183836001611e579190613029565b81518110611e6757611e6761303c565b6020908102919091010152600a5460408051633044b79b60e21b815290516005926000926001600160a01b039091169163c112de6c9160048082019286929091908290030181865afa158015611ec1573d6000803e3d6000fd5b505050506040513d6000823e601f3d908101601f19168201604052611ee991908101906131a7565b90506000611ef8856002613029565b90506000611f068483613029565b90506000611f15856002613233565b611f1f9084613029565b905060005b85811015611fe5576000611f83868381518110611f4357611f4361303c565b60200260200101516040805180820182526000808252602091820152815180830190925260ff83901c82526001600160ff1b039092169181019190915290565b80519091508a611f938488613029565b81518110611fa357611fa361303c565b60200260200101818152505080602001518a8386611fc19190613029565b81518110611fd157611fd161303c565b602090810291909101015250600101611f24565b5060005b896101a001515181101561204657896101a00151818151811061200e5761200e61303c565b60200260200101518982846120239190613029565b815181106120335761203361303c565b6020908102919091010152600101611fe9565b50505050505050505050565b60006005546004546120649190613029565b6040805180820182528681526020808201878152600085815260039092529281209151825591516001918201556004805493945090929091906120a8908490613029565b92505081905550837ff533f9705aac5020e21695ea3553ac7b6881070d2b6900ab2b1e3050304b5bf98483856040516120e39392919061339d565b60405180910390a250505050565b600b54611703906001600160a01b0316838361239c565b600a5460408051633044b79b60e21b815290516005926000926001600160a01b039091169163c112de6c9160048082019286929091908290030181865afa158015612157573d6000803e3d6000fd5b505050506040513d6000823e601f3d908101601f1916820160405261217f91908101906131a7565b90506000828460400151516121949190613233565b905060008167ffffffffffffffff8111156121b1576121b16127a1565b60405190808252806020026020018201604052801561221057816020015b6121fd6040518060600160405280600067ffffffffffffffff16815260200160008152602001600081525090565b8152602001906001900390816121cf5790505b5090506000805b8660400151518163ffffffff16101561235c5760005b868163ffffffff161015612349578063ffffffff1660208363ffffffff1667ffffffffffffffff16901b1784848151811061226a5761226a61303c565b602090810291909101015167ffffffffffffffff90911690528551869063ffffffff831690811061229d5761229d61303c565b60200260200101518484815181106122b7576122b761303c565b60200260200101516020018181525050876101a001518163ffffffff16888463ffffffff166122e69190613233565b6122f09190613029565b815181106123005761230061303c565b602002602001015184848151811061231a5761231a61303c565b60209081029190910101516040015282612333816133bc565b9350508080612341906133d5565b91505061222d565b5080612354816133d5565b915050612217565b507f6af07ebcb33931abd348e785f70c6d259390cf799191f8c99124245b96e1a6138260405161238c91906133fa565b60405180910390a1505050505050565b604080516001600160a01b038416602482015260448082018490528251808303909101815260649091019091526020810180517bffffffffffffffffffffffffffffffffffffffffffffffffffffffff1663a9059cbb60e01b179052612403908490612432565b505050565b6000806000806124188686612495565b92509250925061242882826124e2565b5090949350505050565b60006124476001600160a01b0384168361259b565b9050805160001415801561246c57508080602001905181019061246a9190612f95565b155b1561240357604051635274afe760e01b81526001600160a01b0384166004820152602401610500565b600080600083516041036124cf5760208401516040850151606086015160001a6124c1888285856125b0565b9550955095505050506124db565b50508151600091506002905b9250925092565b60008260038111156124f6576124f6612a8a565b036124ff575050565b600182600381111561251357612513612a8a565b036125315760405163f645eedf60e01b815260040160405180910390fd5b600282600381111561254557612545612a8a565b036125665760405163fce698f760e01b815260048101829052602401610500565b600382600381111561257a5761257a612a8a565b03611703576040516335e2f38360e21b815260048101829052602401610500565b60606125a98383600061267f565b9392505050565b600080807f7fffffffffffffffffffffffffffffff5d576e7357a4501ddfe92f46681b20a08411156125eb5750600091506003905082612675565b604080516000808252602082018084528a905260ff891692820192909252606081018790526080810186905260019060a0016020604051602081039080840390855afa15801561263f573d6000803e3d6000fd5b5050604051601f1901519150506001600160a01b03811661266b57506000925060019150829050612675565b9250600091508190505b9450945094915050565b6060814710156126a45760405163cd78605960e01b8152306004820152602401610500565b600080856001600160a01b031684866040516126c09190613458565b60006040518083038185875af1925050503d80600081146126fd576040519150601f19603f3d011682016040523d82523d6000602084013e612702565b606091505b509150915061271286838361271c565b9695505050505050565b6060826127315761272c82612778565b6125a9565b815115801561274857506001600160a01b0384163b155b1561277157604051639996b31560e01b81526001600160a01b0385166004820152602401610500565b50806125a9565b8051156127885780518082602001fd5b604051630a12f52160e11b815260040160405180910390fd5b634e487b7160e01b600052604160045260246000fd5b6040805190810167ffffffffffffffff811182821017156127da576127da6127a1565b60405290565b6040516101c0810167ffffffffffffffff811182821017156127da576127da6127a1565b60405160a0810167ffffffffffffffff811182821017156127da576127da6127a1565b604051601f8201601f1916810167ffffffffffffffff81118282101715612850576128506127a1565b604052919050565b60006040828403121561286a57600080fd5b6128726127b7565b823581526020928301359281019290925250919050565b600082601f83011261289a57600080fd5b6128a26127b7565b8060408401858111156128b457600080fd5b845b818110156128ce5780358452602093840193016128b6565b509095945050505050565b60008183036101008112156128ed57600080fd5b6040516060810167ffffffffffffffff81118282101715612910576129106127a1565b6040529150816129208585612858565b81526080603f198301121561293457600080fd5b61293c6127b7565b915061294b8560408601612889565b825261295a8560808601612889565b60208301528160208201526129728560c08601612858565b6040820152505092915050565b803563ffffffff8116811461299357600080fd5b919050565b60006101608284031280156129ac57600080fd5b506040516080810167ffffffffffffffff811182821017156129d0576129d06127a1565b6040526129dd84846128d9565b81526129ec610100840161297f565b6020820152610120830135604082015261014090920135606083015250919050565b60005b83811015612a29578181015183820152602001612a11565b50506000910152565b60008151808452612a4a816020860160208601612a0e565b601f01601f19169290920160200192915050565b6020815260006125a96020830184612a32565b600060208284031215612a8357600080fd5b5035919050565b634e487b7160e01b600052602160045260246000fd5b6020810160028310612ac257634e487b7160e01b600052602160045260246000fd5b91905290565b600081518084526020840193506020830160005b82811015612afa578151865260209586019590910190600101612adc565b5093949350505050565b6020815260006125a96020830184612ac8565b600067ffffffffffffffff821115612b3157612b316127a1565b5060051b60200190565b600082601f830112612b4c57600080fd5b8135612b5f612b5a82612b17565b612827565b8082825260208201915060208360051b860101925085831115612b8157600080fd5b602085015b83811015612b9e578035835260209283019201612b86565b5095945050505050565b6001600160a01b0381168114611ba957600080fd5b803561299381612ba8565b600067ffffffffffffffff821115612be257612be26127a1565b50601f01601f191660200190565b600082601f830112612c0157600080fd5b8135612c0f612b5a82612bc8565b818152846020838601011115612c2457600080fd5b816020850160208301376000918101602001919091529392505050565b600082601f830112612c5257600080fd5b8135612c60612b5a82612b17565b8082825260208201915060208360051b860101925085831115612c8257600080fd5b602085015b83811015612b9e57803567ffffffffffffffff811115612ca657600080fd5b612cb5886020838a0101612bf0565b84525060209283019201612c87565b60008060408385031215612cd757600080fd5b823567ffffffffffffffff811115612cee57600080fd5b83016102a08186031215612d0157600080fd5b612d096127e0565b612d1386836128d9565b8152610100820135602082015261012082013567ffffffffffffffff811115612d3b57600080fd5b612d4787828501612b3b565b60408301525061014082013567ffffffffffffffff811115612d6857600080fd5b612d7487828501612b3b565b606083015250610160820135608082015261018082013560a08201526101a082013560c08201526101c082013567ffffffffffffffff811115612db657600080fd5b612dc287828501612b3b565b60e0830152506101e082013567ffffffffffffffff811115612de357600080fd5b612def87828501612b3b565b61010083015250612e036102008301612bbd565b610120820152612e166102208301612bbd565b61014082015261024082013567ffffffffffffffff811115612e3757600080fd5b612e4387828501612c41565b6101608301525061026082013561018082015261028082013567ffffffffffffffff811115612e7157600080fd5b612e7d87828501612b3b565b6101a083015250925050602083013567ffffffffffffffff811115612ea157600080fd5b612ead85828601612bf0565b9150509250929050565b60008060408385031215612eca57600080fd5b823567ffffffffffffffff811115612ee157600080fd5b830160a08186031215612ef357600080fd5b612efb612804565b81358152602080830135908201526040808301359082015260608083013590820152608082013567ffffffffffffffff811115612f3757600080fd5b612f4387828501612bf0565b6080830152509250612f59905060208401612bbd565b90509250929050565b60008060408385031215612f7557600080fd5b82359150612f596020840161297f565b8051801515811461299357600080fd5b600060208284031215612fa757600080fd5b6125a982612f85565b600082612fcd57634e487b7160e01b600052601260045260246000fd5b500690565b60006040828403128015612fe557600080fd5b50612fee6127b7565b8251612ff981612ba8565b815261300760208401612f85565b60208201529392505050565b634e487b7160e01b600052601160045260246000fd5b808201808211156119c2576119c2613013565b634e487b7160e01b600052603260045260246000fd5b818103818111156119c2576119c2613013565b8151600090829060208501835b82811015613090578151845260209384019390910190600101613072565b509195945050505050565b8060005b60028110156118a557815184526020938401939091019060010161309f565b6130d381845180518252602090810151910152565b600060208401516130e860408401825161309b565b602001516130f9608084018261309b565b506040840151805160c0840152602081015160e084015250610120610100830152613128610120830184612ac8565b949350505050565b60006020828403121561314257600080fd5b815167ffffffffffffffff81111561315957600080fd5b8201601f8101841361316a57600080fd5b8051613178612b5a82612bc8565b81815285602083850101111561318d57600080fd5b61319e826020830160208601612a0e565b95945050505050565b6000602082840312156131b957600080fd5b815167ffffffffffffffff8111156131d057600080fd5b8201601f810184136131e157600080fd5b80516131ef612b5a82612b17565b8082825260208201915060208360051b85010192508683111561321157600080fd5b6020840193505b82841015612712578351825260209384019390910190613218565b80820281158282048414176119c2576119c2613013565b63ffffffff818116838216029081169081811461326957613269613013565b5092915050565b63ffffffff81811683821601908111156119c2576119c2613013565b60006020828403121561329e57600080fd5b81516125a981612ba8565b6000602082840312156132bb57600080fd5b5051919050565b6000602082840312156132d457600080fd5b815160ff811681146125a957600080fd5b6bffffffffffffffffffffffff198460601b1681526bffffffffffffffffffffffff198360601b16601482015260008251613327816028850160208701612a0e565b91909101602801949350505050565b6bffffffffffffffffffffffff198560601b1681526bffffffffffffffffffffffff198460601b16601482015260008351613378816028850160208801612a0e565b83519083019061338f816028840160208801612a0e565b016028019695505050505050565b83815282602082015260606040820152600061319e6060830184612a32565b6000600182016133ce576133ce613013565b5060010190565b600063ffffffff821663ffffffff81036133f1576133f1613013565b60010192915050565b602080825282518282018190526000918401906040840190835b818110156128ce57835167ffffffffffffffff8151168452602081015160208501526040810151604085015250606083019250602084019350600181019050613414565b6000825161346a818460208701612a0e565b919091019291505056fea26469706673582212209530440f2c56b6af5516f481da89dbb64015d25b0a9ab88efddfd43ff64f42d364736f6c634300081a0033",
  "linkReferences": {},
  "deployedLinkReferences": {}
}