{
  "_format": "hh-sol-artifact-1",
  "contractName": "CommitmentPoolMain",
  "sourceName": "contracts/core/commitment/CommitmentPoolMain.sol",
  "abi": [
    {
      "inputs": [
        {
          "internalType": "uint8",
          "name": "_treeHeight",
          "type": "uint8"
        },
        {
          "internalType": "uint256",
          "name": "_minRollupFee",
          "type": "uint256"
        },
        {
          "internalType": "address",
          "name": "_settingsCenter",
          "type": "address"
        }
      ],
      "stateMutability": "nonpayable",
      "type": "constructor"
    },
    {
      "inputs": [],
      "name": "AssociatedPoolNotMatched",
      "type": "error"
    },
    {
      "inputs": [],
      "name": "AuditorNotesLengthError",
      "type": "error"
    },
    {
      "inputs": [],
      "name": "CommitmentHasBeenSubmitted",
      "type": "error"
    },
    {
      "inputs": [
        {
          "internalType": "string",
          "name": "param",
          "type": "string"
        }
      ],
      "name": "Duplicated",
      "type": "error"
    },
    {
      "inputs": [],
      "name": "ECDSAInvalidSignature",
      "type": "error"
    },
    {
      "inputs": [
        {
          "internalType": "uint256",
          "name": "length",
          "type": "uint256"
        }
      ],
      "name": "ECDSAInvalidSignatureLength",
      "type": "error"
    },
    {
      "inputs": [
        {
          "internalType": "bytes32",
          "name": "s",
          "type": "bytes32"
        }
      ],
      "name": "ECDSAInvalidSignatureS",
      "type": "error"
    },
    {
      "inputs": [],
      "name": "IndexOutOfBound",
      "type": "error"
    },
    {
      "inputs": [
        {
          "internalType": "string",
          "name": "param",
          "type": "string"
        }
      ],
      "name": "Invalid",
      "type": "error"
    },
    {
      "inputs": [],
      "name": "NewRootIsDuplicated",
      "type": "error"
    },
    {
      "inputs": [],
      "name": "NoteHasBeenSpent",
      "type": "error"
    },
    {
      "inputs": [],
      "name": "OutputNotesLessThanThree",
      "type": "error"
    },
    {
      "inputs": [],
      "name": "ReentrancyGuardReentrantCall",
      "type": "error"
    },
    {
      "inputs": [],
      "name": "RejectRelay",
      "type": "error"
    },
    {
      "inputs": [],
      "name": "RejectRollup",
      "type": "error"
    },
    {
      "inputs": [],
      "name": "RollupFeeToFew",
      "type": "error"
    },
    {
      "inputs": [
        {
          "internalType": "uint256",
          "name": "rollupSize",
          "type": "uint256"
        }
      ],
      "name": "RollupVerifierDisabled",
      "type": "error"
    },
    {
      "inputs": [
        {
          "internalType": "uint8",
          "name": "bits",
          "type": "uint8"
        },
        {
          "internalType": "uint256",
          "name": "value",
          "type": "uint256"
        }
      ],
      "name": "SafeCastOverflowedUintDowncast",
      "type": "error"
    },
    {
      "inputs": [],
      "name": "SanctionedAddress",
      "type": "error"
    },
    {
      "inputs": [
        {
          "internalType": "uint32",
          "name": "inputNumber",
          "type": "uint32"
        },
        {
          "internalType": "uint32",
          "name": "outputNumber",
          "type": "uint32"
        }
      ],
      "name": "TransactVerifierDisabled",
      "type": "error"
    },
    {
      "inputs": [],
      "name": "TreeHeightLessThanZero",
      "type": "error"
    },
    {
      "inputs": [],
      "name": "TreeHeightOutOfBounds",
      "type": "error"
    },
    {
      "inputs": [],
      "name": "TreeIsFull",
      "type": "error"
    },
    {
      "anonymous": false,
      "inputs": [
        {
          "indexed": true,
          "internalType": "uint256",
          "name": "commitment",
          "type": "uint256"
        }
      ],
      "name": "CommitmentIncluded",
      "type": "event"
    },
    {
      "anonymous": false,
      "inputs": [
        {
          "indexed": true,
          "internalType": "uint256",
          "name": "commitment",
          "type": "uint256"
        },
        {
          "indexed": false,
          "internalType": "uint256",
          "name": "rollupFee",
          "type": "uint256"
        },
        {
          "indexed": false,
          "internalType": "uint256",
          "name": "leafIndex",
          "type": "uint256"
        },
        {
          "indexed": false,
          "internalType": "bytes",
          "name": "encryptedNote",
          "type": "bytes"
        }
      ],
      "name": "CommitmentQueued",
      "type": "event"
    },
    {
      "anonymous": false,
      "inputs": [
        {
          "indexed": true,
          "internalType": "uint256",
          "name": "rootHash",
          "type": "uint256"
        },
        {
          "indexed": true,
          "internalType": "uint256",
          "name": "serialNumber",
          "type": "uint256"
        }
      ],
      "name": "CommitmentSpent",
      "type": "event"
    },
    {
      "anonymous": false,
      "inputs": [
        {
          "indexed": false,
          "internalType": "uint64",
          "name": "id",
          "type": "uint64"
        },
        {
          "indexed": false,
          "internalType": "uint256",
          "name": "auditorPublicKey",
          "type": "uint256"
        },
        {
          "indexed": false,
          "internalType": "uint256",
          "name": "encryptedAuditorNote",
          "type": "uint256"
        }
      ],
      "name": "EncryptedAuditorNote",
      "type": "event"
    },
    {
      "anonymous": false,
      "inputs": [
        {
          "components": [
            {
              "internalType": "uint64",
              "name": "id",
              "type": "uint64"
            },
            {
              "internalType": "uint256",
              "name": "publicKey",
              "type": "uint256"
            },
            {
              "internalType": "uint256",
              "name": "note",
              "type": "uint256"
            }
          ],
          "indexed": false,
          "internalType": "struct CommitmentPool.AuditorNote[]",
          "name": "notes",
          "type": "tuple[]"
        }
      ],
      "name": "EncryptedAuditorNotes",
      "type": "event"
    },
    {
      "inputs": [],
      "name": "AUDITOR_COUNT",
      "outputs": [
        {
          "internalType": "uint256",
          "name": "",
          "type": "uint256"
        }
      ],
      "stateMutability": "view",
      "type": "function"
    },
    {
      "inputs": [
        {
          "internalType": "uint256",
          "name": "_fullPath",
          "type": "uint256"
        },
        {
          "internalType": "uint32",
          "name": "_rollupSize",
          "type": "uint32"
        }
      ],
      "name": "_pathIndices",
      "outputs": [
        {
          "internalType": "uint256",
          "name": "",
          "type": "uint256"
        }
      ],
      "stateMutability": "pure",
      "type": "function"
    },
    {
      "inputs": [],
      "name": "assetAddress",
      "outputs": [
        {
          "internalType": "address",
          "name": "",
          "type": "address"
        }
      ],
      "stateMutability": "pure",
      "type": "function"
    },
    {
      "inputs": [],
      "name": "assetType",
      "outputs": [
        {
          "internalType": "enum AssetPool.AssetType",
          "name": "",
          "type": "uint8"
        }
      ],
      "stateMutability": "pure",
      "type": "function"
    },
    {
      "inputs": [],
      "name": "defaultMinRollupFee",
      "outputs": [
        {
          "internalType": "uint256",
          "name": "",
          "type": "uint256"
        }
      ],
      "stateMutability": "view",
      "type": "function"
    },
    {
      "inputs": [
        {
          "components": [
            {
              "internalType": "uint256",
              "name": "amount",
              "type": "uint256"
            },
            {
              "internalType": "uint256",
              "name": "commitment",
              "type": "uint256"
            },
            {
              "internalType": "uint256",
              "name": "executorFee",
              "type": "uint256"
            },
            {
              "internalType": "uint256",
              "name": "rollupFee",
              "type": "uint256"
            },
            {
              "internalType": "bytes",
              "name": "encryptedNote",
              "type": "bytes"
            }
          ],
          "internalType": "struct ICommitmentPool.CommitmentRequest",
          "name": "_request",
          "type": "tuple"
        },
        {
          "internalType": "address",
          "name": "_executor",
          "type": "address"
        }
      ],
      "name": "enqueue",
      "outputs": [],
      "stateMutability": "nonpayable",
      "type": "function"
    },
    {
      "inputs": [],
      "name": "getAllAuditorPublicKeys",
      "outputs": [
        {
          "internalType": "uint256[]",
          "name": "",
          "type": "uint256[]"
        }
      ],
      "stateMutability": "view",
      "type": "function"
    },
    {
      "inputs": [
        {
          "internalType": "uint256",
          "name": "_index",
          "type": "uint256"
        }
      ],
      "name": "getAuditorPublicKey",
      "outputs": [
        {
          "internalType": "uint256",
          "name": "",
          "type": "uint256"
        }
      ],
      "stateMutability": "view",
      "type": "function"
    },
    {
      "inputs": [],
      "name": "getCommitmentCount",
      "outputs": [
        {
          "internalType": "uint256",
          "name": "",
          "type": "uint256"
        }
      ],
      "stateMutability": "view",
      "type": "function"
    },
    {
      "inputs": [],
      "name": "getCommitmentIncludedCount",
      "outputs": [
        {
          "internalType": "uint256",
          "name": "",
          "type": "uint256"
        }
      ],
      "stateMutability": "view",
      "type": "function"
    },
    {
      "inputs": [],
      "name": "getCommitmentQueuedCount",
      "outputs": [
        {
          "internalType": "uint256",
          "name": "",
          "type": "uint256"
        }
      ],
      "stateMutability": "view",
      "type": "function"
    },
    {
      "inputs": [],
      "name": "getMinRollupFee",
      "outputs": [
        {
          "internalType": "uint256",
          "name": "",
          "type": "uint256"
        }
      ],
      "stateMutability": "view",
      "type": "function"
    },
    {
      "inputs": [],
      "name": "getNullifierCount",
      "outputs": [
        {
          "internalType": "uint256",
          "name": "",
          "type": "uint256"
        }
      ],
      "stateMutability": "view",
      "type": "function"
    },
    {
      "inputs": [],
      "name": "getQueuedCommitments",
      "outputs": [
        {
          "internalType": "uint256[]",
          "name": "",
          "type": "uint256[]"
        }
      ],
      "stateMutability": "view",
      "type": "function"
    },
    {
      "inputs": [],
      "name": "getTreeCapacity",
      "outputs": [
        {
          "internalType": "uint256",
          "name": "",
          "type": "uint256"
        }
      ],
      "stateMutability": "view",
      "type": "function"
    },
    {
      "inputs": [
        {
          "internalType": "uint256",
          "name": "_commitment",
          "type": "uint256"
        }
      ],
      "name": "isHistoricCommitment",
      "outputs": [
        {
          "internalType": "bool",
          "name": "",
          "type": "bool"
        }
      ],
      "stateMutability": "view",
      "type": "function"
    },
    {
      "inputs": [
        {
          "internalType": "uint256",
          "name": "root",
          "type": "uint256"
        }
      ],
      "name": "isKnownRoot",
      "outputs": [
        {
          "internalType": "bool",
          "name": "",
          "type": "bool"
        }
      ],
      "stateMutability": "view",
      "type": "function"
    },
    {
      "inputs": [
        {
          "internalType": "uint256",
          "name": "_serialNumber",
          "type": "uint256"
        }
      ],
      "name": "isSpentSerialNumber",
      "outputs": [
        {
          "internalType": "bool",
          "name": "",
          "type": "bool"
        }
      ],
      "stateMutability": "view",
      "type": "function"
    },
    {
      "inputs": [
        {
          "components": [
            {
              "components": [
                {
                  "components": [
                    {
                      "internalType": "uint256",
                      "name": "X",
                      "type": "uint256"
                    },
                    {
                      "internalType": "uint256",
                      "name": "Y",
                      "type": "uint256"
                    }
                  ],
                  "internalType": "struct IVerifier.G1Point",
                  "name": "a",
                  "type": "tuple"
                },
                {
                  "components": [
                    {
                      "internalType": "uint256[2]",
                      "name": "X",
                      "type": "uint256[2]"
                    },
                    {
                      "internalType": "uint256[2]",
                      "name": "Y",
                      "type": "uint256[2]"
                    }
                  ],
                  "internalType": "struct IVerifier.G2Point",
                  "name": "b",
                  "type": "tuple"
                },
                {
                  "components": [
                    {
                      "internalType": "uint256",
                      "name": "X",
                      "type": "uint256"
                    },
                    {
                      "internalType": "uint256",
                      "name": "Y",
                      "type": "uint256"
                    }
                  ],
                  "internalType": "struct IVerifier.G1Point",
                  "name": "c",
                  "type": "tuple"
                }
              ],
              "internalType": "struct IVerifier.Proof",
              "name": "proof",
              "type": "tuple"
            },
            {
              "internalType": "uint32",
              "name": "rollupSize",
              "type": "uint32"
            },
            {
              "internalType": "uint256",
              "name": "newRoot",
              "type": "uint256"
            },
            {
              "internalType": "uint256",
              "name": "leafHash",
              "type": "uint256"
            }
          ],
          "internalType": "struct ICommitmentPool.RollupRequest",
          "name": "_request",
          "type": "tuple"
        }
      ],
      "name": "rollup",
      "outputs": [],
      "stateMutability": "nonpayable",
      "type": "function"
    },
    {
      "inputs": [],
      "name": "settings",
      "outputs": [
        {
          "internalType": "contract MystikoSettings",
          "name": "",
          "type": "address"
        }
      ],
      "stateMutability": "view",
      "type": "function"
    },
    {
      "inputs": [
        {
          "components": [
            {
              "components": [
                {
                  "components": [
                    {
                      "internalType": "uint256",
                      "name": "X",
                      "type": "uint256"
                    },
                    {
                      "internalType": "uint256",
                      "name": "Y",
                      "type": "uint256"
                    }
                  ],
                  "internalType": "struct IVerifier.G1Point",
                  "name": "a",
                  "type": "tuple"
                },
                {
                  "components": [
                    {
                      "internalType": "uint256[2]",
                      "name": "X",
                      "type": "uint256[2]"
                    },
                    {
                      "internalType": "uint256[2]",
                      "name": "Y",
                      "type": "uint256[2]"
                    }
                  ],
                  "internalType": "struct IVerifier.G2Point",
                  "name": "b",
                  "type": "tuple"
                },
                {
                  "components": [
                    {
                      "internalType": "uint256",
                      "name": "X",
                      "type": "uint256"
                    },
                    {
                      "internalType": "uint256",
                      "name": "Y",
                      "type": "uint256"
                    }
                  ],
                  "internalType": "struct IVerifier.G1Point",
                  "name": "c",
                  "type": "tuple"
                }
              ],
              "internalType": "struct IVerifier.Proof",
              "name": "proof",
              "type": "tuple"
            },
            {
              "internalType": "uint256",
              "name": "rootHash",
              "type": "uint256"
            },
            {
              "internalType": "uint256[]",
              "name": "serialNumbers",
              "type": "uint256[]"
            },
            {
              "internalType": "uint256[]",
              "name": "sigHashes",
              "type": "uint256[]"
            },
            {
              "internalType": "bytes32",
              "name": "sigPk",
              "type": "bytes32"
            },
            {
              "internalType": "uint256",
              "name": "publicAmount",
              "type": "uint256"
            },
            {
              "internalType": "uint256",
              "name": "relayerFeeAmount",
              "type": "uint256"
            },
            {
              "internalType": "uint256[]",
              "name": "outCommitments",
              "type": "uint256[]"
            },
            {
              "internalType": "uint256[]",
              "name": "outRollupFees",
              "type": "uint256[]"
            },
            {
              "internalType": "address",
              "name": "publicRecipient",
              "type": "address"
            },
            {
              "internalType": "address",
              "name": "relayerAddress",
              "type": "address"
            },
            {
              "internalType": "bytes[]",
              "name": "outEncryptedNotes",
              "type": "bytes[]"
            },
            {
              "internalType": "uint256",
              "name": "randomAuditingPublicKey",
              "type": "uint256"
            },
            {
              "internalType": "uint256[]",
              "name": "encryptedAuditorNotes",
              "type": "uint256[]"
            }
          ],
          "internalType": "struct ICommitmentPool.TransactRequest",
          "name": "_request",
          "type": "tuple"
        },
        {
          "internalType": "bytes",
          "name": "_signature",
          "type": "bytes"
        }
      ],
      "name": "transact",
      "outputs": [],
      "stateMutability": "nonpayable",
      "type": "function"
    },
    {
      "stateMutability": "payable",
      "type": "receive"
    }
  ],
  "bytecode": "0x60a060405260006004556000600555600060065534801561001f57600080fd5b50604051613ae5380380613ae583398101604081905261003e9161075a565b82828260016000819055508260ff1660000361006d57604051632c4f29b160e21b815260040160405180910390fd5b600160ff84161b608052610080836100cf565b60088190556000908152600760205260409020805460ff19166001179055600991909155600a80546001600160a01b039092166001600160a01b0319909216919091179055506107af92505050565b60008160ff1660000361010357507f09f658457775074ff4c842032a5ec2f1134c32784cca59d594caac8c503b7923919050565b8160ff1660010361013557507f1a77569b79cb7c2eaf9368de9e3b1efc0a606561e5ab299c2337340f3cdd576a919050565b8160ff1660020361016757507f111bd0002b1e3b8f1978c932b5ccb2fab87fdb0acab2ddb266f9a346dcb11ee1919050565b8160ff1660030361019957507f040868ea2a363e05d7ae44280f69b49e429ab096ca2844efe91f8d6b3dad57dd919050565b8160ff166004036101ca57507ef8f605c92c8502c8fe83be1b83b24e3f67312a388f30cbadb5dee8974137c3919050565b8160ff166005036101fc57507f1adc043c99adbc0c86a60a36db0f661e2dd96f36ede322f954386d8935a0c5d9919050565b8160ff1660060361022e57507f2a1fedfa71da723ac3e9b35cef752fa1b647b2b737a23e91241cb7bdc419e3f4919050565b8160ff1660070361026057507f17fe1974543c4c4b228e1292f7e3200d31435fc910ee5a8c5cafd329cc4b256b919050565b8160ff1660080361029257507f0e84a586eb63a0eec0f1fe5785022441f0e29e4ae859c7ce1f5fc88a42ad2e6b919050565b8160ff166009036102c457507f193deb901f6eeb032e02e093280db17e373d4ff52bafda9215b46bb9b0a86f3e919050565b8160ff16600a036102f657507f1d10ca7b985697cb519565a5006c3f44b020b2edab9b7422ed15dc34532f9406919050565b8160ff16600b0361032857507f1dc200763555467a4e583e00badfdc1fb4d3d3f8f1cc81f31fd2f8b387776081919050565b8160ff16600c0361035a57507f203dd11fdba0ed13b20ca2d6952f3feb7461836a03512e0cccce8467b320b2f6919050565b8160ff16600d0361038c57507f0591af64e64a3e69caf23eee2bdea90885343a49f547ee9464e95d8d6267e4f7919050565b8160ff16600e036103be57507f2af572f1077a32f46dc8e307d43c0fa6753b400b2107325976b8df7380545ff6919050565b8160ff16600f036103f057507f043227ae4b70b1aacd04e35e6aaed7b56d91220c31e97aaf52e12a6a56984e52919050565b8160ff1660100361042257507f2976f1f6a91d83d4c528dad69ece6d3d91934b0e5657e915b360c8c4c2fb54e6919050565b8160ff1660110361045357507ee5c251c9e093658be0cd1b0df55b6f70f3d09146c1c8b4212a4ddcde700dbc919050565b8160ff1660120361048557507f0267cbbc1bc2f1c3e3073d2ee60df8cc0bfef39fe3cee735c9ad5c8ad30064d2919050565b8160ff166013036104b757507f2f356057bc56f67dbf159a0e8935022acd5e982dce9f4071adc43e4d57ce27e6919050565b8160ff166014036104e957507f273db68f52f12a9d8022ae524050064e42d4d1661c9bcce958acf89b5e8b127b919050565b8160ff1660150361051b57507f0496a18ad4cca81b7c98ceb197439ad925e0f7f62d69dfa42cf9574be77fe30f919050565b8160ff1660160361054d57507f24f89a3f943d421b2f3a554b65459f42b820ac09d6fd9d693df5f8ba732ab596919050565b8160ff1660170361057f57507f1b55bfd751c6807df36876cdce68034ab43210be2bc8afa8043c7f428604e7a7919050565b8160ff166018036105b157507f16d6595a398cf20f2489b90e958166f1e19c537c0c46e9b8ea5462391ee8f143919050565b8160ff166019036105e357507f0f01447ef8f621592474b678ed2fc404ebaf22a6fce15364bb4152a88c113613919050565b8160ff16601a0361061557507f026c2dffee48bacbc9d21cf90aa7c6e525ab01db6966a9e7e53b3d3f4d1f5a4d919050565b8160ff16601b0361064757507f234fe90732795745b2c504c791242a2bb193baa1cbeab57db9324b6bb9134817919050565b8160ff16601c0361067957507f23a8e0a7e60981c52ebb498c260d5bef4d7c65145d17128996a77c33a3262a7e919050565b8160ff16601d036106ab57507f24ee69d2565210c7027ff6fc2657ed029278bc79f41077fe3281ea5d5d8e80f9919050565b8160ff16601e036106dd57507f1de402fa32463bb2917b733aeef0197a49cacacd1fe860c3acc8cd3b65a30a68919050565b8160ff16601f0361070f57507f1d3015a0f6a7b3f754171d0540628107e50e25debceb16e0e33ae4205501896d919050565b8160ff1660200361074157507f264a260539342647256819046bae05bed903a8d19b3c90439d67317d5d881322919050565b604051639780f42960e01b815260040160405180910390fd5b60008060006060848603121561076f57600080fd5b835160ff8116811461078057600080fd5b6020850151604086015191945092506001600160a01b03811681146107a457600080fd5b809150509250925092565b60805161330d6107d86000396000818161023401528181610e6d0152611809015261330d6000f3fe60806040526004361061016e5760003560e01c806378d60cd7116100cb578063a6232a931161007f578063e06174e411610059578063e06174e4146103d8578063e500f504146103f8578063f2da1d411461040d57600080fd5b8063a6232a931461037d578063b08892d0146103ad578063b2316c33146103c257600080fd5b8063866ac658116100b0578063866ac6581461033357806387780df914610348578063a592bd691461036857600080fd5b806378d60cd7146102fe5780637a5537441461031e57600080fd5b8063555d75f0116101225780635706001611610107578063570600161461028c57806363bc7d32146102bc57806372082971146102de57600080fd5b8063555d75f0146102625780635688881f1461027757600080fd5b80633bb8d1b4116101535780633bb8d1b4146101c95780633fe3347a14610209578063484eb6521461022557600080fd5b806314a7737d1461017a5780631ba46cfd1461019c57600080fd5b3661017557005b600080fd5b34801561018657600080fd5b5061019a6101953660046128c3565b61042d565b005b3480156101a857600080fd5b5060005b6040516001600160a01b0390911681526020015b60405180910390f35b3480156101d557600080fd5b506101f96101e4366004612939565b60009081526002602052604090205460ff1690565b60405190151581526020016101c0565b34801561021557600080fd5b5060016040516101c09190612968565b34801561023157600080fd5b507f00000000000000000000000000000000000000000000000000000000000000005b6040519081526020016101c0565b34801561026e57600080fd5b50600454610254565b34801561028357600080fd5b50610254610a96565b34801561029857600080fd5b506101f96102a7366004612939565b60009081526001602052604090205460ff1690565b3480156102c857600080fd5b506102d1610aad565b6040516101c091906129cc565b3480156102ea57600080fd5b5061019a6102f9366004612b8d565b610b1f565b34801561030a57600080fd5b5061019a610319366004612d80565b61173e565b34801561032a57600080fd5b50600654610254565b34801561033f57600080fd5b506102d16118e2565b34801561035457600080fd5b50610254610363366004612939565b61198b565b34801561037457600080fd5b50610254600581565b34801561038957600080fd5b506101f9610398366004612939565b60009081526007602052604090205460ff1690565b3480156103b957600080fd5b506102546119ff565b3480156103ce57600080fd5b5061025460095481565b3480156103e457600080fd5b50600a546101ac906001600160a01b031681565b34801561040457600080fd5b50600554610254565b34801561041957600080fd5b50610254610428366004612e2b565b611a88565b6020818101516040805160a0810182523081523393810193845263ffffffff909216828201818152600480546060860190815260055460808701908152600a54955162039b1360e11b815287516001600160a01b039081169482019490945297518316602489015292516044880152516064870152905160848601529093911690620736269060a401602060405180830381865afa1580156104d3573d6000803e3d6000fd5b505050506040513d601f19601f820116820180604052508101906104f79190612e5e565b61052d576040517fff4e342300000000000000000000000000000000000000000000000000000000815260040160405180910390fd5b60055460408085015160009081526007602052205460ff16156105635760405163e2e1210360e01b815260040160405180910390fd5b600454846020015163ffffffff1611156105b2576040516314e8955b60e21b815260206004820152600a602482015269726f6c6c757053697a6560b01b60448201526064015b60405180910390fd5b60208401516105c79063ffffffff1682612e79565b15610602576040516314e8955b60e21b815260206004820152600a602482015269726f6c6c757053697a6560b01b60448201526064016105a9565b600a5460208501516040516305afd53360e31b815263ffffffff90911660048201526000916001600160a01b031690632d7ea998906024016040805180830381865afa158015610656573d6000803e3d6000fd5b505050506040513d601f19601f8201168201806040525081019061067a9190612e9b565b905080602001516106ac57602085015160405163f5735a5f60e01b815263ffffffff90911660048201526024016105a9565b60006106bc838760200151611a88565b90506000866020015163ffffffff1667ffffffffffffffff8111156106e3576106e36126cc565b60405190808252806020026020018201604052801561070c578160200160208202803683370190505b5090506000805b886020015163ffffffff168110156107ff5760006107318288612ef2565b60008181526003602090815260408083208151808301909252805480835260019091015492820192909252929350900361077e5760405163d3482f7b60e01b815260040160405180910390fd5b806000015185848151811061079557610795612f05565b6020026020010181815250508060200151846107b19190612ef2565b60008381526003602052604080822082815560010182905583519051929650917ffe6b097b46a78e08506a3143b6337c2505ba77df76fe05c3663a987395d634139190a25050600101610713565b50876020015163ffffffff166004600082825461081c9190612f1b565b9250508190555060007f30644e72e131a029b85045b68181585d2833e84879b9709143e1f593f0000001836040516020016108579190612f2e565b6040516020818303038152906040528051906020012060001c61087a9190612e79565b9050808960600151146108d0576040516314e8955b60e21b815260206004820152600860248201527f6c6561664861736800000000000000000000000000000000000000000000000060448201526064016105a9565b60408051600480825260a08201909252600091602082016080803683370190505090506008548160008151811061090957610909612f05565b60200260200101818152505089604001518160018151811061092d5761092d612f05565b602002602001018181525050818160028151811061094d5761094d612f05565b602002602001018181525050848160038151811061096d5761096d612f05565b602090810291909101015285518a5160405163c941764760e01b81526000926001600160a01b03169163c9417647916109ab91908690600401612f87565b6020604051808303816000875af11580156109ca573d6000803e3d6000fd5b505050506040513d601f19601f820116820180604052508101906109ee9190612e5e565b905080610a3e576040516314e8955b60e21b815260206004820152600560248201527f70726f6f6600000000000000000000000000000000000000000000000000000060448201526064016105a9565b8a6020015163ffffffff1660056000828254610a5a9190612ef2565b90915550506040808c015160088190556000908152600760205220805460ff19166001179055610a8984611b11565b5050505050505050505050565b6000600454600554610aa89190612ef2565b905090565b600a5460408051633044b79b60e21b815290516060926001600160a01b03169163c112de6c9160048083019260009291908290030181865afa158015610af7573d6000803e3d6000fd5b505050506040513d6000823e601f3d908101601f19168201604052610aa89190810190612ff9565b610b27611ba9565b6000610b37836040015151611bd3565b90506000610b498460e0015151611bd3565b600a54604051631dcdf73160e31b81523060048201529192506001600160a01b03169063ee6fb98890602401602060405180830381865afa158015610b92573d6000803e3d6000fd5b505050506040513d601f19601f82011682018060405250810190610bb69190612e5e565b8015610bc7575063ffffffff811615155b15610bf5576040516368975a4760e01b815263ffffffff8084166004830152821660248201526044016105a9565b60c084015115610caa576040805180820182523081523360208201908152600a549251635ee36ce960e01b815282516001600160a01b03908116600483015291518216602482015291921690635ee36ce990604401602060405180830381865afa158015610c67573d6000803e3d6000fd5b505050506040513d601f19601f82011682018060405250810190610c8b9190612e5e565b610ca85760405163324af8d960e11b815260040160405180910390fd5b505b600a546040516385e861eb60e01b815263ffffffff8085166004830152831660248201526000916001600160a01b0316906385e861eb906044016040805180830381865afa158015610d00573d6000803e3d6000fd5b505050506040513d601f19601f82011682018060405250810190610d249190612e9b565b90508060200151610d58576040516368975a4760e01b815263ffffffff8085166004830152831660248201526044016105a9565b8263ffffffff1685606001515114610db3576040516314e8955b60e21b815260206004820152601060248201527f736967486173686573206c656e6774680000000000000000000000000000000060448201526064016105a9565b8163ffffffff168561010001515114610e0f576040516314e8955b60e21b815260206004820152601460248201527f6f7574526f6c6c757046656573206c656e67746800000000000000000000000060448201526064016105a9565b8163ffffffff168561016001515114610e6b576040516314e8955b60e21b815260206004820152601860248201527f6f7574456e637279707465644e6f746573206c656e677468000000000000000060448201526064016105a9565b7f00000000000000000000000000000000000000000000000000000000000000008263ffffffff16600454600554610ea39190612ef2565b610ead9190612ef2565b1115610ecc57604051633b5ccb4360e21b815260040160405180910390fd5b600a5460405163df592f7d60e01b81523260048201526001600160a01b039091169063df592f7d90602401602060405180830381865afa158015610f14573d6000803e3d6000fd5b505050506040513d601f19601f82011682018060405250810190610f389190612e5e565b15610f5657604051632e70c0b160e01b815260040160405180910390fd5b600a5461012086015160405163df592f7d60e01b81526001600160a01b03918216600482015291169063df592f7d90602401602060405180830381865afa158015610fa5573d6000803e3d6000fd5b505050506040513d601f19601f82011682018060405250810190610fc99190612e5e565b15610fe757604051632e70c0b160e01b815260040160405180910390fd5b610ff8600563ffffffff851661308f565b856101a00151511461101d57604051633acf48bb60e21b815260040160405180910390fd5b6110278585611c08565b60006110348460026130a6565b63ffffffff16905060006110498560026130a6565b6110549060046130cc565b63ffffffff16905060006110698560026130a6565b6110799063ffffffff1683612ef2565b90506000600561108a8860026130cc565b63ffffffff1661109a919061308f565b6110a5836002612ef2565b6110af9190612ef2565b67ffffffffffffffff8111156110c7576110c76126cc565b6040519080825280602002602001820160405280156110f0578160200160208202803683370190505b506020808b015160009081526007909152604090205490915060ff16611142576040516314e8955b60e21b81526004016105a9906020808252600490820152631c9bdbdd60e21b604082015260600190565b88602001518160008151811061115a5761115a612f05565b602090810291909101015260006111728860016130cc565b63ffffffff16905060005b8863ffffffff168110156112745760008b6040015182815181106111a3576111a3612f05565b6020908102919091018101516000818152600290925260409091205490915060ff16156111fc576040517fff556e2000000000000000000000000000000000000000000000000000000000815260040160405180910390fd5b8084611209846001612ef2565b8151811061121957611219612f05565b6020026020010181815250508b60600151828151811061123b5761123b612f05565b60200260200101518484846112509190612ef2565b8151811061126057611260612f05565b60209081029190910101525060010161117d565b5060808a015182611286876001612ef2565b8151811061129657611296612f05565b602090810291909101015260a08a0151826112b2876002612ef2565b815181106112c2576112c2612f05565b602090810291909101015260c08a0151826112de876003612ef2565b815181106112ee576112ee612f05565b6020908102919091010152600061130b63ffffffff891686612ef2565b905060006113176119ff565b905060005b8963ffffffff1681101561148557600160008e60e00151838151811061134457611344612f05565b60209081029190910181015182528101919091526040016000205460ff16156113b05760405163bee3611160e01b815260206004820152600a60248201527f636f6d6d69746d656e740000000000000000000000000000000000000000000060448201526064016105a9565b818d610100015182815181106113c8576113c8612f05565b602002602001015110156113ef5760405163784f02bd60e11b815260040160405180910390fd5b8c60e00151818151811061140557611405612f05565b602002602001015185888361141a9190612ef2565b8151811061142a5761142a612f05565b6020026020010181815250508c6101000151818151811061144d5761144d612f05565b60200260200101518584836114629190612ef2565b8151811061147257611472612f05565b602090810291909101015260010161131c565b506114918c8587611de5565b87518c5160405163c941764760e01b81526001600160a01b039092169163c9417647916114c2918890600401612f87565b6020604051808303816000875af11580156114e1573d6000803e3d6000fd5b505050506040513d601f19601f820116820180604052508101906115059190612e5e565b611552576040516314e8955b60e21b815260206004820152600e60248201527f7472616e736163742070726f6f6600000000000000000000000000000000000060448201526064016105a9565b60005b8a63ffffffff1681101561161c576001600260008f60400151848151811061157f5761157f612f05565b6020026020010151815260200190815260200160002060006101000a81548160ff0219169083151502179055506001600660008282546115bf9190612ef2565b909155505060408d01518051829081106115db576115db612f05565b60200260200101518d602001517f3c2372ab6130817bd6b8fc6dbaecae947e84201b49535d358debaa6c34c23ecf60405160405180910390a3600101611555565b5060005b8963ffffffff168110156116e25760018060008f60e00151848151811061164957611649612f05565b6020026020010151815260200190815260200160002060006101000a81548160ff0219169083151502179055506116da8d60e00151828151811061168f5761168f612f05565b60200260200101518e610100015183815181106116ae576116ae612f05565b60200260200101518f610160015184815181106116cd576116cd612f05565b602002602001015161204f565b600101611620565b5060a08c015115611700576117008c61012001518d60a001516120ee565b60c08c01511561171d5761171d8c61014001518d60c001516120ee565b6117268c612196565b5050505050505050505061173a6001600055565b5050565b600a546040516341fb697960e01b81523360048201526000916001600160a01b0316906341fb697990602401602060405180830381865afa158015611787573d6000803e3d6000fd5b505050506040513d601f19601f820116820180604052508101906117ab91906130e8565b90506001600160a01b03811630146117d657604051635335a04560e01b815260040160405180910390fd5b60006117e06119ff565b905080846060015110156118075760405163784f02bd60e11b815260040160405180910390fd5b7f00000000000000000000000000000000000000000000000000000000000000006004546005546118389190612ef2565b1061185657604051633b5ccb4360e21b815260040160405180910390fd5b60208085015160009081526001909152604090205460ff161561188c5760405163e38cd14d60e01b815260040160405180910390fd5b60208085018051600090815260019283905260409020805460ff191690921790915551606085015160808601516118c492919061204f565b6040840151156118dc576118dc83856040015161242a565b50505050565b6060600060045467ffffffffffffffff811115611901576119016126cc565b60405190808252806020026020018201604052801561192a578160200160208202803683370190505b50905060005b6004548110156119855760008160055461194a9190612ef2565b60008181526003602052604090205484519192509084908490811061197157611971612f05565b602090810291909101015250600101611930565b50919050565b600a5460405163dbda082960e01b8152600481018390526000916001600160a01b03169063dbda082990602401602060405180830381865afa1580156119d5573d6000803e3d6000fd5b505050506040513d601f19601f820116820180604052508101906119f99190613105565b92915050565b600a5460405163c3c4bd0b60e01b815230600482015260009182916001600160a01b039091169063c3c4bd0b90602401602060405180830381865afa158015611a4c573d6000803e3d6000fd5b505050506040513d601f19601f82011682018060405250810190611a709190613105565b90508015611a7e5780611a82565b6009545b91505090565b60006101008263ffffffff1610611aae5760088263ffffffff16901c9150600883901c92505b60108263ffffffff1610611ad15760048263ffffffff16901c9150600483901c92505b60048263ffffffff1610611af45760028263ffffffff16901c9150600283901c92505b60028263ffffffff1610611b0a57600183901c92505b5090919050565b604051600090339083908381818185875af1925050503d8060008114611b53576040519150601f19603f3d011682016040523d82523d6000602084013e611b58565b606091505b505090508061173a5760405162461bcd60e51b815260206004820152601a60248201527f726f6c6c757020666565207472616e73666572206661696c656400000000000060448201526064016105a9565b600260005403611bcc57604051633ee5aeb560e01b815260040160405180910390fd5b6002600055565b600063ffffffff821115611c04576040516306dfcc6560e41b815260206004820152602481018390526044016105a9565b5090565b6101608201515160038110611c3057604051633fb1945d60e11b815260040160405180910390fd5b606081600003611c87576101208401516101408501516040516bffffffffffffffffffffffff19606093841b811660208301529190921b1660348201526048015b6040516020818303038152906040529050611d3e565b81600103611ccd57836101200151846101400151856101600151600081518110611cb357611cb3612f05565b6020026020010151604051602001611c7193929190613142565b836101200151846101400151856101600151600081518110611cf157611cf1612f05565b6020026020010151866101600151600181518110611d1157611d11612f05565b6020026020010151604051602001611d2c9493929190613193565b60405160208183030381529060405290505b805160208201207f19457468657265756d205369676e6564204d6573736167653a0a3332000000006000908152601c91909152603c9020611d7f81856124cd565b6001600160a01b031660001b856080015114611dde576040516314e8955b60e21b815260206004820152600960248201527f7369676e6174757265000000000000000000000000000000000000000000000060448201526064016105a9565b5050505050565b6101808301516040805180820182526000808252602091820152815180830190925260ff83901c8083526001600160ff1b03909316908201528351909190849084908110611e3557611e35612f05565b602002602001018181525050806020015183836001611e549190612ef2565b81518110611e6457611e64612f05565b6020908102919091010152600a5460408051633044b79b60e21b815290516005926000926001600160a01b039091169163c112de6c9160048082019286929091908290030181865afa158015611ebe573d6000803e3d6000fd5b505050506040513d6000823e601f3d908101601f19168201604052611ee69190810190612ff9565b90506000611ef5856002612ef2565b90506000611f038483612ef2565b90506000611f1285600261308f565b611f1c9084612ef2565b905060005b85811015611fe2576000611f80868381518110611f4057611f40612f05565b60200260200101516040805180820182526000808252602091820152815180830190925260ff83901c82526001600160ff1b039092169181019190915290565b80519091508a611f908488612ef2565b81518110611fa057611fa0612f05565b60200260200101818152505080602001518a8386611fbe9190612ef2565b81518110611fce57611fce612f05565b602090810291909101015250600101611f21565b5060005b896101a001515181101561204357896101a00151818151811061200b5761200b612f05565b60200260200101518982846120209190612ef2565b8151811061203057612030612f05565b6020908102919091010152600101611fe6565b50505050505050505050565b60006005546004546120619190612ef2565b6040805180820182528681526020808201878152600085815260039092529281209151825591516001918201556004805493945090929091906120a5908490612ef2565b92505081905550837ff533f9705aac5020e21695ea3553ac7b6881070d2b6900ab2b1e3050304b5bf98483856040516120e0939291906131fa565b60405180910390a250505050565b6000826001600160a01b03168260405160006040518083038185875af1925050503d806000811461213b576040519150601f19603f3d011682016040523d82523d6000602084013e612140565b606091505b50509050806121915760405162461bcd60e51b815260206004820152600f60248201527f7769746864726177206661696c6564000000000000000000000000000000000060448201526064016105a9565b505050565b600a5460408051633044b79b60e21b815290516005926000926001600160a01b039091169163c112de6c9160048082019286929091908290030181865afa1580156121e5573d6000803e3d6000fd5b505050506040513d6000823e601f3d908101601f1916820160405261220d9190810190612ff9565b9050600082846040015151612222919061308f565b905060008167ffffffffffffffff81111561223f5761223f6126cc565b60405190808252806020026020018201604052801561229e57816020015b61228b6040518060600160405280600067ffffffffffffffff16815260200160008152602001600081525090565b81526020019060019003908161225d5790505b5090506000805b8660400151518163ffffffff1610156123ea5760005b868163ffffffff1610156123d7578063ffffffff1660208363ffffffff1667ffffffffffffffff16901b178484815181106122f8576122f8612f05565b602090810291909101015167ffffffffffffffff90911690528551869063ffffffff831690811061232b5761232b612f05565b602002602001015184848151811061234557612345612f05565b60200260200101516020018181525050876101a001518163ffffffff16888463ffffffff16612374919061308f565b61237e9190612ef2565b8151811061238e5761238e612f05565b60200260200101518484815181106123a8576123a8612f05565b602090810291909101015160400152826123c18161323b565b93505080806123cf90613254565b9150506122bb565b50806123e281613254565b9150506122a5565b507f6af07ebcb33931abd348e785f70c6d259390cf799191f8c99124245b96e1a6138260405161241a9190613279565b60405180910390a1505050505050565b6000826001600160a01b03168260405160006040518083038185875af1925050503d8060008114612477576040519150601f19603f3d011682016040523d82523d6000602084013e61247c565b606091505b50509050806121915760405162461bcd60e51b815260206004820152601c60248201527f6578656375746f7220666565207472616e73666572206661696c65640000000060448201526064016105a9565b6000806000806124dd86866124f7565b9250925092506124ed8282612544565b5090949350505050565b600080600083516041036125315760208401516040850151606086015160001a612523888285856125fd565b95509550955050505061253d565b50508151600091506002905b9250925092565b600082600381111561255857612558612952565b03612561575050565b600182600381111561257557612575612952565b036125935760405163f645eedf60e01b815260040160405180910390fd5b60028260038111156125a7576125a7612952565b036125c85760405163fce698f760e01b8152600481018290526024016105a9565b60038260038111156125dc576125dc612952565b0361173a576040516335e2f38360e21b8152600481018290526024016105a9565b600080807f7fffffffffffffffffffffffffffffff5d576e7357a4501ddfe92f46681b20a084111561263857506000915060039050826126c2565b604080516000808252602082018084528a905260ff891692820192909252606081018790526080810186905260019060a0016020604051602081039080840390855afa15801561268c573d6000803e3d6000fd5b5050604051601f1901519150506001600160a01b0381166126b8575060009250600191508290506126c2565b9250600091508190505b9450945094915050565b634e487b7160e01b600052604160045260246000fd5b6040805190810167ffffffffffffffff81118282101715612705576127056126cc565b60405290565b6040516101c0810167ffffffffffffffff81118282101715612705576127056126cc565b60405160a0810167ffffffffffffffff81118282101715612705576127056126cc565b604051601f8201601f1916810167ffffffffffffffff8111828210171561277b5761277b6126cc565b604052919050565b60006040828403121561279557600080fd5b61279d6126e2565b823581526020928301359281019290925250919050565b600082601f8301126127c557600080fd5b6127cd6126e2565b8060408401858111156127df57600080fd5b845b818110156127f95780358452602093840193016127e1565b509095945050505050565b600081830361010081121561281857600080fd5b6040516060810167ffffffffffffffff8111828210171561283b5761283b6126cc565b60405291508161284b8585612783565b81526080603f198301121561285f57600080fd5b6128676126e2565b915061287685604086016127b4565b825261288585608086016127b4565b602083015281602082015261289d8560c08601612783565b6040820152505092915050565b803563ffffffff811681146128be57600080fd5b919050565b60006101608284031280156128d757600080fd5b506040516080810167ffffffffffffffff811182821017156128fb576128fb6126cc565b6040526129088484612804565b815261291761010084016128aa565b6020820152610120830135604082015261014090920135606083015250919050565b60006020828403121561294b57600080fd5b5035919050565b634e487b7160e01b600052602160045260246000fd5b602081016002831061298a57634e487b7160e01b600052602160045260246000fd5b91905290565b600081518084526020840193506020830160005b828110156129c25781518652602095860195909101906001016129a4565b5093949350505050565b6020815260006129df6020830184612990565b9392505050565b600067ffffffffffffffff821115612a0057612a006126cc565b5060051b60200190565b600082601f830112612a1b57600080fd5b8135612a2e612a29826129e6565b612752565b8082825260208201915060208360051b860101925085831115612a5057600080fd5b602085015b83811015612a6d578035835260209283019201612a55565b5095945050505050565b6001600160a01b0381168114612a8c57600080fd5b50565b80356128be81612a77565b600082601f830112612aab57600080fd5b813567ffffffffffffffff811115612ac557612ac56126cc565b612ad8601f8201601f1916602001612752565b818152846020838601011115612aed57600080fd5b816020850160208301376000918101602001919091529392505050565b600082601f830112612b1b57600080fd5b8135612b29612a29826129e6565b8082825260208201915060208360051b860101925085831115612b4b57600080fd5b602085015b83811015612a6d57803567ffffffffffffffff811115612b6f57600080fd5b612b7e886020838a0101612a9a565b84525060209283019201612b50565b60008060408385031215612ba057600080fd5b823567ffffffffffffffff811115612bb757600080fd5b83016102a08186031215612bca57600080fd5b612bd261270b565b612bdc8683612804565b8152610100820135602082015261012082013567ffffffffffffffff811115612c0457600080fd5b612c1087828501612a0a565b60408301525061014082013567ffffffffffffffff811115612c3157600080fd5b612c3d87828501612a0a565b606083015250610160820135608082015261018082013560a08201526101a082013560c08201526101c082013567ffffffffffffffff811115612c7f57600080fd5b612c8b87828501612a0a565b60e0830152506101e082013567ffffffffffffffff811115612cac57600080fd5b612cb887828501612a0a565b61010083015250612ccc6102008301612a8f565b610120820152612cdf6102208301612a8f565b61014082015261024082013567ffffffffffffffff811115612d0057600080fd5b612d0c87828501612b0a565b6101608301525061026082013561018082015261028082013567ffffffffffffffff811115612d3a57600080fd5b612d4687828501612a0a565b6101a083015250925050602083013567ffffffffffffffff811115612d6a57600080fd5b612d7685828601612a9a565b9150509250929050565b60008060408385031215612d9357600080fd5b823567ffffffffffffffff811115612daa57600080fd5b830160a08186031215612dbc57600080fd5b612dc461272f565b81358152602080830135908201526040808301359082015260608083013590820152608082013567ffffffffffffffff811115612e0057600080fd5b612e0c87828501612a9a565b6080830152509250612e22905060208401612a8f565b90509250929050565b60008060408385031215612e3e57600080fd5b82359150612e22602084016128aa565b805180151581146128be57600080fd5b600060208284031215612e7057600080fd5b6129df82612e4e565b600082612e9657634e487b7160e01b600052601260045260246000fd5b500690565b60006040828403128015612eae57600080fd5b50612eb76126e2565b8251612ec281612a77565b8152612ed060208401612e4e565b60208201529392505050565b634e487b7160e01b600052601160045260246000fd5b808201808211156119f9576119f9612edc565b634e487b7160e01b600052603260045260246000fd5b818103818111156119f9576119f9612edc565b8151600090829060208501835b82811015612f59578151845260209384019390910190600101612f3b565b509195945050505050565b8060005b60028110156118dc578151845260209384019390910190600101612f68565b612f9c81845180518252602090810151910152565b60006020840151612fb1604084018251612f64565b60200151612fc26080840182612f64565b506040840151805160c0840152602081015160e084015250610120610100830152612ff1610120830184612990565b949350505050565b60006020828403121561300b57600080fd5b815167ffffffffffffffff81111561302257600080fd5b8201601f8101841361303357600080fd5b8051613041612a29826129e6565b8082825260208201915060208360051b85010192508683111561306357600080fd5b6020840193505b8284101561308557835182526020938401939091019061306a565b9695505050505050565b80820281158282048414176119f9576119f9612edc565b63ffffffff81811683821602908116908181146130c5576130c5612edc565b5092915050565b63ffffffff81811683821601908111156119f9576119f9612edc565b6000602082840312156130fa57600080fd5b81516129df81612a77565b60006020828403121561311757600080fd5b5051919050565b60005b83811015613139578181015183820152602001613121565b50506000910152565b6bffffffffffffffffffffffff198460601b1681526bffffffffffffffffffffffff198360601b1660148201526000825161318481602885016020870161311e565b91909101602801949350505050565b6bffffffffffffffffffffffff198560601b1681526bffffffffffffffffffffffff198460601b166014820152600083516131d581602885016020880161311e565b8351908301906131ec81602884016020880161311e565b016028019695505050505050565b838152826020820152606060408201526000825180606084015261322581608085016020870161311e565b601f01601f191691909101608001949350505050565b60006001820161324d5761324d612edc565b5060010190565b600063ffffffff821663ffffffff810361327057613270612edc565b60010192915050565b602080825282518282018190526000918401906040840190835b818110156127f957835167ffffffffffffffff815116845260208101516020850152604081015160408501525060608301925060208401935060018101905061329356fea2646970667358221220247c9206530dc17ac26bf9a6c82c0188434bb855c4ce9052526178866154afa564736f6c634300081a0033",
  "linkReferences": {},
  "deployedLinkReferences": {}
}