{
  "_format": "hh-sol-artifact-1",
  "contractName": "CommitmentPoolMain",
  "sourceName": "contracts/core/commitment/CommitmentPoolMain.sol",
  "abi": [
    {
      "inputs": [
        {
          "internalType": "uint8",
          "name": "_treeHeight",
          "type": "uint8"
        }
      ],
      "stateMutability": "nonpayable",
      "type": "constructor"
    },
    {
      "inputs": [],
      "name": "AuditorIndexError",
      "type": "error"
    },
    {
      "inputs": [],
      "name": "AuditorNotesLengthError",
      "type": "error"
    },
    {
      "inputs": [],
      "name": "AuditorPublicKeyNotChanged",
      "type": "error"
    },
    {
      "inputs": [],
      "name": "CommitmentHasBeenSubmitted",
      "type": "error"
    },
    {
      "inputs": [
        {
          "internalType": "string",
          "name": "param",
          "type": "string"
        }
      ],
      "name": "Duplicated",
      "type": "error"
    },
    {
      "inputs": [],
      "name": "IndexOutOfBound",
      "type": "error"
    },
    {
      "inputs": [
        {
          "internalType": "string",
          "name": "param",
          "type": "string"
        }
      ],
      "name": "Invalid",
      "type": "error"
    },
    {
      "inputs": [],
      "name": "NewRootIsDuplicated",
      "type": "error"
    },
    {
      "inputs": [],
      "name": "NotChanged",
      "type": "error"
    },
    {
      "inputs": [],
      "name": "NoteHasBeenSpent",
      "type": "error"
    },
    {
      "inputs": [],
      "name": "NumInputsGreaterThanZero",
      "type": "error"
    },
    {
      "inputs": [],
      "name": "OnlyOperator",
      "type": "error"
    },
    {
      "inputs": [],
      "name": "OnlyWhitelistedRoller",
      "type": "error"
    },
    {
      "inputs": [],
      "name": "OnlyWhitelistedSender",
      "type": "error"
    },
    {
      "inputs": [],
      "name": "OutputNotesLessThanThree",
      "type": "error"
    },
    {
      "inputs": [],
      "name": "RollupFeeToFew",
      "type": "error"
    },
    {
      "inputs": [],
      "name": "RollupSizeNotPowerOfTwo",
      "type": "error"
    },
    {
      "inputs": [],
      "name": "SanctionedAddress",
      "type": "error"
    },
    {
      "inputs": [],
      "name": "TreeHeightLessThanZero",
      "type": "error"
    },
    {
      "inputs": [],
      "name": "TreeHeightOutOfBounds",
      "type": "error"
    },
    {
      "inputs": [],
      "name": "TreeIsFull",
      "type": "error"
    },
    {
      "inputs": [],
      "name": "VerifierUpdatesHasBeenDisabled",
      "type": "error"
    },
    {
      "anonymous": false,
      "inputs": [
        {
          "indexed": true,
          "internalType": "uint256",
          "name": "index",
          "type": "uint256"
        },
        {
          "indexed": false,
          "internalType": "uint256",
          "name": "publicKey",
          "type": "uint256"
        }
      ],
      "name": "AuditorPublicKey",
      "type": "event"
    },
    {
      "anonymous": false,
      "inputs": [
        {
          "indexed": true,
          "internalType": "uint256",
          "name": "commitment",
          "type": "uint256"
        }
      ],
      "name": "CommitmentIncluded",
      "type": "event"
    },
    {
      "anonymous": false,
      "inputs": [
        {
          "indexed": true,
          "internalType": "uint256",
          "name": "commitment",
          "type": "uint256"
        },
        {
          "indexed": false,
          "internalType": "uint256",
          "name": "rollupFee",
          "type": "uint256"
        },
        {
          "indexed": false,
          "internalType": "uint256",
          "name": "leafIndex",
          "type": "uint256"
        },
        {
          "indexed": false,
          "internalType": "bytes",
          "name": "encryptedNote",
          "type": "bytes"
        }
      ],
      "name": "CommitmentQueued",
      "type": "event"
    },
    {
      "anonymous": false,
      "inputs": [
        {
          "indexed": true,
          "internalType": "uint256",
          "name": "rootHash",
          "type": "uint256"
        },
        {
          "indexed": true,
          "internalType": "uint256",
          "name": "serialNumber",
          "type": "uint256"
        }
      ],
      "name": "CommitmentSpent",
      "type": "event"
    },
    {
      "anonymous": false,
      "inputs": [
        {
          "indexed": false,
          "internalType": "uint64",
          "name": "id",
          "type": "uint64"
        },
        {
          "indexed": false,
          "internalType": "uint256",
          "name": "auditorPublicKey",
          "type": "uint256"
        },
        {
          "indexed": false,
          "internalType": "uint256",
          "name": "encryptedAuditorNote",
          "type": "uint256"
        }
      ],
      "name": "EncryptedAuditorNote",
      "type": "event"
    },
    {
      "anonymous": false,
      "inputs": [
        {
          "components": [
            {
              "internalType": "uint64",
              "name": "id",
              "type": "uint64"
            },
            {
              "internalType": "uint256",
              "name": "publicKey",
              "type": "uint256"
            },
            {
              "internalType": "uint256",
              "name": "note",
              "type": "uint256"
            }
          ],
          "indexed": false,
          "internalType": "struct CommitmentPool.AuditorNote[]",
          "name": "notes",
          "type": "tuple[]"
        }
      ],
      "name": "EncryptedAuditorNotes",
      "type": "event"
    },
    {
      "anonymous": false,
      "inputs": [
        {
          "indexed": true,
          "internalType": "address",
          "name": "operator",
          "type": "address"
        }
      ],
      "name": "OperatorChanged",
      "type": "event"
    },
    {
      "anonymous": false,
      "inputs": [
        {
          "indexed": false,
          "internalType": "bool",
          "name": "state",
          "type": "bool"
        }
      ],
      "name": "RollupWhitelistDisabled",
      "type": "event"
    },
    {
      "anonymous": false,
      "inputs": [
        {
          "indexed": false,
          "internalType": "bool",
          "name": "state",
          "type": "bool"
        }
      ],
      "name": "SanctionsCheck",
      "type": "event"
    },
    {
      "anonymous": false,
      "inputs": [
        {
          "indexed": false,
          "internalType": "contract ISanctionsList",
          "name": "sanctions",
          "type": "address"
        }
      ],
      "name": "SanctionsList",
      "type": "event"
    },
    {
      "anonymous": false,
      "inputs": [
        {
          "indexed": false,
          "internalType": "bool",
          "name": "state",
          "type": "bool"
        }
      ],
      "name": "VerifierUpdateDisabled",
      "type": "event"
    },
    {
      "inputs": [
        {
          "internalType": "uint256",
          "name": "_fullPath",
          "type": "uint256"
        },
        {
          "internalType": "uint32",
          "name": "_rollupSize",
          "type": "uint32"
        }
      ],
      "name": "_pathIndices",
      "outputs": [
        {
          "internalType": "uint256",
          "name": "",
          "type": "uint256"
        }
      ],
      "stateMutability": "pure",
      "type": "function"
    },
    {
      "inputs": [
        {
          "internalType": "address",
          "name": "_actor",
          "type": "address"
        }
      ],
      "name": "addEnqueueWhitelist",
      "outputs": [],
      "stateMutability": "nonpayable",
      "type": "function"
    },
    {
      "inputs": [
        {
          "internalType": "address",
          "name": "_roller",
          "type": "address"
        }
      ],
      "name": "addRollupWhitelist",
      "outputs": [],
      "stateMutability": "nonpayable",
      "type": "function"
    },
    {
      "inputs": [],
      "name": "assetType",
      "outputs": [
        {
          "internalType": "enum AssetPool.AssetType",
          "name": "",
          "type": "uint8"
        }
      ],
      "stateMutability": "pure",
      "type": "function"
    },
    {
      "inputs": [],
      "name": "auditorCount",
      "outputs": [
        {
          "internalType": "uint256",
          "name": "",
          "type": "uint256"
        }
      ],
      "stateMutability": "view",
      "type": "function"
    },
    {
      "inputs": [
        {
          "internalType": "address",
          "name": "_newOperator",
          "type": "address"
        }
      ],
      "name": "changeOperator",
      "outputs": [],
      "stateMutability": "nonpayable",
      "type": "function"
    },
    {
      "inputs": [
        {
          "internalType": "uint32",
          "name": "_rollupSize",
          "type": "uint32"
        }
      ],
      "name": "disableRollupVerifier",
      "outputs": [],
      "stateMutability": "nonpayable",
      "type": "function"
    },
    {
      "inputs": [],
      "name": "disableSanctionsCheck",
      "outputs": [],
      "stateMutability": "nonpayable",
      "type": "function"
    },
    {
      "inputs": [
        {
          "internalType": "uint32",
          "name": "_numInputs",
          "type": "uint32"
        },
        {
          "internalType": "uint32",
          "name": "_numOutputs",
          "type": "uint32"
        }
      ],
      "name": "disableTransactVerifier",
      "outputs": [],
      "stateMutability": "nonpayable",
      "type": "function"
    },
    {
      "inputs": [
        {
          "internalType": "uint32",
          "name": "_rollupSize",
          "type": "uint32"
        },
        {
          "internalType": "contract IVerifier",
          "name": "_rollupVerifier",
          "type": "address"
        }
      ],
      "name": "enableRollupVerifier",
      "outputs": [],
      "stateMutability": "nonpayable",
      "type": "function"
    },
    {
      "inputs": [],
      "name": "enableSanctionsCheck",
      "outputs": [],
      "stateMutability": "nonpayable",
      "type": "function"
    },
    {
      "inputs": [
        {
          "internalType": "uint32",
          "name": "_numInputs",
          "type": "uint32"
        },
        {
          "internalType": "uint32",
          "name": "_numOutputs",
          "type": "uint32"
        },
        {
          "internalType": "contract IVerifier",
          "name": "_transactVerifier",
          "type": "address"
        }
      ],
      "name": "enableTransactVerifier",
      "outputs": [],
      "stateMutability": "nonpayable",
      "type": "function"
    },
    {
      "inputs": [
        {
          "components": [
            {
              "internalType": "uint256",
              "name": "amount",
              "type": "uint256"
            },
            {
              "internalType": "uint256",
              "name": "commitment",
              "type": "uint256"
            },
            {
              "internalType": "uint256",
              "name": "executorFee",
              "type": "uint256"
            },
            {
              "internalType": "uint256",
              "name": "rollupFee",
              "type": "uint256"
            },
            {
              "internalType": "bytes",
              "name": "encryptedNote",
              "type": "bytes"
            }
          ],
          "internalType": "struct ICommitmentPool.CommitmentRequest",
          "name": "_request",
          "type": "tuple"
        },
        {
          "internalType": "address",
          "name": "_executor",
          "type": "address"
        }
      ],
      "name": "enqueue",
      "outputs": [],
      "stateMutability": "nonpayable",
      "type": "function"
    },
    {
      "inputs": [],
      "name": "getAllAuditorPublicKeys",
      "outputs": [
        {
          "internalType": "uint256[]",
          "name": "",
          "type": "uint256[]"
        }
      ],
      "stateMutability": "view",
      "type": "function"
    },
    {
      "inputs": [
        {
          "internalType": "uint256",
          "name": "_index",
          "type": "uint256"
        }
      ],
      "name": "getAuditorPublicKey",
      "outputs": [
        {
          "internalType": "uint256",
          "name": "",
          "type": "uint256"
        }
      ],
      "stateMutability": "view",
      "type": "function"
    },
    {
      "inputs": [],
      "name": "getCommitmentCount",
      "outputs": [
        {
          "internalType": "uint256",
          "name": "",
          "type": "uint256"
        }
      ],
      "stateMutability": "view",
      "type": "function"
    },
    {
      "inputs": [],
      "name": "getCommitmentIncludedCount",
      "outputs": [
        {
          "internalType": "uint256",
          "name": "",
          "type": "uint256"
        }
      ],
      "stateMutability": "view",
      "type": "function"
    },
    {
      "inputs": [],
      "name": "getCommitmentQueuedCount",
      "outputs": [
        {
          "internalType": "uint256",
          "name": "",
          "type": "uint256"
        }
      ],
      "stateMutability": "view",
      "type": "function"
    },
    {
      "inputs": [],
      "name": "getMinRollupFee",
      "outputs": [
        {
          "internalType": "uint256",
          "name": "",
          "type": "uint256"
        }
      ],
      "stateMutability": "view",
      "type": "function"
    },
    {
      "inputs": [],
      "name": "getNullifierCount",
      "outputs": [
        {
          "internalType": "uint256",
          "name": "",
          "type": "uint256"
        }
      ],
      "stateMutability": "view",
      "type": "function"
    },
    {
      "inputs": [],
      "name": "getQueuedCommitments",
      "outputs": [
        {
          "internalType": "uint256[]",
          "name": "",
          "type": "uint256[]"
        }
      ],
      "stateMutability": "view",
      "type": "function"
    },
    {
      "inputs": [],
      "name": "getTreeCapacity",
      "outputs": [
        {
          "internalType": "uint256",
          "name": "",
          "type": "uint256"
        }
      ],
      "stateMutability": "view",
      "type": "function"
    },
    {
      "inputs": [
        {
          "internalType": "uint256",
          "name": "_commitment",
          "type": "uint256"
        }
      ],
      "name": "isHistoricCommitment",
      "outputs": [
        {
          "internalType": "bool",
          "name": "",
          "type": "bool"
        }
      ],
      "stateMutability": "view",
      "type": "function"
    },
    {
      "inputs": [
        {
          "internalType": "uint256",
          "name": "root",
          "type": "uint256"
        }
      ],
      "name": "isKnownRoot",
      "outputs": [
        {
          "internalType": "bool",
          "name": "",
          "type": "bool"
        }
      ],
      "stateMutability": "view",
      "type": "function"
    },
    {
      "inputs": [],
      "name": "isRollupWhitelistDisabled",
      "outputs": [
        {
          "internalType": "bool",
          "name": "",
          "type": "bool"
        }
      ],
      "stateMutability": "view",
      "type": "function"
    },
    {
      "inputs": [
        {
          "internalType": "uint256",
          "name": "_serialNumber",
          "type": "uint256"
        }
      ],
      "name": "isSpentSerialNumber",
      "outputs": [
        {
          "internalType": "bool",
          "name": "",
          "type": "bool"
        }
      ],
      "stateMutability": "view",
      "type": "function"
    },
    {
      "inputs": [],
      "name": "isVerifierUpdateDisabled",
      "outputs": [
        {
          "internalType": "bool",
          "name": "",
          "type": "bool"
        }
      ],
      "stateMutability": "view",
      "type": "function"
    },
    {
      "inputs": [
        {
          "internalType": "address",
          "name": "_actor",
          "type": "address"
        }
      ],
      "name": "removeEnqueueWhitelist",
      "outputs": [],
      "stateMutability": "nonpayable",
      "type": "function"
    },
    {
      "inputs": [
        {
          "internalType": "address",
          "name": "_roller",
          "type": "address"
        }
      ],
      "name": "removeRollupWhitelist",
      "outputs": [],
      "stateMutability": "nonpayable",
      "type": "function"
    },
    {
      "inputs": [
        {
          "components": [
            {
              "components": [
                {
                  "components": [
                    {
                      "internalType": "uint256",
                      "name": "X",
                      "type": "uint256"
                    },
                    {
                      "internalType": "uint256",
                      "name": "Y",
                      "type": "uint256"
                    }
                  ],
                  "internalType": "struct IVerifier.G1Point",
                  "name": "a",
                  "type": "tuple"
                },
                {
                  "components": [
                    {
                      "internalType": "uint256[2]",
                      "name": "X",
                      "type": "uint256[2]"
                    },
                    {
                      "internalType": "uint256[2]",
                      "name": "Y",
                      "type": "uint256[2]"
                    }
                  ],
                  "internalType": "struct IVerifier.G2Point",
                  "name": "b",
                  "type": "tuple"
                },
                {
                  "components": [
                    {
                      "internalType": "uint256",
                      "name": "X",
                      "type": "uint256"
                    },
                    {
                      "internalType": "uint256",
                      "name": "Y",
                      "type": "uint256"
                    }
                  ],
                  "internalType": "struct IVerifier.G1Point",
                  "name": "c",
                  "type": "tuple"
                }
              ],
              "internalType": "struct IVerifier.Proof",
              "name": "proof",
              "type": "tuple"
            },
            {
              "internalType": "uint32",
              "name": "rollupSize",
              "type": "uint32"
            },
            {
              "internalType": "uint256",
              "name": "newRoot",
              "type": "uint256"
            },
            {
              "internalType": "uint256",
              "name": "leafHash",
              "type": "uint256"
            }
          ],
          "internalType": "struct ICommitmentPool.RollupRequest",
          "name": "_request",
          "type": "tuple"
        }
      ],
      "name": "rollup",
      "outputs": [],
      "stateMutability": "nonpayable",
      "type": "function"
    },
    {
      "inputs": [],
      "name": "sanctionsCheck",
      "outputs": [
        {
          "internalType": "bool",
          "name": "",
          "type": "bool"
        }
      ],
      "stateMutability": "view",
      "type": "function"
    },
    {
      "inputs": [],
      "name": "sanctionsList",
      "outputs": [
        {
          "internalType": "contract ISanctionsList",
          "name": "",
          "type": "address"
        }
      ],
      "stateMutability": "view",
      "type": "function"
    },
    {
      "inputs": [
        {
          "internalType": "uint256",
          "name": "_minRollupFee",
          "type": "uint256"
        }
      ],
      "name": "setMinRollupFee",
      "outputs": [],
      "stateMutability": "nonpayable",
      "type": "function"
    },
    {
      "inputs": [
        {
          "internalType": "bool",
          "name": "_state",
          "type": "bool"
        }
      ],
      "name": "setRollupWhitelistDisabled",
      "outputs": [],
      "stateMutability": "nonpayable",
      "type": "function"
    },
    {
      "inputs": [
        {
          "internalType": "bool",
          "name": "_state",
          "type": "bool"
        }
      ],
      "name": "setVerifierUpdateDisabled",
      "outputs": [],
      "stateMutability": "nonpayable",
      "type": "function"
    },
    {
      "inputs": [
        {
          "components": [
            {
              "components": [
                {
                  "components": [
                    {
                      "internalType": "uint256",
                      "name": "X",
                      "type": "uint256"
                    },
                    {
                      "internalType": "uint256",
                      "name": "Y",
                      "type": "uint256"
                    }
                  ],
                  "internalType": "struct IVerifier.G1Point",
                  "name": "a",
                  "type": "tuple"
                },
                {
                  "components": [
                    {
                      "internalType": "uint256[2]",
                      "name": "X",
                      "type": "uint256[2]"
                    },
                    {
                      "internalType": "uint256[2]",
                      "name": "Y",
                      "type": "uint256[2]"
                    }
                  ],
                  "internalType": "struct IVerifier.G2Point",
                  "name": "b",
                  "type": "tuple"
                },
                {
                  "components": [
                    {
                      "internalType": "uint256",
                      "name": "X",
                      "type": "uint256"
                    },
                    {
                      "internalType": "uint256",
                      "name": "Y",
                      "type": "uint256"
                    }
                  ],
                  "internalType": "struct IVerifier.G1Point",
                  "name": "c",
                  "type": "tuple"
                }
              ],
              "internalType": "struct IVerifier.Proof",
              "name": "proof",
              "type": "tuple"
            },
            {
              "internalType": "uint256",
              "name": "rootHash",
              "type": "uint256"
            },
            {
              "internalType": "uint256[]",
              "name": "serialNumbers",
              "type": "uint256[]"
            },
            {
              "internalType": "uint256[]",
              "name": "sigHashes",
              "type": "uint256[]"
            },
            {
              "internalType": "bytes32",
              "name": "sigPk",
              "type": "bytes32"
            },
            {
              "internalType": "uint256",
              "name": "publicAmount",
              "type": "uint256"
            },
            {
              "internalType": "uint256",
              "name": "relayerFeeAmount",
              "type": "uint256"
            },
            {
              "internalType": "uint256[]",
              "name": "outCommitments",
              "type": "uint256[]"
            },
            {
              "internalType": "uint256[]",
              "name": "outRollupFees",
              "type": "uint256[]"
            },
            {
              "internalType": "address",
              "name": "publicRecipient",
              "type": "address"
            },
            {
              "internalType": "address",
              "name": "relayerAddress",
              "type": "address"
            },
            {
              "internalType": "bytes[]",
              "name": "outEncryptedNotes",
              "type": "bytes[]"
            },
            {
              "internalType": "uint256",
              "name": "randomAuditingPublicKey",
              "type": "uint256"
            },
            {
              "internalType": "uint256[]",
              "name": "encryptedAuditorNotes",
              "type": "uint256[]"
            }
          ],
          "internalType": "struct ICommitmentPool.TransactRequest",
          "name": "_request",
          "type": "tuple"
        },
        {
          "internalType": "bytes",
          "name": "_signature",
          "type": "bytes"
        }
      ],
      "name": "transact",
      "outputs": [],
      "stateMutability": "nonpayable",
      "type": "function"
    },
    {
      "inputs": [
        {
          "internalType": "uint256",
          "name": "_index",
          "type": "uint256"
        },
        {
          "internalType": "uint256",
          "name": "_publicKey",
          "type": "uint256"
        }
      ],
      "name": "updateAuditorPublicKey",
      "outputs": [],
      "stateMutability": "nonpayable",
      "type": "function"
    },
    {
      "inputs": [
        {
          "internalType": "contract ISanctionsList",
          "name": "_sanction",
          "type": "address"
        }
      ],
      "name": "updateSanctionsListAddress",
      "outputs": [],
      "stateMutability": "nonpayable",
      "type": "function"
    },
    {
      "stateMutability": "payable",
      "type": "receive"
    }
  ],
  "bytecode": "0x60a0604052600180546001600160a81b031916740140c57923924b5c5c5455c48d93317139addac8fb1790556000600781905560088190556009553480156200004757600080fd5b5060405162004575380380620045758339810160408190526200006a91620007a9565b60016000558060ff81166200009257604051632c4f29b160e21b815260040160405180910390fd5b600c80546001600160a01b03191633179055600160ff82161b608052620000b981620000e0565b600b8190556000908152600a60205260409020805460ff1916600117905550620007d59050565b600060ff82166200011257507f09f658457775074ff4c842032a5ec2f1134c32784cca59d594caac8c503b7923919050565b8160ff16600114156200014657507f1a77569b79cb7c2eaf9368de9e3b1efc0a606561e5ab299c2337340f3cdd576a919050565b8160ff16600214156200017a57507f111bd0002b1e3b8f1978c932b5ccb2fab87fdb0acab2ddb266f9a346dcb11ee1919050565b8160ff1660031415620001ae57507f040868ea2a363e05d7ae44280f69b49e429ab096ca2844efe91f8d6b3dad57dd919050565b8160ff1660041415620001e157507ef8f605c92c8502c8fe83be1b83b24e3f67312a388f30cbadb5dee8974137c3919050565b8160ff16600514156200021557507f1adc043c99adbc0c86a60a36db0f661e2dd96f36ede322f954386d8935a0c5d9919050565b8160ff16600614156200024957507f2a1fedfa71da723ac3e9b35cef752fa1b647b2b737a23e91241cb7bdc419e3f4919050565b8160ff16600714156200027d57507f17fe1974543c4c4b228e1292f7e3200d31435fc910ee5a8c5cafd329cc4b256b919050565b8160ff1660081415620002b157507f0e84a586eb63a0eec0f1fe5785022441f0e29e4ae859c7ce1f5fc88a42ad2e6b919050565b8160ff1660091415620002e557507f193deb901f6eeb032e02e093280db17e373d4ff52bafda9215b46bb9b0a86f3e919050565b8160ff16600a14156200031957507f1d10ca7b985697cb519565a5006c3f44b020b2edab9b7422ed15dc34532f9406919050565b8160ff16600b14156200034d57507f1dc200763555467a4e583e00badfdc1fb4d3d3f8f1cc81f31fd2f8b387776081919050565b8160ff16600c14156200038157507f203dd11fdba0ed13b20ca2d6952f3feb7461836a03512e0cccce8467b320b2f6919050565b8160ff16600d1415620003b557507f0591af64e64a3e69caf23eee2bdea90885343a49f547ee9464e95d8d6267e4f7919050565b8160ff16600e1415620003e957507f2af572f1077a32f46dc8e307d43c0fa6753b400b2107325976b8df7380545ff6919050565b8160ff16600f14156200041d57507f043227ae4b70b1aacd04e35e6aaed7b56d91220c31e97aaf52e12a6a56984e52919050565b8160ff16601014156200045157507f2976f1f6a91d83d4c528dad69ece6d3d91934b0e5657e915b360c8c4c2fb54e6919050565b8160ff16601114156200048457507ee5c251c9e093658be0cd1b0df55b6f70f3d09146c1c8b4212a4ddcde700dbc919050565b8160ff1660121415620004b857507f0267cbbc1bc2f1c3e3073d2ee60df8cc0bfef39fe3cee735c9ad5c8ad30064d2919050565b8160ff1660131415620004ec57507f2f356057bc56f67dbf159a0e8935022acd5e982dce9f4071adc43e4d57ce27e6919050565b8160ff16601414156200052057507f273db68f52f12a9d8022ae524050064e42d4d1661c9bcce958acf89b5e8b127b919050565b8160ff16601514156200055457507f0496a18ad4cca81b7c98ceb197439ad925e0f7f62d69dfa42cf9574be77fe30f919050565b8160ff16601614156200058857507f24f89a3f943d421b2f3a554b65459f42b820ac09d6fd9d693df5f8ba732ab596919050565b8160ff1660171415620005bc57507f1b55bfd751c6807df36876cdce68034ab43210be2bc8afa8043c7f428604e7a7919050565b8160ff1660181415620005f057507f16d6595a398cf20f2489b90e958166f1e19c537c0c46e9b8ea5462391ee8f143919050565b8160ff16601914156200062457507f0f01447ef8f621592474b678ed2fc404ebaf22a6fce15364bb4152a88c113613919050565b8160ff16601a14156200065857507f026c2dffee48bacbc9d21cf90aa7c6e525ab01db6966a9e7e53b3d3f4d1f5a4d919050565b8160ff16601b14156200068c57507f234fe90732795745b2c504c791242a2bb193baa1cbeab57db9324b6bb9134817919050565b8160ff16601c1415620006c057507f23a8e0a7e60981c52ebb498c260d5bef4d7c65145d17128996a77c33a3262a7e919050565b8160ff16601d1415620006f457507f24ee69d2565210c7027ff6fc2657ed029278bc79f41077fe3281ea5d5d8e80f9919050565b8160ff16601e14156200072857507f1de402fa32463bb2917b733aeef0197a49cacacd1fe860c3acc8cd3b65a30a68919050565b8160ff16601f14156200075c57507f1d3015a0f6a7b3f754171d0540628107e50e25debceb16e0e33ae4205501896d919050565b8160ff16602014156200079057507f264a260539342647256819046bae05bed903a8d19b3c90439d67317d5d881322919050565b604051639780f42960e01b815260040160405180910390fd5b600060208284031215620007bc57600080fd5b815160ff81168114620007ce57600080fd5b9392505050565b608051613d76620007ff600039600081816103ff015281816112960152611bb40152613d766000f3fe6080604052600436106102895760003560e01c80637cbf0ff611610153578063b1c39422116100cb578063e500f5041161007f578063f2da1d4111610064578063f2da1d4114610709578063f8f0538814610729578063ffa89b881461074957600080fd5b8063e500f504146106bc578063ec571c6a146106d157600080fd5b8063c259e2e6116100b0578063c259e2e614610667578063dd757c3414610687578063deeff7cd1461069c57600080fd5b8063b1c3942214610626578063b3b756311461064757600080fd5b80639b0a6fea11610122578063a6232a9311610107578063a6232a93146105c1578063a9b1d296146105f1578063b08892d01461061157600080fd5b80639b0a6fea146105815780639cc6b354146105a157600080fd5b80637cbf0ff61461050c5780637fa4b09c1461052c578063866ac6581461054c57806387780df91461056157600080fd5b80633fe3347a1161020157806357060016116101b5578063720829711161019a57806372082971146104b757806378d60cd7146104d75780637a553744146104f757600080fd5b8063570600161461046557806363bc7d321461049557600080fd5b80634eb069f7116101e65780634eb069f714610423578063555d75f01461043b5780635688881f1461045057600080fd5b80633fe3347a146103d4578063484eb652146103f057600080fd5b80630c8867e61161025857806314a7737d1161023d57806314a7737d1461035457806330f49cac146103745780633bb8d1b41461039457600080fd5b80630c8867e61461030c578063115f574c1461032c57600080fd5b806301dbf19f1461029557806302d498f1146102ac57806303db9874146102cc57806306394c9b146102ec57600080fd5b3661029057005b600080fd5b3480156102a157600080fd5b506102aa610766565b005b3480156102b857600080fd5b506102aa6102c73660046133c4565b6107ea565b3480156102d857600080fd5b506102aa6102e73660046133c4565b610839565b3480156102f857600080fd5b506102aa6103073660046133c4565b610885565b34801561031857600080fd5b506102aa610327366004613718565b610936565b34801561033857600080fd5b50610341600581565b6040519081526020015b60405180910390f35b34801561036057600080fd5b506102aa61036f3660046134c9565b610a05565b34801561038057600080fd5b506102aa61038f3660046133c4565b610f68565b3480156103a057600080fd5b506103c46103af3660046136ff565b60009081526005602052604090205460ff1690565b604051901515815260200161034b565b3480156103e057600080fd5b50600160405161034b91906139d2565b3480156103fc57600080fd5b507f0000000000000000000000000000000000000000000000000000000000000000610341565b34801561042f57600080fd5b5060105460ff166103c4565b34801561044757600080fd5b50600754610341565b34801561045c57600080fd5b50610341610ff5565b34801561047157600080fd5b506103c46104803660046136ff565b60009081526004602052604090205460ff1690565b3480156104a157600080fd5b506104aa61100c565b60405161034b91906139bf565b3480156104c357600080fd5b506102aa6104d236600461353d565b611089565b3480156104e357600080fd5b506102aa6104f2366004613422565b611b5b565b34801561050357600080fd5b50600954610341565b34801561051857600080fd5b506102aa6105273660046136ff565b611c8a565b34801561053857600080fd5b506102aa6105473660046137d9565b611d08565b34801561055857600080fd5b506104aa611deb565b34801561056d57600080fd5b5061034161057c3660046136ff565b611e98565b34801561058d57600080fd5b506102aa61059c36600461375d565b611ed6565b3480156105ad57600080fd5b506102aa6105bc3660046133c4565b611fce565b3480156105cd57600080fd5b506103c46105dc3660046136ff565b6000908152600a602052604090205460ff1690565b3480156105fd57600080fd5b506102aa61060c3660046133c4565b61201a565b34801561061d57600080fd5b50600d54610341565b34801561063257600080fd5b506001546103c490600160a01b900460ff1681565b34801561065357600080fd5b506102aa6106623660046133e8565b612069565b34801561067357600080fd5b506102aa6106823660046137af565b6120d5565b34801561069357600080fd5b506102aa612179565b3480156106a857600080fd5b506102aa6106b7366004613778565b6121f1565b3480156106c857600080fd5b50600854610341565b3480156106dd57600080fd5b506001546106f1906001600160a01b031681565b6040516001600160a01b03909116815260200161034b565b34801561071557600080fd5b5061034161072436600461373a565b612331565b34801561073557600080fd5b506102aa6107443660046133e8565b6123ba565b34801561075557600080fd5b50601054610100900460ff166103c4565b600c546001600160a01b03163314610791576040516327e1f1e560e01b815260040160405180910390fd5b6001805460ff60a01b1916600160a01b908117918290556040517fa5ffe1601eb93a7fefd0d0eeb5fc94a2f65475f333836fe2b87fd7bbf5952069926107e092900460ff161515815260200190565b60405180910390a1565b600c546001600160a01b03163314610815576040516327e1f1e560e01b815260040160405180910390fd5b6001600160a01b03166000908152600e60205260409020805460ff19166001179055565b600c546001600160a01b03163314610864576040516327e1f1e560e01b815260040160405180910390fd5b6001600160a01b03166000908152600f60205260409020805460ff19169055565b600c546001600160a01b031633146108b0576040516327e1f1e560e01b815260040160405180910390fd5b600c546001600160a01b03828116911614156108df576040516336a1c33f60e01b815260040160405180910390fd5b600c805473ffffffffffffffffffffffffffffffffffffffff19166001600160a01b0383169081179091556040517f4721129e0e676ed6a92909bb24e853ccdd63ad72280cc2e974e38e480e0e6e5490600090a250565b600c546001600160a01b03163314610961576040516327e1f1e560e01b815260040160405180910390fd5b600582106109825760405163318c434560e21b815260040160405180910390fd5b806011836005811061099657610996613cf1565b015414156109b657604051624a706760e31b815260040160405180910390fd5b80601183600581106109ca576109ca613cf1565b015560405181815282907f94adca83ce41447cfb8e07d1c9c4536a1b8afbff6c7c83c2d918214adc68102f9060200160405180910390a25050565b601054610100900460ff16158015610a2d5750336000908152600e602052604090205460ff16155b15610a4b576040516321ce01f360e01b815260040160405180910390fd5b6040808201516000908152600a602052205460ff1615610a7e5760405163e2e1210360e01b815260040160405180910390fd5b600754816020015163ffffffff161180610aba575060208181015163ffffffff16600090815260039091526040902054600160a01b900460ff16155b15610afa576040516314e8955b60e21b815260206004820152600a602482015269726f6c6c757053697a6560b01b60448201526064015b60405180910390fd5b6008546020820151610b129063ffffffff1682613ca3565b15610b4d576040516314e8955b60e21b815260206004820152600a602482015269726f6c6c757053697a6560b01b6044820152606401610af1565b6000610b5d828460200151612331565b90506000836020015163ffffffff1667ffffffffffffffff811115610b8457610b84613d07565b604051908082528060200260200182016040528015610bad578160200160208202803683370190505b5090506000805b856020015163ffffffff16811015610cab576000610bd28287613b71565b600081815260066020908152604091829020825180840190935280548084526001909101549183019190915291925090610c1f5760405163d3482f7b60e01b815260040160405180910390fd5b8060000151858481518110610c3657610c36613cf1565b602002602001018181525050806020015184610c529190613b71565b60008381526006602052604080822082815560010182905583519051929650917ffe6b097b46a78e08506a3143b6337c2505ba77df76fe05c3663a987395d634139190a250508080610ca390613c64565b915050610bb4565b50846020015163ffffffff1660076000828254610cc89190613bfc565b9250508190555060007f30644e72e131a029b85045b68181585d2833e84879b9709143e1f593f000000183604051602001610d039190613926565b6040516020818303038152906040528051906020012060001c610d269190613ca3565b905080866060015114610d7c576040516314e8955b60e21b815260206004820152600860248201527f6c656166486173680000000000000000000000000000000000000000000000006044820152606401610af1565b60408051600480825260a0820190925260009160208201608080368337019050509050600b5481600081518110610db557610db5613cf1565b602002602001018181525050866040015181600181518110610dd957610dd9613cf1565b6020026020010181815250508181600281518110610df957610df9613cf1565b6020026020010181815250508481600381518110610e1957610e19613cf1565b6020908102919091018101919091528781015163ffffffff16600090815260039091526040808220548951915163c941764760e01b81526001600160a01b039091169163c941764791610e71919086906004016139fa565b602060405180830381600087803b158015610e8b57600080fd5b505af1158015610e9f573d6000803e3d6000fd5b505050506040513d601f19601f82011682018060405250810190610ec39190613405565b905080610f13576040516314e8955b60e21b815260206004820152600560248201527f70726f6f660000000000000000000000000000000000000000000000000000006044820152606401610af1565b876020015163ffffffff1660086000828254610f2f9190613b71565b9091555050604080890151600b8190556000908152600a60205220805460ff19166001179055610f5e8461242e565b5050505050505050565b600c546001600160a01b03163314610f93576040516327e1f1e560e01b815260040160405180910390fd5b6001805473ffffffffffffffffffffffffffffffffffffffff19166001600160a01b0383169081179091556040519081527fbe1808917e09814fca7d80289a9760a4065f10d624ac1aee0b9f903c4f5d92b1906020015b60405180910390a150565b60006007546008546110079190613b71565b905090565b60408051600580825260c08201909252606091600091906020820160a08036833701905050905060005b6005811015611083576011816005811061105257611052613cf1565b015482828151811061106657611066613cf1565b60209081029190910101528061107b81613c64565b915050611036565b50919050565b600260005414156110dc5760405162461bcd60e51b815260206004820152601f60248201527f5265656e7472616e637947756172643a207265656e7472616e742063616c6c006044820152606401610af1565b600260009081556040830151516110f2906124c6565b905060006111048460e00151516124c6565b63ffffffff838116600090815260026020908152604080832093851683529290522054909150600160a01b900460ff16611181576040516314e8955b60e21b815260206004820152600a60248201527f692f6f206c656e677468000000000000000000000000000000000000000000006044820152606401610af1565b8163ffffffff16846060015151146111dc576040516314e8955b60e21b815260206004820152601060248201527f736967486173686573206c656e677468000000000000000000000000000000006044820152606401610af1565b8063ffffffff168461010001515114611238576040516314e8955b60e21b815260206004820152601460248201527f6f7574526f6c6c757046656573206c656e6774680000000000000000000000006044820152606401610af1565b8063ffffffff168461016001515114611294576040516314e8955b60e21b815260206004820152601860248201527f6f7574456e637279707465644e6f746573206c656e67746800000000000000006044820152606401610af1565b7f00000000000000000000000000000000000000000000000000000000000000008163ffffffff166007546008546112cc9190613b71565b6112d69190613b71565b11156112f557604051633b5ccb4360e21b815260040160405180910390fd5b6112fe32612546565b1561131c57604051632e70c0b160e01b815260040160405180910390fd5b61132a846101200151612546565b1561134857604051632e70c0b160e01b815260040160405180910390fd5b611359600563ffffffff8416613bb1565b846101a00151511461137e57604051633acf48bb60e21b815260040160405180910390fd5b6000611389856125e5565b90506113958185612771565b6001600160a01b031660001b8560800151146113f4576040516314e8955b60e21b815260206004820152600960248201527f7369676e617475726500000000000000000000000000000000000000000000006044820152606401610af1565b6000611401846002613bd0565b63ffffffff1690506000611416856002613bd0565b611421906004613b89565b63ffffffff1690506000611436856002613bd0565b6114469063ffffffff1683613b71565b905060006005611457886002613b89565b63ffffffff166114679190613bb1565b611472836002613b71565b61147c9190613b71565b67ffffffffffffffff81111561149457611494613d07565b6040519080825280602002602001820160405280156114bd578160200160208202803683370190505b506020808b01516000908152600a909152604090205490915060ff1661150f576040516314e8955b60e21b8152600401610af1906020808252600490820152631c9bdbdd60e21b604082015260600190565b88602001518160008151811061152757611527613cf1565b6020908102919091010152600061153f886001613b89565b63ffffffff16905060005b8863ffffffff1681101561164b5760008b60400151828151811061157057611570613cf1565b6020908102919091018101516000818152600590925260409091205490915060ff16156115c9576040517fff556e2000000000000000000000000000000000000000000000000000000000815260040160405180910390fd5b80846115d6846001613b71565b815181106115e6576115e6613cf1565b6020026020010181815250508b60600151828151811061160857611608613cf1565b602002602001015184848461161d9190613b71565b8151811061162d5761162d613cf1565b6020908102919091010152508061164381613c64565b91505061154a565b5060808a01518261165d876001613b71565b8151811061166d5761166d613cf1565b602090810291909101015260a08a015182611689876002613b71565b8151811061169957611699613cf1565b602090810291909101015260c08a0151826116b5876003613b71565b815181106116c5576116c5613cf1565b602090810291909101015260006116e263ffffffff891686613b71565b905060005b8863ffffffff1681101561185c57600460008d60e00151838151811061170f5761170f613cf1565b60209081029190910181015182528101919091526040016000205460ff161561177b5760405163bee3611160e01b815260206004820152600a60248201527f636f6d6d69746d656e74000000000000000000000000000000000000000000006044820152606401610af1565b600d548c6101000151828151811061179557611795613cf1565b602002602001015110156117bc5760405163784f02bd60e11b815260040160405180910390fd5b8b60e0015181815181106117d2576117d2613cf1565b60200260200101518487836117e79190613b71565b815181106117f7576117f7613cf1565b6020026020010181815250508b6101000151818151811061181a5761181a613cf1565b602002602001015184838361182f9190613b71565b8151811061183f5761183f613cf1565b60209081029190910101528061185481613c64565b9150506116e7565b506118688b8486612795565b63ffffffff808a166000908152600260209081526040808320938c168352929052818120548d51925163c941764760e01b815291926001600160a01b039091169163c9417647916118bd9188906004016139fa565b602060405180830381600087803b1580156118d757600080fd5b505af11580156118eb573d6000803e3d6000fd5b505050506040513d601f19601f8201168201806040525081019061190f9190613405565b90508061195f576040516314e8955b60e21b815260206004820152600e60248201527f7472616e736163742070726f6f660000000000000000000000000000000000006044820152606401610af1565b60005b8a63ffffffff16811015611a33576001600560008f60400151848151811061198c5761198c613cf1565b6020026020010151815260200190815260200160002060006101000a81548160ff0219169083151502179055506001600960008282546119cc9190613b71565b909155505060408d01518051829081106119e8576119e8613cf1565b60200260200101518d602001517f3c2372ab6130817bd6b8fc6dbaecae947e84201b49535d358debaa6c34c23ecf60405160405180910390a380611a2b81613c64565b915050611962565b5060005b8963ffffffff16811015611b04576001600460008f60e001518481518110611a6157611a61613cf1565b6020026020010151815260200190815260200160002060006101000a81548160ff021916908315150217905550611af28d60e001518281518110611aa757611aa7613cf1565b60200260200101518e61010001518381518110611ac657611ac6613cf1565b60200260200101518f61016001518481518110611ae557611ae5613cf1565b602002602001015161298c565b80611afc81613c64565b915050611a37565b5060a08c015115611b2257611b228c61012001518d60a00151612a2b565b60c08c015115611b3f57611b3f8c61014001518d60c00151612a2b565b611b488c612ad3565b5050600160005550505050505050505050565b336000908152600f602052604090205460ff16611b8b5760405163f75e9fc760e01b815260040160405180910390fd5b600d5482606001511015611bb25760405163784f02bd60e11b815260040160405180910390fd5b7f0000000000000000000000000000000000000000000000000000000000000000600754600854611be39190613b71565b10611c0157604051633b5ccb4360e21b815260040160405180910390fd5b60208083015160009081526004909152604090205460ff1615611c375760405163e38cd14d60e01b815260040160405180910390fd5b60208083018051600090815260049092526040909120805460ff191660011790555160608301516080840151611c6e92919061298c565b604082015115611c8657611c86818360400151612ce8565b5050565b600c546001600160a01b03163314611cb5576040516327e1f1e560e01b815260040160405180910390fd5b80611d03576040516314e8955b60e21b815260206004820152600d60248201527f5f6d696e526f6c6c7570466565000000000000000000000000000000000000006044820152606401610af1565b600d55565b600c546001600160a01b03163314611d33576040516327e1f1e560e01b815260040160405180910390fd5b60105460ff1615611d57576040516336e3e09560e01b815260040160405180910390fd5b63ffffffff8316611d7b57604051639f7bd94b60e01b815260040160405180910390fd5b6040805180820182526001600160a01b0392831681526001602080830191825263ffffffff9687166000908152600282528481209690971687529490945293209251835492511515600160a01b0274ffffffffffffffffffffffffffffffffffffffffff19909316911617179055565b6060600060075467ffffffffffffffff811115611e0a57611e0a613d07565b604051908082528060200260200182016040528015611e33578160200160208202803683370190505b50905060005b60075481101561108357600081600854611e539190613b71565b600081815260066020526040902054845191925090849084908110611e7a57611e7a613cf1565b60209081029190910101525080611e9081613c64565b915050611e39565b600060058210611ebb5760405163318c434560e21b815260040160405180910390fd5b60118260058110611ece57611ece613cf1565b015492915050565b600c546001600160a01b03163314611f01576040516327e1f1e560e01b815260040160405180910390fd5b60105460ff1615611f25576040516336e3e09560e01b815260040160405180910390fd5b63ffffffff81161580611f3f57506104008163ffffffff16115b15611f7a576040516314e8955b60e21b815260206004820152600a602482015269726f6c6c757053697a6560b01b6044820152606401610af1565b611f85600182613c13565b811663ffffffff16600014611fad576040516322717ff960e01b815260040160405180910390fd5b63ffffffff166000908152600360205260409020805460ff60a01b19169055565b600c546001600160a01b03163314611ff9576040516327e1f1e560e01b815260040160405180910390fd5b6001600160a01b03166000908152600e60205260409020805460ff19169055565b600c546001600160a01b03163314612045576040516327e1f1e560e01b815260040160405180910390fd5b6001600160a01b03166000908152600f60205260409020805460ff19166001179055565b600c546001600160a01b03163314612094576040516327e1f1e560e01b815260040160405180910390fd5b6010805460ff19168215159081179091556040519081527fcf54e49cbf0fd7613fb6b5b09f2e8c1255a9df94a826390f783d35cf2b4da7e490602001610fea565b600c546001600160a01b03163314612100576040516327e1f1e560e01b815260040160405180910390fd5b60105460ff1615612124576040516336e3e09560e01b815260040160405180910390fd5b63ffffffff821661214857604051639f7bd94b60e01b815260040160405180910390fd5b63ffffffff91821660009081526002602090815260408083209390941682529190915220805460ff60a01b19169055565b600c546001600160a01b031633146121a4576040516327e1f1e560e01b815260040160405180910390fd5b6001805460ff60a01b1916908190556040517fa5ffe1601eb93a7fefd0d0eeb5fc94a2f65475f333836fe2b87fd7bbf5952069916107e091600160a01b90910460ff161515815260200190565b600c546001600160a01b0316331461221c576040516327e1f1e560e01b815260040160405180910390fd5b60105460ff1615612240576040516336e3e09560e01b815260040160405180910390fd5b63ffffffff8216158061225a57506104008263ffffffff16115b15612295576040516314e8955b60e21b815260206004820152600a602482015269726f6c6c757053697a6560b01b6044820152606401610af1565b6122a0600183613c13565b821663ffffffff166000146122c8576040516322717ff960e01b815260040160405180910390fd5b6040805180820182526001600160a01b0392831681526001602080830191825263ffffffff90951660009081526003909552919093209251835491511515600160a01b0274ffffffffffffffffffffffffffffffffffffffffff19909216921691909117179055565b60006101008263ffffffff16106123575760088263ffffffff16901c9150600883901c92505b60108263ffffffff161061237a5760048263ffffffff16901c9150600483901c92505b60048263ffffffff161061239d5760028263ffffffff16901c9150600283901c92505b60028263ffffffff16106123b357600183901c92505b5090919050565b600c546001600160a01b031633146123e5576040516327e1f1e560e01b815260040160405180910390fd5b601080548215156101000261ff00199091161790556040517f9a24ee704854e0c531da821c99604540690f2af5577d2c892c2921cea409b47990610fea90831515815260200190565b604051600090339083908381818185875af1925050503d8060008114612470576040519150601f19603f3d011682016040523d82523d6000602084013e612475565b606091505b5050905080611c865760405162461bcd60e51b815260206004820152601a60248201527f726f6c6c757020666565207472616e73666572206661696c65640000000000006044820152606401610af1565b600063ffffffff8211156125425760405162461bcd60e51b815260206004820152602660248201527f53616665436173743a2076616c756520646f65736e27742066697420696e203360448201527f32206269747300000000000000000000000000000000000000000000000000006064820152608401610af1565b5090565b600154600090600160a01b900460ff1661256257506000919050565b60015460405163df592f7d60e01b81526001600160a01b0384811660048301529091169063df592f7d9060240160206040518083038186803b1580156125a757600080fd5b505afa1580156125bb573d6000803e3d6000fd5b505050506040513d601f19601f820116820180604052508101906125df9190613405565b92915050565b610160810151516000906003811061261057604051633fb1945d60e11b815260040160405180910390fd5b606081612664576101208401516101408501516040516bffffffffffffffffffffffff19606093841b811660208301529190921b1660348201526048015b604051602081830303815290604052905061271c565b81600114156126ab5783610120015184610140015185610160015160008151811061269157612691613cf1565b602002602001015160405160200161264e93929190613884565b8361012001518461014001518561016001516000815181106126cf576126cf613cf1565b60200260200101518661016001516001815181106126ef576126ef613cf1565b602002602001015160405160200161270a94939291906138ca565b60405160208183030381529060405290505b8051602091820120604080517f19457468657265756d205369676e6564204d6573736167653a0a33320000000081850152603c8082019390935281518082039093018352605c01905280519101209392505050565b60008060006127808585612d8b565b9150915061278d81612dfb565b509392505050565b6101808301516040805180820182526000808252602091820152815180830190925260ff83901c8083526001600160ff1b039093169082015283519091908490849081106127e5576127e5613cf1565b6020026020010181815250508060200151838360016128049190613b71565b8151811061281457612814613cf1565b6020908102919091010152600061282c836002613b71565b9050600061283b600583613b71565b9050600061284b60056002613bb1565b6128559084613b71565b905060005b60058110156129215760006128b56011836005811061287b5761287b613cf1565b01546040805180820182526000808252602091820152815180830190925260ff83901c82526001600160ff1b039092169181019190915290565b8051909150886128c58488613b71565b815181106128d5576128d5613cf1565b60200260200101818152505080602001518883866128f39190613b71565b8151811061290357612903613cf1565b6020908102919091010152508061291981613c64565b91505061285a565b5060005b876101a0015151811015610f5e57876101a00151818151811061294a5761294a613cf1565b602002602001015187828461295f9190613b71565b8151811061296f5761296f613cf1565b60209081029190910101528061298481613c64565b915050612925565b600060085460075461299e9190613b71565b6040805180820182528681526020808201878152600085815260069092529281209151825591516001918201556007805493945090929091906129e2908490613b71565b92505081905550837ff533f9705aac5020e21695ea3553ac7b6881070d2b6900ab2b1e3050304b5bf9848385604051612a1d93929190613a6b565b60405180910390a250505050565b6000826001600160a01b03168260405160006040518083038185875af1925050503d8060008114612a78576040519150601f19603f3d011682016040523d82523d6000602084013e612a7d565b606091505b5050905080612ace5760405162461bcd60e51b815260206004820152600f60248201527f7769746864726177206661696c656400000000000000000000000000000000006044820152606401610af1565b505050565b60006005826040015151612ae79190613bb1565b905060008167ffffffffffffffff811115612b0457612b04613d07565b604051908082528060200260200182016040528015612b6357816020015b612b506040518060600160405280600067ffffffffffffffff16815260200160008152602001600081525090565b815260200190600190039081612b225790505b5090506000805b8460400151518163ffffffff161015612caa5760005b60058163ffffffff161015612c97578063ffffffff1660208363ffffffff1667ffffffffffffffff16901b17848481518110612bbe57612bbe613cf1565b602090810291909101015167ffffffffffffffff9091169052601163ffffffff821660058110612bf057612bf0613cf1565b0154848481518110612c0457612c04613cf1565b60200260200101516020018181525050856101a001518163ffffffff1660058463ffffffff16612c349190613bb1565b612c3e9190613b71565b81518110612c4e57612c4e613cf1565b6020026020010151848481518110612c6857612c68613cf1565b60209081029190910101516040015282612c8181613c64565b9350508080612c8f90613c7f565b915050612b80565b5080612ca281613c7f565b915050612b6a565b507f6af07ebcb33931abd348e785f70c6d259390cf799191f8c99124245b96e1a61382604051612cda919061395c565b60405180910390a150505050565b6000826001600160a01b03168260405160006040518083038185875af1925050503d8060008114612d35576040519150601f19603f3d011682016040523d82523d6000602084013e612d3a565b606091505b5050905080612ace5760405162461bcd60e51b815260206004820152601c60248201527f6578656375746f7220666565207472616e73666572206661696c6564000000006044820152606401610af1565b600080825160411415612dc25760208301516040840151606085015160001a612db687828585612fb9565b94509450505050612df4565b825160401415612dec5760208301516040840151612de18683836130a6565b935093505050612df4565b506000905060025b9250929050565b6000816004811115612e0f57612e0f613cdb565b1415612e185750565b6001816004811115612e2c57612e2c613cdb565b1415612e7a5760405162461bcd60e51b815260206004820152601860248201527f45434453413a20696e76616c6964207369676e617475726500000000000000006044820152606401610af1565b6002816004811115612e8e57612e8e613cdb565b1415612edc5760405162461bcd60e51b815260206004820152601f60248201527f45434453413a20696e76616c6964207369676e6174757265206c656e677468006044820152606401610af1565b6003816004811115612ef057612ef0613cdb565b1415612f495760405162461bcd60e51b815260206004820152602260248201527f45434453413a20696e76616c6964207369676e6174757265202773272076616c604482015261756560f01b6064820152608401610af1565b6004816004811115612f5d57612f5d613cdb565b1415612fb65760405162461bcd60e51b815260206004820152602260248201527f45434453413a20696e76616c6964207369676e6174757265202776272076616c604482015261756560f01b6064820152608401610af1565b50565b6000807f7fffffffffffffffffffffffffffffff5d576e7357a4501ddfe92f46681b20a0831115612ff0575060009050600361309d565b8460ff16601b1415801561300857508460ff16601c14155b15613019575060009050600461309d565b6040805160008082526020820180845289905260ff881692820192909252606081018690526080810185905260019060a0016020604051602081039080840390855afa15801561306d573d6000803e3d6000fd5b5050604051601f1901519150506001600160a01b0381166130965760006001925092505061309d565b9150600090505b94509492505050565b6000806001600160ff1b038316816130c360ff86901c601b613b71565b90506130d187828885612fb9565b935093505050935093915050565b80356130ea81613d1d565b919050565b600082601f83011261310057600080fd5b8135602061311561311083613b4d565b613b1c565b80838252828201915082860187848660051b890101111561313557600080fd5b6000805b8681101561317857823567ffffffffffffffff811115613157578283fd5b6131658b88838d010161324b565b8652509385019391850191600101613139565b509198975050505050505050565b600082601f83011261319757600080fd5b61319f613aac565b8083856040860111156131b157600080fd5b60005b60028110156131d35781358452602093840193909101906001016131b4565b509095945050505050565b600082601f8301126131ef57600080fd5b813560206131ff61311083613b4d565b80838252828201915082860187848660051b890101111561321f57600080fd5b60005b8581101561323e57813584529284019290840190600101613222565b5090979650505050505050565b600082601f83011261325c57600080fd5b813567ffffffffffffffff81111561327657613276613d07565b613289601f8201601f1916602001613b1c565b81815284602083860101111561329e57600080fd5b816020850160208301376000918101602001919091529392505050565b6000604082840312156132cd57600080fd5b6040516040810181811067ffffffffffffffff821117156132f0576132f0613d07565b604052823581526020928301359281019290925250919050565b600081830361010081121561331e57600080fd5b6040516060810181811067ffffffffffffffff8211171561334157613341613d07565b60405291508161335185856132bb565b81526080603f198301121561336557600080fd5b61336d613aac565b915061337c8560408601613186565b825261338b8560808601613186565b60208301528160208201526133a38560c086016132bb565b6040820152505092915050565b803563ffffffff811681146130ea57600080fd5b6000602082840312156133d657600080fd5b81356133e181613d1d565b9392505050565b6000602082840312156133fa57600080fd5b81356133e181613d32565b60006020828403121561341757600080fd5b81516133e181613d32565b6000806040838503121561343557600080fd5b823567ffffffffffffffff8082111561344d57600080fd5b9084019060a0828703121561346157600080fd5b613469613ad5565b8235815260208301356020820152604083013560408201526060830135606082015260808301358281111561349d57600080fd5b6134a98882860161324b565b60808301525093506134c0915050602084016130df565b90509250929050565b600061016082840312156134dc57600080fd5b6040516080810181811067ffffffffffffffff821117156134ff576134ff613d07565b60405261350c848461330a565b815261351b61010084016133b0565b6020820152610120830135604082015261014090920135606083015250919050565b6000806040838503121561355057600080fd5b823567ffffffffffffffff8082111561356857600080fd5b908401906102a0828703121561357d57600080fd5b613585613af8565b61358f878461330a565b815261010080840135602083015261012080850135848111156135b157600080fd5b6135bd8a8288016131de565b60408501525061014080860135858111156135d757600080fd5b6135e38b8289016131de565b6060860152506101608087013560808601526101808088013560a08701526101a08089013560c08801526101c08901358881111561362057600080fd5b61362c8e828c016131de565b60e0890152506101e08901358881111561364557600080fd5b6136518e828c016131de565b87890152506136636102008a016130df565b858801526136746102208a016130df565b8488015261024089013595508786111561368d57600080fd5b6136998d878b016130ef565b83880152610260890135828801526102808901359550878611156136bc57600080fd5b6136c88d878b016131de565b90870152509397505050506020860135925050808211156136e857600080fd5b506136f58582860161324b565b9150509250929050565b60006020828403121561371157600080fd5b5035919050565b6000806040838503121561372b57600080fd5b50508035926020909101359150565b6000806040838503121561374d57600080fd5b823591506134c0602084016133b0565b60006020828403121561376f57600080fd5b6133e1826133b0565b6000806040838503121561378b57600080fd5b613794836133b0565b915060208301356137a481613d1d565b809150509250929050565b600080604083850312156137c257600080fd5b6137cb836133b0565b91506134c0602084016133b0565b6000806000606084860312156137ee57600080fd5b6137f7846133b0565b9250613805602085016133b0565b9150604084013561381581613d1d565b809150509250925092565b8060005b6002811015613843578151845260209384019390910190600101613824565b50505050565b600081518084526020808501945080840160005b838110156138795781518752958201959082019060010161385d565b509495945050505050565b60006bffffffffffffffffffffffff19808660601b168352808560601b1660148401525082516138bb816028850160208701613c38565b91909101602801949350505050565b60006bffffffffffffffffffffffff19808760601b168352808660601b166014840152508351613901816028850160208801613c38565b835190830190613918816028840160208801613c38565b016028019695505050505050565b815160009082906020808601845b8381101561395057815185529382019390820190600101613934565b50929695505050505050565b602080825282518282018190526000919060409081850190868401855b828110156139b2578151805167ffffffffffffffff16855286810151878601528501518585015260609093019290850190600101613979565b5091979650505050505050565b6020815260006133e16020830184613849565b60208101600283106139f457634e487b7160e01b600052602160045260246000fd5b91905290565b6000610120613a1483865180518252602090810151910152565b6020850151613a27604085018251613820565b60200151613a386080850182613820565b506040850151805160c08501526020015160e08401526101008301819052613a6281840185613849565b95945050505050565b8381528260208201526060604082015260008251806060840152613a96816080850160208701613c38565b601f01601f191691909101608001949350505050565b6040805190810167ffffffffffffffff81118282101715613acf57613acf613d07565b60405290565b60405160a0810167ffffffffffffffff81118282101715613acf57613acf613d07565b6040516101c0810167ffffffffffffffff81118282101715613acf57613acf613d07565b604051601f8201601f1916810167ffffffffffffffff81118282101715613b4557613b45613d07565b604052919050565b600067ffffffffffffffff821115613b6757613b67613d07565b5060051b60200190565b60008219821115613b8457613b84613cc5565b500190565b600063ffffffff808316818516808303821115613ba857613ba8613cc5565b01949350505050565b6000816000190483118215151615613bcb57613bcb613cc5565b500290565b600063ffffffff80831681851681830481118215151615613bf357613bf3613cc5565b02949350505050565b600082821015613c0e57613c0e613cc5565b500390565b600063ffffffff83811690831681811015613c3057613c30613cc5565b039392505050565b60005b83811015613c53578181015183820152602001613c3b565b838111156138435750506000910152565b6000600019821415613c7857613c78613cc5565b5060010190565b600063ffffffff80831681811415613c9957613c99613cc5565b6001019392505050565b600082613cc057634e487b7160e01b600052601260045260246000fd5b500690565b634e487b7160e01b600052601160045260246000fd5b634e487b7160e01b600052602160045260246000fd5b634e487b7160e01b600052603260045260246000fd5b634e487b7160e01b600052604160045260246000fd5b6001600160a01b0381168114612fb657600080fd5b8015158114612fb657600080fdfea264697066735822122085c0765fa86c173752a76fc43c01525e4759aef848df9185b58746546b51c51564736f6c63430008070033",
  "linkReferences": {},
  "deployedLinkReferences": {}
}