{
  "_format": "hh-sol-artifact-1",
  "contractName": "MystikoV2AxelarMain",
  "sourceName": "contracts/core/deposit/axelar/MystikoV2AxelarMain.sol",
  "abi": [
    {
      "inputs": [
        {
          "internalType": "contract IHasher3",
          "name": "_hasher3",
          "type": "address"
        }
      ],
      "stateMutability": "nonpayable",
      "type": "constructor"
    },
    {
      "inputs": [],
      "name": "AmountLessThanZero",
      "type": "error"
    },
    {
      "inputs": [],
      "name": "AmountTooLarge",
      "type": "error"
    },
    {
      "inputs": [],
      "name": "AmountTooSmall",
      "type": "error"
    },
    {
      "inputs": [],
      "name": "BridgeFeeTooFew",
      "type": "error"
    },
    {
      "inputs": [],
      "name": "CommitmentHashIncorrect",
      "type": "error"
    },
    {
      "inputs": [],
      "name": "DepositsDisabled",
      "type": "error"
    },
    {
      "inputs": [],
      "name": "ExecutorFeeTooFew",
      "type": "error"
    },
    {
      "inputs": [],
      "name": "FromChainIdNotMatched",
      "type": "error"
    },
    {
      "inputs": [],
      "name": "FromProxyAddressNotMatched",
      "type": "error"
    },
    {
      "inputs": [],
      "name": "HashKGreaterThanFieldSize",
      "type": "error"
    },
    {
      "inputs": [
        {
          "internalType": "string",
          "name": "param",
          "type": "string"
        }
      ],
      "name": "Invalid",
      "type": "error"
    },
    {
      "inputs": [],
      "name": "MinAmountGreaterThanMaxAmount",
      "type": "error"
    },
    {
      "inputs": [],
      "name": "NotApprovedByGateway",
      "type": "error"
    },
    {
      "inputs": [],
      "name": "NotChanged",
      "type": "error"
    },
    {
      "inputs": [],
      "name": "OnlyOperator",
      "type": "error"
    },
    {
      "inputs": [],
      "name": "RandomSGreaterThanFieldSize",
      "type": "error"
    },
    {
      "inputs": [],
      "name": "RollupFeeToFew",
      "type": "error"
    },
    {
      "inputs": [],
      "name": "SanctionedAddress",
      "type": "error"
    },
    {
      "anonymous": false,
      "inputs": [
        {
          "indexed": false,
          "internalType": "string",
          "name": "peerChainName",
          "type": "string"
        },
        {
          "indexed": false,
          "internalType": "string",
          "name": "destinationAddress",
          "type": "string"
        }
      ],
      "name": "CallContractMessage",
      "type": "event"
    },
    {
      "anonymous": false,
      "inputs": [
        {
          "indexed": true,
          "internalType": "uint256",
          "name": "commitment",
          "type": "uint256"
        }
      ],
      "name": "CommitmentCrossChain",
      "type": "event"
    },
    {
      "anonymous": false,
      "inputs": [
        {
          "indexed": false,
          "internalType": "uint256",
          "name": "maxAmount",
          "type": "uint256"
        },
        {
          "indexed": false,
          "internalType": "uint256",
          "name": "minAmount",
          "type": "uint256"
        }
      ],
      "name": "DepositAmountLimits",
      "type": "event"
    },
    {
      "anonymous": false,
      "inputs": [
        {
          "indexed": false,
          "internalType": "bool",
          "name": "state",
          "type": "bool"
        }
      ],
      "name": "DepositsDisabled",
      "type": "event"
    },
    {
      "anonymous": false,
      "inputs": [
        {
          "indexed": false,
          "internalType": "uint256",
          "name": "minBridgeFee",
          "type": "uint256"
        }
      ],
      "name": "MinBridgeFee",
      "type": "event"
    },
    {
      "anonymous": false,
      "inputs": [
        {
          "indexed": false,
          "internalType": "uint256",
          "name": "minExecutorFee",
          "type": "uint256"
        }
      ],
      "name": "MinExecutorFee",
      "type": "event"
    },
    {
      "anonymous": false,
      "inputs": [
        {
          "indexed": true,
          "internalType": "address",
          "name": "operator",
          "type": "address"
        }
      ],
      "name": "OperatorChanged",
      "type": "event"
    },
    {
      "anonymous": false,
      "inputs": [
        {
          "indexed": false,
          "internalType": "uint256",
          "name": "peerMinExecutorFee",
          "type": "uint256"
        }
      ],
      "name": "PeerMinExecutorFee",
      "type": "event"
    },
    {
      "anonymous": false,
      "inputs": [
        {
          "indexed": false,
          "internalType": "uint256",
          "name": "peerMinRollupFee",
          "type": "uint256"
        }
      ],
      "name": "PeerMinRollupFee",
      "type": "event"
    },
    {
      "anonymous": false,
      "inputs": [
        {
          "indexed": false,
          "internalType": "bool",
          "name": "state",
          "type": "bool"
        }
      ],
      "name": "SanctionsCheck",
      "type": "event"
    },
    {
      "anonymous": false,
      "inputs": [
        {
          "indexed": false,
          "internalType": "contract ISanctionsList",
          "name": "sanctions",
          "type": "address"
        }
      ],
      "name": "SanctionsList",
      "type": "event"
    },
    {
      "inputs": [],
      "name": "assetType",
      "outputs": [
        {
          "internalType": "enum AssetPool.AssetType",
          "name": "",
          "type": "uint8"
        }
      ],
      "stateMutability": "pure",
      "type": "function"
    },
    {
      "inputs": [],
      "name": "bridgeProxyAddress",
      "outputs": [
        {
          "internalType": "address",
          "name": "",
          "type": "address"
        }
      ],
      "stateMutability": "view",
      "type": "function"
    },
    {
      "inputs": [],
      "name": "bridgeType",
      "outputs": [
        {
          "internalType": "string",
          "name": "",
          "type": "string"
        }
      ],
      "stateMutability": "pure",
      "type": "function"
    },
    {
      "inputs": [
        {
          "internalType": "address",
          "name": "_newOperator",
          "type": "address"
        }
      ],
      "name": "changeOperator",
      "outputs": [],
      "stateMutability": "nonpayable",
      "type": "function"
    },
    {
      "inputs": [
        {
          "components": [
            {
              "internalType": "uint256",
              "name": "amount",
              "type": "uint256"
            },
            {
              "internalType": "uint256",
              "name": "commitment",
              "type": "uint256"
            },
            {
              "internalType": "uint256",
              "name": "hashK",
              "type": "uint256"
            },
            {
              "internalType": "uint128",
              "name": "randomS",
              "type": "uint128"
            },
            {
              "internalType": "bytes",
              "name": "encryptedNote",
              "type": "bytes"
            },
            {
              "internalType": "uint256",
              "name": "bridgeFee",
              "type": "uint256"
            },
            {
              "internalType": "uint256",
              "name": "executorFee",
              "type": "uint256"
            },
            {
              "internalType": "uint256",
              "name": "rollupFee",
              "type": "uint256"
            }
          ],
          "internalType": "struct IMystikoBridge.DepositRequest",
          "name": "_request",
          "type": "tuple"
        }
      ],
      "name": "deposit",
      "outputs": [],
      "stateMutability": "payable",
      "type": "function"
    },
    {
      "inputs": [],
      "name": "disableSanctionsCheck",
      "outputs": [],
      "stateMutability": "nonpayable",
      "type": "function"
    },
    {
      "inputs": [],
      "name": "enableSanctionsCheck",
      "outputs": [],
      "stateMutability": "nonpayable",
      "type": "function"
    },
    {
      "inputs": [
        {
          "internalType": "bytes32",
          "name": "commandId",
          "type": "bytes32"
        },
        {
          "internalType": "string",
          "name": "sourceChain",
          "type": "string"
        },
        {
          "internalType": "string",
          "name": "sourceAddress",
          "type": "string"
        },
        {
          "internalType": "bytes",
          "name": "payload",
          "type": "bytes"
        }
      ],
      "name": "execute",
      "outputs": [],
      "stateMutability": "nonpayable",
      "type": "function"
    },
    {
      "inputs": [
        {
          "internalType": "bytes32",
          "name": "commandId",
          "type": "bytes32"
        },
        {
          "internalType": "string",
          "name": "sourceChain",
          "type": "string"
        },
        {
          "internalType": "string",
          "name": "sourceAddress",
          "type": "string"
        },
        {
          "internalType": "bytes",
          "name": "payload",
          "type": "bytes"
        },
        {
          "internalType": "string",
          "name": "tokenSymbol",
          "type": "string"
        },
        {
          "internalType": "uint256",
          "name": "amount",
          "type": "uint256"
        }
      ],
      "name": "executeWithToken",
      "outputs": [],
      "stateMutability": "nonpayable",
      "type": "function"
    },
    {
      "inputs": [],
      "name": "gateway",
      "outputs": [
        {
          "internalType": "contract IAxelarGateway",
          "name": "",
          "type": "address"
        }
      ],
      "stateMutability": "view",
      "type": "function"
    },
    {
      "inputs": [],
      "name": "getAssociatedCommitmentPool",
      "outputs": [
        {
          "internalType": "address",
          "name": "",
          "type": "address"
        }
      ],
      "stateMutability": "view",
      "type": "function"
    },
    {
      "inputs": [],
      "name": "getMaxAmount",
      "outputs": [
        {
          "internalType": "uint256",
          "name": "",
          "type": "uint256"
        }
      ],
      "stateMutability": "view",
      "type": "function"
    },
    {
      "inputs": [],
      "name": "getMinAmount",
      "outputs": [
        {
          "internalType": "uint256",
          "name": "",
          "type": "uint256"
        }
      ],
      "stateMutability": "view",
      "type": "function"
    },
    {
      "inputs": [],
      "name": "getMinBridgeFee",
      "outputs": [
        {
          "internalType": "uint256",
          "name": "",
          "type": "uint256"
        }
      ],
      "stateMutability": "view",
      "type": "function"
    },
    {
      "inputs": [],
      "name": "getMinExecutorFee",
      "outputs": [
        {
          "internalType": "uint256",
          "name": "",
          "type": "uint256"
        }
      ],
      "stateMutability": "view",
      "type": "function"
    },
    {
      "inputs": [],
      "name": "getPeerMinExecutorFee",
      "outputs": [
        {
          "internalType": "uint256",
          "name": "",
          "type": "uint256"
        }
      ],
      "stateMutability": "view",
      "type": "function"
    },
    {
      "inputs": [],
      "name": "getPeerMinRollupFee",
      "outputs": [
        {
          "internalType": "uint256",
          "name": "",
          "type": "uint256"
        }
      ],
      "stateMutability": "view",
      "type": "function"
    },
    {
      "inputs": [],
      "name": "isDepositsDisabled",
      "outputs": [
        {
          "internalType": "bool",
          "name": "",
          "type": "bool"
        }
      ],
      "stateMutability": "view",
      "type": "function"
    },
    {
      "inputs": [],
      "name": "peerChainId",
      "outputs": [
        {
          "internalType": "uint64",
          "name": "",
          "type": "uint64"
        }
      ],
      "stateMutability": "view",
      "type": "function"
    },
    {
      "inputs": [],
      "name": "peerChainName",
      "outputs": [
        {
          "internalType": "string",
          "name": "",
          "type": "string"
        }
      ],
      "stateMutability": "view",
      "type": "function"
    },
    {
      "inputs": [],
      "name": "peerContract",
      "outputs": [
        {
          "internalType": "address",
          "name": "",
          "type": "address"
        }
      ],
      "stateMutability": "view",
      "type": "function"
    },
    {
      "inputs": [],
      "name": "sanctionsCheck",
      "outputs": [
        {
          "internalType": "bool",
          "name": "",
          "type": "bool"
        }
      ],
      "stateMutability": "view",
      "type": "function"
    },
    {
      "inputs": [],
      "name": "sanctionsList",
      "outputs": [
        {
          "internalType": "contract ISanctionsList",
          "name": "",
          "type": "address"
        }
      ],
      "stateMutability": "view",
      "type": "function"
    },
    {
      "inputs": [
        {
          "internalType": "address",
          "name": "_commitmentPoolAddress",
          "type": "address"
        }
      ],
      "name": "setAssociatedCommitmentPool",
      "outputs": [],
      "stateMutability": "nonpayable",
      "type": "function"
    },
    {
      "inputs": [
        {
          "internalType": "address",
          "name": "_gasReceiver",
          "type": "address"
        }
      ],
      "name": "setAxelarGasReceiver",
      "outputs": [],
      "stateMutability": "nonpayable",
      "type": "function"
    },
    {
      "inputs": [
        {
          "internalType": "address",
          "name": "_bridgeProxyAddress",
          "type": "address"
        }
      ],
      "name": "setBridgeProxyAddress",
      "outputs": [],
      "stateMutability": "nonpayable",
      "type": "function"
    },
    {
      "inputs": [
        {
          "internalType": "bool",
          "name": "_state",
          "type": "bool"
        }
      ],
      "name": "setDepositsDisabled",
      "outputs": [],
      "stateMutability": "nonpayable",
      "type": "function"
    },
    {
      "inputs": [
        {
          "internalType": "uint256",
          "name": "_minBridgeFee",
          "type": "uint256"
        }
      ],
      "name": "setMinBridgeFee",
      "outputs": [],
      "stateMutability": "nonpayable",
      "type": "function"
    },
    {
      "inputs": [
        {
          "internalType": "uint256",
          "name": "_minExecutorFee",
          "type": "uint256"
        }
      ],
      "name": "setMinExecutorFee",
      "outputs": [],
      "stateMutability": "nonpayable",
      "type": "function"
    },
    {
      "inputs": [
        {
          "internalType": "uint64",
          "name": "_peerChainId",
          "type": "uint64"
        },
        {
          "internalType": "string",
          "name": "_peerChainName",
          "type": "string"
        },
        {
          "internalType": "address",
          "name": "_peerContract",
          "type": "address"
        }
      ],
      "name": "setPeerContract",
      "outputs": [],
      "stateMutability": "nonpayable",
      "type": "function"
    },
    {
      "inputs": [
        {
          "internalType": "uint256",
          "name": "_peerMinExecutorFee",
          "type": "uint256"
        }
      ],
      "name": "setPeerMinExecutorFee",
      "outputs": [],
      "stateMutability": "nonpayable",
      "type": "function"
    },
    {
      "inputs": [
        {
          "internalType": "uint256",
          "name": "_peerMinRollupFee",
          "type": "uint256"
        }
      ],
      "name": "setPeerMinRollupFee",
      "outputs": [],
      "stateMutability": "nonpayable",
      "type": "function"
    },
    {
      "inputs": [
        {
          "internalType": "uint256",
          "name": "_maxAmount",
          "type": "uint256"
        },
        {
          "internalType": "uint256",
          "name": "_minAmount",
          "type": "uint256"
        }
      ],
      "name": "updateDepositAmountLimits",
      "outputs": [],
      "stateMutability": "nonpayable",
      "type": "function"
    },
    {
      "inputs": [
        {
          "internalType": "contract ISanctionsList",
          "name": "_sanction",
          "type": "address"
        }
      ],
      "name": "updateSanctionsListAddress",
      "outputs": [],
      "stateMutability": "nonpayable",
      "type": "function"
    }
  ],
  "bytecode": "0x6080604052600080546001600160a81b031916740140c57923924b5c5c5455c48d93317139addac8fb1790553480156200003857600080fd5b5060405162002e6138038062002e618339810160408190526200005b916200008f565b600c80546001600160a01b03199081163317909155600180546001600160a01b0390931692909116919091179055620000c1565b600060208284031215620000a257600080fd5b81516001600160a01b0381168114620000ba57600080fd5b9392505050565b612d9080620000d16000396000f3fe6080604052600436106102195760003560e01c80637d2c85201161011d578063ddac5dc1116100b0578063ea0cde851161007f578063ed6ea33a11610064578063ed6ea33a14610628578063efbfb2ae14610647578063f4ad17c61461065c57600080fd5b8063ea0cde85146105e8578063ec571c6a1461060857600080fd5b8063ddac5dc11461056a578063df42073714610588578063e19abef8146105a8578063e8183c44146105c857600080fd5b8063b1c39422116100ec578063b1c39422146104ce578063cdfceeba146104ff578063cfc7e2da14610540578063dd757c341461055557600080fd5b80637d2c852014610466578063825b5f8d146104865780639a03636c1461049b578063a3bc64f2146104ae57600080fd5b80632421e155116101b0578063491606581161017f578063521ff05711610164578063521ff057146104115780635898a0a8146104315780635e10b2b71461044657600080fd5b806349160658146103dc5780634e3c10b7146103fc57600080fd5b80632421e155146103315780632cd26d451461038057806330f49cac146103a05780633fe3347a146103c057600080fd5b8063153dc450116101ec578063153dc450146102b157806319e75d6e146102d15780631a98b2e0146102f157806321e32d551461031157600080fd5b806301dbf19f1461021e57806306394c9b146102355780630ba9590914610255578063116191b614610279575b600080fd5b34801561022a57600080fd5b50610233610671565b005b34801561024157600080fd5b5061023361025036600461251d565b6106f5565b34801561026157600080fd5b506007545b6040519081526020015b60405180910390f35b34801561028557600080fd5b50600d54610299906001600160a01b031681565b6040516001600160a01b039091168152602001610270565b3480156102bd57600080fd5b506102336102cc3660046127b0565b610799565b3480156102dd57600080fd5b506102336102ec3660046127b0565b610800565b3480156102fd57600080fd5b5061023361030c366004612618565b61085f565b34801561031d57600080fd5b50600454610299906001600160a01b031681565b34801561033d57600080fd5b5060408051808201909152600681527f6178656c6172000000000000000000000000000000000000000000000000000060208201525b6040516102709190612b3b565b34801561038c57600080fd5b50600554610299906001600160a01b031681565b3480156103ac57600080fd5b506102336103bb36600461251d565b6109e1565b3480156103cc57600080fd5b5060016040516102709190612b13565b3480156103e857600080fd5b506102336103f7366004612574565b610a5a565b34801561040857600080fd5b50610373610ada565b34801561041d57600080fd5b5061023361042c3660046127b0565b610b68565b34801561043d57600080fd5b50600a54610266565b34801561045257600080fd5b506102336104613660046127b0565b610c1b565b34801561047257600080fd5b50610233610481366004612804565b610c7b565b34801561049257600080fd5b50600b54610266565b6102336104a93660046126f2565b610d18565b3480156104ba57600080fd5b506102336104c936600461251d565b610f28565b3480156104da57600080fd5b506000546104ef90600160a01b900460ff1681565b6040519015158152602001610270565b34801561050b57600080fd5b5060025461052790600160a01b900467ffffffffffffffff1681565b60405167ffffffffffffffff9091168152602001610270565b34801561054c57600080fd5b50600654610266565b34801561056157600080fd5b50610233610f75565b34801561057657600080fd5b506002546001600160a01b0316610299565b34801561059457600080fd5b506102336105a336600461251d565b610fed565b3480156105b457600080fd5b506102336105c336600461251d565b61103a565b3480156105d457600080fd5b506102336105e33660046127e2565b611087565b3480156105f457600080fd5b5061023361060336600461253a565b61111a565b34801561061457600080fd5b50600054610299906001600160a01b031681565b34801561063457600080fd5b50600c54600160a01b900460ff166104ef565b34801561065357600080fd5b50600854610266565b34801561066857600080fd5b50600954610266565b600c546001600160a01b0316331461069c576040516327e1f1e560e01b815260040160405180910390fd5b6000805460ff60a01b1916600160a01b908117918290556040517fa5ffe1601eb93a7fefd0d0eeb5fc94a2f65475f333836fe2b87fd7bbf5952069926106eb92900460ff161515815260200190565b60405180910390a1565b600c546001600160a01b03163314610720576040516327e1f1e560e01b815260040160405180910390fd5b600c546001600160a01b038281169116141561074f576040516336a1c33f60e01b815260040160405180910390fd5b600c80546001600160a01b0319166001600160a01b0383169081179091556040517f4721129e0e676ed6a92909bb24e853ccdd63ad72280cc2e974e38e480e0e6e5490600090a250565b600c546001600160a01b031633146107c4576040516327e1f1e560e01b815260040160405180910390fd5b600a8190556040518181527f14988234d3e50a12aeec2d6ee595b70c2fae163caff28baab5802b122bf2a753906020015b60405180910390a150565b600c546001600160a01b0316331461082b576040516327e1f1e560e01b815260040160405180910390fd5b60088190556040518181527e91f5f5db3092e39ecb701218d4af20b7571e0429595937c334f3acd14fe2fe906020016107f5565b6000858560405161087192919061297a565b604051908190038120600d54631876eed960e01b83529092506001600160a01b031690631876eed9906108b8908e908e908e908e908e9089908d908d908d90600401612ab4565b602060405180830381600087803b1580156108d257600080fd5b505af11580156108e6573d6000803e3d6000fd5b505050506040513d601f19601f8201168201806040525081019061090a9190612557565b61092757604051631403112d60e21b815260040160405180910390fd5b6109d48a8a8080601f01602080910402602001604051908101604052809392919081815260200183838082843760009201919091525050604080516020601f8e018190048102820181019092528c815292508c91508b908190840183828082843760009201919091525050604080516020601f8b018190048102820181019092528981528c93508b9250908a908a90819084018382808284376000920191909152508a9250611192915050565b5050505050505050505050565b600c546001600160a01b03163314610a0c576040516327e1f1e560e01b815260040160405180910390fd5b600080546001600160a01b0319166001600160a01b0383169081179091556040519081527fbe1808917e09814fca7d80289a9760a4065f10d624ac1aee0b9f903c4f5d92b1906020016107f5565b610ad186868080601f01602080910402602001604051908101604052809392919081815260200183838082843760009201919091525050604080516020601f8a01819004810282018101909252888152925088915087908190840183828082843760009201919091525087925086915061119a9050565b50505050505050565b60038054610ae790612cb7565b80601f0160208091040260200160405190810160405280929190818152602001828054610b1390612cb7565b8015610b605780601f10610b3557610100808354040283529160200191610b60565b820191906000526020600020905b815481529060010190602001808311610b4357829003601f168201915b505050505081565b600c546001600160a01b03163314610b93576040516327e1f1e560e01b815260040160405180910390fd5b80610be6576040516314e8955b60e21b815260206004820152601760248201527f70656572206d696e696d616c20726f6c6c75702066656500000000000000000060448201526064015b60405180910390fd5b600b8190556040518181527f878075a8e8aa1c7c15e6932752520f7812bf5744785e6df605373729da415545906020016107f5565b600c546001600160a01b03163314610c46576040516327e1f1e560e01b815260040160405180910390fd5b60098190556040518181527f88d210dfa198f7519579294721f90c771153a7b49101eefb95147037cc8ce481906020016107f5565b600c546001600160a01b03163314610ca6576040516327e1f1e560e01b815260040160405180910390fd5b600280547fffffffff0000000000000000ffffffffffffffffffffffffffffffffffffffff16600160a01b67ffffffffffffffff8616021790558151610cf390600390602085019061238c565b50600480546001600160a01b0319166001600160a01b03929092169190911790555050565b600c54600160a01b900460ff1615610d4357604051630e2f42c960e31b815260040160405180910390fd5b60065481511015610d675760405163617ab12d60e11b815260040160405180910390fd5b60075481511115610d8b57604051630625040160e01b815260040160405180910390fd5b6008548160a001511015610db25760405163c4d8d00d60e01b815260040160405180910390fd5b600a548160c001511015610dd9576040516355a6d6a160e11b815260040160405180910390fd5b600b548160e001511015610e005760405163784f02bd60e11b815260040160405180910390fd5b6000610e19826040015183600001518460600151611212565b905080826020015114610e3f576040516301bfaa2560e51b815260040160405180910390fd5b610e4833611338565b15610e6657604051632e70c0b160e01b815260040160405180910390fd5b6040805160a081018252835181526020808501519082015260c08401519181019190915260e08301516060820152608080840151908201526000610ea9826113d5565b9050610eb98460a0015182611444565b60025460e085015160c08601518651610ef4936001600160a01b03169291610ee091612c3d565b610eea9190612c3d565b8660a00151611571565b60208401516040517fd106eb38b3368b7c294e36fae5513fdefe880be5abfad529b37b044f2fdd2dbe90600090a250505050565b600c546001600160a01b03163314610f53576040516327e1f1e560e01b815260040160405180910390fd5b600580546001600160a01b0319166001600160a01b0392909216919091179055565b600c546001600160a01b03163314610fa0576040516327e1f1e560e01b815260040160405180910390fd5b6000805460ff60a01b1916908190556040517fa5ffe1601eb93a7fefd0d0eeb5fc94a2f65475f333836fe2b87fd7bbf5952069916106eb91600160a01b90910460ff161515815260200190565b600c546001600160a01b03163314611018576040516327e1f1e560e01b815260040160405180910390fd5b600e80546001600160a01b0319166001600160a01b0392909216919091179055565b600c546001600160a01b03163314611065576040516327e1f1e560e01b815260040160405180910390fd5b600280546001600160a01b0319166001600160a01b0392909216919091179055565b600c546001600160a01b031633146110b2576040516327e1f1e560e01b815260040160405180910390fd5b818111156110d357604051636003e82160e11b815260040160405180910390fd5b6007829055600681905560408051838152602081018390527f7633004c7a229869aeea10db4ff3e57e3b1534aeb2c9e72c5db25f965895c330910160405180910390a15050565b600c546001600160a01b03163314611145576040516327e1f1e560e01b815260040160405180910390fd5b600c8054821515600160a01b0260ff60a01b199091161790556040517fcd162c6fc24285bfbe399ec0cc2ce2c380ad27d2eb1fca418c652df1257e7e09906107f590831515815260200190565b505050505050565b60006111db83838080601f01602080910402602001604051908101604052809392919081815260200183838082843760009201919091525061167292505050565b60025460045491925061120b91600160a01b90910467ffffffffffffffff16906001600160a01b0316328461173a565b5050505050565b60007f30644e72e131a029b85045b68181585d2833e84879b9709143e1f593f00000018085106112555760405163805f2a4960e01b815260040160405180910390fd5b80836fffffffffffffffffffffffffffffffff161061128757604051633bbde0bf60e21b815260040160405180910390fd5b60015460408051606081018252878152602081018790526fffffffffffffffffffffffffffffffff86168183015290516304b98e1d60e31b81526001600160a01b03909216916325cc70e8916112df91600401612a83565b60206040518083038186803b1580156112f757600080fd5b505afa15801561130b573d6000803e3d6000fd5b505050506040513d601f19601f8201168201806040525081019061132f91906127c9565b95945050505050565b60008054600160a01b900460ff1661135257506000919050565b60005460405163df592f7d60e01b81526001600160a01b0384811660048301529091169063df592f7d9060240160206040518083038186803b15801561139757600080fd5b505afa1580156113ab573d6000803e3d6000fd5b505050506040513d601f19601f820116820180604052508101906113cf9190612557565b92915050565b6060806113e58360000151611827565b6113f28460200151611827565b6113ff8560400151611827565b61140c8660600151611827565b61141987608001516118bf565b60405160200161142d9594939291906129b9565b60408051601f198184030181529190529392505050565b60045460009061145e906001600160a01b031660146118f6565b905082156114d457600e54604051630c93e3bb60e01b81526001600160a01b0390911690630c93e3bb9085906114a1903090600390879089903390600401612a24565b6000604051808303818588803b1580156114ba57600080fd5b505af11580156114ce573d6000803e3d6000fd5b50505050505b7fe68d82569479581bf9793b8672c8f40b6d3ad0545719dc0579fb3ee30919d3ef600382604051611506929190612b4e565b60405180910390a1600554604051631c92115f60e01b81526001600160a01b0390911690631c92115f906115439060039085908790600401612b73565b600060405180830381600087803b15801561155d57600080fd5b505af1158015610ad1573d6000803e3d6000fd5b61157b8183612c3d565b34146115c95760405162461bcd60e51b815260206004820152601260248201527f696e73756666696369656e7420746f6b656e00000000000000000000000000006044820152606401610bdd565b6000836001600160a01b03168360405160006040518083038185875af1925050503d8060008114611616576040519150601f19603f3d011682016040523d82523d6000602084013e61161b565b606091505b505090508061166c5760405162461bcd60e51b815260206004820152601660248201527f616d6f756e74207472616e73666572206661696c6564000000000000000000006044820152606401610bdd565b50505050565b6116a46040518060a0016040528060008152602001600081526020016000815260200160008152602001606081525090565b6116d66040518060a0016040528060008152602001600081526020016000815260200160008152602001606081525090565b60006116e28482611aa6565b90835290506116f18482611aa6565b602084019190915290506117058482611aa6565b604084019190915290506117198482611aa6565b6060840191909152905061172d8482611bd7565b5060808301525092915050565b6004546001600160a01b0384811691161461176857604051631440e07960e11b815260040160405180910390fd5b60025467ffffffffffffffff858116600160a01b909204161461179e57604051633876304f60e21b815260040160405180910390fd5b80516117bd5760405163820bf1e560e01b815260040160405180910390fd5b6002546040516378d60cd760e01b81526001600160a01b03909116906378d60cd7906117ef9084908690600401612bb6565b600060405180830381600087803b15801561180957600080fd5b505af115801561181d573d6000803e3d6000fd5b5050505050505050565b60606001600160ff1b038211156118805760405162461bcd60e51b815260206004820152601b60248201527f56616c756520657863656564732075696e743235352072616e676500000000006044820152606401610bdd565b60405160208082526000601f5b828210156118af5785811a82602086010153600191909101906000190161188d565b5050506040818101905292915050565b80516060906118cd81611ce4565b836040516020016118df92919061298a565b604051602081830303815290604052915050919050565b60606000611905836002612c55565b611910906002612c3d565b67ffffffffffffffff81111561192857611928612d1e565b6040519080825280601f01601f191660200182016040528015611952576020820181803683370190505b509050600360fc1b8160008151811061196d5761196d612d08565b60200101906001600160f81b031916908160001a905350600f60fb1b8160018151811061199c5761199c612d08565b60200101906001600160f81b031916908160001a90535060006119c0846002612c55565b6119cb906001612c3d565b90505b6001811115611a50577f303132333435363738396162636465660000000000000000000000000000000085600f1660108110611a0c57611a0c612d08565b1a60f81b828281518110611a2257611a22612d08565b60200101906001600160f81b031916908160001a90535060049490941c93611a4981612ca0565b90506119ce565b508315611a9f5760405162461bcd60e51b815260206004820181905260248201527f537472696e67733a20686578206c656e67746820696e73756666696369656e746044820152606401610bdd565b9392505050565b6000808351836020611ab89190612c3d565b11158015611acf5750611acc836020612c3d565b83105b611b275760405162461bcd60e51b815260206004820152602360248201527f4e65787455696e743235352c206f66667365742065786365656473206d6178696044820152626d756d60e81b6064820152608401610bdd565b600060405160206000600182038760208a0101515b83831015611b5c5780821a83860153600183019250600182039150611b3c565b50505081016040525190506001600160ff1b03811115611bbe5760405162461bcd60e51b815260206004820152601760248201527f56616c75652065786365656473207468652072616e67650000000000000000006044820152606401610bdd565b80611bca856020612c3d565b92509250505b9250929050565b6060600080611be68585611db1565b8651909550909150611bf88286612c3d565b11158015611c0e5750611c0b8185612c3d565b84105b611c665760405162461bcd60e51b8152602060048201526024808201527f4e65787456617242797465732c206f66667365742065786365656473206d6178604482015263696d756d60e01b6064820152608401610bdd565b606081158015611c8157604051915060208201604052611ccb565b6040519150601f8316801560200281840101848101888315602002848c0101015b81831015611cba578051835260209283019201611ca2565b5050848452601f01601f1916604052505b5080611cd78387612c3d565b9350935050509250929050565b606060fd8267ffffffffffffffff161015611d1757604080516001815260f884901b6020820152602181019091526113cf565b61ffff8267ffffffffffffffff1611611d6757611d3760fd60f81b611fb7565b611d4083611fde565b604051602001611d5192919061298a565b6040516020818303038152906040529050919050565b63ffffffff8267ffffffffffffffff1611611d9257611d89607f60f91b611fb7565b611d4083612021565b611da36001600160f81b0319611fb7565b611d4083612064565b919050565b6000806000611dc085856120a7565b94509050600060fd60f81b6001600160f81b031983161415611e5957611de6868661212f565b955061ffff16905060fd8110801590611e01575061ffff8111155b611e4d5760405162461bcd60e51b815260206004820152601f60248201527f4e65787455696e7431362c2076616c7565206f7574736964652072616e6765006044820152606401610bdd565b9250839150611bd09050565b607f60f91b6001600160f81b031983161415611ee457611e7986866121e8565b955063ffffffff16905061ffff81118015611e98575063ffffffff8111155b611e4d5760405162461bcd60e51b815260206004820181905260248201527f4e65787456617255696e742c2076616c7565206f7574736964652072616e67656044820152606401610bdd565b6001600160f81b03198083161415611f6157611f0086866122ba565b955067ffffffffffffffff16905063ffffffff8111611e4d5760405162461bcd60e51b815260206004820181905260248201527f4e65787456617255696e742c2076616c7565206f7574736964652072616e67656044820152606401610bdd565b5060f881901c60fd8110611e4d5760405162461bcd60e51b815260206004820181905260248201527f4e65787456617255696e742c2076616c7565206f7574736964652072616e67656044820152606401610bdd565b60408051600181526001600160f81b031983166020820152602181019091526060906113cf565b6040516002808252606091906000601f5b828210156120115785811a826020860101536001919091019060001901611fef565b5050506022810160405292915050565b6040516004808252606091906000601f5b828210156120545785811a826020860101536001919091019060001901612032565b5050506024810160405292915050565b6040516008808252606091906000601f5b828210156120975785811a826020860101536001919091019060001901612075565b5050506028810160405292915050565b60008083518360016120b99190612c3d565b111580156120d057506120cd836001612c3d565b83105b61211c5760405162461bcd60e51b815260206004820181905260248201527f4e657874427974652c204f66667365742065786365656473206d6178696d756d6044820152606401610bdd565b8383016020015180611bca856001612c3d565b60008083518360026121419190612c3d565b111580156121585750612155836002612c3d565b83105b6121af5760405162461bcd60e51b815260206004820152602260248201527f4e65787455696e7431362c206f66667365742065786365656473206d6178696d604482015261756d60f01b6064820152608401610bdd565b6000604051846020870101518060011a82538060001a60018301535060028101604052601e81035191505080846002611bca9190612c3d565b60008083518360046121fa9190612c3d565b11158015612211575061220e836004612c3d565b83105b6122685760405162461bcd60e51b815260206004820152602260248201527f4e65787455696e7433322c206f66667365742065786365656473206d6178696d604482015261756d60f01b6064820152608401610bdd565b600060405160046000600182038760208a0101515b8383101561229d5780821a8386015360018301925060018203915061227d565b505050818101604052602003900351905080611bca856004612c3d565b60008083518360086122cc9190612c3d565b111580156122e357506122e0836008612c3d565b83105b61233a5760405162461bcd60e51b815260206004820152602260248201527f4e65787455696e7436342c206f66667365742065786365656473206d6178696d604482015261756d60f01b6064820152608401610bdd565b600060405160086000600182038760208a0101515b8383101561236f5780821a8386015360018301925060018203915061234f565b505050818101604052602003900351905080611bca856008612c3d565b82805461239890612cb7565b90600052602060002090601f0160209004810192826123ba5760008555612400565b82601f106123d357805160ff1916838001178555612400565b82800160010185558215612400579182015b828111156124005782518255916020019190600101906123e5565b5061240c929150612410565b5090565b5b8082111561240c5760008155600101612411565b600067ffffffffffffffff8084111561244057612440612d1e565b604051601f8501601f19908116603f0116810190828211818310171561246857612468612d1e565b8160405280935085815286868601111561248157600080fd5b858560208301376000602087830101525050509392505050565b60008083601f8401126124ad57600080fd5b50813567ffffffffffffffff8111156124c557600080fd5b602083019150836020828501011115611bd057600080fd5b600082601f8301126124ee57600080fd5b611a9f83833560208501612425565b80356fffffffffffffffffffffffffffffffff81168114611dac57600080fd5b60006020828403121561252f57600080fd5b8135611a9f81612d34565b60006020828403121561254c57600080fd5b8135611a9f81612d4c565b60006020828403121561256957600080fd5b8151611a9f81612d4c565b60008060008060008060006080888a03121561258f57600080fd5b87359650602088013567ffffffffffffffff808211156125ae57600080fd5b6125ba8b838c0161249b565b909850965060408a01359150808211156125d357600080fd5b6125df8b838c0161249b565b909650945060608a01359150808211156125f857600080fd5b506126058a828b0161249b565b989b979a50959850939692959293505050565b60008060008060008060008060008060c08b8d03121561263757600080fd5b8a35995060208b013567ffffffffffffffff8082111561265657600080fd5b6126628e838f0161249b565b909b50995060408d013591508082111561267b57600080fd5b6126878e838f0161249b565b909950975060608d01359150808211156126a057600080fd5b6126ac8e838f0161249b565b909750955060808d01359150808211156126c557600080fd5b506126d28d828e0161249b565b9150809450508092505060a08b013590509295989b9194979a5092959850565b60006020828403121561270457600080fd5b813567ffffffffffffffff8082111561271c57600080fd5b90830190610100828603121561273157600080fd5b612739612c13565b82358152602083013560208201526040830135604082015261275d606084016124fd565b606082015260808301358281111561277457600080fd5b612780878286016124dd565b60808301525060a083013560a082015260c083013560c082015260e083013560e082015280935050505092915050565b6000602082840312156127c257600080fd5b5035919050565b6000602082840312156127db57600080fd5b5051919050565b600080604083850312156127f557600080fd5b50508035926020909101359150565b60008060006060848603121561281957600080fd5b833567ffffffffffffffff808216821461283257600080fd5b9093506020850135908082111561284857600080fd5b508401601f8101861361285a57600080fd5b61286986823560208401612425565b925050604084013561287a81612d34565b809150509250925092565b6000815180845261289d816020860160208601612c74565b601f01601f19169290920160200192915050565b81835281816020850137506000828201602090810191909152601f909101601f19169091010190565b8054600090600181811c90808316806128f457607f831692505b602080841082141561291657634e487b7160e01b600052602260045260246000fd5b8388526020880182801561293157600181146129425761296d565b60ff1987168252828201975061296d565b60008981526020902060005b878110156129675781548482015290860190840161294e565b83019850505b5050505050505092915050565b8183823760009101908152919050565b6000835161299c818460208801612c74565b8351908301906129b0818360208801612c74565b01949350505050565b600086516129cb818460208b01612c74565b8651908301906129df818360208b01612c74565b86519101906129f2818360208a01612c74565b8551910190612a05818360208901612c74565b8451910190612a18818360208801612c74565b01979650505050505050565b60006001600160a01b03808816835260a06020840152612a4760a08401886128da565b8381036040850152612a598188612885565b90508381036060850152612a6d8187612885565b9250508084166080840152509695505050505050565b60608101818360005b6003811015612aab578151835260209283019290910190600101612a8c565b50505092915050565b89815260c060208201526000612ace60c083018a8c6128b1565b8281036040840152612ae181898b6128b1565b90508660608401528281036080840152612afc8186886128b1565b9150508260a08301529a9950505050505050505050565b6020810160028310612b3557634e487b7160e01b600052602160045260246000fd5b91905290565b602081526000611a9f6020830184612885565b604081526000612b6160408301856128da565b828103602084015261132f8185612885565b606081526000612b8660608301866128da565b8281036020840152612b988186612885565b90508281036040840152612bac8185612885565b9695505050505050565b60408152825160408201526020830151606082015260408301516080820152606083015160a08201526000608084015160a060c0840152612bfa60e0840182612885565b9150506001600160a01b03831660208301529392505050565b604051610100810167ffffffffffffffff81118282101715612c3757612c37612d1e565b60405290565b60008219821115612c5057612c50612cf2565b500190565b6000816000190483118215151615612c6f57612c6f612cf2565b500290565b60005b83811015612c8f578181015183820152602001612c77565b8381111561166c5750506000910152565b600081612caf57612caf612cf2565b506000190190565b600181811c90821680612ccb57607f821691505b60208210811415612cec57634e487b7160e01b600052602260045260246000fd5b50919050565b634e487b7160e01b600052601160045260246000fd5b634e487b7160e01b600052603260045260246000fd5b634e487b7160e01b600052604160045260246000fd5b6001600160a01b0381168114612d4957600080fd5b50565b8015158114612d4957600080fdfea2646970667358221220e57ae050f9ff5169fd33a35f18673d7ebb9e64f228bd632151a0650ae14b76c864736f6c63430008070033",
  "linkReferences": {},
  "deployedLinkReferences": {}
}