{
  "_format": "hh-sol-artifact-1",
  "contractName": "MystikoV2LayerZeroERC20",
  "sourceName": "contracts/core/deposit/layerzero/MystikoV2LayerZeroERC20.sol",
  "abi": [
    {
      "inputs": [
        {
          "internalType": "contract IHasher3",
          "name": "_hasher3",
          "type": "address"
        },
        {
          "internalType": "contract IERC20Metadata",
          "name": "_token",
          "type": "address"
        },
        {
          "internalType": "address",
          "name": "_bridgeProxyAddress",
          "type": "address"
        },
        {
          "internalType": "address",
          "name": "_settingsCenter",
          "type": "address"
        },
        {
          "components": [
            {
              "internalType": "uint256",
              "name": "minAmount",
              "type": "uint256"
            },
            {
              "internalType": "uint256",
              "name": "maxAmount",
              "type": "uint256"
            },
            {
              "internalType": "uint256",
              "name": "minBridgeFee",
              "type": "uint256"
            }
          ],
          "internalType": "struct IMystikoBridge.LocalConfig",
          "name": "_localConfig",
          "type": "tuple"
        },
        {
          "components": [
            {
              "internalType": "uint256",
              "name": "peerMinExecutorFee",
              "type": "uint256"
            },
            {
              "internalType": "uint256",
              "name": "peerMinRollupFee",
              "type": "uint256"
            }
          ],
          "internalType": "struct IMystikoBridge.PeerConfig",
          "name": "_peerConfig",
          "type": "tuple"
        }
      ],
      "stateMutability": "nonpayable",
      "type": "constructor"
    },
    {
      "inputs": [
        {
          "internalType": "address",
          "name": "target",
          "type": "address"
        }
      ],
      "name": "AddressEmptyCode",
      "type": "error"
    },
    {
      "inputs": [
        {
          "internalType": "address",
          "name": "account",
          "type": "address"
        }
      ],
      "name": "AddressInsufficientBalance",
      "type": "error"
    },
    {
      "inputs": [],
      "name": "AmountLessThanZero",
      "type": "error"
    },
    {
      "inputs": [],
      "name": "AmountTooLarge",
      "type": "error"
    },
    {
      "inputs": [],
      "name": "AmountTooSmall",
      "type": "error"
    },
    {
      "inputs": [],
      "name": "AssociatedPoolNotSet",
      "type": "error"
    },
    {
      "inputs": [],
      "name": "BridgeFeeTooFew",
      "type": "error"
    },
    {
      "inputs": [],
      "name": "CallIsNotLzApp",
      "type": "error"
    },
    {
      "inputs": [],
      "name": "CertificateInvalid",
      "type": "error"
    },
    {
      "inputs": [],
      "name": "CommitmentHashIncorrect",
      "type": "error"
    },
    {
      "inputs": [],
      "name": "DepositsDisabled",
      "type": "error"
    },
    {
      "inputs": [],
      "name": "DestinationChainIsNotTrusted",
      "type": "error"
    },
    {
      "inputs": [],
      "name": "ExecutorFeeTooFew",
      "type": "error"
    },
    {
      "inputs": [],
      "name": "FailedInnerCall",
      "type": "error"
    },
    {
      "inputs": [],
      "name": "HashKGreaterThanFieldSize",
      "type": "error"
    },
    {
      "inputs": [
        {
          "internalType": "string",
          "name": "param",
          "type": "string"
        }
      ],
      "name": "Invalid",
      "type": "error"
    },
    {
      "inputs": [],
      "name": "NoStoredMessage",
      "type": "error"
    },
    {
      "inputs": [],
      "name": "NotSupport",
      "type": "error"
    },
    {
      "inputs": [
        {
          "internalType": "address",
          "name": "owner",
          "type": "address"
        }
      ],
      "name": "OwnableInvalidOwner",
      "type": "error"
    },
    {
      "inputs": [
        {
          "internalType": "address",
          "name": "account",
          "type": "address"
        }
      ],
      "name": "OwnableUnauthorizedAccount",
      "type": "error"
    },
    {
      "inputs": [],
      "name": "PeerChainIdNotMatched",
      "type": "error"
    },
    {
      "inputs": [],
      "name": "PeerContractAlreadySet",
      "type": "error"
    },
    {
      "inputs": [],
      "name": "PeerContractNotMatched",
      "type": "error"
    },
    {
      "inputs": [],
      "name": "RandomSGreaterThanFieldSize",
      "type": "error"
    },
    {
      "inputs": [],
      "name": "RollupFeeToFew",
      "type": "error"
    },
    {
      "inputs": [
        {
          "internalType": "address",
          "name": "token",
          "type": "address"
        }
      ],
      "name": "SafeERC20FailedOperation",
      "type": "error"
    },
    {
      "inputs": [],
      "name": "SanctionedAddress",
      "type": "error"
    },
    {
      "anonymous": false,
      "inputs": [
        {
          "indexed": true,
          "internalType": "uint256",
          "name": "commitment",
          "type": "uint256"
        }
      ],
      "name": "CommitmentCrossChain",
      "type": "event"
    },
    {
      "anonymous": false,
      "inputs": [
        {
          "indexed": false,
          "internalType": "uint16",
          "name": "_srcChainId",
          "type": "uint16"
        },
        {
          "indexed": false,
          "internalType": "bytes",
          "name": "_srcAddress",
          "type": "bytes"
        },
        {
          "indexed": false,
          "internalType": "uint64",
          "name": "_nonce",
          "type": "uint64"
        },
        {
          "indexed": false,
          "internalType": "bytes",
          "name": "_payload",
          "type": "bytes"
        }
      ],
      "name": "MessageFailed",
      "type": "event"
    },
    {
      "anonymous": false,
      "inputs": [
        {
          "indexed": true,
          "internalType": "address",
          "name": "previousOwner",
          "type": "address"
        },
        {
          "indexed": true,
          "internalType": "address",
          "name": "newOwner",
          "type": "address"
        }
      ],
      "name": "OwnershipTransferred",
      "type": "event"
    },
    {
      "anonymous": false,
      "inputs": [
        {
          "indexed": false,
          "internalType": "uint16",
          "name": "_srcChainId",
          "type": "uint16"
        },
        {
          "indexed": false,
          "internalType": "bytes",
          "name": "_srcAddress",
          "type": "bytes"
        }
      ],
      "name": "SetTrustedRemote",
      "type": "event"
    },
    {
      "inputs": [],
      "name": "assetAddress",
      "outputs": [
        {
          "internalType": "address",
          "name": "",
          "type": "address"
        }
      ],
      "stateMutability": "view",
      "type": "function"
    },
    {
      "inputs": [],
      "name": "assetDecimals",
      "outputs": [
        {
          "internalType": "uint8",
          "name": "",
          "type": "uint8"
        }
      ],
      "stateMutability": "view",
      "type": "function"
    },
    {
      "inputs": [],
      "name": "assetName",
      "outputs": [
        {
          "internalType": "string",
          "name": "",
          "type": "string"
        }
      ],
      "stateMutability": "view",
      "type": "function"
    },
    {
      "inputs": [],
      "name": "assetSymbol",
      "outputs": [
        {
          "internalType": "string",
          "name": "",
          "type": "string"
        }
      ],
      "stateMutability": "view",
      "type": "function"
    },
    {
      "inputs": [],
      "name": "assetType",
      "outputs": [
        {
          "internalType": "enum AssetPool.AssetType",
          "name": "",
          "type": "uint8"
        }
      ],
      "stateMutability": "pure",
      "type": "function"
    },
    {
      "inputs": [],
      "name": "bridgeProxyAddress",
      "outputs": [
        {
          "internalType": "address",
          "name": "",
          "type": "address"
        }
      ],
      "stateMutability": "view",
      "type": "function"
    },
    {
      "inputs": [],
      "name": "bridgeType",
      "outputs": [
        {
          "internalType": "string",
          "name": "",
          "type": "string"
        }
      ],
      "stateMutability": "pure",
      "type": "function"
    },
    {
      "inputs": [
        {
          "components": [
            {
              "internalType": "uint256",
              "name": "amount",
              "type": "uint256"
            },
            {
              "internalType": "uint256",
              "name": "commitment",
              "type": "uint256"
            },
            {
              "internalType": "uint256",
              "name": "hashK",
              "type": "uint256"
            },
            {
              "internalType": "uint128",
              "name": "randomS",
              "type": "uint128"
            },
            {
              "internalType": "bytes",
              "name": "encryptedNote",
              "type": "bytes"
            },
            {
              "internalType": "uint256",
              "name": "bridgeFee",
              "type": "uint256"
            },
            {
              "internalType": "uint256",
              "name": "executorFee",
              "type": "uint256"
            },
            {
              "internalType": "uint256",
              "name": "rollupFee",
              "type": "uint256"
            }
          ],
          "internalType": "struct IMystikoBridge.DepositRequest",
          "name": "_request",
          "type": "tuple"
        },
        {
          "internalType": "uint256",
          "name": "_certificateDeadline",
          "type": "uint256"
        },
        {
          "internalType": "bytes",
          "name": "_certificateSignature",
          "type": "bytes"
        }
      ],
      "name": "certDeposit",
      "outputs": [],
      "stateMutability": "payable",
      "type": "function"
    },
    {
      "inputs": [],
      "name": "defaultMaxAmount",
      "outputs": [
        {
          "internalType": "uint256",
          "name": "",
          "type": "uint256"
        }
      ],
      "stateMutability": "view",
      "type": "function"
    },
    {
      "inputs": [],
      "name": "defaultMinAmount",
      "outputs": [
        {
          "internalType": "uint256",
          "name": "",
          "type": "uint256"
        }
      ],
      "stateMutability": "view",
      "type": "function"
    },
    {
      "inputs": [],
      "name": "defaultMinBridgeFee",
      "outputs": [
        {
          "internalType": "uint256",
          "name": "",
          "type": "uint256"
        }
      ],
      "stateMutability": "view",
      "type": "function"
    },
    {
      "inputs": [],
      "name": "defaultPeerMinExecutorFee",
      "outputs": [
        {
          "internalType": "uint256",
          "name": "",
          "type": "uint256"
        }
      ],
      "stateMutability": "view",
      "type": "function"
    },
    {
      "inputs": [],
      "name": "defaultPeerMinRollupFee",
      "outputs": [
        {
          "internalType": "uint256",
          "name": "",
          "type": "uint256"
        }
      ],
      "stateMutability": "view",
      "type": "function"
    },
    {
      "inputs": [
        {
          "components": [
            {
              "internalType": "uint256",
              "name": "amount",
              "type": "uint256"
            },
            {
              "internalType": "uint256",
              "name": "commitment",
              "type": "uint256"
            },
            {
              "internalType": "uint256",
              "name": "hashK",
              "type": "uint256"
            },
            {
              "internalType": "uint128",
              "name": "randomS",
              "type": "uint128"
            },
            {
              "internalType": "bytes",
              "name": "encryptedNote",
              "type": "bytes"
            },
            {
              "internalType": "uint256",
              "name": "bridgeFee",
              "type": "uint256"
            },
            {
              "internalType": "uint256",
              "name": "executorFee",
              "type": "uint256"
            },
            {
              "internalType": "uint256",
              "name": "rollupFee",
              "type": "uint256"
            }
          ],
          "internalType": "struct IMystikoBridge.DepositRequest",
          "name": "_request",
          "type": "tuple"
        }
      ],
      "name": "deposit",
      "outputs": [],
      "stateMutability": "payable",
      "type": "function"
    },
    {
      "inputs": [
        {
          "internalType": "uint16",
          "name": "",
          "type": "uint16"
        },
        {
          "internalType": "bytes",
          "name": "",
          "type": "bytes"
        },
        {
          "internalType": "uint64",
          "name": "",
          "type": "uint64"
        }
      ],
      "name": "failedMessages",
      "outputs": [
        {
          "internalType": "bytes32",
          "name": "",
          "type": "bytes32"
        }
      ],
      "stateMutability": "view",
      "type": "function"
    },
    {
      "inputs": [
        {
          "internalType": "uint16",
          "name": "_srcChainId",
          "type": "uint16"
        },
        {
          "internalType": "bytes",
          "name": "_srcAddress",
          "type": "bytes"
        }
      ],
      "name": "forceResumeReceive",
      "outputs": [],
      "stateMutability": "nonpayable",
      "type": "function"
    },
    {
      "inputs": [],
      "name": "getAssociatedCommitmentPool",
      "outputs": [
        {
          "internalType": "address",
          "name": "",
          "type": "address"
        }
      ],
      "stateMutability": "view",
      "type": "function"
    },
    {
      "inputs": [
        {
          "internalType": "uint16",
          "name": "_version",
          "type": "uint16"
        },
        {
          "internalType": "uint16",
          "name": "_chainId",
          "type": "uint16"
        },
        {
          "internalType": "address",
          "name": "",
          "type": "address"
        },
        {
          "internalType": "uint256",
          "name": "_configType",
          "type": "uint256"
        }
      ],
      "name": "getConfig",
      "outputs": [
        {
          "internalType": "bytes",
          "name": "",
          "type": "bytes"
        }
      ],
      "stateMutability": "view",
      "type": "function"
    },
    {
      "inputs": [],
      "name": "getMaxAmount",
      "outputs": [
        {
          "internalType": "uint256",
          "name": "",
          "type": "uint256"
        }
      ],
      "stateMutability": "view",
      "type": "function"
    },
    {
      "inputs": [],
      "name": "getMinAmount",
      "outputs": [
        {
          "internalType": "uint256",
          "name": "",
          "type": "uint256"
        }
      ],
      "stateMutability": "view",
      "type": "function"
    },
    {
      "inputs": [],
      "name": "getMinBridgeFee",
      "outputs": [
        {
          "internalType": "uint256",
          "name": "",
          "type": "uint256"
        }
      ],
      "stateMutability": "view",
      "type": "function"
    },
    {
      "inputs": [],
      "name": "getMinExecutorFee",
      "outputs": [
        {
          "internalType": "uint256",
          "name": "",
          "type": "uint256"
        }
      ],
      "stateMutability": "view",
      "type": "function"
    },
    {
      "inputs": [],
      "name": "getPeerMinRollupFee",
      "outputs": [
        {
          "internalType": "uint256",
          "name": "",
          "type": "uint256"
        }
      ],
      "stateMutability": "view",
      "type": "function"
    },
    {
      "inputs": [],
      "name": "isDepositsDisabled",
      "outputs": [
        {
          "internalType": "bool",
          "name": "",
          "type": "bool"
        }
      ],
      "stateMutability": "view",
      "type": "function"
    },
    {
      "inputs": [],
      "name": "isPeerContractSet",
      "outputs": [
        {
          "internalType": "bool",
          "name": "",
          "type": "bool"
        }
      ],
      "stateMutability": "view",
      "type": "function"
    },
    {
      "inputs": [
        {
          "internalType": "uint16",
          "name": "_srcChainId",
          "type": "uint16"
        },
        {
          "internalType": "bytes",
          "name": "_srcAddress",
          "type": "bytes"
        }
      ],
      "name": "isTrustedRemote",
      "outputs": [
        {
          "internalType": "bool",
          "name": "",
          "type": "bool"
        }
      ],
      "stateMutability": "view",
      "type": "function"
    },
    {
      "inputs": [],
      "name": "localLayerZeroChainId",
      "outputs": [
        {
          "internalType": "uint16",
          "name": "",
          "type": "uint16"
        }
      ],
      "stateMutability": "view",
      "type": "function"
    },
    {
      "inputs": [],
      "name": "lzEndpoint",
      "outputs": [
        {
          "internalType": "contract ILayerZeroEndpoint",
          "name": "",
          "type": "address"
        }
      ],
      "stateMutability": "view",
      "type": "function"
    },
    {
      "inputs": [
        {
          "internalType": "uint16",
          "name": "_srcChainId",
          "type": "uint16"
        },
        {
          "internalType": "bytes",
          "name": "_srcAddress",
          "type": "bytes"
        },
        {
          "internalType": "uint64",
          "name": "_nonce",
          "type": "uint64"
        },
        {
          "internalType": "bytes",
          "name": "_payload",
          "type": "bytes"
        }
      ],
      "name": "lzReceive",
      "outputs": [],
      "stateMutability": "nonpayable",
      "type": "function"
    },
    {
      "inputs": [
        {
          "internalType": "uint16",
          "name": "_srcChainId",
          "type": "uint16"
        },
        {
          "internalType": "bytes",
          "name": "_srcAddress",
          "type": "bytes"
        },
        {
          "internalType": "uint64",
          "name": "_nonce",
          "type": "uint64"
        },
        {
          "internalType": "bytes",
          "name": "_payload",
          "type": "bytes"
        }
      ],
      "name": "nonblockingLzReceive",
      "outputs": [],
      "stateMutability": "nonpayable",
      "type": "function"
    },
    {
      "inputs": [],
      "name": "owner",
      "outputs": [
        {
          "internalType": "address",
          "name": "",
          "type": "address"
        }
      ],
      "stateMutability": "view",
      "type": "function"
    },
    {
      "inputs": [],
      "name": "peerChainId",
      "outputs": [
        {
          "internalType": "uint64",
          "name": "",
          "type": "uint64"
        }
      ],
      "stateMutability": "view",
      "type": "function"
    },
    {
      "inputs": [],
      "name": "peerChainName",
      "outputs": [
        {
          "internalType": "string",
          "name": "",
          "type": "string"
        }
      ],
      "stateMutability": "view",
      "type": "function"
    },
    {
      "inputs": [],
      "name": "peerContract",
      "outputs": [
        {
          "internalType": "address",
          "name": "",
          "type": "address"
        }
      ],
      "stateMutability": "view",
      "type": "function"
    },
    {
      "inputs": [],
      "name": "peerLayerZeroChainId",
      "outputs": [
        {
          "internalType": "uint16",
          "name": "",
          "type": "uint16"
        }
      ],
      "stateMutability": "view",
      "type": "function"
    },
    {
      "inputs": [],
      "name": "renounceOwnership",
      "outputs": [],
      "stateMutability": "nonpayable",
      "type": "function"
    },
    {
      "inputs": [
        {
          "internalType": "uint16",
          "name": "_srcChainId",
          "type": "uint16"
        },
        {
          "internalType": "bytes",
          "name": "_srcAddress",
          "type": "bytes"
        },
        {
          "internalType": "uint64",
          "name": "_nonce",
          "type": "uint64"
        },
        {
          "internalType": "bytes",
          "name": "_payload",
          "type": "bytes"
        }
      ],
      "name": "retryMessage",
      "outputs": [],
      "stateMutability": "payable",
      "type": "function"
    },
    {
      "inputs": [
        {
          "internalType": "uint16",
          "name": "_version",
          "type": "uint16"
        },
        {
          "internalType": "uint16",
          "name": "_chainId",
          "type": "uint16"
        },
        {
          "internalType": "uint256",
          "name": "_configType",
          "type": "uint256"
        },
        {
          "internalType": "bytes",
          "name": "_config",
          "type": "bytes"
        }
      ],
      "name": "setConfig",
      "outputs": [],
      "stateMutability": "nonpayable",
      "type": "function"
    },
    {
      "inputs": [
        {
          "internalType": "uint16",
          "name": "_lzChainId",
          "type": "uint16"
        },
        {
          "internalType": "address",
          "name": "_lzEndpoint",
          "type": "address"
        }
      ],
      "name": "setEndpoint",
      "outputs": [],
      "stateMutability": "nonpayable",
      "type": "function"
    },
    {
      "inputs": [
        {
          "components": [
            {
              "internalType": "uint64",
              "name": "peerChainId",
              "type": "uint64"
            },
            {
              "internalType": "string",
              "name": "peerChainName",
              "type": "string"
            },
            {
              "internalType": "address",
              "name": "peerContract",
              "type": "address"
            }
          ],
          "internalType": "struct IMystikoBridge.PeerContract",
          "name": "_peerContract",
          "type": "tuple"
        }
      ],
      "name": "setPeerContract",
      "outputs": [],
      "stateMutability": "nonpayable",
      "type": "function"
    },
    {
      "inputs": [
        {
          "internalType": "uint16",
          "name": "_version",
          "type": "uint16"
        }
      ],
      "name": "setReceiveVersion",
      "outputs": [],
      "stateMutability": "nonpayable",
      "type": "function"
    },
    {
      "inputs": [
        {
          "internalType": "uint16",
          "name": "_version",
          "type": "uint16"
        }
      ],
      "name": "setSendVersion",
      "outputs": [],
      "stateMutability": "nonpayable",
      "type": "function"
    },
    {
      "inputs": [
        {
          "internalType": "uint16",
          "name": "_peerLayerZeroChainId",
          "type": "uint16"
        },
        {
          "internalType": "bytes",
          "name": "_peerAddress",
          "type": "bytes"
        }
      ],
      "name": "setTrustedRemote",
      "outputs": [],
      "stateMutability": "nonpayable",
      "type": "function"
    },
    {
      "inputs": [],
      "name": "settings",
      "outputs": [
        {
          "internalType": "contract MystikoBridgeSettings",
          "name": "",
          "type": "address"
        }
      ],
      "stateMutability": "view",
      "type": "function"
    },
    {
      "inputs": [
        {
          "internalType": "address",
          "name": "newOwner",
          "type": "address"
        }
      ],
      "name": "transferOwnership",
      "outputs": [],
      "stateMutability": "nonpayable",
      "type": "function"
    },
    {
      "inputs": [
        {
          "internalType": "uint16",
          "name": "",
          "type": "uint16"
        }
      ],
      "name": "trustedRemoteLookup",
      "outputs": [
        {
          "internalType": "bytes",
          "name": "",
          "type": "bytes"
        }
      ],
      "stateMutability": "view",
      "type": "function"
    }
  ],
  "bytecode": "0x60806040526000805460ff60a01b1916905534801561001d57600080fd5b50604051613ba3380380613ba383398101604081905261003c916101fe565b600080546001600160a01b038089166001600160a01b03199283161790925560088054838816908316179055835160035560208085015160045560408501516005558351600655830151600755600980549286169290911691909117905584868585858532806100c657604051631e4fbdf760e01b81526000600482015260240160405180910390fd5b6100cf81610102565b5050600e80546001600160a01b0319166001600160a01b039690961695909517909455506102aa98505050505050505050565b600a80546001600160a01b038381166001600160a01b0319831681179093556040519116919082907f8be0079c531659141344cd1fd0a4f28419497f9722a3daafe3b4186f6b6457e090600090a35050565b6001600160a01b038116811461016957600080fd5b50565b604051606081016001600160401b038111828210171561019c57634e487b7160e01b600052604160045260246000fd5b60405290565b6000604082840312156101b457600080fd5b604080519081016001600160401b03811182821017156101e457634e487b7160e01b600052604160045260246000fd5b604052825181526020928301519281019290925250919050565b60008060008060008086880361012081121561021957600080fd5b875161022481610154565b602089015190975061023581610154565b604089015190965061024681610154565b606089015190955061025781610154565b93506060607f198201121561026b57600080fd5b5061027461016c565b6080880151815260a0880151602082015260c08801516040820152915061029e8860e089016101a2565b90509295509295509295565b6138ea806102b96000396000f3fe6080604052600436106102fb5760003560e01c8063825b5f8d1161018f578063d0b436bd116100e1578063efbfb2ae1161008a578063f5ecbdbc11610064578063f5ecbdbc1461086a578063fa750f561461088a578063fb3e3d73146108ab57600080fd5b8063efbfb2ae14610820578063f2fde38b14610835578063f4ad17c61461085557600080fd5b8063e06174e4116100bb578063e06174e4146107cb578063eb8d72b7146107eb578063ed6ea33a1461080b57600080fd5b8063d0b436bd1461078d578063d1deba1f146107a3578063ddac5dc1146107b657600080fd5b8063c9230c5d11610143578063cbed8b9c1161011d578063cbed8b9c14610717578063cdfceeba14610737578063cfc7e2da1461077857600080fd5b8063c9230c5d146106d9578063cb5c029a146106ee578063cbe342851461070157600080fd5b80639a03636c116101745780639a03636c1461067f578063b353aaa714610692578063c2d41601146106b257600080fd5b8063825b5f8d1461064c5780638da5cb5b1461066157600080fd5b80633d8b38f6116102535780634ee7ded6116101fc57806366ad5c8a116101d657806366ad5c8a146105f7578063715018a6146106175780637533d7881461062c57600080fd5b80634ee7ded6146105725780635b8c41e614610592578063640c0b36146105e157600080fd5b806342d65a8d1161022d57806342d65a8d146105275780634dde6fbc146105475780634e3c10b71461055d57600080fd5b80633d8b38f6146104bb5780633fe3347a146104eb578063422e00281461050757600080fd5b8063176de7a8116102b55780632421e1551161028f5780632421e155146104335780632cd26d4514610479578063302d5f4b1461049957600080fd5b8063176de7a8146103bf5780631ba46cfd146103e157806321e32d551461041357600080fd5b806307e0db17116102e657806307e0db171461035c5780630ba959091461037c57806310ddb1371461039f57600080fd5b80621d35671461030057806297a06314610322575b600080fd5b34801561030c57600080fd5b5061032061031b366004612d77565b6108c1565b005b34801561032e57600080fd5b50600b5461034490600160b01b900461ffff1681565b60405161ffff90911681526020015b60405180910390f35b34801561036857600080fd5b50610320610377366004612e01565b610a48565b34801561038857600080fd5b50610391610aae565b604051908152602001610353565b3480156103ab57600080fd5b506103206103ba366004612e01565b610b37565b3480156103cb57600080fd5b506103d4610b73565b6040516103539190612e6c565b3480156103ed57600080fd5b50600e546001600160a01b03165b6040516001600160a01b039091168152602001610353565b34801561041f57600080fd5b506002546103fb906001600160a01b031681565b34801561043f57600080fd5b5060408051808201909152600981527f6c617965725a65726f000000000000000000000000000000000000000000000060208201526103d4565b34801561048557600080fd5b506008546103fb906001600160a01b031681565b3480156104a557600080fd5b50600b5461034490600160a01b900461ffff1681565b3480156104c757600080fd5b506104db6104d6366004612ec1565b610bea565b6040519015158152602001610353565b3480156104f757600080fd5b5060006040516103539190612f14565b34801561051357600080fd5b50610320610522366004612f51565b610cb7565b34801561053357600080fd5b50610320610542366004612ec1565b610d99565b34801561055357600080fd5b5061039160055481565b34801561056957600080fd5b506103d4610e0c565b34801561057e57600080fd5b5061032061058d366004612ffe565b610e9a565b34801561059e57600080fd5b506103916105ad366004613035565b600d602090815260009384526040808520845180860184018051928152908401958401959095209452929052825290205481565b3480156105ed57600080fd5b5061039160065481565b34801561060357600080fd5b50610320610612366004612d77565b610f04565b34801561062357600080fd5b50610320610f36565b34801561063857600080fd5b506103d4610647366004612e01565b610f4a565b34801561065857600080fd5b50610391610f63565b34801561066d57600080fd5b50600a546001600160a01b03166103fb565b61032061068d36600461314b565b610fea565b34801561069e57600080fd5b50600b546103fb906001600160a01b031681565b3480156106be57600080fd5b506106c7611003565b60405160ff9091168152602001610353565b3480156106e557600080fd5b506103d4611071565b6103206106fc366004613188565b6110bb565b34801561070d57600080fd5b5061039160075481565b34801561072357600080fd5b506103206107323660046131fa565b6114f0565b34801561074357600080fd5b5060005461075f90600160a81b900467ffffffffffffffff1681565b60405167ffffffffffffffff9091168152602001610353565b34801561078457600080fd5b50610391611569565b34801561079957600080fd5b5061039160045481565b6103206107b1366004612d77565b6115f0565b3480156107c257600080fd5b506103fb611700565b3480156107d757600080fd5b506009546103fb906001600160a01b031681565b3480156107f757600080fd5b50610320610806366004612ec1565b61179f565b34801561081757600080fd5b506104db61183b565b34801561082c57600080fd5b506103916118a8565b34801561084157600080fd5b50610320610850366004613269565b61192f565b34801561086157600080fd5b5061039161196d565b34801561087657600080fd5b506103d4610885366004613286565b6119f4565b34801561089657600080fd5b506000546104db90600160a01b900460ff1681565b3480156108b757600080fd5b5061039160035481565b600b546001600160a01b0316336001600160a01b03161461092a576040516314e8955b60e21b815260206004820152600f60248201527f656e64706f696e742063616c6c6572000000000000000000000000000000000060448201526064015b60405180910390fd5b61ffff84166000908152600c602052604081208054610948906132d3565b80601f0160208091040260200160405190810160405280929190818152602001828054610974906132d3565b80156109c15780601f10610996576101008083540402835291602001916109c1565b820191906000526020600020905b8154815290600101906020018083116109a457829003601f168201915b50505050509050805184511415806109e757508080519060200120848051906020012014155b15610a35576040516314e8955b60e21b815260206004820152601760248201527f736f757263652073656e64696e6720636f6e74726163740000000000000000006044820152606401610921565b610a4185858585611a87565b5050505050565b610a50611ae8565b600b546040516307e0db1760e01b815261ffff831660048201526001600160a01b03909116906307e0db17906024015b600060405180830381600087803b158015610a9a57600080fd5b505af1158015610a41573d6000803e3d6000fd5b60095460405163473a063160e01b815230600482015260009182916001600160a01b039091169063473a063190602401602060405180830381865afa158015610afb573d6000803e3d6000fd5b505050506040513d601f19601f82011682018060405250810190610b1f919061330d565b90508015610b2d5780610b31565b6004545b91505090565b610b3f611ae8565b600b546040516310ddb13760e01b815261ffff831660048201526001600160a01b03909116906310ddb13790602401610a80565b600e54604080516395d89b4160e01b815290516060926001600160a01b0316916395d89b419160048083019260009291908290030181865afa158015610bbd573d6000803e3d6000fd5b505050506040513d6000823e601f3d908101601f19168201604052610be59190810190613356565b905090565b61ffff83166000908152600c602052604081208054829190610c0b906132d3565b80601f0160208091040260200160405190810160405280929190818152602001828054610c37906132d3565b8015610c845780601f10610c5957610100808354040283529160200191610c84565b820191906000526020600020905b815481529060010190602001808311610c6757829003601f168201915b505050505090508383604051610c9b92919061339f565b60405180910390208180519060200120149150505b9392505050565b600054600160a01b900460ff1615610ce257604051636d8f115160e11b815260040160405180910390fd5b80516000805467ffffffffffffffff909216600160a81b027fffffff0000000000000000ffffffffffffffffffffffffffffffffffffffffff9092169190911790556020810151600190610d3690826133f6565b5060400151600280546001600160a01b0390921673ffffffffffffffffffffffffffffffffffffffff19909216919091179055600080547fffffffffffffffffffffff00ffffffffffffffffffffffffffffffffffffffff16600160a01b179055565b610da1611ae8565b600b546040516342d65a8d60e01b81526001600160a01b03909116906342d65a8d90610dd5908690869086906004016134de565b600060405180830381600087803b158015610def57600080fd5b505af1158015610e03573d6000803e3d6000fd5b50505050505050565b60018054610e19906132d3565b80601f0160208091040260200160405190810160405280929190818152602001828054610e45906132d3565b8015610e925780601f10610e6757610100808354040283529160200191610e92565b820191906000526020600020905b815481529060010190602001808311610e7557829003601f168201915b505050505081565b610ea2611ae8565b600b80547fffffffffffffffffffff0000000000000000000000000000000000000000000016600160a01b61ffff949094169390930273ffffffffffffffffffffffffffffffffffffffff1916929092176001600160a01b0391909116179055565b333014610f24576040516371f50ec160e11b815260040160405180910390fd5b610f3084848484611b15565b50505050565b610f3e611ae8565b610f486000611b50565b565b600c6020526000908152604090208054610e19906132d3565b6009546040516361863c0360e11b815230600482015260009182916001600160a01b039091169063c30c780690602401602060405180830381865afa158015610fb0573d6000803e3d6000fd5b505050506040513d601f19601f82011682018060405250810190610fd4919061330d565b90508015610fe25780610b31565b505060075490565b60405163e7a24ff960e01b815260040160405180910390fd5b600e546040805163313ce56760e01b815290516000926001600160a01b03169163313ce5679160048083019260209291908290030181865afa15801561104d573d6000803e3d6000fd5b505050506040513d601f19601f82011682018060405250810190610be591906134fc565b600e54604080516306fdde0360e01b815290516060926001600160a01b0316916306fdde039160048083019260009291908290030181865afa158015610bbd573d6000803e3d6000fd5b60095460405163bb07320560e01b81523060048201526001600160a01b039091169063bb07320590602401602060405180830381865afa158015611103573d6000803e3d6000fd5b505050506040513d601f19601f82011682018060405250810190611127919061351f565b1561114557604051630e2f42c960e31b815260040160405180910390fd5b600960009054906101000a90046001600160a01b03166001600160a01b031663bc5877066040518163ffffffff1660e01b8152600401602060405180830381865afa158015611198573d6000803e3d6000fd5b505050506040513d601f19601f820116820180604052508101906111bc919061351f565b156112935760006040518060800160405280326001600160a01b031681526020016111ef600e546001600160a01b031690565b6001600160a01b039081168252602082018690526040918201859052600954915163849e8b9f60e01b8152929350169063849e8b9f90611233908490600401613541565b602060405180830381865afa158015611250573d6000803e3d6000fd5b505050506040513d601f19601f82011682018060405250810190611274919061351f565b61129157604051633042041f60e21b815260040160405180910390fd5b505b61129b611569565b835110156112bc5760405163617ab12d60e11b815260040160405180910390fd5b6112c4610aae565b835111156112e557604051630625040160e01b815260040160405180910390fd5b6112ed6118a8565b8360a0015110156113115760405163c4d8d00d60e01b815260040160405180910390fd5b61131961196d565b8360c00151101561133d576040516355a6d6a160e11b815260040160405180910390fd5b611345610f63565b8360e0015110156113695760405163784f02bd60e11b815260040160405180910390fd5b6000611382846040015185600001518660600151611baf565b9050808460200151146113a8576040516301bfaa2560e51b815260040160405180910390fd5b60095460405163df592f7d60e01b81523260048201526001600160a01b039091169063df592f7d90602401602060405180830381865afa1580156113f0573d6000803e3d6000fd5b505050506040513d601f19601f82011682018060405250810190611414919061351f565b1561143257604051632e70c0b160e01b815260040160405180910390fd5b6040805160a081018252855181526020808701519082015260c08601519181019190915260e0850151606082015260808086015190820152600061147582611cbd565b90506114858660a0015182611d2c565b6114ba611490611700565b60e088015160c089015189516114a6919061358c565b6114b0919061358c565b8860a00151611d5e565b60208601516040517fd106eb38b3368b7c294e36fae5513fdefe880be5abfad529b37b044f2fdd2dbe90600090a2505050505050565b6114f8611ae8565b600b546040516332fb62e760e21b81526001600160a01b039091169063cbed8b9c9061153090889088908890889088906004016135ad565b600060405180830381600087803b15801561154a57600080fd5b505af115801561155e573d6000803e3d6000fd5b505050505050505050565b600954604051635525984960e01b815230600482015260009182916001600160a01b0390911690635525984990602401602060405180830381865afa1580156115b6573d6000803e3d6000fd5b505050506040513d601f19601f820116820180604052508101906115da919061330d565b905080156115e85780610b31565b505060035490565b61ffff84166000908152600d602052604080822090516116119086906135e6565b908152604080516020928190038301902067ffffffffffffffff86166000908152925290205490508061165757604051632b96c98560e21b815260040160405180910390fd5b8151602083012081146116ad576040516314e8955b60e21b815260206004820152600760248201527f7061796c6f6164000000000000000000000000000000000000000000000000006044820152606401610921565b61ffff85166000908152600d602052604080822090516116ce9087906135e6565b908152604080516020928190038301902067ffffffffffffffff871660009081529252902055610a4185858585611b15565b6009546040516341fb697960e01b815230600482015260009182916001600160a01b03909116906341fb697990602401602060405180830381865afa15801561174d573d6000803e3d6000fd5b505050506040513d601f19601f820116820180604052508101906117719190613602565b90506001600160a01b03811661179a576040516306f3d63360e51b815260040160405180910390fd5b919050565b6117a7611ae8565b600b80547fffffffffffffffff0000ffffffffffffffffffffffffffffffffffffffffffff16600160b01b61ffff8616908102919091179091556000908152600c602052604090206117fa82848361361f565b507ffa41487ad5d6728f0b19276fa1eddc16558578f5109fc39d2dc33c3230470dab83838360405161182e939291906134de565b60405180910390a1505050565b60095460405163bb07320560e01b81523060048201526000916001600160a01b03169063bb07320590602401602060405180830381865afa158015611884573d6000803e3d6000fd5b505050506040513d601f19601f82011682018060405250810190610be5919061351f565b600954604051637b52b00d60e01b815230600482015260009182916001600160a01b0390911690637b52b00d90602401602060405180830381865afa1580156118f5573d6000803e3d6000fd5b505050506040513d601f19601f82011682018060405250810190611919919061330d565b905080156119275780610b31565b505060055490565b611937611ae8565b6001600160a01b03811661196157604051631e4fbdf760e01b815260006004820152602401610921565b61196a81611b50565b50565b600954604051634f314f9d60e11b815230600482015260009182916001600160a01b0390911690639e629f3a90602401602060405180830381865afa1580156119ba573d6000803e3d6000fd5b505050506040513d601f19601f820116820180604052508101906119de919061330d565b905080156119ec5780610b31565b505060065490565b600b54604051633d7b2f6f60e21b815261ffff808716600483015285166024820152306044820152606481018390526060916001600160a01b03169063f5ecbdbc90608401600060405180830381865afa158015611a56573d6000803e3d6000fd5b505050506040513d6000823e601f3d908101601f19168201604052611a7e9190810190613356565b95945050505050565b604051633356ae4560e11b815230906366ad5c8a90611ab09087908790879087906004016136df565b600060405180830381600087803b158015611aca57600080fd5b505af1158015611ade573d6000803e3d6000fd5b5050505050505050565b600a546001600160a01b03163314610f485760405163118cdaa760e01b8152336004820152602401610921565b6000611b2082611dca565b600054600254919250610a4191600160a81b90910467ffffffffffffffff16906001600160a01b03163284611e92565b600a80546001600160a01b0383811673ffffffffffffffffffffffffffffffffffffffff19831681179093556040519116919082907f8be0079c531659141344cd1fd0a4f28419497f9722a3daafe3b4186f6b6457e090600090a35050565b60007f30644e72e131a029b85045b68181585d2833e84879b9709143e1f593f0000001808510611bf25760405163805f2a4960e01b815260040160405180910390fd5b80836fffffffffffffffffffffffffffffffff1610611c2457604051633bbde0bf60e21b815260040160405180910390fd5b60005460408051606081018252878152602081018790526fffffffffffffffffffffffffffffffff86168183015290516304b98e1d60e31b81526001600160a01b03909216916325cc70e891611c7c9160040161371e565b602060405180830381865afa158015611c99573d6000803e3d6000fd5b505050506040513d601f19601f82011682018060405250810190611a7e919061330d565b606080611ccd8360000151611f4d565b611cda8460200151611f4d565b611ce78560400151611f4d565b611cf48660600151611f4d565b611d018760800151611fe5565b604051602001611d1595949392919061374f565b60408051601f198184030181529190529392505050565b611d5a600b60169054906101000a900461ffff1682336000604051806020016040528060008152508761201c565b5050565b803414611dad5760405162461bcd60e51b815260206004820152601360248201527f62726964676520666565206d69736d61746368000000000000000000000000006044820152606401610921565b600e54611dc5906001600160a01b0316338585612152565b505050565b611dfc6040518060a0016040528060008152602001600081526020016000815260200160008152602001606081525090565b611e2e6040518060a0016040528060008152602001600081526020016000815260200160008152602001606081525090565b6000611e3a84826121c1565b9083529050611e4984826121c1565b60208401919091529050611e5d84826121c1565b60408401919091529050611e7184826121c1565b60608401919091529050611e8584826122f2565b5060808301525092915050565b6002546001600160a01b03848116911614611ec057604051631b495ecf60e31b815260040160405180910390fd5b60005467ffffffffffffffff858116600160a81b9092041614611ef65760405163373bc12160e11b815260040160405180910390fd5b8051600003611f185760405163820bf1e560e01b815260040160405180910390fd5b611f20611700565b6001600160a01b03166378d60cd782846040518363ffffffff1660e01b8152600401611ab09291906137ba565b60606001600160ff1b03821115611fa65760405162461bcd60e51b815260206004820152601b60248201527f56616c756520657863656564732075696e743235352072616e676500000000006044820152606401610921565b60405160208082526000601f5b82821015611fd55785811a826020860101536001919091019060001901611fb3565b5050506040818101905292915050565b8051606090611ff3816123ff565b83604051602001612005929190613817565b604051602081830303815290604052915050919050565b61ffff86166000908152600c60205260408120805461203a906132d3565b80601f0160208091040260200160405190810160405280929190818152602001828054612066906132d3565b80156120b35780601f10612088576101008083540402835291602001916120b3565b820191906000526020600020905b81548152906001019060200180831161209657829003601f168201915b5050505050905080516000036120dc5760405163020b35a160e01b815260040160405180910390fd5b600b5460405162c5803160e81b81526001600160a01b039091169063c5803100908490612117908b9086908c908c908c908c90600401613846565b6000604051808303818588803b15801561213057600080fd5b505af1158015612144573d6000803e3d6000fd5b505050505050505050505050565b604080516001600160a01b0385811660248301528416604482015260648082018490528251808303909101815260849091019091526020810180517bffffffffffffffffffffffffffffffffffffffffffffffffffffffff166323b872dd60e01b179052610f309085906124c9565b60008083518360206121d3919061358c565b111580156121ea57506121e783602061358c565b83105b6122425760405162461bcd60e51b815260206004820152602360248201527f4e65787455696e743235352c206f66667365742065786365656473206d6178696044820152626d756d60e81b6064820152608401610921565b600060405160206000600182038760208a0101515b838310156122775780821a83860153600183019250600182039150612257565b50505081016040525190506001600160ff1b038111156122d95760405162461bcd60e51b815260206004820152601760248201527f56616c75652065786365656473207468652072616e67650000000000000000006044820152606401610921565b806122e585602061358c565b92509250505b9250929050565b6060600080612301858561252c565b8651909550909150612313828661358c565b111580156123295750612326818561358c565b84105b6123815760405162461bcd60e51b8152602060048201526024808201527f4e65787456617242797465732c206f66667365742065786365656473206d6178604482015263696d756d60e01b6064820152608401610921565b60608115801561239c576040519150602082016040526123e6565b6040519150601f8316801560200281840101848101888315602002848c0101015b818310156123d55780518352602092830192016123bd565b5050848452601f01601f1916604052505b50806123f2838761358c565b9350935050509250929050565b606060fd8267ffffffffffffffff16101561243457604080516001815260f884901b6020820152602181019091525b92915050565b61ffff8267ffffffffffffffff16116124845761245460fd60f81b612730565b61245d83612757565b60405160200161246e929190613817565b6040516020818303038152906040529050919050565b63ffffffff8267ffffffffffffffff16116124af576124a6607f60f91b612730565b61245d8361279a565b6124c06001600160f81b0319612730565b61245d836127dd565b60006124de6001600160a01b03841683612820565b90508051600014158015612503575080806020019051810190612501919061351f565b155b15611dc557604051635274afe760e01b81526001600160a01b0384166004820152602401610921565b600080600061253b858561282e565b9450905060006001600160f81b0319821660fd60f81b036125d35761256086866128b6565b955061ffff16905060fd811080159061257b575061ffff8111155b6125c75760405162461bcd60e51b815260206004820152601f60248201527f4e65787455696e7431362c2076616c7565206f7574736964652072616e6765006044820152606401610921565b92508391506122eb9050565b6001600160f81b03198216607f60f91b0361265d576125f2868661296f565b955063ffffffff16905061ffff81118015612611575063ffffffff8111155b6125c75760405162461bcd60e51b815260206004820181905260248201527f4e65787456617255696e742c2076616c7565206f7574736964652072616e67656044820152606401610921565b6001600160f81b031980831690036126da576126798686612a40565b955067ffffffffffffffff16905063ffffffff81116125c75760405162461bcd60e51b815260206004820181905260248201527f4e65787456617255696e742c2076616c7565206f7574736964652072616e67656044820152606401610921565b5060f881901c60fd81106125c75760405162461bcd60e51b815260206004820181905260248201527f4e65787456617255696e742c2076616c7565206f7574736964652072616e67656044820152606401610921565b60408051600181526001600160f81b0319831660208201526021810190915260609061242e565b6040516002808252606091906000601f5b8282101561278a5785811a826020860101536001919091019060001901612768565b5050506022810160405292915050565b6040516004808252606091906000601f5b828210156127cd5785811a8260208601015360019190910190600019016127ab565b5050506024810160405292915050565b6040516008808252606091906000601f5b828210156128105785811a8260208601015360019190910190600019016127ee565b5050506028810160405292915050565b6060610cb083836000612b11565b6000808351836001612840919061358c565b11158015612857575061285483600161358c565b83105b6128a35760405162461bcd60e51b815260206004820181905260248201527f4e657874427974652c204f66667365742065786365656473206d6178696d756d6044820152606401610921565b83830160200151806122e585600161358c565b60008083518360026128c8919061358c565b111580156128df57506128dc83600261358c565b83105b6129365760405162461bcd60e51b815260206004820152602260248201527f4e65787455696e7431362c206f66667365742065786365656473206d6178696d604482015261756d60f01b6064820152608401610921565b6000604051846020870101518060011a82538060001a60018301535060028101604052601e810351915050808460026122e5919061358c565b6000808351836004612981919061358c565b11158015612998575061299583600461358c565b83105b6129ef5760405162461bcd60e51b815260206004820152602260248201527f4e65787455696e7433322c206f66667365742065786365656473206d6178696d604482015261756d60f01b6064820152608401610921565b600060405160046000600182038760208a0101515b83831015612a245780821a83860153600183019250600182039150612a04565b505050016040819052601f1901519050806122e585600461358c565b6000808351836008612a52919061358c565b11158015612a695750612a6683600861358c565b83105b612ac05760405162461bcd60e51b815260206004820152602260248201527f4e65787455696e7436342c206f66667365742065786365656473206d6178696d604482015261756d60f01b6064820152608401610921565b600060405160086000600182038760208a0101515b83831015612af55780821a83860153600183019250600182039150612ad5565b505050016040819052601f1901519050806122e585600861358c565b606081471015612b365760405163cd78605960e01b8152306004820152602401610921565b600080856001600160a01b03168486604051612b5291906135e6565b60006040518083038185875af1925050503d8060008114612b8f576040519150601f19603f3d011682016040523d82523d6000602084013e612b94565b606091505b5091509150612ba4868383612bae565b9695505050505050565b606082612bc357612bbe82612c0a565b610cb0565b8151158015612bda57506001600160a01b0384163b155b15612c0357604051639996b31560e01b81526001600160a01b0385166004820152602401610921565b5080610cb0565b805115612c1a5780518082602001fd5b604051630a12f52160e11b815260040160405180910390fd5b803561ffff8116811461179a57600080fd5b634e487b7160e01b600052604160045260246000fd5b6040516060810167ffffffffffffffff81118282101715612c7e57612c7e612c45565b60405290565b604051610100810167ffffffffffffffff81118282101715612c7e57612c7e612c45565b604051601f8201601f1916810167ffffffffffffffff81118282101715612cd157612cd1612c45565b604052919050565b600067ffffffffffffffff821115612cf357612cf3612c45565b50601f01601f191660200190565b6000612d14612d0f84612cd9565b612ca8565b9050828152838383011115612d2857600080fd5b828260208301376000602084830101529392505050565b600082601f830112612d5057600080fd5b610cb083833560208501612d01565b803567ffffffffffffffff8116811461179a57600080fd5b60008060008060808587031215612d8d57600080fd5b612d9685612c33565b9350602085013567ffffffffffffffff811115612db257600080fd5b612dbe87828801612d3f565b935050612dcd60408601612d5f565b9150606085013567ffffffffffffffff811115612de957600080fd5b612df587828801612d3f565b91505092959194509250565b600060208284031215612e1357600080fd5b610cb082612c33565b60005b83811015612e37578181015183820152602001612e1f565b50506000910152565b60008151808452612e58816020860160208601612e1c565b601f01601f19169290920160200192915050565b602081526000610cb06020830184612e40565b60008083601f840112612e9157600080fd5b50813567ffffffffffffffff811115612ea957600080fd5b6020830191508360208285010111156122eb57600080fd5b600080600060408486031215612ed657600080fd5b612edf84612c33565b9250602084013567ffffffffffffffff811115612efb57600080fd5b612f0786828701612e7f565b9497909650939450505050565b6020810160028310612f3657634e487b7160e01b600052602160045260246000fd5b91905290565b6001600160a01b038116811461196a57600080fd5b600060208284031215612f6357600080fd5b813567ffffffffffffffff811115612f7a57600080fd5b820160608185031215612f8c57600080fd5b612f94612c5b565b612f9d82612d5f565b8152602082013567ffffffffffffffff811115612fb957600080fd5b8201601f81018613612fca57600080fd5b612fd986823560208401612d01565b60208301525060408201359150612fef82612f3c565b60408101919091529392505050565b6000806040838503121561301157600080fd5b61301a83612c33565b9150602083013561302a81612f3c565b809150509250929050565b60008060006060848603121561304a57600080fd5b61305384612c33565b9250602084013567ffffffffffffffff81111561306f57600080fd5b61307b86828701612d3f565b92505061308a60408501612d5f565b90509250925092565b80356fffffffffffffffffffffffffffffffff8116811461179a57600080fd5b600061010082840312156130c657600080fd5b6130ce612c84565b82358152602080840135908201526040808401359082015290506130f460608301613093565b6060820152608082013567ffffffffffffffff81111561311357600080fd5b61311f84828501612d3f565b60808301525060a0828101359082015260c0808301359082015260e09182013591810191909152919050565b60006020828403121561315d57600080fd5b813567ffffffffffffffff81111561317457600080fd5b613180848285016130b3565b949350505050565b60008060006060848603121561319d57600080fd5b833567ffffffffffffffff8111156131b457600080fd5b6131c0868287016130b3565b93505060208401359150604084013567ffffffffffffffff8111156131e457600080fd5b6131f086828701612d3f565b9150509250925092565b60008060008060006080868803121561321257600080fd5b61321b86612c33565b945061322960208701612c33565b935060408601359250606086013567ffffffffffffffff81111561324c57600080fd5b61325888828901612e7f565b969995985093965092949392505050565b60006020828403121561327b57600080fd5b8135610cb081612f3c565b6000806000806080858703121561329c57600080fd5b6132a585612c33565b93506132b360208601612c33565b925060408501356132c381612f3c565b9396929550929360600135925050565b600181811c908216806132e757607f821691505b60208210810361330757634e487b7160e01b600052602260045260246000fd5b50919050565b60006020828403121561331f57600080fd5b5051919050565b6000613334612d0f84612cd9565b905082815283838301111561334857600080fd5b610cb0836020830184612e1c565b60006020828403121561336857600080fd5b815167ffffffffffffffff81111561337f57600080fd5b8201601f8101841361339057600080fd5b61318084825160208401613326565b8183823760009101908152919050565b601f821115611dc557806000526020600020601f840160051c810160208510156133d65750805b601f840160051c820191505b81811015610a4157600081556001016133e2565b815167ffffffffffffffff81111561341057613410612c45565b6134248161341e84546132d3565b846133af565b6020601f82116001811461345857600083156134405750848201515b600019600385901b1c1916600184901b178455610a41565b600084815260208120601f198516915b828110156134885787850151825560209485019460019092019101613468565b50848210156134a65786840151600019600387901b60f8161c191681555b50505050600190811b01905550565b81835281816020850137506000828201602090810191909152601f909101601f19169091010190565b61ffff84168152604060208201526000611a7e6040830184866134b5565b60006020828403121561350e57600080fd5b815160ff81168114610cb057600080fd5b60006020828403121561353157600080fd5b81518015158114610cb057600080fd5b602081526001600160a01b0382511660208201526001600160a01b036020830151166040820152604082015160608201526000606083015160808084015261318060a0840182612e40565b8082018082111561242e57634e487b7160e01b600052601160045260246000fd5b61ffff8616815261ffff851660208201528360408201526080606082015260006135db6080830184866134b5565b979650505050505050565b600082516135f8818460208701612e1c565b9190910192915050565b60006020828403121561361457600080fd5b8151610cb081612f3c565b67ffffffffffffffff83111561363757613637612c45565b61364b8361364583546132d3565b836133af565b6000601f84116001811461367f57600085156136675750838201355b600019600387901b1c1916600186901b178355610a41565b600083815260209020601f19861690835b828110156136b05786850135825560209485019460019092019101613690565b50868210156136cd5760001960f88860031b161c19848701351681555b505060018560011b0183555050505050565b61ffff851681526080602082015260006136fc6080830186612e40565b67ffffffffffffffff8516604084015282810360608401526135db8185612e40565b60608101818360005b6003811015613746578151835260209283019290910190600101613727565b50505092915050565b60008651613761818460208b01612e1c565b865190830190613775818360208b01612e1c565b8651910190613788818360208a01612e1c565b855191019061379b818360208901612e1c565b84519101906137ae818360208801612e1c565b01979650505050505050565b60408152825160408201526020830151606082015260408301516080820152606083015160a08201526000608084015160a060c08401526137fe60e0840182612e40565b9150506001600160a01b03831660208301529392505050565b60008351613829818460208801612e1c565b83519083019061383d818360208801612e1c565b01949350505050565b61ffff8716815260c06020820152600061386360c0830188612e40565b82810360408401526138758188612e40565b90506001600160a01b03861660608401526001600160a01b038516608084015282810360a08401526138a78185612e40565b999850505050505050505056fea2646970667358221220c9cf8aa95e8f9505248dac7101b4f8aa49231099329802f04087a7b886d9818664736f6c634300081a0033",
  "linkReferences": {},
  "deployedLinkReferences": {}
}