{
  "_format": "hh-sol-artifact-1",
  "contractName": "MystikoV2AxelarMain",
  "sourceName": "contracts/core/deposit/axelar/MystikoV2AxelarMain.sol",
  "abi": [
    {
      "inputs": [
        {
          "internalType": "contract IHasher3",
          "name": "_hasher3",
          "type": "address"
        },
        {
          "internalType": "address",
          "name": "_bridgeProxyAddress",
          "type": "address"
        },
        {
          "internalType": "address",
          "name": "_settingsCenter",
          "type": "address"
        },
        {
          "components": [
            {
              "internalType": "uint256",
              "name": "minAmount",
              "type": "uint256"
            },
            {
              "internalType": "uint256",
              "name": "maxAmount",
              "type": "uint256"
            },
            {
              "internalType": "uint256",
              "name": "minBridgeFee",
              "type": "uint256"
            }
          ],
          "internalType": "struct IMystikoBridge.LocalConfig",
          "name": "_localConfig",
          "type": "tuple"
        },
        {
          "components": [
            {
              "internalType": "uint256",
              "name": "peerMinExecutorFee",
              "type": "uint256"
            },
            {
              "internalType": "uint256",
              "name": "peerMinRollupFee",
              "type": "uint256"
            }
          ],
          "internalType": "struct IMystikoBridge.PeerConfig",
          "name": "_peerConfig",
          "type": "tuple"
        },
        {
          "internalType": "address",
          "name": "_gasReceiver",
          "type": "address"
        }
      ],
      "stateMutability": "nonpayable",
      "type": "constructor"
    },
    {
      "inputs": [],
      "name": "AmountLessThanZero",
      "type": "error"
    },
    {
      "inputs": [],
      "name": "AmountTooLarge",
      "type": "error"
    },
    {
      "inputs": [],
      "name": "AmountTooSmall",
      "type": "error"
    },
    {
      "inputs": [],
      "name": "AssociatedPoolNotSet",
      "type": "error"
    },
    {
      "inputs": [],
      "name": "BridgeFeeTooFew",
      "type": "error"
    },
    {
      "inputs": [],
      "name": "CertificateInvalid",
      "type": "error"
    },
    {
      "inputs": [],
      "name": "CommitmentHashIncorrect",
      "type": "error"
    },
    {
      "inputs": [],
      "name": "DepositsDisabled",
      "type": "error"
    },
    {
      "inputs": [],
      "name": "ExecutorFeeTooFew",
      "type": "error"
    },
    {
      "inputs": [],
      "name": "HashKGreaterThanFieldSize",
      "type": "error"
    },
    {
      "inputs": [],
      "name": "NotApprovedByGateway",
      "type": "error"
    },
    {
      "inputs": [],
      "name": "NotSupport",
      "type": "error"
    },
    {
      "inputs": [],
      "name": "PeerChainIdNotMatched",
      "type": "error"
    },
    {
      "inputs": [],
      "name": "PeerContractAlreadySet",
      "type": "error"
    },
    {
      "inputs": [],
      "name": "PeerContractNotMatched",
      "type": "error"
    },
    {
      "inputs": [],
      "name": "RandomSGreaterThanFieldSize",
      "type": "error"
    },
    {
      "inputs": [],
      "name": "RollupFeeToFew",
      "type": "error"
    },
    {
      "inputs": [],
      "name": "SanctionedAddress",
      "type": "error"
    },
    {
      "inputs": [
        {
          "internalType": "uint256",
          "name": "value",
          "type": "uint256"
        },
        {
          "internalType": "uint256",
          "name": "length",
          "type": "uint256"
        }
      ],
      "name": "StringsInsufficientHexLength",
      "type": "error"
    },
    {
      "anonymous": false,
      "inputs": [
        {
          "indexed": false,
          "internalType": "string",
          "name": "peerChainName",
          "type": "string"
        },
        {
          "indexed": false,
          "internalType": "string",
          "name": "destinationAddress",
          "type": "string"
        }
      ],
      "name": "CallContractMessage",
      "type": "event"
    },
    {
      "anonymous": false,
      "inputs": [
        {
          "indexed": true,
          "internalType": "uint256",
          "name": "commitment",
          "type": "uint256"
        }
      ],
      "name": "CommitmentCrossChain",
      "type": "event"
    },
    {
      "inputs": [],
      "name": "assetAddress",
      "outputs": [
        {
          "internalType": "address",
          "name": "",
          "type": "address"
        }
      ],
      "stateMutability": "pure",
      "type": "function"
    },
    {
      "inputs": [],
      "name": "assetType",
      "outputs": [
        {
          "internalType": "enum AssetPool.AssetType",
          "name": "",
          "type": "uint8"
        }
      ],
      "stateMutability": "pure",
      "type": "function"
    },
    {
      "inputs": [],
      "name": "bridgeProxyAddress",
      "outputs": [
        {
          "internalType": "address",
          "name": "",
          "type": "address"
        }
      ],
      "stateMutability": "view",
      "type": "function"
    },
    {
      "inputs": [],
      "name": "bridgeType",
      "outputs": [
        {
          "internalType": "string",
          "name": "",
          "type": "string"
        }
      ],
      "stateMutability": "pure",
      "type": "function"
    },
    {
      "inputs": [
        {
          "components": [
            {
              "internalType": "uint256",
              "name": "amount",
              "type": "uint256"
            },
            {
              "internalType": "uint256",
              "name": "commitment",
              "type": "uint256"
            },
            {
              "internalType": "uint256",
              "name": "hashK",
              "type": "uint256"
            },
            {
              "internalType": "uint128",
              "name": "randomS",
              "type": "uint128"
            },
            {
              "internalType": "bytes",
              "name": "encryptedNote",
              "type": "bytes"
            },
            {
              "internalType": "uint256",
              "name": "bridgeFee",
              "type": "uint256"
            },
            {
              "internalType": "uint256",
              "name": "executorFee",
              "type": "uint256"
            },
            {
              "internalType": "uint256",
              "name": "rollupFee",
              "type": "uint256"
            }
          ],
          "internalType": "struct IMystikoBridge.DepositRequest",
          "name": "_request",
          "type": "tuple"
        },
        {
          "internalType": "uint256",
          "name": "_certificateDeadline",
          "type": "uint256"
        },
        {
          "internalType": "bytes",
          "name": "_certificateSignature",
          "type": "bytes"
        }
      ],
      "name": "certDeposit",
      "outputs": [],
      "stateMutability": "payable",
      "type": "function"
    },
    {
      "inputs": [],
      "name": "defaultMaxAmount",
      "outputs": [
        {
          "internalType": "uint256",
          "name": "",
          "type": "uint256"
        }
      ],
      "stateMutability": "view",
      "type": "function"
    },
    {
      "inputs": [],
      "name": "defaultMinAmount",
      "outputs": [
        {
          "internalType": "uint256",
          "name": "",
          "type": "uint256"
        }
      ],
      "stateMutability": "view",
      "type": "function"
    },
    {
      "inputs": [],
      "name": "defaultMinBridgeFee",
      "outputs": [
        {
          "internalType": "uint256",
          "name": "",
          "type": "uint256"
        }
      ],
      "stateMutability": "view",
      "type": "function"
    },
    {
      "inputs": [],
      "name": "defaultPeerMinExecutorFee",
      "outputs": [
        {
          "internalType": "uint256",
          "name": "",
          "type": "uint256"
        }
      ],
      "stateMutability": "view",
      "type": "function"
    },
    {
      "inputs": [],
      "name": "defaultPeerMinRollupFee",
      "outputs": [
        {
          "internalType": "uint256",
          "name": "",
          "type": "uint256"
        }
      ],
      "stateMutability": "view",
      "type": "function"
    },
    {
      "inputs": [
        {
          "components": [
            {
              "internalType": "uint256",
              "name": "amount",
              "type": "uint256"
            },
            {
              "internalType": "uint256",
              "name": "commitment",
              "type": "uint256"
            },
            {
              "internalType": "uint256",
              "name": "hashK",
              "type": "uint256"
            },
            {
              "internalType": "uint128",
              "name": "randomS",
              "type": "uint128"
            },
            {
              "internalType": "bytes",
              "name": "encryptedNote",
              "type": "bytes"
            },
            {
              "internalType": "uint256",
              "name": "bridgeFee",
              "type": "uint256"
            },
            {
              "internalType": "uint256",
              "name": "executorFee",
              "type": "uint256"
            },
            {
              "internalType": "uint256",
              "name": "rollupFee",
              "type": "uint256"
            }
          ],
          "internalType": "struct IMystikoBridge.DepositRequest",
          "name": "_request",
          "type": "tuple"
        }
      ],
      "name": "deposit",
      "outputs": [],
      "stateMutability": "payable",
      "type": "function"
    },
    {
      "inputs": [
        {
          "internalType": "bytes32",
          "name": "commandId",
          "type": "bytes32"
        },
        {
          "internalType": "string",
          "name": "sourceChain",
          "type": "string"
        },
        {
          "internalType": "string",
          "name": "sourceAddress",
          "type": "string"
        },
        {
          "internalType": "bytes",
          "name": "payload",
          "type": "bytes"
        }
      ],
      "name": "execute",
      "outputs": [],
      "stateMutability": "nonpayable",
      "type": "function"
    },
    {
      "inputs": [
        {
          "internalType": "bytes32",
          "name": "commandId",
          "type": "bytes32"
        },
        {
          "internalType": "string",
          "name": "sourceChain",
          "type": "string"
        },
        {
          "internalType": "string",
          "name": "sourceAddress",
          "type": "string"
        },
        {
          "internalType": "bytes",
          "name": "payload",
          "type": "bytes"
        },
        {
          "internalType": "string",
          "name": "tokenSymbol",
          "type": "string"
        },
        {
          "internalType": "uint256",
          "name": "amount",
          "type": "uint256"
        }
      ],
      "name": "executeWithToken",
      "outputs": [],
      "stateMutability": "nonpayable",
      "type": "function"
    },
    {
      "inputs": [],
      "name": "gateway",
      "outputs": [
        {
          "internalType": "contract IAxelarGateway",
          "name": "",
          "type": "address"
        }
      ],
      "stateMutability": "view",
      "type": "function"
    },
    {
      "inputs": [],
      "name": "getAssociatedCommitmentPool",
      "outputs": [
        {
          "internalType": "address",
          "name": "",
          "type": "address"
        }
      ],
      "stateMutability": "view",
      "type": "function"
    },
    {
      "inputs": [],
      "name": "getMaxAmount",
      "outputs": [
        {
          "internalType": "uint256",
          "name": "",
          "type": "uint256"
        }
      ],
      "stateMutability": "view",
      "type": "function"
    },
    {
      "inputs": [],
      "name": "getMinAmount",
      "outputs": [
        {
          "internalType": "uint256",
          "name": "",
          "type": "uint256"
        }
      ],
      "stateMutability": "view",
      "type": "function"
    },
    {
      "inputs": [],
      "name": "getMinBridgeFee",
      "outputs": [
        {
          "internalType": "uint256",
          "name": "",
          "type": "uint256"
        }
      ],
      "stateMutability": "view",
      "type": "function"
    },
    {
      "inputs": [],
      "name": "getMinExecutorFee",
      "outputs": [
        {
          "internalType": "uint256",
          "name": "",
          "type": "uint256"
        }
      ],
      "stateMutability": "view",
      "type": "function"
    },
    {
      "inputs": [],
      "name": "getPeerMinRollupFee",
      "outputs": [
        {
          "internalType": "uint256",
          "name": "",
          "type": "uint256"
        }
      ],
      "stateMutability": "view",
      "type": "function"
    },
    {
      "inputs": [],
      "name": "isDepositsDisabled",
      "outputs": [
        {
          "internalType": "bool",
          "name": "",
          "type": "bool"
        }
      ],
      "stateMutability": "view",
      "type": "function"
    },
    {
      "inputs": [],
      "name": "isPeerContractSet",
      "outputs": [
        {
          "internalType": "bool",
          "name": "",
          "type": "bool"
        }
      ],
      "stateMutability": "view",
      "type": "function"
    },
    {
      "inputs": [],
      "name": "peerChainId",
      "outputs": [
        {
          "internalType": "uint64",
          "name": "",
          "type": "uint64"
        }
      ],
      "stateMutability": "view",
      "type": "function"
    },
    {
      "inputs": [],
      "name": "peerChainName",
      "outputs": [
        {
          "internalType": "string",
          "name": "",
          "type": "string"
        }
      ],
      "stateMutability": "view",
      "type": "function"
    },
    {
      "inputs": [],
      "name": "peerContract",
      "outputs": [
        {
          "internalType": "address",
          "name": "",
          "type": "address"
        }
      ],
      "stateMutability": "view",
      "type": "function"
    },
    {
      "inputs": [
        {
          "components": [
            {
              "internalType": "uint64",
              "name": "peerChainId",
              "type": "uint64"
            },
            {
              "internalType": "string",
              "name": "peerChainName",
              "type": "string"
            },
            {
              "internalType": "address",
              "name": "peerContract",
              "type": "address"
            }
          ],
          "internalType": "struct IMystikoBridge.PeerContract",
          "name": "_peerContract",
          "type": "tuple"
        }
      ],
      "name": "setPeerContract",
      "outputs": [],
      "stateMutability": "nonpayable",
      "type": "function"
    },
    {
      "inputs": [],
      "name": "settings",
      "outputs": [
        {
          "internalType": "contract MystikoBridgeSettings",
          "name": "",
          "type": "address"
        }
      ],
      "stateMutability": "view",
      "type": "function"
    }
  ],
  "bytecode": "0x60806040526000805460ff60a01b1916905534801561001d57600080fd5b50604051612ee8380380612ee883398101604081905261003c9161016b565b600080546001600160a01b03199081166001600160a01b0398891617909155600880548216968816969096179095558251600355602080840151600455604090930151600555815160065591015160075560098054841692851692909217909155600b80549092169216919091179055610215565b6001600160a01b03811681146100c657600080fd5b50565b80516100d4816100b1565b919050565b604051606081016001600160401b038111828210171561010957634e487b7160e01b600052604160045260246000fd5b60405290565b60006040828403121561012157600080fd5b604080519081016001600160401b038111828210171561015157634e487b7160e01b600052604160045260246000fd5b604052825181526020928301519281019290925250919050565b60008060008060008086880361012081121561018657600080fd5b8751610191816100b1565b60208901519097506101a2816100b1565b60408901519096506101b3816100b1565b94506060605f19820112156101c757600080fd5b506101d06100d9565b606088015181526080880151602082015260a0880151604082015292506101fa8860c0890161010f565b915061020961010088016100c9565b90509295509295509295565b612cc4806102246000396000f3fe6080604052600436106101ac5760003560e01c8063825b5f8d116100ec578063ddac5dc11161008a578063efbfb2ae11610064578063efbfb2ae1461048a578063f4ad17c61461049f578063fa750f56146104b4578063fb3e3d73146104d557600080fd5b8063ddac5dc114610430578063e06174e414610445578063ed6ea33a1461046557600080fd5b8063cbe34285116100c6578063cbe34285146103ae578063cdfceeba146103c4578063cfc7e2da14610405578063d0b436bd1461041a57600080fd5b8063825b5f8d146103735780639a03636c14610388578063cb5c029a1461039b57600080fd5b80632cd26d4511610159578063491606581161013357806349160658146103125780634dde6fbc146103325780634e3c10b714610348578063640c0b361461035d57600080fd5b80632cd26d45146102b65780633fe3347a146102d6578063422e0028146102f257600080fd5b80631ba46cfd1161018a5780631ba46cfd1461023357806321e32d55146102475780632421e1551461026757600080fd5b80630ba95909146101b1578063116191b6146101d95780631a98b2e014610211575b600080fd5b3480156101bd57600080fd5b506101c66104eb565b6040519081526020015b60405180910390f35b3480156101e557600080fd5b50600a546101f9906001600160a01b031681565b6040516001600160a01b0390911681526020016101d0565b34801561021d57600080fd5b5061023161022c3660046121c4565b610574565b005b34801561023f57600080fd5b5060006101f9565b34801561025357600080fd5b506002546101f9906001600160a01b031681565b34801561027357600080fd5b5060408051808201909152600681527f6178656c6172000000000000000000000000000000000000000000000000000060208201525b6040516101d09190612301565b3480156102c257600080fd5b506008546101f9906001600160a01b031681565b3480156102e257600080fd5b5060016040516101d0919061231b565b3480156102fe57600080fd5b5061023161030d366004612438565b6106e7565b34801561031e57600080fd5b5061023161032d3660046124f4565b6107d4565b34801561033e57600080fd5b506101c660055481565b34801561035457600080fd5b506102a9610854565b34801561036957600080fd5b506101c660065481565b34801561037f57600080fd5b506101c66108e2565b61023161039636600461267c565b610969565b6102316103a93660046126b9565b610982565b3480156103ba57600080fd5b506101c660075481565b3480156103d057600080fd5b506000546103ec90600160a81b900467ffffffffffffffff1681565b60405167ffffffffffffffff90911681526020016101d0565b34801561041157600080fd5b506101c6610dad565b34801561042657600080fd5b506101c660045481565b34801561043c57600080fd5b506101f9610e34565b34801561045157600080fd5b506009546101f9906001600160a01b031681565b34801561047157600080fd5b5061047a610ed3565b60405190151581526020016101d0565b34801561049657600080fd5b506101c6610f45565b3480156104ab57600080fd5b506101c6610fcc565b3480156104c057600080fd5b5060005461047a90600160a01b900460ff1681565b3480156104e157600080fd5b506101c660035481565b60095460405163473a063160e01b815230600482015260009182916001600160a01b039091169063473a063190602401602060405180830381865afa158015610538573d6000803e3d6000fd5b505050506040513d601f19601f8201168201806040525081019061055c919061272b565b9050801561056a578061056e565b6004545b91505090565b60008585604051610586929190612744565b604051908190038120600a54631876eed960e01b83529092506001600160a01b031690631876eed9906105cd908e908e908e908e908e9089908d908d908d9060040161277d565b6020604051808303816000875af11580156105ec573d6000803e3d6000fd5b505050506040513d601f19601f8201168201806040525081019061061091906127dc565b61062d57604051631403112d60e21b815260040160405180910390fd5b6106da8a8a8080601f01602080910402602001604051908101604052809392919081815260200183838082843760009201919091525050604080516020601f8e018190048102820181019092528c815292508c91508b908190840183828082843760009201919091525050604080516020601f8b018190048102820181019092528981528c93508b9250908a908a90819084018382808284376000920191909152508a9250611053915050565b5050505050505050505050565b600054600160a01b900460ff161561071257604051636d8f115160e11b815260040160405180910390fd5b80516000805467ffffffffffffffff909216600160a81b027fffffff0000000000000000ffffffffffffffffffffffffffffffffffffffffff90921691909117905560208101516001906107669082612884565b5060400151600280546001600160a01b039092167fffffffffffffffffffffffff0000000000000000000000000000000000000000909216919091179055600080547fffffffffffffffffffffff00ffffffffffffffffffffffffffffffffffffffff16600160a01b179055565b61084b86868080601f01602080910402602001604051908101604052809392919081815260200183838082843760009201919091525050604080516020601f8a01819004810282018101909252888152925088915087908190840183828082843760009201919091525087925086915061105b9050565b50505050505050565b60018054610861906127fe565b80601f016020809104026020016040519081016040528092919081815260200182805461088d906127fe565b80156108da5780601f106108af576101008083540402835291602001916108da565b820191906000526020600020905b8154815290600101906020018083116108bd57829003601f168201915b505050505081565b6009546040516361863c0360e11b815230600482015260009182916001600160a01b039091169063c30c780690602401602060405180830381865afa15801561092f573d6000803e3d6000fd5b505050506040513d601f19601f82011682018060405250810190610953919061272b565b90508015610961578061056e565b505060075490565b60405163e7a24ff960e01b815260040160405180910390fd5b60095460405163bb07320560e01b81523060048201526001600160a01b039091169063bb07320590602401602060405180830381865afa1580156109ca573d6000803e3d6000fd5b505050506040513d601f19601f820116820180604052508101906109ee91906127dc565b15610a0c57604051630e2f42c960e31b815260040160405180910390fd5b600960009054906101000a90046001600160a01b03166001600160a01b031663bc5877066040518163ffffffff1660e01b8152600401602060405180830381865afa158015610a5f573d6000803e3d6000fd5b505050506040513d601f19601f82011682018060405250810190610a8391906127dc565b15610b505760006040518060800160405280326001600160a01b03168152602001610aac600090565b6001600160a01b039081168252602082018690526040918201859052600954915163849e8b9f60e01b8152929350169063849e8b9f90610af0908490600401612943565b602060405180830381865afa158015610b0d573d6000803e3d6000fd5b505050506040513d601f19601f82011682018060405250810190610b3191906127dc565b610b4e57604051633042041f60e21b815260040160405180910390fd5b505b610b58610dad565b83511015610b795760405163617ab12d60e11b815260040160405180910390fd5b610b816104eb565b83511115610ba257604051630625040160e01b815260040160405180910390fd5b610baa610f45565b8360a001511015610bce5760405163c4d8d00d60e01b815260040160405180910390fd5b610bd6610fcc565b8360c001511015610bfa576040516355a6d6a160e11b815260040160405180910390fd5b610c026108e2565b8360e001511015610c265760405163784f02bd60e11b815260040160405180910390fd5b6000610c3f8460400151856000015186606001516110d3565b905080846020015114610c65576040516301bfaa2560e51b815260040160405180910390fd5b60095460405163df592f7d60e01b81523260048201526001600160a01b039091169063df592f7d90602401602060405180830381865afa158015610cad573d6000803e3d6000fd5b505050506040513d601f19601f82011682018060405250810190610cd191906127dc565b15610cef57604051632e70c0b160e01b815260040160405180910390fd5b6040805160a081018252855181526020808701519082015260c08601519181019190915260e08501516060820152608080860151908201526000610d32826111ea565b9050610d428660a0015182611259565b610d77610d4d610e34565b60e088015160c08901518951610d6391906129a4565b610d6d91906129a4565b8860a00151611386565b60208601516040517fd106eb38b3368b7c294e36fae5513fdefe880be5abfad529b37b044f2fdd2dbe90600090a2505050505050565b600954604051635525984960e01b815230600482015260009182916001600160a01b0390911690635525984990602401602060405180830381865afa158015610dfa573d6000803e3d6000fd5b505050506040513d601f19601f82011682018060405250810190610e1e919061272b565b90508015610e2c578061056e565b505060035490565b6009546040516341fb697960e01b815230600482015260009182916001600160a01b03909116906341fb697990602401602060405180830381865afa158015610e81573d6000803e3d6000fd5b505050506040513d601f19601f82011682018060405250810190610ea591906129b7565b90506001600160a01b038116610ece576040516306f3d63360e51b815260040160405180910390fd5b919050565b60095460405163bb07320560e01b81523060048201526000916001600160a01b03169063bb07320590602401602060405180830381865afa158015610f1c573d6000803e3d6000fd5b505050506040513d601f19601f82011682018060405250810190610f4091906127dc565b905090565b600954604051637b52b00d60e01b815230600482015260009182916001600160a01b0390911690637b52b00d90602401602060405180830381865afa158015610f92573d6000803e3d6000fd5b505050506040513d601f19601f82011682018060405250810190610fb6919061272b565b90508015610fc4578061056e565b505060055490565b600954604051634f314f9d60e11b815230600482015260009182916001600160a01b0390911690639e629f3a90602401602060405180830381865afa158015611019573d6000803e3d6000fd5b505050506040513d601f19601f8201168201806040525081019061103d919061272b565b9050801561104b578061056e565b505060065490565b505050505050565b600061109c83838080601f01602080910402602001604051908101604052809392919081815260200183838082843760009201919091525061148c92505050565b6000546002549192506110cc91600160a81b90910467ffffffffffffffff16906001600160a01b03163284611554565b5050505050565b60007f30644e72e131a029b85045b68181585d2833e84879b9709143e1f593f00000018085106111165760405163805f2a4960e01b815260040160405180910390fd5b80836fffffffffffffffffffffffffffffffff161061114857604051633bbde0bf60e21b815260040160405180910390fd5b60005460408051606081018252878152602081018790526fffffffffffffffffffffffffffffffff86168183015290516304b98e1d60e31b81526001600160a01b03909216916325cc70e8916111a0916004016129d4565b602060405180830381865afa1580156111bd573d6000803e3d6000fd5b505050506040513d601f19601f820116820180604052508101906111e1919061272b565b95945050505050565b6060806111fa8360000151611647565b6112078460200151611647565b6112148560400151611647565b6112218660600151611647565b61122e87608001516116df565b604051602001611242959493929190612a05565b60408051601f198184030181529190529392505050565b600254600090611273906001600160a01b03166014611716565b905082156112e957600b54604051630c93e3bb60e01b81526001600160a01b0390911690630c93e3bb9085906112b6903090600190879089903390600401612af2565b6000604051808303818588803b1580156112cf57600080fd5b505af11580156112e3573d6000803e3d6000fd5b50505050505b7fe68d82569479581bf9793b8672c8f40b6d3ad0545719dc0579fb3ee30919d3ef60018260405161131b929190612b56565b60405180910390a1600854604051631c92115f60e01b81526001600160a01b0390911690631c92115f906113589060019085908790600401612b7b565b600060405180830381600087803b15801561137257600080fd5b505af115801561084b573d6000803e3d6000fd5b61139081836129a4565b34146113e35760405162461bcd60e51b815260206004820152601260248201527f696e73756666696369656e7420746f6b656e000000000000000000000000000060448201526064015b60405180910390fd5b6000836001600160a01b03168360405160006040518083038185875af1925050503d8060008114611430576040519150601f19603f3d011682016040523d82523d6000602084013e611435565b606091505b50509050806114865760405162461bcd60e51b815260206004820152601660248201527f616d6f756e74207472616e73666572206661696c65640000000000000000000060448201526064016113da565b50505050565b6114be6040518060a0016040528060008152602001600081526020016000815260200160008152602001606081525090565b6114f06040518060a0016040528060008152602001600081526020016000815260200160008152602001606081525090565b60006114fc84826118a5565b908352905061150b84826118a5565b6020840191909152905061151f84826118a5565b6040840191909152905061153384826118a5565b6060840191909152905061154784826119d6565b5060808301525092915050565b6002546001600160a01b0384811691161461158257604051631b495ecf60e31b815260040160405180910390fd5b60005467ffffffffffffffff858116600160a81b90920416146115b85760405163373bc12160e11b815260040160405180910390fd5b80516000036115da5760405163820bf1e560e01b815260040160405180910390fd5b6115e2610e34565b6001600160a01b03166378d60cd782846040518363ffffffff1660e01b815260040161160f929190612bbe565b600060405180830381600087803b15801561162957600080fd5b505af115801561163d573d6000803e3d6000fd5b5050505050505050565b60606001600160ff1b038211156116a05760405162461bcd60e51b815260206004820152601b60248201527f56616c756520657863656564732075696e743235352072616e6765000000000060448201526064016113da565b60405160208082526000601f5b828210156116cf5785811a8260208601015360019190910190600019016116ad565b5050506040818101905292915050565b80516060906116ed81611ae3565b836040516020016116ff929190612c1b565b604051602081830303815290604052915050919050565b6060826000611726846002612c4a565b6117319060026129a4565b67ffffffffffffffff81111561174957611749612343565b6040519080825280601f01601f191660200182016040528015611773576020820181803683370190505b509050600360fc1b8160008151811061178e5761178e612c61565b60200101906001600160f81b031916908160001a905350600f60fb1b816001815181106117bd576117bd612c61565b60200101906001600160f81b031916908160001a90535060006117e1856002612c4a565b6117ec9060016129a4565b90505b6001811115611871577f303132333435363738396162636465660000000000000000000000000000000083600f166010811061182d5761182d612c61565b1a60f81b82828151811061184357611843612c61565b60200101906001600160f81b031916908160001a90535060049290921c9161186a81612c77565b90506117ef565b50811561189b5760405163e22e27eb60e01b815260048101869052602481018590526044016113da565b9150505b92915050565b60008083518360206118b791906129a4565b111580156118ce57506118cb8360206129a4565b83105b6119265760405162461bcd60e51b815260206004820152602360248201527f4e65787455696e743235352c206f66667365742065786365656473206d6178696044820152626d756d60e81b60648201526084016113da565b600060405160206000600182038760208a0101515b8383101561195b5780821a8386015360018301925060018203915061193b565b50505081016040525190506001600160ff1b038111156119bd5760405162461bcd60e51b815260206004820152601760248201527f56616c75652065786365656473207468652072616e676500000000000000000060448201526064016113da565b806119c98560206129a4565b92509250505b9250929050565b60606000806119e58585611bab565b86519095509091506119f782866129a4565b11158015611a0d5750611a0a81856129a4565b84105b611a655760405162461bcd60e51b8152602060048201526024808201527f4e65787456617242797465732c206f66667365742065786365656473206d6178604482015263696d756d60e01b60648201526084016113da565b606081158015611a8057604051915060208201604052611aca565b6040519150601f8316801560200281840101848101888315602002848c0101015b81831015611ab9578051835260209283019201611aa1565b5050848452601f01601f1916604052505b5080611ad683876129a4565b9350935050509250929050565b606060fd8267ffffffffffffffff161015611b1657604080516001815260f884901b60208201526021810190915261189f565b61ffff8267ffffffffffffffff1611611b6657611b3660fd60f81b611daf565b611b3f83611dd6565b604051602001611b50929190612c1b565b6040516020818303038152906040529050919050565b63ffffffff8267ffffffffffffffff1611611b9157611b88607f60f91b611daf565b611b3f83611e19565b611ba26001600160f81b0319611daf565b611b3f83611e5c565b6000806000611bba8585611e9f565b9450905060006001600160f81b0319821660fd60f81b03611c5257611bdf8686611f27565b955061ffff16905060fd8110801590611bfa575061ffff8111155b611c465760405162461bcd60e51b815260206004820152601f60248201527f4e65787455696e7431362c2076616c7565206f7574736964652072616e67650060448201526064016113da565b92508391506119cf9050565b6001600160f81b03198216607f60f91b03611cdc57611c718686611fe0565b955063ffffffff16905061ffff81118015611c90575063ffffffff8111155b611c465760405162461bcd60e51b815260206004820181905260248201527f4e65787456617255696e742c2076616c7565206f7574736964652072616e676560448201526064016113da565b6001600160f81b03198083169003611d5957611cf886866120b1565b955067ffffffffffffffff16905063ffffffff8111611c465760405162461bcd60e51b815260206004820181905260248201527f4e65787456617255696e742c2076616c7565206f7574736964652072616e676560448201526064016113da565b5060f881901c60fd8110611c465760405162461bcd60e51b815260206004820181905260248201527f4e65787456617255696e742c2076616c7565206f7574736964652072616e676560448201526064016113da565b60408051600181526001600160f81b0319831660208201526021810190915260609061189f565b6040516002808252606091906000601f5b82821015611e095785811a826020860101536001919091019060001901611de7565b5050506022810160405292915050565b6040516004808252606091906000601f5b82821015611e4c5785811a826020860101536001919091019060001901611e2a565b5050506024810160405292915050565b6040516008808252606091906000601f5b82821015611e8f5785811a826020860101536001919091019060001901611e6d565b5050506028810160405292915050565b6000808351836001611eb191906129a4565b11158015611ec85750611ec58360016129a4565b83105b611f145760405162461bcd60e51b815260206004820181905260248201527f4e657874427974652c204f66667365742065786365656473206d6178696d756d60448201526064016113da565b83830160200151806119c98560016129a4565b6000808351836002611f3991906129a4565b11158015611f505750611f4d8360026129a4565b83105b611fa75760405162461bcd60e51b815260206004820152602260248201527f4e65787455696e7431362c206f66667365742065786365656473206d6178696d604482015261756d60f01b60648201526084016113da565b6000604051846020870101518060011a82538060001a60018301535060028101604052601e810351915050808460026119c991906129a4565b6000808351836004611ff291906129a4565b1115801561200957506120068360046129a4565b83105b6120605760405162461bcd60e51b815260206004820152602260248201527f4e65787455696e7433322c206f66667365742065786365656473206d6178696d604482015261756d60f01b60648201526084016113da565b600060405160046000600182038760208a0101515b838310156120955780821a83860153600183019250600182039150612075565b505050016040819052601f1901519050806119c98560046129a4565b60008083518360086120c391906129a4565b111580156120da57506120d78360086129a4565b83105b6121315760405162461bcd60e51b815260206004820152602260248201527f4e65787455696e7436342c206f66667365742065786365656473206d6178696d604482015261756d60f01b60648201526084016113da565b600060405160086000600182038760208a0101515b838310156121665780821a83860153600183019250600182039150612146565b505050016040819052601f1901519050806119c98560086129a4565b60008083601f84011261219457600080fd5b50813567ffffffffffffffff8111156121ac57600080fd5b6020830191508360208285010111156119cf57600080fd5b60008060008060008060008060008060c08b8d0312156121e357600080fd5b8a35995060208b013567ffffffffffffffff81111561220157600080fd5b61220d8d828e01612182565b909a5098505060408b013567ffffffffffffffff81111561222d57600080fd5b6122398d828e01612182565b90985096505060608b013567ffffffffffffffff81111561225957600080fd5b6122658d828e01612182565b90965094505060808b013567ffffffffffffffff81111561228557600080fd5b6122918d828e01612182565b9b9e9a9d50989b979a96999598949794969560a090950135949350505050565b60005b838110156122cc5781810151838201526020016122b4565b50506000910152565b600081518084526122ed8160208601602086016122b1565b601f01601f19169290920160200192915050565b60208152600061231460208301846122d5565b9392505050565b602081016002831061233d57634e487b7160e01b600052602160045260246000fd5b91905290565b634e487b7160e01b600052604160045260246000fd5b6040516060810167ffffffffffffffff8111828210171561237c5761237c612343565b60405290565b604051610100810167ffffffffffffffff8111828210171561237c5761237c612343565b60008067ffffffffffffffff8411156123c1576123c1612343565b50604051601f19601f85018116603f0116810181811067ffffffffffffffff821117156123f0576123f0612343565b60405283815290508082840185101561240857600080fd5b83836020830137600060208583010152509392505050565b6001600160a01b038116811461243557600080fd5b50565b60006020828403121561244a57600080fd5b813567ffffffffffffffff81111561246157600080fd5b82016060818503121561247357600080fd5b61247b612359565b813567ffffffffffffffff8116811461249357600080fd5b8152602082013567ffffffffffffffff8111156124af57600080fd5b8201601f810186136124c057600080fd5b6124cf868235602084016123a6565b602083015250604082013591506124e582612420565b60408101919091529392505050565b60008060008060008060006080888a03121561250f57600080fd5b87359650602088013567ffffffffffffffff81111561252d57600080fd5b6125398a828b01612182565b909750955050604088013567ffffffffffffffff81111561255957600080fd5b6125658a828b01612182565b909550935050606088013567ffffffffffffffff81111561258557600080fd5b6125918a828b01612182565b989b979a50959850939692959293505050565b80356fffffffffffffffffffffffffffffffff81168114610ece57600080fd5b600082601f8301126125d557600080fd5b612314838335602085016123a6565b600061010082840312156125f757600080fd5b6125ff612382565b8235815260208084013590820152604080840135908201529050612625606083016125a4565b6060820152608082013567ffffffffffffffff81111561264457600080fd5b612650848285016125c4565b60808301525060a0828101359082015260c0808301359082015260e09182013591810191909152919050565b60006020828403121561268e57600080fd5b813567ffffffffffffffff8111156126a557600080fd5b6126b1848285016125e4565b949350505050565b6000806000606084860312156126ce57600080fd5b833567ffffffffffffffff8111156126e557600080fd5b6126f1868287016125e4565b93505060208401359150604084013567ffffffffffffffff81111561271557600080fd5b612721868287016125c4565b9150509250925092565b60006020828403121561273d57600080fd5b5051919050565b8183823760009101908152919050565b81835281816020850137506000828201602090810191909152601f909101601f19169091010190565b89815260c06020820152600061279760c083018a8c612754565b82810360408401526127aa81898b612754565b905086606084015282810360808401526127c5818688612754565b9150508260a08301529a9950505050505050505050565b6000602082840312156127ee57600080fd5b8151801515811461231457600080fd5b600181811c9082168061281257607f821691505b60208210810361283257634e487b7160e01b600052602260045260246000fd5b50919050565b601f82111561287f57806000526020600020601f840160051c8101602085101561285f5750805b601f840160051c820191505b818110156110cc576000815560010161286b565b505050565b815167ffffffffffffffff81111561289e5761289e612343565b6128b2816128ac84546127fe565b84612838565b6020601f8211600181146128e657600083156128ce5750848201515b600019600385901b1c1916600184901b1784556110cc565b600084815260208120601f198516915b8281101561291657878501518255602094850194600190920191016128f6565b50848210156129345786840151600019600387901b60f8161c191681555b50505050600190811b01905550565b602081526001600160a01b0382511660208201526001600160a01b03602083015116604082015260408201516060820152600060608301516080808401526126b160a08401826122d5565b634e487b7160e01b600052601160045260246000fd5b8082018082111561189f5761189f61298e565b6000602082840312156129c957600080fd5b815161231481612420565b60608101818360005b60038110156129fc5781518352602092830192909101906001016129dd565b50505092915050565b60008651612a17818460208b016122b1565b865190830190612a2b818360208b016122b1565b8651910190612a3e818360208a016122b1565b8551910190612a518183602089016122b1565b8451910190612a648183602088016122b1565b01979650505050505050565b60008154612a7d816127fe565b808552600182168015612a975760018114612ab3576129fc565b60ff1983166020870152602082151560051b87010193506129fc565b84600052602060002060005b83811015612ae15781546020828a010152600182019150602081019050612abf565b870160200194505050505092915050565b6001600160a01b038616815260a060208201526000612b1460a0830187612a70565b8281036040840152612b2681876122d5565b90508281036060840152612b3a81866122d5565b9150506001600160a01b03831660808301529695505050505050565b604081526000612b696040830185612a70565b82810360208401526111e181856122d5565b606081526000612b8e6060830186612a70565b8281036020840152612ba081866122d5565b90508281036040840152612bb481856122d5565b9695505050505050565b60408152825160408201526020830151606082015260408301516080820152606083015160a08201526000608084015160a060c0840152612c0260e08401826122d5565b9150506001600160a01b03831660208301529392505050565b60008351612c2d8184602088016122b1565b835190830190612c418183602088016122b1565b01949350505050565b808202811582820484141761189f5761189f61298e565b634e487b7160e01b600052603260045260246000fd5b600081612c8657612c8661298e565b50600019019056fea26469706673582212206b3fc226672d3e0bca239854f1d353e5284099bf2e1f35d8d9264afc6197bf3164736f6c634300081a0033",
  "linkReferences": {},
  "deployedLinkReferences": {}
}