{
  "_format": "hh-sol-artifact-1",
  "contractName": "MystikoV2LoopERC20",
  "sourceName": "contracts/core/deposit/loop/MystikoV2LoopERC20.sol",
  "abi": [
    {
      "inputs": [
        {
          "internalType": "contract IHasher3",
          "name": "_hasher3",
          "type": "address"
        },
        {
          "internalType": "contract IERC20Metadata",
          "name": "_token",
          "type": "address"
        }
      ],
      "stateMutability": "nonpayable",
      "type": "constructor"
    },
    {
      "inputs": [],
      "name": "AmountTooLarge",
      "type": "error"
    },
    {
      "inputs": [],
      "name": "AmountTooSmall",
      "type": "error"
    },
    {
      "inputs": [],
      "name": "CommitmentHashIncorrect",
      "type": "error"
    },
    {
      "inputs": [],
      "name": "DepositsDisabled",
      "type": "error"
    },
    {
      "inputs": [],
      "name": "HashKGreaterThanFieldSize",
      "type": "error"
    },
    {
      "inputs": [],
      "name": "MinAmountGreaterThanMaxAmount",
      "type": "error"
    },
    {
      "inputs": [],
      "name": "NotChanged",
      "type": "error"
    },
    {
      "inputs": [],
      "name": "OnlyOperator",
      "type": "error"
    },
    {
      "inputs": [],
      "name": "RandomSGreaterThanFieldSize",
      "type": "error"
    },
    {
      "inputs": [],
      "name": "SanctionedAddress",
      "type": "error"
    },
    {
      "anonymous": false,
      "inputs": [
        {
          "indexed": false,
          "internalType": "uint256",
          "name": "maxAmount",
          "type": "uint256"
        },
        {
          "indexed": false,
          "internalType": "uint256",
          "name": "minAmount",
          "type": "uint256"
        }
      ],
      "name": "DepositAmountLimits",
      "type": "event"
    },
    {
      "anonymous": false,
      "inputs": [
        {
          "indexed": false,
          "internalType": "bool",
          "name": "state",
          "type": "bool"
        }
      ],
      "name": "DepositsDisabled",
      "type": "event"
    },
    {
      "anonymous": false,
      "inputs": [
        {
          "indexed": true,
          "internalType": "address",
          "name": "operator",
          "type": "address"
        }
      ],
      "name": "OperatorChanged",
      "type": "event"
    },
    {
      "anonymous": false,
      "inputs": [
        {
          "indexed": false,
          "internalType": "bool",
          "name": "state",
          "type": "bool"
        }
      ],
      "name": "SanctionsCheck",
      "type": "event"
    },
    {
      "anonymous": false,
      "inputs": [
        {
          "indexed": false,
          "internalType": "contract ISanctionsList",
          "name": "sanctions",
          "type": "address"
        }
      ],
      "name": "SanctionsList",
      "type": "event"
    },
    {
      "inputs": [],
      "name": "assetDecimals",
      "outputs": [
        {
          "internalType": "uint8",
          "name": "",
          "type": "uint8"
        }
      ],
      "stateMutability": "view",
      "type": "function"
    },
    {
      "inputs": [],
      "name": "assetName",
      "outputs": [
        {
          "internalType": "string",
          "name": "",
          "type": "string"
        }
      ],
      "stateMutability": "view",
      "type": "function"
    },
    {
      "inputs": [],
      "name": "assetSymbol",
      "outputs": [
        {
          "internalType": "string",
          "name": "",
          "type": "string"
        }
      ],
      "stateMutability": "view",
      "type": "function"
    },
    {
      "inputs": [],
      "name": "assetType",
      "outputs": [
        {
          "internalType": "enum AssetPool.AssetType",
          "name": "",
          "type": "uint8"
        }
      ],
      "stateMutability": "pure",
      "type": "function"
    },
    {
      "inputs": [],
      "name": "bridgeType",
      "outputs": [
        {
          "internalType": "string",
          "name": "",
          "type": "string"
        }
      ],
      "stateMutability": "pure",
      "type": "function"
    },
    {
      "inputs": [
        {
          "internalType": "address",
          "name": "_newOperator",
          "type": "address"
        }
      ],
      "name": "changeOperator",
      "outputs": [],
      "stateMutability": "nonpayable",
      "type": "function"
    },
    {
      "inputs": [
        {
          "components": [
            {
              "internalType": "uint256",
              "name": "amount",
              "type": "uint256"
            },
            {
              "internalType": "uint256",
              "name": "commitment",
              "type": "uint256"
            },
            {
              "internalType": "uint256",
              "name": "hashK",
              "type": "uint256"
            },
            {
              "internalType": "uint128",
              "name": "randomS",
              "type": "uint128"
            },
            {
              "internalType": "bytes",
              "name": "encryptedNote",
              "type": "bytes"
            },
            {
              "internalType": "uint256",
              "name": "rollupFee",
              "type": "uint256"
            }
          ],
          "internalType": "struct IMystikoLoop.DepositRequest",
          "name": "_request",
          "type": "tuple"
        }
      ],
      "name": "deposit",
      "outputs": [],
      "stateMutability": "payable",
      "type": "function"
    },
    {
      "inputs": [],
      "name": "disableSanctionsCheck",
      "outputs": [],
      "stateMutability": "nonpayable",
      "type": "function"
    },
    {
      "inputs": [],
      "name": "enableSanctionsCheck",
      "outputs": [],
      "stateMutability": "nonpayable",
      "type": "function"
    },
    {
      "inputs": [],
      "name": "getAssociatedCommitmentPool",
      "outputs": [
        {
          "internalType": "address",
          "name": "",
          "type": "address"
        }
      ],
      "stateMutability": "view",
      "type": "function"
    },
    {
      "inputs": [],
      "name": "getMaxAmount",
      "outputs": [
        {
          "internalType": "uint256",
          "name": "",
          "type": "uint256"
        }
      ],
      "stateMutability": "view",
      "type": "function"
    },
    {
      "inputs": [],
      "name": "getMinAmount",
      "outputs": [
        {
          "internalType": "uint256",
          "name": "",
          "type": "uint256"
        }
      ],
      "stateMutability": "view",
      "type": "function"
    },
    {
      "inputs": [],
      "name": "isDepositsDisabled",
      "outputs": [
        {
          "internalType": "bool",
          "name": "",
          "type": "bool"
        }
      ],
      "stateMutability": "view",
      "type": "function"
    },
    {
      "inputs": [],
      "name": "sanctionsCheck",
      "outputs": [
        {
          "internalType": "bool",
          "name": "",
          "type": "bool"
        }
      ],
      "stateMutability": "view",
      "type": "function"
    },
    {
      "inputs": [],
      "name": "sanctionsList",
      "outputs": [
        {
          "internalType": "contract ISanctionsList",
          "name": "",
          "type": "address"
        }
      ],
      "stateMutability": "view",
      "type": "function"
    },
    {
      "inputs": [
        {
          "internalType": "address",
          "name": "_commitmentPoolAddress",
          "type": "address"
        }
      ],
      "name": "setAssociatedCommitmentPool",
      "outputs": [],
      "stateMutability": "nonpayable",
      "type": "function"
    },
    {
      "inputs": [
        {
          "internalType": "bool",
          "name": "_state",
          "type": "bool"
        }
      ],
      "name": "setDepositsDisabled",
      "outputs": [],
      "stateMutability": "nonpayable",
      "type": "function"
    },
    {
      "inputs": [
        {
          "internalType": "uint256",
          "name": "_maxAmount",
          "type": "uint256"
        },
        {
          "internalType": "uint256",
          "name": "_minAmount",
          "type": "uint256"
        }
      ],
      "name": "updateDepositAmountLimits",
      "outputs": [],
      "stateMutability": "nonpayable",
      "type": "function"
    },
    {
      "inputs": [
        {
          "internalType": "contract ISanctionsList",
          "name": "_sanction",
          "type": "address"
        }
      ],
      "name": "updateSanctionsListAddress",
      "outputs": [],
      "stateMutability": "nonpayable",
      "type": "function"
    }
  ],
  "bytecode": "0x6080604052600080546001600160a81b031916740140c57923924b5c5c5455c48d93317139addac8fb17905534801561003757600080fd5b506040516114f33803806114f383398101604081905261005691610092565b60058054336001600160a01b0319918216179091556001805482166001600160a01b0394851617905560068054909116919092161790556100e4565b600080604083850312156100a557600080fd5b82516100b0816100cc565b60208401519092506100c1816100cc565b809150509250929050565b6001600160a01b03811681146100e157600080fd5b50565b611400806100f36000396000f3fe6080604052600436106101445760003560e01c8063c9230c5d116100c0578063e8183c4411610074578063ec571c6a11610059578063ec571c6a14610358578063ed6ea33a14610378578063f6afe88f1461039757600080fd5b8063e8183c4414610318578063ea0cde851461033857600080fd5b8063dd757c34116100a5578063dd757c34146102b1578063ddac5dc1146102c6578063e19abef8146102f857600080fd5b8063c9230c5d14610287578063cfc7e2da1461029c57600080fd5b80632421e155116101175780633fe3347a116100fc5780633fe3347a14610213578063b1c394221461022f578063c2d416011461026057600080fd5b80632421e155146101c657806330f49cac146101f357600080fd5b806301dbf19f1461014957806306394c9b146101605780630ba9590914610180578063176de7a8146101a4575b600080fd5b34801561015557600080fd5b5061015e6103aa565b005b34801561016c57600080fd5b5061015e61017b366004610fbd565b61042e565b34801561018c57600080fd5b506004545b6040519081526020015b60405180910390f35b3480156101b057600080fd5b506101b96104df565b60405161019b919061124a565b3480156101d257600080fd5b5060408051808201909152600481526306c6f6f760e41b60208201526101b9565b3480156101ff57600080fd5b5061015e61020e366004610fbd565b610565565b34801561021f57600080fd5b50600060405161019b9190611222565b34801561023b57600080fd5b5060005461025090600160a01b900460ff1681565b604051901515815260200161019b565b34801561026c57600080fd5b506102756105f2565b60405160ff909116815260200161019b565b34801561029357600080fd5b506101b961066f565b3480156102a857600080fd5b50600354610191565b3480156102bd57600080fd5b5061015e6106b4565b3480156102d257600080fd5b506002546001600160a01b03165b6040516001600160a01b03909116815260200161019b565b34801561030457600080fd5b5061015e610313366004610fbd565b61072c565b34801561032457600080fd5b5061015e610333366004611164565b610786565b34801561034457600080fd5b5061015e610353366004610fda565b610819565b34801561036457600080fd5b506000546102e0906001600160a01b031681565b34801561038457600080fd5b50600554600160a01b900460ff16610250565b61015e6103a536600461108b565b610891565b6005546001600160a01b031633146103d5576040516327e1f1e560e01b815260040160405180910390fd5b6000805460ff60a01b1916600160a01b908117918290556040517fa5ffe1601eb93a7fefd0d0eeb5fc94a2f65475f333836fe2b87fd7bbf59520699261042492900460ff161515815260200190565b60405180910390a1565b6005546001600160a01b03163314610459576040516327e1f1e560e01b815260040160405180910390fd5b6005546001600160a01b0382811691161415610488576040516336a1c33f60e01b815260040160405180910390fd5b6005805473ffffffffffffffffffffffffffffffffffffffff19166001600160a01b0383169081179091556040517f4721129e0e676ed6a92909bb24e853ccdd63ad72280cc2e974e38e480e0e6e5490600090a250565b600654604080516395d89b4160e01b815290516060926001600160a01b0316916395d89b41916004808301926000929190829003018186803b15801561052457600080fd5b505afa158015610538573d6000803e3d6000fd5b505050506040513d6000823e601f3d908101601f191682016040526105609190810190611014565b905090565b6005546001600160a01b03163314610590576040516327e1f1e560e01b815260040160405180910390fd5b6000805473ffffffffffffffffffffffffffffffffffffffff19166001600160a01b0383169081179091556040519081527fbe1808917e09814fca7d80289a9760a4065f10d624ac1aee0b9f903c4f5d92b1906020015b60405180910390a150565b6006546040805163313ce56760e01b815290516000926001600160a01b03169163313ce567916004808301926020929190829003018186803b15801561063757600080fd5b505afa15801561064b573d6000803e3d6000fd5b505050506040513d601f19601f820116820180604052508101906105609190611186565b600654604080516306fdde0360e01b815290516060926001600160a01b0316916306fdde03916004808301926000929190829003018186803b15801561052457600080fd5b6005546001600160a01b031633146106df576040516327e1f1e560e01b815260040160405180910390fd5b6000805460ff60a01b1916908190556040517fa5ffe1601eb93a7fefd0d0eeb5fc94a2f65475f333836fe2b87fd7bbf59520699161042491600160a01b90910460ff161515815260200190565b6005546001600160a01b03163314610757576040516327e1f1e560e01b815260040160405180910390fd5b6002805473ffffffffffffffffffffffffffffffffffffffff19166001600160a01b0392909216919091179055565b6005546001600160a01b031633146107b1576040516327e1f1e560e01b815260040160405180910390fd5b818111156107d257604051636003e82160e11b815260040160405180910390fd5b6004829055600381905560408051838152602081018390527f7633004c7a229869aeea10db4ff3e57e3b1534aeb2c9e72c5db25f965895c330910160405180910390a15050565b6005546001600160a01b03163314610844576040516327e1f1e560e01b815260040160405180910390fd5b60058054821515600160a01b0260ff60a01b199091161790556040517fcd162c6fc24285bfbe399ec0cc2ce2c380ad27d2eb1fca418c652df1257e7e09906105e790831515815260200190565b600554600160a01b900460ff16156108bc57604051630e2f42c960e31b815260040160405180910390fd5b600354815110156108e05760405163617ab12d60e11b815260040160405180910390fd5b6004548151111561090457604051630625040160e01b815260040160405180910390fd5b600061091d82604001518360000151846060015161098a565b905080826020015114610943576040516301bfaa2560e51b815260040160405180910390fd5b61094c33610ab2565b1561096a57604051632e70c0b160e01b815260040160405180910390fd5b610986826000015183602001518460a001518560800151610b4f565b5050565b60007f30644e72e131a029b85045b68181585d2833e84879b9709143e1f593f00000018085106109cd5760405163805f2a4960e01b815260040160405180910390fd5b80836fffffffffffffffffffffffffffffffff16106109ff57604051633bbde0bf60e21b815260040160405180910390fd5b60015460408051606081018252878152602081018790526fffffffffffffffffffffffffffffffff86168183015290516304b98e1d60e31b81526001600160a01b03909216916325cc70e891610a57916004016111f1565b60206040518083038186803b158015610a6f57600080fd5b505afa158015610a83573d6000803e3d6000fd5b505050506040513d601f19601f82011682018060405250810190610aa7919061114b565b9150505b9392505050565b60008054600160a01b900460ff16610acc57506000919050565b60005460405163df592f7d60e01b81526001600160a01b0384811660048301529091169063df592f7d9060240160206040518083038186803b158015610b1157600080fd5b505afa158015610b25573d6000803e3d6000fd5b505050506040513d601f19601f82011682018060405250810190610b499190610ff7565b92915050565b6040805160a081018252858152602081018590526000818301819052606082018590526080820184905260025492516378d60cd760e01b815291926001600160a01b0316916378d60cd791610ba99185919060040161125d565b600060405180830381600087803b158015610bc357600080fd5b505af1158015610bd7573d6000803e3d6000fd5b5050600254610bfd92506001600160a01b03169050610bf6858861133c565b6000610c04565b5050505050565b803414610c585760405162461bcd60e51b815260206004820152601360248201527f62726964676520666565206d69736d617463680000000000000000000000000060448201526064015b60405180910390fd5b600654610c70906001600160a01b0316338585610c75565b505050565b604080516001600160a01b0385811660248301528416604482015260648082018490528251808303909101815260849091019091526020810180517bffffffffffffffffffffffffffffffffffffffffffffffffffffffff166323b872dd60e01b179052610ce4908590610cea565b50505050565b6000610d3f826040518060400160405280602081526020017f5361666545524332303a206c6f772d6c6576656c2063616c6c206661696c6564815250856001600160a01b0316610dcf9092919063ffffffff16565b805190915015610c705780806020019051810190610d5d9190610ff7565b610c705760405162461bcd60e51b815260206004820152602a60248201527f5361666545524332303a204552433230206f7065726174696f6e20646964206e60448201527f6f742073756363656564000000000000000000000000000000000000000000006064820152608401610c4f565b6060610dde8484600085610de6565b949350505050565b606082471015610e5e5760405162461bcd60e51b815260206004820152602660248201527f416464726573733a20696e73756666696369656e742062616c616e636520666f60448201527f722063616c6c00000000000000000000000000000000000000000000000000006064820152608401610c4f565b6001600160a01b0385163b610eb55760405162461bcd60e51b815260206004820152601d60248201527f416464726573733a2063616c6c20746f206e6f6e2d636f6e74726163740000006044820152606401610c4f565b600080866001600160a01b03168587604051610ed191906111d5565b60006040518083038185875af1925050503d8060008114610f0e576040519150601f19603f3d011682016040523d82523d6000602084013e610f13565b606091505b5091509150610f23828286610f2e565b979650505050505050565b60608315610f3d575081610aab565b825115610f4d5782518084602001fd5b8160405162461bcd60e51b8152600401610c4f919061124a565b600082601f830112610f7857600080fd5b8135610f8b610f8682611314565b6112e3565b818152846020838601011115610fa057600080fd5b816020850160208301376000918101602001919091529392505050565b600060208284031215610fcf57600080fd5b8135610aab816113a4565b600060208284031215610fec57600080fd5b8135610aab816113bc565b60006020828403121561100957600080fd5b8151610aab816113bc565b60006020828403121561102657600080fd5b815167ffffffffffffffff81111561103d57600080fd5b8201601f8101841361104e57600080fd5b805161105c610f8682611314565b81815285602083850101111561107157600080fd5b611082826020830160208601611362565b95945050505050565b60006020828403121561109d57600080fd5b813567ffffffffffffffff808211156110b557600080fd5b9083019060c082860312156110c957600080fd5b6110d16112ba565b82358152602083013560208201526040830135604082015260608301356fffffffffffffffffffffffffffffffff8116811461110c57600080fd5b606082015260808301358281111561112357600080fd5b61112f87828601610f67565b60808301525060a083013560a082015280935050505092915050565b60006020828403121561115d57600080fd5b5051919050565b6000806040838503121561117757600080fd5b50508035926020909101359150565b60006020828403121561119857600080fd5b815160ff81168114610aab57600080fd5b600081518084526111c1816020860160208601611362565b601f01601f19169290920160200192915050565b600082516111e7818460208701611362565b9190910192915050565b60608101818360005b60038110156112195781518352602092830192909101906001016111fa565b50505092915050565b602081016002831061124457634e487b7160e01b600052602160045260246000fd5b91905290565b602081526000610aab60208301846111a9565b60408152825160408201526020830151606082015260408301516080820152606083015160a08201526000608084015160a060c08401526112a160e08401826111a9565b9150506001600160a01b03831660208301529392505050565b60405160c0810167ffffffffffffffff811182821017156112dd576112dd61138e565b60405290565b604051601f8201601f1916810167ffffffffffffffff8111828210171561130c5761130c61138e565b604052919050565b600067ffffffffffffffff82111561132e5761132e61138e565b50601f01601f191660200190565b6000821982111561135d57634e487b7160e01b600052601160045260246000fd5b500190565b60005b8381101561137d578181015183820152602001611365565b83811115610ce45750506000910152565b634e487b7160e01b600052604160045260246000fd5b6001600160a01b03811681146113b957600080fd5b50565b80151581146113b957600080fdfea26469706673582212205cdbe35bd7495ecb227e4f27043ff98707c7fee184ce2eb18df6f4058026cbb464736f6c63430008070033",
  "linkReferences": {},
  "deployedLinkReferences": {}
}