{
  "_format": "hh-sol-artifact-1",
  "contractName": "MystikoV2LayerZeroMain",
  "sourceName": "contracts/core/deposit/layerzero/MystikoV2LayerZeroMain.sol",
  "abi": [
    {
      "inputs": [
        {
          "internalType": "contract IHasher3",
          "name": "_hasher3",
          "type": "address"
        }
      ],
      "stateMutability": "nonpayable",
      "type": "constructor"
    },
    {
      "inputs": [],
      "name": "AmountLessThanZero",
      "type": "error"
    },
    {
      "inputs": [],
      "name": "AmountTooLarge",
      "type": "error"
    },
    {
      "inputs": [],
      "name": "AmountTooSmall",
      "type": "error"
    },
    {
      "inputs": [],
      "name": "BridgeFeeTooFew",
      "type": "error"
    },
    {
      "inputs": [],
      "name": "CallIsNotLzApp",
      "type": "error"
    },
    {
      "inputs": [],
      "name": "CommitmentHashIncorrect",
      "type": "error"
    },
    {
      "inputs": [],
      "name": "DepositsDisabled",
      "type": "error"
    },
    {
      "inputs": [],
      "name": "DestinationChainIsNotTrusted",
      "type": "error"
    },
    {
      "inputs": [],
      "name": "ExecutorFeeTooFew",
      "type": "error"
    },
    {
      "inputs": [],
      "name": "FromChainIdNotMatched",
      "type": "error"
    },
    {
      "inputs": [],
      "name": "FromProxyAddressNotMatched",
      "type": "error"
    },
    {
      "inputs": [],
      "name": "HashKGreaterThanFieldSize",
      "type": "error"
    },
    {
      "inputs": [
        {
          "internalType": "string",
          "name": "param",
          "type": "string"
        }
      ],
      "name": "Invalid",
      "type": "error"
    },
    {
      "inputs": [],
      "name": "MinAmountGreaterThanMaxAmount",
      "type": "error"
    },
    {
      "inputs": [],
      "name": "NoStoredMessage",
      "type": "error"
    },
    {
      "inputs": [],
      "name": "NotChanged",
      "type": "error"
    },
    {
      "inputs": [],
      "name": "OnlyOperator",
      "type": "error"
    },
    {
      "inputs": [],
      "name": "RandomSGreaterThanFieldSize",
      "type": "error"
    },
    {
      "inputs": [],
      "name": "RollupFeeToFew",
      "type": "error"
    },
    {
      "inputs": [],
      "name": "SanctionedAddress",
      "type": "error"
    },
    {
      "anonymous": false,
      "inputs": [
        {
          "indexed": true,
          "internalType": "uint256",
          "name": "commitment",
          "type": "uint256"
        }
      ],
      "name": "CommitmentCrossChain",
      "type": "event"
    },
    {
      "anonymous": false,
      "inputs": [
        {
          "indexed": false,
          "internalType": "uint256",
          "name": "maxAmount",
          "type": "uint256"
        },
        {
          "indexed": false,
          "internalType": "uint256",
          "name": "minAmount",
          "type": "uint256"
        }
      ],
      "name": "DepositAmountLimits",
      "type": "event"
    },
    {
      "anonymous": false,
      "inputs": [
        {
          "indexed": false,
          "internalType": "bool",
          "name": "state",
          "type": "bool"
        }
      ],
      "name": "DepositsDisabled",
      "type": "event"
    },
    {
      "anonymous": false,
      "inputs": [
        {
          "indexed": false,
          "internalType": "uint16",
          "name": "_srcChainId",
          "type": "uint16"
        },
        {
          "indexed": false,
          "internalType": "bytes",
          "name": "_srcAddress",
          "type": "bytes"
        },
        {
          "indexed": false,
          "internalType": "uint64",
          "name": "_nonce",
          "type": "uint64"
        },
        {
          "indexed": false,
          "internalType": "bytes",
          "name": "_payload",
          "type": "bytes"
        }
      ],
      "name": "MessageFailed",
      "type": "event"
    },
    {
      "anonymous": false,
      "inputs": [
        {
          "indexed": false,
          "internalType": "uint256",
          "name": "minBridgeFee",
          "type": "uint256"
        }
      ],
      "name": "MinBridgeFee",
      "type": "event"
    },
    {
      "anonymous": false,
      "inputs": [
        {
          "indexed": false,
          "internalType": "uint256",
          "name": "minExecutorFee",
          "type": "uint256"
        }
      ],
      "name": "MinExecutorFee",
      "type": "event"
    },
    {
      "anonymous": false,
      "inputs": [
        {
          "indexed": true,
          "internalType": "address",
          "name": "operator",
          "type": "address"
        }
      ],
      "name": "OperatorChanged",
      "type": "event"
    },
    {
      "anonymous": false,
      "inputs": [
        {
          "indexed": true,
          "internalType": "address",
          "name": "previousOwner",
          "type": "address"
        },
        {
          "indexed": true,
          "internalType": "address",
          "name": "newOwner",
          "type": "address"
        }
      ],
      "name": "OwnershipTransferred",
      "type": "event"
    },
    {
      "anonymous": false,
      "inputs": [
        {
          "indexed": false,
          "internalType": "uint256",
          "name": "peerMinExecutorFee",
          "type": "uint256"
        }
      ],
      "name": "PeerMinExecutorFee",
      "type": "event"
    },
    {
      "anonymous": false,
      "inputs": [
        {
          "indexed": false,
          "internalType": "uint256",
          "name": "peerMinRollupFee",
          "type": "uint256"
        }
      ],
      "name": "PeerMinRollupFee",
      "type": "event"
    },
    {
      "anonymous": false,
      "inputs": [
        {
          "indexed": false,
          "internalType": "bool",
          "name": "state",
          "type": "bool"
        }
      ],
      "name": "SanctionsCheck",
      "type": "event"
    },
    {
      "anonymous": false,
      "inputs": [
        {
          "indexed": false,
          "internalType": "contract ISanctionsList",
          "name": "sanctions",
          "type": "address"
        }
      ],
      "name": "SanctionsList",
      "type": "event"
    },
    {
      "anonymous": false,
      "inputs": [
        {
          "indexed": false,
          "internalType": "uint16",
          "name": "_srcChainId",
          "type": "uint16"
        },
        {
          "indexed": false,
          "internalType": "bytes",
          "name": "_srcAddress",
          "type": "bytes"
        }
      ],
      "name": "SetTrustedRemote",
      "type": "event"
    },
    {
      "inputs": [],
      "name": "assetType",
      "outputs": [
        {
          "internalType": "enum AssetPool.AssetType",
          "name": "",
          "type": "uint8"
        }
      ],
      "stateMutability": "pure",
      "type": "function"
    },
    {
      "inputs": [],
      "name": "bridgeProxyAddress",
      "outputs": [
        {
          "internalType": "address",
          "name": "",
          "type": "address"
        }
      ],
      "stateMutability": "view",
      "type": "function"
    },
    {
      "inputs": [],
      "name": "bridgeType",
      "outputs": [
        {
          "internalType": "string",
          "name": "",
          "type": "string"
        }
      ],
      "stateMutability": "pure",
      "type": "function"
    },
    {
      "inputs": [
        {
          "internalType": "address",
          "name": "_newOperator",
          "type": "address"
        }
      ],
      "name": "changeOperator",
      "outputs": [],
      "stateMutability": "nonpayable",
      "type": "function"
    },
    {
      "inputs": [
        {
          "components": [
            {
              "internalType": "uint256",
              "name": "amount",
              "type": "uint256"
            },
            {
              "internalType": "uint256",
              "name": "commitment",
              "type": "uint256"
            },
            {
              "internalType": "uint256",
              "name": "hashK",
              "type": "uint256"
            },
            {
              "internalType": "uint128",
              "name": "randomS",
              "type": "uint128"
            },
            {
              "internalType": "bytes",
              "name": "encryptedNote",
              "type": "bytes"
            },
            {
              "internalType": "uint256",
              "name": "bridgeFee",
              "type": "uint256"
            },
            {
              "internalType": "uint256",
              "name": "executorFee",
              "type": "uint256"
            },
            {
              "internalType": "uint256",
              "name": "rollupFee",
              "type": "uint256"
            }
          ],
          "internalType": "struct IMystikoBridge.DepositRequest",
          "name": "_request",
          "type": "tuple"
        }
      ],
      "name": "deposit",
      "outputs": [],
      "stateMutability": "payable",
      "type": "function"
    },
    {
      "inputs": [],
      "name": "disableSanctionsCheck",
      "outputs": [],
      "stateMutability": "nonpayable",
      "type": "function"
    },
    {
      "inputs": [],
      "name": "enableSanctionsCheck",
      "outputs": [],
      "stateMutability": "nonpayable",
      "type": "function"
    },
    {
      "inputs": [
        {
          "internalType": "uint16",
          "name": "",
          "type": "uint16"
        },
        {
          "internalType": "bytes",
          "name": "",
          "type": "bytes"
        },
        {
          "internalType": "uint64",
          "name": "",
          "type": "uint64"
        }
      ],
      "name": "failedMessages",
      "outputs": [
        {
          "internalType": "bytes32",
          "name": "",
          "type": "bytes32"
        }
      ],
      "stateMutability": "view",
      "type": "function"
    },
    {
      "inputs": [
        {
          "internalType": "uint16",
          "name": "_srcChainId",
          "type": "uint16"
        },
        {
          "internalType": "bytes",
          "name": "_srcAddress",
          "type": "bytes"
        }
      ],
      "name": "forceResumeReceive",
      "outputs": [],
      "stateMutability": "nonpayable",
      "type": "function"
    },
    {
      "inputs": [],
      "name": "getAssociatedCommitmentPool",
      "outputs": [
        {
          "internalType": "address",
          "name": "",
          "type": "address"
        }
      ],
      "stateMutability": "view",
      "type": "function"
    },
    {
      "inputs": [
        {
          "internalType": "uint16",
          "name": "_version",
          "type": "uint16"
        },
        {
          "internalType": "uint16",
          "name": "_chainId",
          "type": "uint16"
        },
        {
          "internalType": "address",
          "name": "",
          "type": "address"
        },
        {
          "internalType": "uint256",
          "name": "_configType",
          "type": "uint256"
        }
      ],
      "name": "getConfig",
      "outputs": [
        {
          "internalType": "bytes",
          "name": "",
          "type": "bytes"
        }
      ],
      "stateMutability": "view",
      "type": "function"
    },
    {
      "inputs": [],
      "name": "getMaxAmount",
      "outputs": [
        {
          "internalType": "uint256",
          "name": "",
          "type": "uint256"
        }
      ],
      "stateMutability": "view",
      "type": "function"
    },
    {
      "inputs": [],
      "name": "getMinAmount",
      "outputs": [
        {
          "internalType": "uint256",
          "name": "",
          "type": "uint256"
        }
      ],
      "stateMutability": "view",
      "type": "function"
    },
    {
      "inputs": [],
      "name": "getMinBridgeFee",
      "outputs": [
        {
          "internalType": "uint256",
          "name": "",
          "type": "uint256"
        }
      ],
      "stateMutability": "view",
      "type": "function"
    },
    {
      "inputs": [],
      "name": "getMinExecutorFee",
      "outputs": [
        {
          "internalType": "uint256",
          "name": "",
          "type": "uint256"
        }
      ],
      "stateMutability": "view",
      "type": "function"
    },
    {
      "inputs": [],
      "name": "getPeerMinExecutorFee",
      "outputs": [
        {
          "internalType": "uint256",
          "name": "",
          "type": "uint256"
        }
      ],
      "stateMutability": "view",
      "type": "function"
    },
    {
      "inputs": [],
      "name": "getPeerMinRollupFee",
      "outputs": [
        {
          "internalType": "uint256",
          "name": "",
          "type": "uint256"
        }
      ],
      "stateMutability": "view",
      "type": "function"
    },
    {
      "inputs": [],
      "name": "isDepositsDisabled",
      "outputs": [
        {
          "internalType": "bool",
          "name": "",
          "type": "bool"
        }
      ],
      "stateMutability": "view",
      "type": "function"
    },
    {
      "inputs": [
        {
          "internalType": "uint16",
          "name": "_srcChainId",
          "type": "uint16"
        },
        {
          "internalType": "bytes",
          "name": "_srcAddress",
          "type": "bytes"
        }
      ],
      "name": "isTrustedRemote",
      "outputs": [
        {
          "internalType": "bool",
          "name": "",
          "type": "bool"
        }
      ],
      "stateMutability": "view",
      "type": "function"
    },
    {
      "inputs": [],
      "name": "localLayerZeroChainId",
      "outputs": [
        {
          "internalType": "uint16",
          "name": "",
          "type": "uint16"
        }
      ],
      "stateMutability": "view",
      "type": "function"
    },
    {
      "inputs": [],
      "name": "lzEndpoint",
      "outputs": [
        {
          "internalType": "contract ILayerZeroEndpoint",
          "name": "",
          "type": "address"
        }
      ],
      "stateMutability": "view",
      "type": "function"
    },
    {
      "inputs": [
        {
          "internalType": "uint16",
          "name": "_srcChainId",
          "type": "uint16"
        },
        {
          "internalType": "bytes",
          "name": "_srcAddress",
          "type": "bytes"
        },
        {
          "internalType": "uint64",
          "name": "_nonce",
          "type": "uint64"
        },
        {
          "internalType": "bytes",
          "name": "_payload",
          "type": "bytes"
        }
      ],
      "name": "lzReceive",
      "outputs": [],
      "stateMutability": "nonpayable",
      "type": "function"
    },
    {
      "inputs": [
        {
          "internalType": "uint16",
          "name": "_srcChainId",
          "type": "uint16"
        },
        {
          "internalType": "bytes",
          "name": "_srcAddress",
          "type": "bytes"
        },
        {
          "internalType": "uint64",
          "name": "_nonce",
          "type": "uint64"
        },
        {
          "internalType": "bytes",
          "name": "_payload",
          "type": "bytes"
        }
      ],
      "name": "nonblockingLzReceive",
      "outputs": [],
      "stateMutability": "nonpayable",
      "type": "function"
    },
    {
      "inputs": [],
      "name": "owner",
      "outputs": [
        {
          "internalType": "address",
          "name": "",
          "type": "address"
        }
      ],
      "stateMutability": "view",
      "type": "function"
    },
    {
      "inputs": [],
      "name": "peerChainId",
      "outputs": [
        {
          "internalType": "uint64",
          "name": "",
          "type": "uint64"
        }
      ],
      "stateMutability": "view",
      "type": "function"
    },
    {
      "inputs": [],
      "name": "peerChainName",
      "outputs": [
        {
          "internalType": "string",
          "name": "",
          "type": "string"
        }
      ],
      "stateMutability": "view",
      "type": "function"
    },
    {
      "inputs": [],
      "name": "peerContract",
      "outputs": [
        {
          "internalType": "address",
          "name": "",
          "type": "address"
        }
      ],
      "stateMutability": "view",
      "type": "function"
    },
    {
      "inputs": [],
      "name": "peerLayerZeroChainId",
      "outputs": [
        {
          "internalType": "uint16",
          "name": "",
          "type": "uint16"
        }
      ],
      "stateMutability": "view",
      "type": "function"
    },
    {
      "inputs": [],
      "name": "renounceOwnership",
      "outputs": [],
      "stateMutability": "nonpayable",
      "type": "function"
    },
    {
      "inputs": [
        {
          "internalType": "uint16",
          "name": "_srcChainId",
          "type": "uint16"
        },
        {
          "internalType": "bytes",
          "name": "_srcAddress",
          "type": "bytes"
        },
        {
          "internalType": "uint64",
          "name": "_nonce",
          "type": "uint64"
        },
        {
          "internalType": "bytes",
          "name": "_payload",
          "type": "bytes"
        }
      ],
      "name": "retryMessage",
      "outputs": [],
      "stateMutability": "payable",
      "type": "function"
    },
    {
      "inputs": [],
      "name": "sanctionsCheck",
      "outputs": [
        {
          "internalType": "bool",
          "name": "",
          "type": "bool"
        }
      ],
      "stateMutability": "view",
      "type": "function"
    },
    {
      "inputs": [],
      "name": "sanctionsList",
      "outputs": [
        {
          "internalType": "contract ISanctionsList",
          "name": "",
          "type": "address"
        }
      ],
      "stateMutability": "view",
      "type": "function"
    },
    {
      "inputs": [
        {
          "internalType": "address",
          "name": "_commitmentPoolAddress",
          "type": "address"
        }
      ],
      "name": "setAssociatedCommitmentPool",
      "outputs": [],
      "stateMutability": "nonpayable",
      "type": "function"
    },
    {
      "inputs": [
        {
          "internalType": "address",
          "name": "_bridgeProxyAddress",
          "type": "address"
        }
      ],
      "name": "setBridgeProxyAddress",
      "outputs": [],
      "stateMutability": "nonpayable",
      "type": "function"
    },
    {
      "inputs": [
        {
          "internalType": "uint16",
          "name": "_version",
          "type": "uint16"
        },
        {
          "internalType": "uint16",
          "name": "_chainId",
          "type": "uint16"
        },
        {
          "internalType": "uint256",
          "name": "_configType",
          "type": "uint256"
        },
        {
          "internalType": "bytes",
          "name": "_config",
          "type": "bytes"
        }
      ],
      "name": "setConfig",
      "outputs": [],
      "stateMutability": "nonpayable",
      "type": "function"
    },
    {
      "inputs": [
        {
          "internalType": "bool",
          "name": "_state",
          "type": "bool"
        }
      ],
      "name": "setDepositsDisabled",
      "outputs": [],
      "stateMutability": "nonpayable",
      "type": "function"
    },
    {
      "inputs": [
        {
          "internalType": "uint16",
          "name": "_lzChainId",
          "type": "uint16"
        },
        {
          "internalType": "address",
          "name": "_lzEndpoint",
          "type": "address"
        }
      ],
      "name": "setEndpoint",
      "outputs": [],
      "stateMutability": "nonpayable",
      "type": "function"
    },
    {
      "inputs": [
        {
          "internalType": "uint256",
          "name": "_minBridgeFee",
          "type": "uint256"
        }
      ],
      "name": "setMinBridgeFee",
      "outputs": [],
      "stateMutability": "nonpayable",
      "type": "function"
    },
    {
      "inputs": [
        {
          "internalType": "uint256",
          "name": "_minExecutorFee",
          "type": "uint256"
        }
      ],
      "name": "setMinExecutorFee",
      "outputs": [],
      "stateMutability": "nonpayable",
      "type": "function"
    },
    {
      "inputs": [
        {
          "internalType": "uint64",
          "name": "_peerChainId",
          "type": "uint64"
        },
        {
          "internalType": "string",
          "name": "_peerChainName",
          "type": "string"
        },
        {
          "internalType": "address",
          "name": "_peerContract",
          "type": "address"
        }
      ],
      "name": "setPeerContract",
      "outputs": [],
      "stateMutability": "nonpayable",
      "type": "function"
    },
    {
      "inputs": [
        {
          "internalType": "uint256",
          "name": "_peerMinExecutorFee",
          "type": "uint256"
        }
      ],
      "name": "setPeerMinExecutorFee",
      "outputs": [],
      "stateMutability": "nonpayable",
      "type": "function"
    },
    {
      "inputs": [
        {
          "internalType": "uint256",
          "name": "_peerMinRollupFee",
          "type": "uint256"
        }
      ],
      "name": "setPeerMinRollupFee",
      "outputs": [],
      "stateMutability": "nonpayable",
      "type": "function"
    },
    {
      "inputs": [
        {
          "internalType": "uint16",
          "name": "_version",
          "type": "uint16"
        }
      ],
      "name": "setReceiveVersion",
      "outputs": [],
      "stateMutability": "nonpayable",
      "type": "function"
    },
    {
      "inputs": [
        {
          "internalType": "uint16",
          "name": "_version",
          "type": "uint16"
        }
      ],
      "name": "setSendVersion",
      "outputs": [],
      "stateMutability": "nonpayable",
      "type": "function"
    },
    {
      "inputs": [
        {
          "internalType": "uint16",
          "name": "_peerLayerZeroChainId",
          "type": "uint16"
        },
        {
          "internalType": "bytes",
          "name": "_peerAddress",
          "type": "bytes"
        }
      ],
      "name": "setTrustedRemote",
      "outputs": [],
      "stateMutability": "nonpayable",
      "type": "function"
    },
    {
      "inputs": [
        {
          "internalType": "address",
          "name": "newOwner",
          "type": "address"
        }
      ],
      "name": "transferOwnership",
      "outputs": [],
      "stateMutability": "nonpayable",
      "type": "function"
    },
    {
      "inputs": [
        {
          "internalType": "uint16",
          "name": "",
          "type": "uint16"
        }
      ],
      "name": "trustedRemoteLookup",
      "outputs": [
        {
          "internalType": "bytes",
          "name": "",
          "type": "bytes"
        }
      ],
      "stateMutability": "view",
      "type": "function"
    },
    {
      "inputs": [
        {
          "internalType": "uint256",
          "name": "_maxAmount",
          "type": "uint256"
        },
        {
          "internalType": "uint256",
          "name": "_minAmount",
          "type": "uint256"
        }
      ],
      "name": "updateDepositAmountLimits",
      "outputs": [],
      "stateMutability": "nonpayable",
      "type": "function"
    },
    {
      "inputs": [
        {
          "internalType": "contract ISanctionsList",
          "name": "_sanction",
          "type": "address"
        }
      ],
      "name": "updateSanctionsListAddress",
      "outputs": [],
      "stateMutability": "nonpayable",
      "type": "function"
    }
  ],
  "bytecode": "0x6080604052600080546001600160a81b031916740140c57923924b5c5c5455c48d93317139addac8fb1790553480156200003857600080fd5b5060405162003927380380620039278339810160408190526200005b91620000f1565b600c8054336001600160a01b031991821617909155600180549091166001600160a01b0383161790558062000097620000913390565b6200009f565b505062000123565b600d80546001600160a01b038381166001600160a01b0319831681179093556040519116919082907f8be0079c531659141344cd1fd0a4f28419497f9722a3daafe3b4186f6b6457e090600090a35050565b6000602082840312156200010457600080fd5b81516001600160a01b03811681146200011c57600080fd5b9392505050565b6137f480620001336000396000f3fe60806040526004361061031c5760003560e01c8063715018a6116101a5578063d1deba1f116100ec578063eb8d72b711610095578063efbfb2ae1161006f578063efbfb2ae14610916578063f2fde38b1461092b578063f4ad17c61461094b578063f5ecbdbc1461096057600080fd5b8063eb8d72b7146108b7578063ec571c6a146108d7578063ed6ea33a146108f757600080fd5b8063e19abef8116100c6578063e19abef814610857578063e8183c4414610877578063ea0cde851461089757600080fd5b8063d1deba1f14610811578063dd757c3414610824578063ddac5dc11461083957600080fd5b8063a3bc64f21161014e578063cbed8b9c11610128578063cbed8b9c1461079b578063cdfceeba146107bb578063cfc7e2da146107fc57600080fd5b8063a3bc64f21461073a578063b1c394221461075a578063b353aaa71461077b57600080fd5b8063825b5f8d1161017f578063825b5f8d146106f45780638da5cb5b146107095780639a03636c1461072757600080fd5b8063715018a61461069f5780637533d788146106b45780637d2c8520146106d457600080fd5b8063302d5f4b116102695780634ee7ded6116102125780635b8c41e6116101ec5780635b8c41e6146106105780635e10b2b71461065f57806366ad5c8a1461067f57600080fd5b80634ee7ded6146105bb578063521ff057146105db5780635898a0a8146105fb57600080fd5b80633fe3347a116102435780633fe3347a1461056a57806342d65a8d146105865780634e3c10b7146105a657600080fd5b8063302d5f4b146104f857806330f49cac1461051a5780633d8b38f61461053a57600080fd5b806310ddb137116102cb57806321e32d55116102a557806321e32d55146104515780632421e155146104895780632cd26d45146104d857600080fd5b806310ddb137146103f1578063153dc4501461041157806319e75d6e1461043157600080fd5b806306394c9b116102fc57806306394c9b1461039257806307e0db17146103b25780630ba95909146103d257600080fd5b80621d35671461032157806297a0631461034357806301dbf19f1461037d575b600080fd5b34801561032d57600080fd5b5061034161033c366004613189565b610980565b005b34801561034f57600080fd5b50600e5461036590600160b01b900461ffff1681565b60405161ffff90911681526020015b60405180910390f35b34801561038957600080fd5b50610341610b07565b34801561039e57600080fd5b506103416103ad366004612f03565b610b8b565b3480156103be57600080fd5b506103416103cd366004613086565b610c2f565b3480156103de57600080fd5b506007545b604051908152602001610374565b3480156103fd57600080fd5b5061034161040c366004613086565b610ce7565b34801561041d57600080fd5b5061034161042c3660046132ca565b610d75565b34801561043d57600080fd5b5061034161044c3660046132ca565b610ddc565b34801561045d57600080fd5b50600454610471906001600160a01b031681565b6040516001600160a01b039091168152602001610374565b34801561049557600080fd5b5060408051808201909152600981527f6c617965725a65726f000000000000000000000000000000000000000000000060208201525b60405161037491906134e0565b3480156104e457600080fd5b50600554610471906001600160a01b031681565b34801561050457600080fd5b50600e5461036590600160a01b900461ffff1681565b34801561052657600080fd5b50610341610535366004612f03565b610e3b565b34801561054657600080fd5b5061055a6105553660046130d8565b610eb4565b6040519015158152602001610374565b34801561057657600080fd5b50600160405161037491906134f3565b34801561059257600080fd5b506103416105a13660046130d8565b610f80565b3480156105b257600080fd5b506104cb611045565b3480156105c757600080fd5b506103416105d63660046130a1565b6110d3565b3480156105e757600080fd5b506103416105f63660046132ca565b611182565b34801561060757600080fd5b50600a546103e3565b34801561061c57600080fd5b506103e361062b36600461312b565b6010602090815260009384526040808520845180860184018051928152908401958401959095209452929052825290205481565b34801561066b57600080fd5b5061034161067a3660046132ca565b611230565b34801561068b57600080fd5b5061034161069a366004613189565b611290565b3480156106ab57600080fd5b506103416112c2565b3480156106c057600080fd5b506104cb6106cf366004613086565b611328565b3480156106e057600080fd5b506103416106ef36600461331e565b611341565b34801561070057600080fd5b50600b546103e3565b34801561071557600080fd5b50600d546001600160a01b0316610471565b610341610735366004612fc8565b6113de565b34801561074657600080fd5b50610341610755366004612f03565b6115ee565b34801561076657600080fd5b5060005461055a90600160a01b900460ff1681565b34801561078757600080fd5b50600e54610471906001600160a01b031681565b3480156107a757600080fd5b506103416107b636600461325b565b61163b565b3480156107c757600080fd5b506002546107e390600160a01b900467ffffffffffffffff1681565b60405167ffffffffffffffff9091168152602001610374565b34801561080857600080fd5b506006546103e3565b61034161081f366004613189565b611706565b34801561083057600080fd5b50610341611816565b34801561084557600080fd5b506002546001600160a01b0316610471565b34801561086357600080fd5b50610341610872366004612f03565b61188e565b34801561088357600080fd5b506103416108923660046132fc565b6118db565b3480156108a357600080fd5b506103416108b2366004612f20565b61196e565b3480156108c357600080fd5b506103416108d23660046130d8565b6119e6565b3480156108e357600080fd5b50600054610471906001600160a01b031681565b34801561090357600080fd5b50600c54600160a01b900460ff1661055a565b34801561092257600080fd5b506008546103e3565b34801561093757600080fd5b50610341610946366004612f03565b611ad4565b34801561095757600080fd5b506009546103e3565b34801561096c57600080fd5b506104cb61097b36600461320e565b611bb6565b600e546001600160a01b0316336001600160a01b0316146109e9576040516314e8955b60e21b815260206004820152600f60248201527f656e64706f696e742063616c6c6572000000000000000000000000000000000060448201526064015b60405180910390fd5b61ffff84166000908152600f602052604081208054610a079061374a565b80601f0160208091040260200160405190810160405280929190818152602001828054610a339061374a565b8015610a805780601f10610a5557610100808354040283529160200191610a80565b820191906000526020600020905b815481529060010190602001808311610a6357829003601f168201915b5050505050905080518451141580610aa657508080519060200120848051906020012014155b15610af4576040516314e8955b60e21b815260206004820152601760248201527f736f757263652073656e64696e6720636f6e747261637400000000000000000060448201526064016109e0565b610b0085858585611c58565b5050505050565b600c546001600160a01b03163314610b32576040516327e1f1e560e01b815260040160405180910390fd5b6000805460ff60a01b1916600160a01b908117918290556040517fa5ffe1601eb93a7fefd0d0eeb5fc94a2f65475f333836fe2b87fd7bbf595206992610b8192900460ff161515815260200190565b60405180910390a1565b600c546001600160a01b03163314610bb6576040516327e1f1e560e01b815260040160405180910390fd5b600c546001600160a01b0382811691161415610be5576040516336a1c33f60e01b815260040160405180910390fd5b600c80546001600160a01b0319166001600160a01b0383169081179091556040517f4721129e0e676ed6a92909bb24e853ccdd63ad72280cc2e974e38e480e0e6e5490600090a250565b600d546001600160a01b03163314610c895760405162461bcd60e51b815260206004820181905260248201527f4f776e61626c653a2063616c6c6572206973206e6f7420746865206f776e657260448201526064016109e0565b600e546040516307e0db1760e01b815261ffff831660048201526001600160a01b03909116906307e0db17906024015b600060405180830381600087803b158015610cd357600080fd5b505af1158015610b00573d6000803e3d6000fd5b600d546001600160a01b03163314610d415760405162461bcd60e51b815260206004820181905260248201527f4f776e61626c653a2063616c6c6572206973206e6f7420746865206f776e657260448201526064016109e0565b600e546040516310ddb13760e01b815261ffff831660048201526001600160a01b03909116906310ddb13790602401610cb9565b600c546001600160a01b03163314610da0576040516327e1f1e560e01b815260040160405180910390fd5b600a8190556040518181527f14988234d3e50a12aeec2d6ee595b70c2fae163caff28baab5802b122bf2a753906020015b60405180910390a150565b600c546001600160a01b03163314610e07576040516327e1f1e560e01b815260040160405180910390fd5b60088190556040518181527e91f5f5db3092e39ecb701218d4af20b7571e0429595937c334f3acd14fe2fe90602001610dd1565b600c546001600160a01b03163314610e66576040516327e1f1e560e01b815260040160405180910390fd5b600080546001600160a01b0319166001600160a01b0383169081179091556040519081527fbe1808917e09814fca7d80289a9760a4065f10d624ac1aee0b9f903c4f5d92b190602001610dd1565b61ffff83166000908152600f602052604081208054829190610ed59061374a565b80601f0160208091040260200160405190810160405280929190818152602001828054610f019061374a565b8015610f4e5780601f10610f2357610100808354040283529160200191610f4e565b820191906000526020600020905b815481529060010190602001808311610f3157829003601f168201915b505050505090508383604051610f659291906133e9565b60405180910390208180519060200120149150509392505050565b600d546001600160a01b03163314610fda5760405162461bcd60e51b815260206004820181905260248201527f4f776e61626c653a2063616c6c6572206973206e6f7420746865206f776e657260448201526064016109e0565b600e546040516342d65a8d60e01b81526001600160a01b03909116906342d65a8d9061100e90869086908690600401613578565b600060405180830381600087803b15801561102857600080fd5b505af115801561103c573d6000803e3d6000fd5b50505050505050565b600380546110529061374a565b80601f016020809104026020016040519081016040528092919081815260200182805461107e9061374a565b80156110cb5780601f106110a0576101008083540402835291602001916110cb565b820191906000526020600020905b8154815290600101906020018083116110ae57829003601f168201915b505050505081565b600d546001600160a01b0316331461112d5760405162461bcd60e51b815260206004820181905260248201527f4f776e61626c653a2063616c6c6572206973206e6f7420746865206f776e657260448201526064016109e0565b600e80547fffffffffffffffffffff0000000000000000000000000000000000000000000016600160a01b61ffff94909416939093026001600160a01b031916929092176001600160a01b0391909116179055565b600c546001600160a01b031633146111ad576040516327e1f1e560e01b815260040160405180910390fd5b806111fb576040516314e8955b60e21b815260206004820152601760248201527f70656572206d696e696d616c20726f6c6c75702066656500000000000000000060448201526064016109e0565b600b8190556040518181527f878075a8e8aa1c7c15e6932752520f7812bf5744785e6df605373729da41554590602001610dd1565b600c546001600160a01b0316331461125b576040516327e1f1e560e01b815260040160405180910390fd5b60098190556040518181527f88d210dfa198f7519579294721f90c771153a7b49101eefb95147037cc8ce48190602001610dd1565b3330146112b0576040516371f50ec160e11b815260040160405180910390fd5b6112bc84848484611cb9565b50505050565b600d546001600160a01b0316331461131c5760405162461bcd60e51b815260206004820181905260248201527f4f776e61626c653a2063616c6c6572206973206e6f7420746865206f776e657260448201526064016109e0565b6113266000611cf4565b565b600f60205260009081526040902080546110529061374a565b600c546001600160a01b0316331461136c576040516327e1f1e560e01b815260040160405180910390fd5b600280547fffffffff0000000000000000ffffffffffffffffffffffffffffffffffffffff16600160a01b67ffffffffffffffff86160217905581516113b9906003906020850190612d05565b50600480546001600160a01b0319166001600160a01b03929092169190911790555050565b600c54600160a01b900460ff161561140957604051630e2f42c960e31b815260040160405180910390fd5b6006548151101561142d5760405163617ab12d60e11b815260040160405180910390fd5b6007548151111561145157604051630625040160e01b815260040160405180910390fd5b6008548160a0015110156114785760405163c4d8d00d60e01b815260040160405180910390fd5b600a548160c00151101561149f576040516355a6d6a160e11b815260040160405180910390fd5b600b548160e0015110156114c65760405163784f02bd60e11b815260040160405180910390fd5b60006114df826040015183600001518460600151611d46565b905080826020015114611505576040516301bfaa2560e51b815260040160405180910390fd5b61150e33611e63565b1561152c57604051632e70c0b160e01b815260040160405180910390fd5b6040805160a081018252835181526020808501519082015260c08401519181019190915260e0830151606082015260808084015190820152600061156f82611f00565b905061157f8460a0015182611f6f565b60025460e085015160c086015186516115ba936001600160a01b031692916115a6916136f8565b6115b091906136f8565b8660a00151611fa1565b60208401516040517fd106eb38b3368b7c294e36fae5513fdefe880be5abfad529b37b044f2fdd2dbe90600090a250505050565b600c546001600160a01b03163314611619576040516327e1f1e560e01b815260040160405180910390fd5b600580546001600160a01b0319166001600160a01b0392909216919091179055565b600d546001600160a01b031633146116955760405162461bcd60e51b815260206004820181905260248201527f4f776e61626c653a2063616c6c6572206973206e6f7420746865206f776e657260448201526064016109e0565b600e546040516332fb62e760e21b81526001600160a01b039091169063cbed8b9c906116cd9088908890889088908890600401613647565b600060405180830381600087803b1580156116e757600080fd5b505af11580156116fb573d6000803e3d6000fd5b505050505050505050565b61ffff841660009081526010602052604080822090516117279086906133f9565b908152604080516020928190038301902067ffffffffffffffff86166000908152925290205490508061176d57604051632b96c98560e21b815260040160405180910390fd5b8151602083012081146117c3576040516314e8955b60e21b815260206004820152600760248201527f7061796c6f61640000000000000000000000000000000000000000000000000060448201526064016109e0565b61ffff851660009081526010602052604080822090516117e49087906133f9565b908152604080516020928190038301902067ffffffffffffffff871660009081529252902055610b0085858585611cb9565b600c546001600160a01b03163314611841576040516327e1f1e560e01b815260040160405180910390fd5b6000805460ff60a01b1916908190556040517fa5ffe1601eb93a7fefd0d0eeb5fc94a2f65475f333836fe2b87fd7bbf595206991610b8191600160a01b90910460ff161515815260200190565b600c546001600160a01b031633146118b9576040516327e1f1e560e01b815260040160405180910390fd5b600280546001600160a01b0319166001600160a01b0392909216919091179055565b600c546001600160a01b03163314611906576040516327e1f1e560e01b815260040160405180910390fd5b8181111561192757604051636003e82160e11b815260040160405180910390fd5b6007829055600681905560408051838152602081018390527f7633004c7a229869aeea10db4ff3e57e3b1534aeb2c9e72c5db25f965895c330910160405180910390a15050565b600c546001600160a01b03163314611999576040516327e1f1e560e01b815260040160405180910390fd5b600c8054821515600160a01b0260ff60a01b199091161790556040517fcd162c6fc24285bfbe399ec0cc2ce2c380ad27d2eb1fca418c652df1257e7e0990610dd190831515815260200190565b600d546001600160a01b03163314611a405760405162461bcd60e51b815260206004820181905260248201527f4f776e61626c653a2063616c6c6572206973206e6f7420746865206f776e657260448201526064016109e0565b600e80547fffffffffffffffff0000ffffffffffffffffffffffffffffffffffffffffffff16600160b01b61ffff8616908102919091179091556000908152600f60205260409020611a93908383612d89565b507ffa41487ad5d6728f0b19276fa1eddc16558578f5109fc39d2dc33c3230470dab838383604051611ac793929190613578565b60405180910390a1505050565b600d546001600160a01b03163314611b2e5760405162461bcd60e51b815260206004820181905260248201527f4f776e61626c653a2063616c6c6572206973206e6f7420746865206f776e657260448201526064016109e0565b6001600160a01b038116611baa5760405162461bcd60e51b815260206004820152602660248201527f4f776e61626c653a206e6577206f776e657220697320746865207a65726f206160448201527f646472657373000000000000000000000000000000000000000000000000000060648201526084016109e0565b611bb381611cf4565b50565b600e54604051633d7b2f6f60e21b815261ffff808716600483015285166024820152306044820152606481018390526060916001600160a01b03169063f5ecbdbc9060840160006040518083038186803b158015611c1357600080fd5b505afa158015611c27573d6000803e3d6000fd5b505050506040513d6000823e601f3d908101601f19168201604052611c4f9190810190612f5a565b95945050505050565b604051633356ae4560e11b815230906366ad5c8a90611c819087908790879087906004016135fd565b600060405180830381600087803b158015611c9b57600080fd5b505af1158015611caf573d6000803e3d6000fd5b5050505050505050565b6000611cc48261209c565b600254600454919250610b0091600160a01b90910467ffffffffffffffff16906001600160a01b03163284612164565b600d80546001600160a01b038381166001600160a01b0319831681179093556040519116919082907f8be0079c531659141344cd1fd0a4f28419497f9722a3daafe3b4186f6b6457e090600090a35050565b60007f30644e72e131a029b85045b68181585d2833e84879b9709143e1f593f0000001808510611d895760405163805f2a4960e01b815260040160405180910390fd5b80836fffffffffffffffffffffffffffffffff1610611dbb57604051633bbde0bf60e21b815260040160405180910390fd5b60015460408051606081018252878152602081018790526fffffffffffffffffffffffffffffffff86168183015290516304b98e1d60e31b81526001600160a01b03909216916325cc70e891611e13916004016134af565b60206040518083038186803b158015611e2b57600080fd5b505afa158015611e3f573d6000803e3d6000fd5b505050506040513d601f19601f82011682018060405250810190611c4f91906132e3565b60008054600160a01b900460ff16611e7d57506000919050565b60005460405163df592f7d60e01b81526001600160a01b0384811660048301529091169063df592f7d9060240160206040518083038186803b158015611ec257600080fd5b505afa158015611ed6573d6000803e3d6000fd5b505050506040513d601f19601f82011682018060405250810190611efa9190612f3d565b92915050565b606080611f108360000151612219565b611f1d8460200151612219565b611f2a8560400151612219565b611f378660600151612219565b611f4487608001516122b1565b604051602001611f58959493929190613444565b60408051601f198184030181529190529392505050565b611f9d600e60169054906101000a900461ffff168233600060405180602001604052806000815250876122e8565b5050565b611fab81836136f8565b3414611ff95760405162461bcd60e51b815260206004820152601260248201527f696e73756666696369656e7420746f6b656e000000000000000000000000000060448201526064016109e0565b6000836001600160a01b03168360405160006040518083038185875af1925050503d8060008114612046576040519150601f19603f3d011682016040523d82523d6000602084013e61204b565b606091505b50509050806112bc5760405162461bcd60e51b815260206004820152601660248201527f616d6f756e74207472616e73666572206661696c65640000000000000000000060448201526064016109e0565b6120ce6040518060a0016040528060008152602001600081526020016000815260200160008152602001606081525090565b6121006040518060a0016040528060008152602001600081526020016000815260200160008152602001606081525090565b600061210c848261241f565b908352905061211b848261241f565b6020840191909152905061212f848261241f565b60408401919091529050612143848261241f565b606084019190915290506121578482612550565b5060808301525092915050565b6004546001600160a01b0384811691161461219257604051631440e07960e11b815260040160405180910390fd5b60025467ffffffffffffffff858116600160a01b90920416146121c857604051633876304f60e21b815260040160405180910390fd5b80516121e75760405163820bf1e560e01b815260040160405180910390fd5b6002546040516378d60cd760e01b81526001600160a01b03909116906378d60cd790611c81908490869060040161351b565b60606001600160ff1b038211156122725760405162461bcd60e51b815260206004820152601b60248201527f56616c756520657863656564732075696e743235352072616e6765000000000060448201526064016109e0565b60405160208082526000601f5b828210156122a15785811a82602086010153600191909101906000190161227f565b5050506040818101905292915050565b80516060906122bf8161265d565b836040516020016122d1929190613415565b604051602081830303815290604052915050919050565b61ffff86166000908152600f6020526040812080546123069061374a565b80601f01602080910402602001604051908101604052809291908181526020018280546123329061374a565b801561237f5780601f106123545761010080835404028352916020019161237f565b820191906000526020600020905b81548152906001019060200180831161236257829003601f168201915b505050505090508051600014156123a95760405163020b35a160e01b815260040160405180910390fd5b600e5460405162c5803160e81b81526001600160a01b039091169063c58031009084906123e4908b9086908c908c908c908c90600401613596565b6000604051808303818588803b1580156123fd57600080fd5b505af1158015612411573d6000803e3d6000fd5b505050505050505050505050565b600080835183602061243191906136f8565b1115801561244857506124458360206136f8565b83105b6124a05760405162461bcd60e51b815260206004820152602360248201527f4e65787455696e743235352c206f66667365742065786365656473206d6178696044820152626d756d60e81b60648201526084016109e0565b600060405160206000600182038760208a0101515b838310156124d55780821a838601536001830192506001820391506124b5565b50505081016040525190506001600160ff1b038111156125375760405162461bcd60e51b815260206004820152601760248201527f56616c75652065786365656473207468652072616e676500000000000000000060448201526064016109e0565b806125438560206136f8565b92509250505b9250929050565b606060008061255f858561272a565b865190955090915061257182866136f8565b11158015612587575061258481856136f8565b84105b6125df5760405162461bcd60e51b8152602060048201526024808201527f4e65787456617242797465732c206f66667365742065786365656473206d6178604482015263696d756d60e01b60648201526084016109e0565b6060811580156125fa57604051915060208201604052612644565b6040519150601f8316801560200281840101848101888315602002848c0101015b8183101561263357805183526020928301920161261b565b5050848452601f01601f1916604052505b508061265083876136f8565b9350935050509250929050565b606060fd8267ffffffffffffffff16101561269057604080516001815260f884901b602082015260218101909152611efa565b61ffff8267ffffffffffffffff16116126e0576126b060fd60f81b612930565b6126b983612957565b6040516020016126ca929190613415565b6040516020818303038152906040529050919050565b63ffffffff8267ffffffffffffffff161161270b57612702607f60f91b612930565b6126b98361299a565b61271c6001600160f81b0319612930565b6126b9836129dd565b919050565b60008060006127398585612a20565b94509050600060fd60f81b6001600160f81b0319831614156127d25761275f8686612aa8565b955061ffff16905060fd811080159061277a575061ffff8111155b6127c65760405162461bcd60e51b815260206004820152601f60248201527f4e65787455696e7431362c2076616c7565206f7574736964652072616e67650060448201526064016109e0565b92508391506125499050565b607f60f91b6001600160f81b03198316141561285d576127f28686612b61565b955063ffffffff16905061ffff81118015612811575063ffffffff8111155b6127c65760405162461bcd60e51b815260206004820181905260248201527f4e65787456617255696e742c2076616c7565206f7574736964652072616e676560448201526064016109e0565b6001600160f81b031980831614156128da576128798686612c33565b955067ffffffffffffffff16905063ffffffff81116127c65760405162461bcd60e51b815260206004820181905260248201527f4e65787456617255696e742c2076616c7565206f7574736964652072616e676560448201526064016109e0565b5060f881901c60fd81106127c65760405162461bcd60e51b815260206004820181905260248201527f4e65787456617255696e742c2076616c7565206f7574736964652072616e676560448201526064016109e0565b60408051600181526001600160f81b03198316602082015260218101909152606090611efa565b6040516002808252606091906000601f5b8282101561298a5785811a826020860101536001919091019060001901612968565b5050506022810160405292915050565b6040516004808252606091906000601f5b828210156129cd5785811a8260208601015360019190910190600019016129ab565b5050506024810160405292915050565b6040516008808252606091906000601f5b82821015612a105785811a8260208601015360019190910190600019016129ee565b5050506028810160405292915050565b6000808351836001612a3291906136f8565b11158015612a495750612a468360016136f8565b83105b612a955760405162461bcd60e51b815260206004820181905260248201527f4e657874427974652c204f66667365742065786365656473206d6178696d756d60448201526064016109e0565b83830160200151806125438560016136f8565b6000808351836002612aba91906136f8565b11158015612ad15750612ace8360026136f8565b83105b612b285760405162461bcd60e51b815260206004820152602260248201527f4e65787455696e7431362c206f66667365742065786365656473206d6178696d604482015261756d60f01b60648201526084016109e0565b6000604051846020870101518060011a82538060001a60018301535060028101604052601e8103519150508084600261254391906136f8565b6000808351836004612b7391906136f8565b11158015612b8a5750612b878360046136f8565b83105b612be15760405162461bcd60e51b815260206004820152602260248201527f4e65787455696e7433322c206f66667365742065786365656473206d6178696d604482015261756d60f01b60648201526084016109e0565b600060405160046000600182038760208a0101515b83831015612c165780821a83860153600183019250600182039150612bf6565b5050508181016040526020039003519050806125438560046136f8565b6000808351836008612c4591906136f8565b11158015612c5c5750612c598360086136f8565b83105b612cb35760405162461bcd60e51b815260206004820152602260248201527f4e65787455696e7436342c206f66667365742065786365656473206d6178696d604482015261756d60f01b60648201526084016109e0565b600060405160086000600182038760208a0101515b83831015612ce85780821a83860153600183019250600182039150612cc8565b5050508181016040526020039003519050806125438560086136f8565b828054612d119061374a565b90600052602060002090601f016020900481019282612d335760008555612d79565b82601f10612d4c57805160ff1916838001178555612d79565b82800160010185558215612d79579182015b82811115612d79578251825591602001919060010190612d5e565b50612d85929150612dfd565b5090565b828054612d959061374a565b90600052602060002090601f016020900481019282612db75760008555612d79565b82601f10612dd05782800160ff19823516178555612d79565b82800160010185558215612d79579182015b82811115612d79578235825591602001919060010190612de2565b5b80821115612d855760008155600101612dfe565b6000612e25612e20846136d0565b61369f565b9050828152838383011115612e3957600080fd5b828260208301376000602084830101529392505050565b60008083601f840112612e6257600080fd5b50813567ffffffffffffffff811115612e7a57600080fd5b60208301915083602082850101111561254957600080fd5b600082601f830112612ea357600080fd5b612eb283833560208501612e12565b9392505050565b80356fffffffffffffffffffffffffffffffff8116811461272557600080fd5b803561ffff8116811461272557600080fd5b803567ffffffffffffffff8116811461272557600080fd5b600060208284031215612f1557600080fd5b8135612eb28161379b565b600060208284031215612f3257600080fd5b8135612eb2816137b0565b600060208284031215612f4f57600080fd5b8151612eb2816137b0565b600060208284031215612f6c57600080fd5b815167ffffffffffffffff811115612f8357600080fd5b8201601f81018413612f9457600080fd5b8051612fa2612e20826136d0565b818152856020838501011115612fb757600080fd5b611c4f82602083016020860161371e565b600060208284031215612fda57600080fd5b813567ffffffffffffffff80821115612ff257600080fd5b90830190610100828603121561300757600080fd5b61300f613675565b82358152602083013560208201526040830135604082015261303360608401612eb9565b606082015260808301358281111561304a57600080fd5b61305687828601612e92565b60808301525060a083013560a082015260c083013560c082015260e083013560e082015280935050505092915050565b60006020828403121561309857600080fd5b612eb282612ed9565b600080604083850312156130b457600080fd5b6130bd83612ed9565b915060208301356130cd8161379b565b809150509250929050565b6000806000604084860312156130ed57600080fd5b6130f684612ed9565b9250602084013567ffffffffffffffff81111561311257600080fd5b61311e86828701612e50565b9497909650939450505050565b60008060006060848603121561314057600080fd5b61314984612ed9565b9250602084013567ffffffffffffffff81111561316557600080fd5b61317186828701612e92565b92505061318060408501612eeb565b90509250925092565b6000806000806080858703121561319f57600080fd5b6131a885612ed9565b9350602085013567ffffffffffffffff808211156131c557600080fd5b6131d188838901612e92565b94506131df60408801612eeb565b935060608701359150808211156131f557600080fd5b5061320287828801612e92565b91505092959194509250565b6000806000806080858703121561322457600080fd5b61322d85612ed9565b935061323b60208601612ed9565b9250604085013561324b8161379b565b9396929550929360600135925050565b60008060008060006080868803121561327357600080fd5b61327c86612ed9565b945061328a60208701612ed9565b935060408601359250606086013567ffffffffffffffff8111156132ad57600080fd5b6132b988828901612e50565b969995985093965092949392505050565b6000602082840312156132dc57600080fd5b5035919050565b6000602082840312156132f557600080fd5b5051919050565b6000806040838503121561330f57600080fd5b50508035926020909101359150565b60008060006060848603121561333357600080fd5b61333c84612eeb565b9250602084013567ffffffffffffffff81111561335857600080fd5b8401601f8101861361336957600080fd5b61337886823560208401612e12565b92505060408401356133898161379b565b809150509250925092565b81835281816020850137506000828201602090810191909152601f909101601f19169091010190565b600081518084526133d581602086016020860161371e565b601f01601f19169290920160200192915050565b8183823760009101908152919050565b6000825161340b81846020870161371e565b9190910192915050565b6000835161342781846020880161371e565b83519083019061343b81836020880161371e565b01949350505050565b60008651613456818460208b0161371e565b86519083019061346a818360208b0161371e565b865191019061347d818360208a0161371e565b855191019061349081836020890161371e565b84519101906134a381836020880161371e565b01979650505050505050565b60608101818360005b60038110156134d75781518352602092830192909101906001016134b8565b50505092915050565b602081526000612eb260208301846133bd565b602081016002831061351557634e487b7160e01b600052602160045260246000fd5b91905290565b60408152825160408201526020830151606082015260408301516080820152606083015160a08201526000608084015160a060c084015261355f60e08401826133bd565b9150506001600160a01b03831660208301529392505050565b61ffff84168152604060208201526000611c4f604083018486613394565b61ffff8716815260c0602082015260006135b360c08301886133bd565b82810360408401526135c581886133bd565b6001600160a01b0387811660608601528616608085015283810360a085015290506135f081856133bd565b9998505050505050505050565b61ffff8516815260806020820152600061361a60808301866133bd565b67ffffffffffffffff85166040840152828103606084015261363c81856133bd565b979650505050505050565b600061ffff80881683528087166020840152508460408301526080606083015261363c608083018486613394565b604051610100810167ffffffffffffffff8111828210171561369957613699613785565b60405290565b604051601f8201601f1916810167ffffffffffffffff811182821017156136c8576136c8613785565b604052919050565b600067ffffffffffffffff8211156136ea576136ea613785565b50601f01601f191660200190565b6000821982111561371957634e487b7160e01b600052601160045260246000fd5b500190565b60005b83811015613739578181015183820152602001613721565b838111156112bc5750506000910152565b600181811c9082168061375e57607f821691505b6020821081141561377f57634e487b7160e01b600052602260045260246000fd5b50919050565b634e487b7160e01b600052604160045260246000fd5b6001600160a01b0381168114611bb357600080fd5b8015158114611bb357600080fdfea264697066735822122067f4ca0aa6cb86bdd9e97c14b590893da03361028ef408980f0ae23648e47efc64736f6c63430008070033",
  "linkReferences": {},
  "deployedLinkReferences": {}
}