{
  "_format": "hh-sol-artifact-1",
  "contractName": "MystikoV2LoopMain",
  "sourceName": "contracts/core/deposit/loop/MystikoV2LoopMain.sol",
  "abi": [
    {
      "inputs": [
        {
          "internalType": "contract IHasher3",
          "name": "_hasher3",
          "type": "address"
        }
      ],
      "stateMutability": "nonpayable",
      "type": "constructor"
    },
    {
      "inputs": [],
      "name": "AmountTooLarge",
      "type": "error"
    },
    {
      "inputs": [],
      "name": "AmountTooSmall",
      "type": "error"
    },
    {
      "inputs": [],
      "name": "CommitmentHashIncorrect",
      "type": "error"
    },
    {
      "inputs": [],
      "name": "DepositsDisabled",
      "type": "error"
    },
    {
      "inputs": [],
      "name": "HashKGreaterThanFieldSize",
      "type": "error"
    },
    {
      "inputs": [],
      "name": "MinAmountGreaterThanMaxAmount",
      "type": "error"
    },
    {
      "inputs": [],
      "name": "NotChanged",
      "type": "error"
    },
    {
      "inputs": [],
      "name": "OnlyOperator",
      "type": "error"
    },
    {
      "inputs": [],
      "name": "RandomSGreaterThanFieldSize",
      "type": "error"
    },
    {
      "inputs": [],
      "name": "SanctionedAddress",
      "type": "error"
    },
    {
      "anonymous": false,
      "inputs": [
        {
          "indexed": false,
          "internalType": "uint256",
          "name": "maxAmount",
          "type": "uint256"
        },
        {
          "indexed": false,
          "internalType": "uint256",
          "name": "minAmount",
          "type": "uint256"
        }
      ],
      "name": "DepositAmountLimits",
      "type": "event"
    },
    {
      "anonymous": false,
      "inputs": [
        {
          "indexed": false,
          "internalType": "bool",
          "name": "state",
          "type": "bool"
        }
      ],
      "name": "DepositsDisabled",
      "type": "event"
    },
    {
      "anonymous": false,
      "inputs": [
        {
          "indexed": true,
          "internalType": "address",
          "name": "operator",
          "type": "address"
        }
      ],
      "name": "OperatorChanged",
      "type": "event"
    },
    {
      "anonymous": false,
      "inputs": [
        {
          "indexed": false,
          "internalType": "bool",
          "name": "state",
          "type": "bool"
        }
      ],
      "name": "SanctionsCheck",
      "type": "event"
    },
    {
      "anonymous": false,
      "inputs": [
        {
          "indexed": false,
          "internalType": "contract ISanctionsList",
          "name": "sanctions",
          "type": "address"
        }
      ],
      "name": "SanctionsList",
      "type": "event"
    },
    {
      "inputs": [],
      "name": "assetType",
      "outputs": [
        {
          "internalType": "enum AssetPool.AssetType",
          "name": "",
          "type": "uint8"
        }
      ],
      "stateMutability": "pure",
      "type": "function"
    },
    {
      "inputs": [],
      "name": "bridgeType",
      "outputs": [
        {
          "internalType": "string",
          "name": "",
          "type": "string"
        }
      ],
      "stateMutability": "pure",
      "type": "function"
    },
    {
      "inputs": [
        {
          "internalType": "address",
          "name": "_newOperator",
          "type": "address"
        }
      ],
      "name": "changeOperator",
      "outputs": [],
      "stateMutability": "nonpayable",
      "type": "function"
    },
    {
      "inputs": [
        {
          "components": [
            {
              "internalType": "uint256",
              "name": "amount",
              "type": "uint256"
            },
            {
              "internalType": "uint256",
              "name": "commitment",
              "type": "uint256"
            },
            {
              "internalType": "uint256",
              "name": "hashK",
              "type": "uint256"
            },
            {
              "internalType": "uint128",
              "name": "randomS",
              "type": "uint128"
            },
            {
              "internalType": "bytes",
              "name": "encryptedNote",
              "type": "bytes"
            },
            {
              "internalType": "uint256",
              "name": "rollupFee",
              "type": "uint256"
            }
          ],
          "internalType": "struct IMystikoLoop.DepositRequest",
          "name": "_request",
          "type": "tuple"
        }
      ],
      "name": "deposit",
      "outputs": [],
      "stateMutability": "payable",
      "type": "function"
    },
    {
      "inputs": [],
      "name": "disableSanctionsCheck",
      "outputs": [],
      "stateMutability": "nonpayable",
      "type": "function"
    },
    {
      "inputs": [],
      "name": "enableSanctionsCheck",
      "outputs": [],
      "stateMutability": "nonpayable",
      "type": "function"
    },
    {
      "inputs": [],
      "name": "getAssociatedCommitmentPool",
      "outputs": [
        {
          "internalType": "address",
          "name": "",
          "type": "address"
        }
      ],
      "stateMutability": "view",
      "type": "function"
    },
    {
      "inputs": [],
      "name": "getMaxAmount",
      "outputs": [
        {
          "internalType": "uint256",
          "name": "",
          "type": "uint256"
        }
      ],
      "stateMutability": "view",
      "type": "function"
    },
    {
      "inputs": [],
      "name": "getMinAmount",
      "outputs": [
        {
          "internalType": "uint256",
          "name": "",
          "type": "uint256"
        }
      ],
      "stateMutability": "view",
      "type": "function"
    },
    {
      "inputs": [],
      "name": "isDepositsDisabled",
      "outputs": [
        {
          "internalType": "bool",
          "name": "",
          "type": "bool"
        }
      ],
      "stateMutability": "view",
      "type": "function"
    },
    {
      "inputs": [],
      "name": "sanctionsCheck",
      "outputs": [
        {
          "internalType": "bool",
          "name": "",
          "type": "bool"
        }
      ],
      "stateMutability": "view",
      "type": "function"
    },
    {
      "inputs": [],
      "name": "sanctionsList",
      "outputs": [
        {
          "internalType": "contract ISanctionsList",
          "name": "",
          "type": "address"
        }
      ],
      "stateMutability": "view",
      "type": "function"
    },
    {
      "inputs": [
        {
          "internalType": "address",
          "name": "_commitmentPoolAddress",
          "type": "address"
        }
      ],
      "name": "setAssociatedCommitmentPool",
      "outputs": [],
      "stateMutability": "nonpayable",
      "type": "function"
    },
    {
      "inputs": [
        {
          "internalType": "bool",
          "name": "_state",
          "type": "bool"
        }
      ],
      "name": "setDepositsDisabled",
      "outputs": [],
      "stateMutability": "nonpayable",
      "type": "function"
    },
    {
      "inputs": [
        {
          "internalType": "uint256",
          "name": "_maxAmount",
          "type": "uint256"
        },
        {
          "internalType": "uint256",
          "name": "_minAmount",
          "type": "uint256"
        }
      ],
      "name": "updateDepositAmountLimits",
      "outputs": [],
      "stateMutability": "nonpayable",
      "type": "function"
    },
    {
      "inputs": [
        {
          "internalType": "contract ISanctionsList",
          "name": "_sanction",
          "type": "address"
        }
      ],
      "name": "updateSanctionsListAddress",
      "outputs": [],
      "stateMutability": "nonpayable",
      "type": "function"
    }
  ],
  "bytecode": "0x6080604052600080546001600160a81b031916740140c57923924b5c5c5455c48d93317139addac8fb17905534801561003757600080fd5b50604051610f9c380380610f9c83398101604081905261005691610089565b600580546001600160a01b03199081163317909155600180546001600160a01b03909316929091169190911790556100b9565b60006020828403121561009b57600080fd5b81516001600160a01b03811681146100b257600080fd5b9392505050565b610ed4806100c86000396000f3fe6080604052600436106100f35760003560e01c8063dd757c341161008a578063ea0cde8511610059578063ea0cde851461028f578063ec571c6a146102af578063ed6ea33a146102cf578063f6afe88f146102ee57600080fd5b8063dd757c3414610208578063ddac5dc11461021d578063e19abef81461024f578063e8183c441461026f57600080fd5b806330f49cac116100c657806330f49cac146101865780633fe3347a146101a6578063b1c39422146101c2578063cfc7e2da146101f357600080fd5b806301dbf19f146100f857806306394c9b1461010f5780630ba959091461012f5780632421e15514610153575b600080fd5b34801561010457600080fd5b5061010d610301565b005b34801561011b57600080fd5b5061010d61012a366004610ba4565b610385565b34801561013b57600080fd5b506004545b6040519081526020015b60405180910390f35b34801561015f57600080fd5b50604080518082018252600481526306c6f6f760e41b6020820152905161014a9190610da3565b34801561019257600080fd5b5061010d6101a1366004610ba4565b610436565b3480156101b257600080fd5b50600160405161014a9190610d7b565b3480156101ce57600080fd5b506000546101e390600160a01b900460ff1681565b604051901515815260200161014a565b3480156101ff57600080fd5b50600354610140565b34801561021457600080fd5b5061010d6104c3565b34801561022957600080fd5b506002546001600160a01b03165b6040516001600160a01b03909116815260200161014a565b34801561025b57600080fd5b5061010d61026a366004610ba4565b61053b565b34801561027b57600080fd5b5061010d61028a366004610cdb565b610595565b34801561029b57600080fd5b5061010d6102aa366004610bc8565b610628565b3480156102bb57600080fd5b50600054610237906001600160a01b031681565b3480156102db57600080fd5b50600554600160a01b900460ff166101e3565b61010d6102fc366004610c02565b6106a0565b6005546001600160a01b0316331461032c576040516327e1f1e560e01b815260040160405180910390fd5b6000805460ff60a01b1916600160a01b908117918290556040517fa5ffe1601eb93a7fefd0d0eeb5fc94a2f65475f333836fe2b87fd7bbf59520699261037b92900460ff161515815260200190565b60405180910390a1565b6005546001600160a01b031633146103b0576040516327e1f1e560e01b815260040160405180910390fd5b6005546001600160a01b03828116911614156103df576040516336a1c33f60e01b815260040160405180910390fd5b6005805473ffffffffffffffffffffffffffffffffffffffff19166001600160a01b0383169081179091556040517f4721129e0e676ed6a92909bb24e853ccdd63ad72280cc2e974e38e480e0e6e5490600090a250565b6005546001600160a01b03163314610461576040516327e1f1e560e01b815260040160405180910390fd5b6000805473ffffffffffffffffffffffffffffffffffffffff19166001600160a01b0383169081179091556040519081527fbe1808917e09814fca7d80289a9760a4065f10d624ac1aee0b9f903c4f5d92b1906020015b60405180910390a150565b6005546001600160a01b031633146104ee576040516327e1f1e560e01b815260040160405180910390fd5b6000805460ff60a01b1916908190556040517fa5ffe1601eb93a7fefd0d0eeb5fc94a2f65475f333836fe2b87fd7bbf59520699161037b91600160a01b90910460ff161515815260200190565b6005546001600160a01b03163314610566576040516327e1f1e560e01b815260040160405180910390fd5b6002805473ffffffffffffffffffffffffffffffffffffffff19166001600160a01b0392909216919091179055565b6005546001600160a01b031633146105c0576040516327e1f1e560e01b815260040160405180910390fd5b818111156105e157604051636003e82160e11b815260040160405180910390fd5b6004829055600381905560408051838152602081018390527f7633004c7a229869aeea10db4ff3e57e3b1534aeb2c9e72c5db25f965895c330910160405180910390a15050565b6005546001600160a01b03163314610653576040516327e1f1e560e01b815260040160405180910390fd5b60058054821515600160a01b0260ff60a01b199091161790556040517fcd162c6fc24285bfbe399ec0cc2ce2c380ad27d2eb1fca418c652df1257e7e09906104b890831515815260200190565b600554600160a01b900460ff16156106cb57604051630e2f42c960e31b815260040160405180910390fd5b600354815110156106ef5760405163617ab12d60e11b815260040160405180910390fd5b6004548151111561071357604051630625040160e01b815260040160405180910390fd5b600061072c826040015183600001518460600151610799565b905080826020015114610752576040516301bfaa2560e51b815260040160405180910390fd5b61075b336108bf565b1561077957604051632e70c0b160e01b815260040160405180910390fd5b610795826000015183602001518460a00151856080015161095c565b5050565b60007f30644e72e131a029b85045b68181585d2833e84879b9709143e1f593f00000018085106107dc5760405163805f2a4960e01b815260040160405180910390fd5b80836fffffffffffffffffffffffffffffffff161061080e57604051633bbde0bf60e21b815260040160405180910390fd5b60015460408051606081018252878152602081018790526fffffffffffffffffffffffffffffffff86168183015290516304b98e1d60e31b81526001600160a01b03909216916325cc70e89161086691600401610d4a565b60206040518083038186803b15801561087e57600080fd5b505afa158015610892573d6000803e3d6000fd5b505050506040513d601f19601f820116820180604052508101906108b69190610cc2565b95945050505050565b60008054600160a01b900460ff166108d957506000919050565b60005460405163df592f7d60e01b81526001600160a01b0384811660048301529091169063df592f7d9060240160206040518083038186803b15801561091e57600080fd5b505afa158015610932573d6000803e3d6000fd5b505050506040513d601f19601f820116820180604052508101906109569190610be5565b92915050565b6040805160a081018252858152602081018590526000818301819052606082018590526080820184905260025492516378d60cd760e01b815291926001600160a01b0316916378d60cd7916109b691859190600401610db6565b600060405180830381600087803b1580156109d057600080fd5b505af11580156109e4573d6000803e3d6000fd5b5050600254610a0a92506001600160a01b03169050610a038588610e3c565b6000610a11565b5050505050565b610a1b8183610e3c565b3414610a6e5760405162461bcd60e51b815260206004820152601260248201527f696e73756666696369656e7420746f6b656e000000000000000000000000000060448201526064015b60405180910390fd5b6000836001600160a01b03168360405160006040518083038185875af1925050503d8060008114610abb576040519150601f19603f3d011682016040523d82523d6000602084013e610ac0565b606091505b5050905080610b115760405162461bcd60e51b815260206004820152601660248201527f616d6f756e74207472616e73666572206661696c6564000000000000000000006044820152606401610a65565b50505050565b600082601f830112610b2857600080fd5b813567ffffffffffffffff80821115610b4357610b43610e62565b604051601f8301601f19908116603f01168101908282118183101715610b6b57610b6b610e62565b81604052838152866020858801011115610b8457600080fd5b836020870160208301376000602085830101528094505050505092915050565b600060208284031215610bb657600080fd5b8135610bc181610e78565b9392505050565b600060208284031215610bda57600080fd5b8135610bc181610e90565b600060208284031215610bf757600080fd5b8151610bc181610e90565b600060208284031215610c1457600080fd5b813567ffffffffffffffff80821115610c2c57600080fd5b9083019060c08286031215610c4057600080fd5b610c48610e13565b82358152602083013560208201526040830135604082015260608301356fffffffffffffffffffffffffffffffff81168114610c8357600080fd5b6060820152608083013582811115610c9a57600080fd5b610ca687828601610b17565b60808301525060a083013560a082015280935050505092915050565b600060208284031215610cd457600080fd5b5051919050565b60008060408385031215610cee57600080fd5b50508035926020909101359150565b6000815180845260005b81811015610d2357602081850181015186830182015201610d07565b81811115610d35576000602083870101525b50601f01601f19169290920160200192915050565b60608101818360005b6003811015610d72578151835260209283019290910190600101610d53565b50505092915050565b6020810160028310610d9d57634e487b7160e01b600052602160045260246000fd5b91905290565b602081526000610bc16020830184610cfd565b60408152825160408201526020830151606082015260408301516080820152606083015160a08201526000608084015160a060c0840152610dfa60e0840182610cfd565b9150506001600160a01b03831660208301529392505050565b60405160c0810167ffffffffffffffff81118282101715610e3657610e36610e62565b60405290565b60008219821115610e5d57634e487b7160e01b600052601160045260246000fd5b500190565b634e487b7160e01b600052604160045260246000fd5b6001600160a01b0381168114610e8d57600080fd5b50565b8015158114610e8d57600080fdfea2646970667358221220a461f74321a48ffca257a91d536b3ee19c92e75e24f2d43c562e904bb5f9c45164736f6c63430008070033",
  "linkReferences": {},
  "deployedLinkReferences": {}
}