{
  "_format": "hh-sol-artifact-1",
  "contractName": "MystikoV2LayerZeroMain",
  "sourceName": "contracts/core/deposit/layerzero/MystikoV2LayerZeroMain.sol",
  "abi": [
    {
      "inputs": [
        {
          "internalType": "contract IHasher3",
          "name": "_hasher3",
          "type": "address"
        },
        {
          "internalType": "address",
          "name": "_bridgeProxyAddress",
          "type": "address"
        },
        {
          "internalType": "address",
          "name": "_settingsCenter",
          "type": "address"
        },
        {
          "components": [
            {
              "internalType": "uint256",
              "name": "minAmount",
              "type": "uint256"
            },
            {
              "internalType": "uint256",
              "name": "maxAmount",
              "type": "uint256"
            },
            {
              "internalType": "uint256",
              "name": "minBridgeFee",
              "type": "uint256"
            }
          ],
          "internalType": "struct IMystikoBridge.LocalConfig",
          "name": "_localConfig",
          "type": "tuple"
        },
        {
          "components": [
            {
              "internalType": "uint256",
              "name": "peerMinExecutorFee",
              "type": "uint256"
            },
            {
              "internalType": "uint256",
              "name": "peerMinRollupFee",
              "type": "uint256"
            }
          ],
          "internalType": "struct IMystikoBridge.PeerConfig",
          "name": "_peerConfig",
          "type": "tuple"
        }
      ],
      "stateMutability": "nonpayable",
      "type": "constructor"
    },
    {
      "inputs": [],
      "name": "AmountLessThanZero",
      "type": "error"
    },
    {
      "inputs": [],
      "name": "AmountTooLarge",
      "type": "error"
    },
    {
      "inputs": [],
      "name": "AmountTooSmall",
      "type": "error"
    },
    {
      "inputs": [],
      "name": "AssociatedPoolNotSet",
      "type": "error"
    },
    {
      "inputs": [],
      "name": "BridgeFeeTooFew",
      "type": "error"
    },
    {
      "inputs": [],
      "name": "CallIsNotLzApp",
      "type": "error"
    },
    {
      "inputs": [],
      "name": "CertificateInvalid",
      "type": "error"
    },
    {
      "inputs": [],
      "name": "CommitmentHashIncorrect",
      "type": "error"
    },
    {
      "inputs": [],
      "name": "DepositsDisabled",
      "type": "error"
    },
    {
      "inputs": [],
      "name": "DestinationChainIsNotTrusted",
      "type": "error"
    },
    {
      "inputs": [],
      "name": "ExecutorFeeTooFew",
      "type": "error"
    },
    {
      "inputs": [],
      "name": "HashKGreaterThanFieldSize",
      "type": "error"
    },
    {
      "inputs": [
        {
          "internalType": "string",
          "name": "param",
          "type": "string"
        }
      ],
      "name": "Invalid",
      "type": "error"
    },
    {
      "inputs": [],
      "name": "NoStoredMessage",
      "type": "error"
    },
    {
      "inputs": [],
      "name": "NotSupport",
      "type": "error"
    },
    {
      "inputs": [
        {
          "internalType": "address",
          "name": "owner",
          "type": "address"
        }
      ],
      "name": "OwnableInvalidOwner",
      "type": "error"
    },
    {
      "inputs": [
        {
          "internalType": "address",
          "name": "account",
          "type": "address"
        }
      ],
      "name": "OwnableUnauthorizedAccount",
      "type": "error"
    },
    {
      "inputs": [],
      "name": "PeerChainIdNotMatched",
      "type": "error"
    },
    {
      "inputs": [],
      "name": "PeerContractAlreadySet",
      "type": "error"
    },
    {
      "inputs": [],
      "name": "PeerContractNotMatched",
      "type": "error"
    },
    {
      "inputs": [],
      "name": "RandomSGreaterThanFieldSize",
      "type": "error"
    },
    {
      "inputs": [],
      "name": "RollupFeeToFew",
      "type": "error"
    },
    {
      "inputs": [],
      "name": "SanctionedAddress",
      "type": "error"
    },
    {
      "anonymous": false,
      "inputs": [
        {
          "indexed": true,
          "internalType": "uint256",
          "name": "commitment",
          "type": "uint256"
        }
      ],
      "name": "CommitmentCrossChain",
      "type": "event"
    },
    {
      "anonymous": false,
      "inputs": [
        {
          "indexed": false,
          "internalType": "uint16",
          "name": "_srcChainId",
          "type": "uint16"
        },
        {
          "indexed": false,
          "internalType": "bytes",
          "name": "_srcAddress",
          "type": "bytes"
        },
        {
          "indexed": false,
          "internalType": "uint64",
          "name": "_nonce",
          "type": "uint64"
        },
        {
          "indexed": false,
          "internalType": "bytes",
          "name": "_payload",
          "type": "bytes"
        }
      ],
      "name": "MessageFailed",
      "type": "event"
    },
    {
      "anonymous": false,
      "inputs": [
        {
          "indexed": true,
          "internalType": "address",
          "name": "previousOwner",
          "type": "address"
        },
        {
          "indexed": true,
          "internalType": "address",
          "name": "newOwner",
          "type": "address"
        }
      ],
      "name": "OwnershipTransferred",
      "type": "event"
    },
    {
      "anonymous": false,
      "inputs": [
        {
          "indexed": false,
          "internalType": "uint16",
          "name": "_srcChainId",
          "type": "uint16"
        },
        {
          "indexed": false,
          "internalType": "bytes",
          "name": "_srcAddress",
          "type": "bytes"
        }
      ],
      "name": "SetTrustedRemote",
      "type": "event"
    },
    {
      "inputs": [],
      "name": "assetAddress",
      "outputs": [
        {
          "internalType": "address",
          "name": "",
          "type": "address"
        }
      ],
      "stateMutability": "pure",
      "type": "function"
    },
    {
      "inputs": [],
      "name": "assetType",
      "outputs": [
        {
          "internalType": "enum AssetPool.AssetType",
          "name": "",
          "type": "uint8"
        }
      ],
      "stateMutability": "pure",
      "type": "function"
    },
    {
      "inputs": [],
      "name": "bridgeProxyAddress",
      "outputs": [
        {
          "internalType": "address",
          "name": "",
          "type": "address"
        }
      ],
      "stateMutability": "view",
      "type": "function"
    },
    {
      "inputs": [],
      "name": "bridgeType",
      "outputs": [
        {
          "internalType": "string",
          "name": "",
          "type": "string"
        }
      ],
      "stateMutability": "pure",
      "type": "function"
    },
    {
      "inputs": [
        {
          "components": [
            {
              "internalType": "uint256",
              "name": "amount",
              "type": "uint256"
            },
            {
              "internalType": "uint256",
              "name": "commitment",
              "type": "uint256"
            },
            {
              "internalType": "uint256",
              "name": "hashK",
              "type": "uint256"
            },
            {
              "internalType": "uint128",
              "name": "randomS",
              "type": "uint128"
            },
            {
              "internalType": "bytes",
              "name": "encryptedNote",
              "type": "bytes"
            },
            {
              "internalType": "uint256",
              "name": "bridgeFee",
              "type": "uint256"
            },
            {
              "internalType": "uint256",
              "name": "executorFee",
              "type": "uint256"
            },
            {
              "internalType": "uint256",
              "name": "rollupFee",
              "type": "uint256"
            }
          ],
          "internalType": "struct IMystikoBridge.DepositRequest",
          "name": "_request",
          "type": "tuple"
        },
        {
          "internalType": "uint256",
          "name": "_certificateDeadline",
          "type": "uint256"
        },
        {
          "internalType": "bytes",
          "name": "_certificateSignature",
          "type": "bytes"
        }
      ],
      "name": "certDeposit",
      "outputs": [],
      "stateMutability": "payable",
      "type": "function"
    },
    {
      "inputs": [],
      "name": "defaultMaxAmount",
      "outputs": [
        {
          "internalType": "uint256",
          "name": "",
          "type": "uint256"
        }
      ],
      "stateMutability": "view",
      "type": "function"
    },
    {
      "inputs": [],
      "name": "defaultMinAmount",
      "outputs": [
        {
          "internalType": "uint256",
          "name": "",
          "type": "uint256"
        }
      ],
      "stateMutability": "view",
      "type": "function"
    },
    {
      "inputs": [],
      "name": "defaultMinBridgeFee",
      "outputs": [
        {
          "internalType": "uint256",
          "name": "",
          "type": "uint256"
        }
      ],
      "stateMutability": "view",
      "type": "function"
    },
    {
      "inputs": [],
      "name": "defaultPeerMinExecutorFee",
      "outputs": [
        {
          "internalType": "uint256",
          "name": "",
          "type": "uint256"
        }
      ],
      "stateMutability": "view",
      "type": "function"
    },
    {
      "inputs": [],
      "name": "defaultPeerMinRollupFee",
      "outputs": [
        {
          "internalType": "uint256",
          "name": "",
          "type": "uint256"
        }
      ],
      "stateMutability": "view",
      "type": "function"
    },
    {
      "inputs": [
        {
          "components": [
            {
              "internalType": "uint256",
              "name": "amount",
              "type": "uint256"
            },
            {
              "internalType": "uint256",
              "name": "commitment",
              "type": "uint256"
            },
            {
              "internalType": "uint256",
              "name": "hashK",
              "type": "uint256"
            },
            {
              "internalType": "uint128",
              "name": "randomS",
              "type": "uint128"
            },
            {
              "internalType": "bytes",
              "name": "encryptedNote",
              "type": "bytes"
            },
            {
              "internalType": "uint256",
              "name": "bridgeFee",
              "type": "uint256"
            },
            {
              "internalType": "uint256",
              "name": "executorFee",
              "type": "uint256"
            },
            {
              "internalType": "uint256",
              "name": "rollupFee",
              "type": "uint256"
            }
          ],
          "internalType": "struct IMystikoBridge.DepositRequest",
          "name": "_request",
          "type": "tuple"
        }
      ],
      "name": "deposit",
      "outputs": [],
      "stateMutability": "payable",
      "type": "function"
    },
    {
      "inputs": [
        {
          "internalType": "uint16",
          "name": "",
          "type": "uint16"
        },
        {
          "internalType": "bytes",
          "name": "",
          "type": "bytes"
        },
        {
          "internalType": "uint64",
          "name": "",
          "type": "uint64"
        }
      ],
      "name": "failedMessages",
      "outputs": [
        {
          "internalType": "bytes32",
          "name": "",
          "type": "bytes32"
        }
      ],
      "stateMutability": "view",
      "type": "function"
    },
    {
      "inputs": [
        {
          "internalType": "uint16",
          "name": "_srcChainId",
          "type": "uint16"
        },
        {
          "internalType": "bytes",
          "name": "_srcAddress",
          "type": "bytes"
        }
      ],
      "name": "forceResumeReceive",
      "outputs": [],
      "stateMutability": "nonpayable",
      "type": "function"
    },
    {
      "inputs": [],
      "name": "getAssociatedCommitmentPool",
      "outputs": [
        {
          "internalType": "address",
          "name": "",
          "type": "address"
        }
      ],
      "stateMutability": "view",
      "type": "function"
    },
    {
      "inputs": [
        {
          "internalType": "uint16",
          "name": "_version",
          "type": "uint16"
        },
        {
          "internalType": "uint16",
          "name": "_chainId",
          "type": "uint16"
        },
        {
          "internalType": "address",
          "name": "",
          "type": "address"
        },
        {
          "internalType": "uint256",
          "name": "_configType",
          "type": "uint256"
        }
      ],
      "name": "getConfig",
      "outputs": [
        {
          "internalType": "bytes",
          "name": "",
          "type": "bytes"
        }
      ],
      "stateMutability": "view",
      "type": "function"
    },
    {
      "inputs": [],
      "name": "getMaxAmount",
      "outputs": [
        {
          "internalType": "uint256",
          "name": "",
          "type": "uint256"
        }
      ],
      "stateMutability": "view",
      "type": "function"
    },
    {
      "inputs": [],
      "name": "getMinAmount",
      "outputs": [
        {
          "internalType": "uint256",
          "name": "",
          "type": "uint256"
        }
      ],
      "stateMutability": "view",
      "type": "function"
    },
    {
      "inputs": [],
      "name": "getMinBridgeFee",
      "outputs": [
        {
          "internalType": "uint256",
          "name": "",
          "type": "uint256"
        }
      ],
      "stateMutability": "view",
      "type": "function"
    },
    {
      "inputs": [],
      "name": "getMinExecutorFee",
      "outputs": [
        {
          "internalType": "uint256",
          "name": "",
          "type": "uint256"
        }
      ],
      "stateMutability": "view",
      "type": "function"
    },
    {
      "inputs": [],
      "name": "getPeerMinRollupFee",
      "outputs": [
        {
          "internalType": "uint256",
          "name": "",
          "type": "uint256"
        }
      ],
      "stateMutability": "view",
      "type": "function"
    },
    {
      "inputs": [],
      "name": "isDepositsDisabled",
      "outputs": [
        {
          "internalType": "bool",
          "name": "",
          "type": "bool"
        }
      ],
      "stateMutability": "view",
      "type": "function"
    },
    {
      "inputs": [],
      "name": "isPeerContractSet",
      "outputs": [
        {
          "internalType": "bool",
          "name": "",
          "type": "bool"
        }
      ],
      "stateMutability": "view",
      "type": "function"
    },
    {
      "inputs": [
        {
          "internalType": "uint16",
          "name": "_srcChainId",
          "type": "uint16"
        },
        {
          "internalType": "bytes",
          "name": "_srcAddress",
          "type": "bytes"
        }
      ],
      "name": "isTrustedRemote",
      "outputs": [
        {
          "internalType": "bool",
          "name": "",
          "type": "bool"
        }
      ],
      "stateMutability": "view",
      "type": "function"
    },
    {
      "inputs": [],
      "name": "localLayerZeroChainId",
      "outputs": [
        {
          "internalType": "uint16",
          "name": "",
          "type": "uint16"
        }
      ],
      "stateMutability": "view",
      "type": "function"
    },
    {
      "inputs": [],
      "name": "lzEndpoint",
      "outputs": [
        {
          "internalType": "contract ILayerZeroEndpoint",
          "name": "",
          "type": "address"
        }
      ],
      "stateMutability": "view",
      "type": "function"
    },
    {
      "inputs": [
        {
          "internalType": "uint16",
          "name": "_srcChainId",
          "type": "uint16"
        },
        {
          "internalType": "bytes",
          "name": "_srcAddress",
          "type": "bytes"
        },
        {
          "internalType": "uint64",
          "name": "_nonce",
          "type": "uint64"
        },
        {
          "internalType": "bytes",
          "name": "_payload",
          "type": "bytes"
        }
      ],
      "name": "lzReceive",
      "outputs": [],
      "stateMutability": "nonpayable",
      "type": "function"
    },
    {
      "inputs": [
        {
          "internalType": "uint16",
          "name": "_srcChainId",
          "type": "uint16"
        },
        {
          "internalType": "bytes",
          "name": "_srcAddress",
          "type": "bytes"
        },
        {
          "internalType": "uint64",
          "name": "_nonce",
          "type": "uint64"
        },
        {
          "internalType": "bytes",
          "name": "_payload",
          "type": "bytes"
        }
      ],
      "name": "nonblockingLzReceive",
      "outputs": [],
      "stateMutability": "nonpayable",
      "type": "function"
    },
    {
      "inputs": [],
      "name": "owner",
      "outputs": [
        {
          "internalType": "address",
          "name": "",
          "type": "address"
        }
      ],
      "stateMutability": "view",
      "type": "function"
    },
    {
      "inputs": [],
      "name": "peerChainId",
      "outputs": [
        {
          "internalType": "uint64",
          "name": "",
          "type": "uint64"
        }
      ],
      "stateMutability": "view",
      "type": "function"
    },
    {
      "inputs": [],
      "name": "peerChainName",
      "outputs": [
        {
          "internalType": "string",
          "name": "",
          "type": "string"
        }
      ],
      "stateMutability": "view",
      "type": "function"
    },
    {
      "inputs": [],
      "name": "peerContract",
      "outputs": [
        {
          "internalType": "address",
          "name": "",
          "type": "address"
        }
      ],
      "stateMutability": "view",
      "type": "function"
    },
    {
      "inputs": [],
      "name": "peerLayerZeroChainId",
      "outputs": [
        {
          "internalType": "uint16",
          "name": "",
          "type": "uint16"
        }
      ],
      "stateMutability": "view",
      "type": "function"
    },
    {
      "inputs": [],
      "name": "renounceOwnership",
      "outputs": [],
      "stateMutability": "nonpayable",
      "type": "function"
    },
    {
      "inputs": [
        {
          "internalType": "uint16",
          "name": "_srcChainId",
          "type": "uint16"
        },
        {
          "internalType": "bytes",
          "name": "_srcAddress",
          "type": "bytes"
        },
        {
          "internalType": "uint64",
          "name": "_nonce",
          "type": "uint64"
        },
        {
          "internalType": "bytes",
          "name": "_payload",
          "type": "bytes"
        }
      ],
      "name": "retryMessage",
      "outputs": [],
      "stateMutability": "payable",
      "type": "function"
    },
    {
      "inputs": [
        {
          "internalType": "uint16",
          "name": "_version",
          "type": "uint16"
        },
        {
          "internalType": "uint16",
          "name": "_chainId",
          "type": "uint16"
        },
        {
          "internalType": "uint256",
          "name": "_configType",
          "type": "uint256"
        },
        {
          "internalType": "bytes",
          "name": "_config",
          "type": "bytes"
        }
      ],
      "name": "setConfig",
      "outputs": [],
      "stateMutability": "nonpayable",
      "type": "function"
    },
    {
      "inputs": [
        {
          "internalType": "uint16",
          "name": "_lzChainId",
          "type": "uint16"
        },
        {
          "internalType": "address",
          "name": "_lzEndpoint",
          "type": "address"
        }
      ],
      "name": "setEndpoint",
      "outputs": [],
      "stateMutability": "nonpayable",
      "type": "function"
    },
    {
      "inputs": [
        {
          "components": [
            {
              "internalType": "uint64",
              "name": "peerChainId",
              "type": "uint64"
            },
            {
              "internalType": "string",
              "name": "peerChainName",
              "type": "string"
            },
            {
              "internalType": "address",
              "name": "peerContract",
              "type": "address"
            }
          ],
          "internalType": "struct IMystikoBridge.PeerContract",
          "name": "_peerContract",
          "type": "tuple"
        }
      ],
      "name": "setPeerContract",
      "outputs": [],
      "stateMutability": "nonpayable",
      "type": "function"
    },
    {
      "inputs": [
        {
          "internalType": "uint16",
          "name": "_version",
          "type": "uint16"
        }
      ],
      "name": "setReceiveVersion",
      "outputs": [],
      "stateMutability": "nonpayable",
      "type": "function"
    },
    {
      "inputs": [
        {
          "internalType": "uint16",
          "name": "_version",
          "type": "uint16"
        }
      ],
      "name": "setSendVersion",
      "outputs": [],
      "stateMutability": "nonpayable",
      "type": "function"
    },
    {
      "inputs": [
        {
          "internalType": "uint16",
          "name": "_peerLayerZeroChainId",
          "type": "uint16"
        },
        {
          "internalType": "bytes",
          "name": "_peerAddress",
          "type": "bytes"
        }
      ],
      "name": "setTrustedRemote",
      "outputs": [],
      "stateMutability": "nonpayable",
      "type": "function"
    },
    {
      "inputs": [],
      "name": "settings",
      "outputs": [
        {
          "internalType": "contract MystikoBridgeSettings",
          "name": "",
          "type": "address"
        }
      ],
      "stateMutability": "view",
      "type": "function"
    },
    {
      "inputs": [
        {
          "internalType": "address",
          "name": "newOwner",
          "type": "address"
        }
      ],
      "name": "transferOwnership",
      "outputs": [],
      "stateMutability": "nonpayable",
      "type": "function"
    },
    {
      "inputs": [
        {
          "internalType": "uint16",
          "name": "",
          "type": "uint16"
        }
      ],
      "name": "trustedRemoteLookup",
      "outputs": [
        {
          "internalType": "bytes",
          "name": "",
          "type": "bytes"
        }
      ],
      "stateMutability": "view",
      "type": "function"
    }
  ],
  "bytecode": "0x60806040526000805460ff60a01b1916905534801561001d57600080fd5b5060405161381738038061381783398101604081905261003c916101ae565b600080546001600160a01b038088166001600160a01b031992831617909255600880548388169083161790558351600355602080850151600455604085015160055583516006558301516007556009805492861692909116919091179055848484848432806100c557604051631e4fbdf760e01b81526000600482015260240160405180910390fd5b6100ce816100de565b5050505050505050505050610268565b600a80546001600160a01b038381166001600160a01b0319831681179093556040519116919082907f8be0079c531659141344cd1fd0a4f28419497f9722a3daafe3b4186f6b6457e090600090a35050565b6001600160a01b038116811461014557600080fd5b50565b604051606081016001600160401b038111828210171561017857634e487b7160e01b600052604160045260246000fd5b60405290565b604080519081016001600160401b038111828210171561017857634e487b7160e01b600052604160045260246000fd5b60008060008060008587036101008112156101c857600080fd5b86516101d381610130565b60208801519096506101e481610130565b60408801519095506101f581610130565b93506060605f198201121561020957600080fd5b610211610148565b606088015181526080880151602082015260a088015160408083019190915290935060bf198201121561024357600080fd5b5061024c61017e565b60c0870151815260e09096015160208701525092959194509290565b6135a0806102776000396000f3fe6080604052600436106102da5760003560e01c80637533d78811610184578063d1deba1f116100d6578063efbfb2ae1161008a578063f5ecbdbc11610064578063f5ecbdbc146107ea578063fa750f561461080a578063fb3e3d731461082b57600080fd5b8063efbfb2ae146107a0578063f2fde38b146107b5578063f4ad17c6146107d557600080fd5b8063e06174e4116100bb578063e06174e41461074b578063eb8d72b71461076b578063ed6ea33a1461078b57600080fd5b8063d1deba1f14610723578063ddac5dc11461073657600080fd5b8063cb5c029a11610138578063cdfceeba11610112578063cdfceeba146106b7578063cfc7e2da146106f8578063d0b436bd1461070d57600080fd5b8063cb5c029a1461066e578063cbe3428514610681578063cbed8b9c1461069757600080fd5b80638da5cb5b116101695780638da5cb5b1461061d5780639a03636c1461063b578063b353aaa71461064e57600080fd5b80637533d788146105e8578063825b5f8d1461060857600080fd5b80633d8b38f61161023d5780634e3c10b7116101f1578063640c0b36116101cb578063640c0b361461059d57806366ad5c8a146105b3578063715018a6146105d357600080fd5b80634e3c10b7146105195780634ee7ded61461052e5780635b8c41e61461054e57600080fd5b8063422e002811610222578063422e0028146104c357806342d65a8d146104e35780634dde6fbc1461050357600080fd5b80633d8b38f6146104775780633fe3347a146104a757600080fd5b80631ba46cfd116102945780632421e155116102795780632421e155146103e65780632cd26d4514610435578063302d5f4b1461045557600080fd5b80631ba46cfd1461039e57806321e32d55146103c657600080fd5b806307e0db17116102c557806307e0db171461033b5780630ba959091461035b57806310ddb1371461037e57600080fd5b80621d3567146102df57806297a06314610301575b600080fd5b3480156102eb57600080fd5b506102ff6102fa366004612a56565b610841565b005b34801561030d57600080fd5b50600b5461032390600160b01b900461ffff1681565b60405161ffff90911681526020015b60405180910390f35b34801561034757600080fd5b506102ff610356366004612ae0565b6109c8565b34801561036757600080fd5b50610370610a2e565b604051908152602001610332565b34801561038a57600080fd5b506102ff610399366004612ae0565b610ab7565b3480156103aa57600080fd5b5060005b6040516001600160a01b039091168152602001610332565b3480156103d257600080fd5b506002546103ae906001600160a01b031681565b3480156103f257600080fd5b5060408051808201909152600981527f6c617965725a65726f000000000000000000000000000000000000000000000060208201525b6040516103329190612b4b565b34801561044157600080fd5b506008546103ae906001600160a01b031681565b34801561046157600080fd5b50600b5461032390600160a01b900461ffff1681565b34801561048357600080fd5b50610497610492366004612ba0565b610af3565b6040519015158152602001610332565b3480156104b357600080fd5b5060016040516103329190612bf3565b3480156104cf57600080fd5b506102ff6104de366004612c30565b610bbf565b3480156104ef57600080fd5b506102ff6104fe366004612ba0565b610ca1565b34801561050f57600080fd5b5061037060055481565b34801561052557600080fd5b50610428610d14565b34801561053a57600080fd5b506102ff610549366004612cdd565b610da2565b34801561055a57600080fd5b50610370610569366004612d14565b600d602090815260009384526040808520845180860184018051928152908401958401959095209452929052825290205481565b3480156105a957600080fd5b5061037060065481565b3480156105bf57600080fd5b506102ff6105ce366004612a56565b610e0c565b3480156105df57600080fd5b506102ff610e3e565b3480156105f457600080fd5b50610428610603366004612ae0565b610e52565b34801561061457600080fd5b50610370610e6b565b34801561062957600080fd5b50600a546001600160a01b03166103ae565b6102ff610649366004612e2a565b610ef2565b34801561065a57600080fd5b50600b546103ae906001600160a01b031681565b6102ff61067c366004612e67565b610f0b565b34801561068d57600080fd5b5061037060075481565b3480156106a357600080fd5b506102ff6106b2366004612ed9565b611336565b3480156106c357600080fd5b506000546106df90600160a81b900467ffffffffffffffff1681565b60405167ffffffffffffffff9091168152602001610332565b34801561070457600080fd5b506103706113af565b34801561071957600080fd5b5061037060045481565b6102ff610731366004612a56565b611436565b34801561074257600080fd5b506103ae611546565b34801561075757600080fd5b506009546103ae906001600160a01b031681565b34801561077757600080fd5b506102ff610786366004612ba0565b6115e5565b34801561079757600080fd5b50610497611681565b3480156107ac57600080fd5b506103706116f3565b3480156107c157600080fd5b506102ff6107d0366004612f48565b61177a565b3480156107e157600080fd5b506103706117b8565b3480156107f657600080fd5b50610428610805366004612f65565b61183f565b34801561081657600080fd5b5060005461049790600160a01b900460ff1681565b34801561083757600080fd5b5061037060035481565b600b546001600160a01b0316336001600160a01b0316146108aa576040516314e8955b60e21b815260206004820152600f60248201527f656e64706f696e742063616c6c6572000000000000000000000000000000000060448201526064015b60405180910390fd5b61ffff84166000908152600c6020526040812080546108c890612fb2565b80601f01602080910402602001604051908101604052809291908181526020018280546108f490612fb2565b80156109415780601f1061091657610100808354040283529160200191610941565b820191906000526020600020905b81548152906001019060200180831161092457829003601f168201915b505050505090508051845114158061096757508080519060200120848051906020012014155b156109b5576040516314e8955b60e21b815260206004820152601760248201527f736f757263652073656e64696e6720636f6e747261637400000000000000000060448201526064016108a1565b6109c1858585856118d2565b5050505050565b6109d0611933565b600b546040516307e0db1760e01b815261ffff831660048201526001600160a01b03909116906307e0db17906024015b600060405180830381600087803b158015610a1a57600080fd5b505af11580156109c1573d6000803e3d6000fd5b60095460405163473a063160e01b815230600482015260009182916001600160a01b039091169063473a063190602401602060405180830381865afa158015610a7b573d6000803e3d6000fd5b505050506040513d601f19601f82011682018060405250810190610a9f9190612fec565b90508015610aad5780610ab1565b6004545b91505090565b610abf611933565b600b546040516310ddb13760e01b815261ffff831660048201526001600160a01b03909116906310ddb13790602401610a00565b61ffff83166000908152600c602052604081208054829190610b1490612fb2565b80601f0160208091040260200160405190810160405280929190818152602001828054610b4090612fb2565b8015610b8d5780601f10610b6257610100808354040283529160200191610b8d565b820191906000526020600020905b815481529060010190602001808311610b7057829003601f168201915b505050505090508383604051610ba4929190613005565b60405180910390208180519060200120149150509392505050565b600054600160a01b900460ff1615610bea57604051636d8f115160e11b815260040160405180910390fd5b80516000805467ffffffffffffffff909216600160a81b027fffffff0000000000000000ffffffffffffffffffffffffffffffffffffffffff9092169190911790556020810151600190610c3e9082613061565b5060400151600280546001600160a01b0390921673ffffffffffffffffffffffffffffffffffffffff19909216919091179055600080547fffffffffffffffffffffff00ffffffffffffffffffffffffffffffffffffffff16600160a01b179055565b610ca9611933565b600b546040516342d65a8d60e01b81526001600160a01b03909116906342d65a8d90610cdd90869086908690600401613149565b600060405180830381600087803b158015610cf757600080fd5b505af1158015610d0b573d6000803e3d6000fd5b50505050505050565b60018054610d2190612fb2565b80601f0160208091040260200160405190810160405280929190818152602001828054610d4d90612fb2565b8015610d9a5780601f10610d6f57610100808354040283529160200191610d9a565b820191906000526020600020905b815481529060010190602001808311610d7d57829003601f168201915b505050505081565b610daa611933565b600b80547fffffffffffffffffffff0000000000000000000000000000000000000000000016600160a01b61ffff949094169390930273ffffffffffffffffffffffffffffffffffffffff1916929092176001600160a01b0391909116179055565b333014610e2c576040516371f50ec160e11b815260040160405180910390fd5b610e3884848484611960565b50505050565b610e46611933565b610e50600061199b565b565b600c6020526000908152604090208054610d2190612fb2565b6009546040516361863c0360e11b815230600482015260009182916001600160a01b039091169063c30c780690602401602060405180830381865afa158015610eb8573d6000803e3d6000fd5b505050506040513d601f19601f82011682018060405250810190610edc9190612fec565b90508015610eea5780610ab1565b505060075490565b60405163e7a24ff960e01b815260040160405180910390fd5b60095460405163bb07320560e01b81523060048201526001600160a01b039091169063bb07320590602401602060405180830381865afa158015610f53573d6000803e3d6000fd5b505050506040513d601f19601f82011682018060405250810190610f779190613167565b15610f9557604051630e2f42c960e31b815260040160405180910390fd5b600960009054906101000a90046001600160a01b03166001600160a01b031663bc5877066040518163ffffffff1660e01b8152600401602060405180830381865afa158015610fe8573d6000803e3d6000fd5b505050506040513d601f19601f8201168201806040525081019061100c9190613167565b156110d95760006040518060800160405280326001600160a01b03168152602001611035600090565b6001600160a01b039081168252602082018690526040918201859052600954915163849e8b9f60e01b8152929350169063849e8b9f90611079908490600401613189565b602060405180830381865afa158015611096573d6000803e3d6000fd5b505050506040513d601f19601f820116820180604052508101906110ba9190613167565b6110d757604051633042041f60e21b815260040160405180910390fd5b505b6110e16113af565b835110156111025760405163617ab12d60e11b815260040160405180910390fd5b61110a610a2e565b8351111561112b57604051630625040160e01b815260040160405180910390fd5b6111336116f3565b8360a0015110156111575760405163c4d8d00d60e01b815260040160405180910390fd5b61115f6117b8565b8360c001511015611183576040516355a6d6a160e11b815260040160405180910390fd5b61118b610e6b565b8360e0015110156111af5760405163784f02bd60e11b815260040160405180910390fd5b60006111c88460400151856000015186606001516119fa565b9050808460200151146111ee576040516301bfaa2560e51b815260040160405180910390fd5b60095460405163df592f7d60e01b81523260048201526001600160a01b039091169063df592f7d90602401602060405180830381865afa158015611236573d6000803e3d6000fd5b505050506040513d601f19601f8201168201806040525081019061125a9190613167565b1561127857604051632e70c0b160e01b815260040160405180910390fd5b6040805160a081018252855181526020808701519082015260c08601519181019190915260e085015160608201526080808601519082015260006112bb82611b08565b90506112cb8660a0015182611b77565b6113006112d6611546565b60e088015160c089015189516112ec91906131d4565b6112f691906131d4565b8860a00151611ba9565b60208601516040517fd106eb38b3368b7c294e36fae5513fdefe880be5abfad529b37b044f2fdd2dbe90600090a2505050505050565b61133e611933565b600b546040516332fb62e760e21b81526001600160a01b039091169063cbed8b9c9061137690889088908890889088906004016131f5565b600060405180830381600087803b15801561139057600080fd5b505af11580156113a4573d6000803e3d6000fd5b505050505050505050565b600954604051635525984960e01b815230600482015260009182916001600160a01b0390911690635525984990602401602060405180830381865afa1580156113fc573d6000803e3d6000fd5b505050506040513d601f19601f820116820180604052508101906114209190612fec565b9050801561142e5780610ab1565b505060035490565b61ffff84166000908152600d6020526040808220905161145790869061322e565b908152604080516020928190038301902067ffffffffffffffff86166000908152925290205490508061149d57604051632b96c98560e21b815260040160405180910390fd5b8151602083012081146114f3576040516314e8955b60e21b815260206004820152600760248201527f7061796c6f61640000000000000000000000000000000000000000000000000060448201526064016108a1565b61ffff85166000908152600d6020526040808220905161151490879061322e565b908152604080516020928190038301902067ffffffffffffffff8716600090815292529020556109c185858585611960565b6009546040516341fb697960e01b815230600482015260009182916001600160a01b03909116906341fb697990602401602060405180830381865afa158015611593573d6000803e3d6000fd5b505050506040513d601f19601f820116820180604052508101906115b7919061324a565b90506001600160a01b0381166115e0576040516306f3d63360e51b815260040160405180910390fd5b919050565b6115ed611933565b600b80547fffffffffffffffff0000ffffffffffffffffffffffffffffffffffffffffffff16600160b01b61ffff8616908102919091179091556000908152600c60205260409020611640828483613267565b507ffa41487ad5d6728f0b19276fa1eddc16558578f5109fc39d2dc33c3230470dab83838360405161167493929190613149565b60405180910390a1505050565b60095460405163bb07320560e01b81523060048201526000916001600160a01b03169063bb07320590602401602060405180830381865afa1580156116ca573d6000803e3d6000fd5b505050506040513d601f19601f820116820180604052508101906116ee9190613167565b905090565b600954604051637b52b00d60e01b815230600482015260009182916001600160a01b0390911690637b52b00d90602401602060405180830381865afa158015611740573d6000803e3d6000fd5b505050506040513d601f19601f820116820180604052508101906117649190612fec565b905080156117725780610ab1565b505060055490565b611782611933565b6001600160a01b0381166117ac57604051631e4fbdf760e01b8152600060048201526024016108a1565b6117b58161199b565b50565b600954604051634f314f9d60e11b815230600482015260009182916001600160a01b0390911690639e629f3a90602401602060405180830381865afa158015611805573d6000803e3d6000fd5b505050506040513d601f19601f820116820180604052508101906118299190612fec565b905080156118375780610ab1565b505060065490565b600b54604051633d7b2f6f60e21b815261ffff808716600483015285166024820152306044820152606481018390526060916001600160a01b03169063f5ecbdbc90608401600060405180830381865afa1580156118a1573d6000803e3d6000fd5b505050506040513d6000823e601f3d908101601f191682016040526118c99190810190613327565b95945050505050565b604051633356ae4560e11b815230906366ad5c8a906118fb908790879087908790600401613395565b600060405180830381600087803b15801561191557600080fd5b505af1158015611929573d6000803e3d6000fd5b5050505050505050565b600a546001600160a01b03163314610e505760405163118cdaa760e01b81523360048201526024016108a1565b600061196b82611ca4565b6000546002549192506109c191600160a81b90910467ffffffffffffffff16906001600160a01b03163284611d6c565b600a80546001600160a01b0383811673ffffffffffffffffffffffffffffffffffffffff19831681179093556040519116919082907f8be0079c531659141344cd1fd0a4f28419497f9722a3daafe3b4186f6b6457e090600090a35050565b60007f30644e72e131a029b85045b68181585d2833e84879b9709143e1f593f0000001808510611a3d5760405163805f2a4960e01b815260040160405180910390fd5b80836fffffffffffffffffffffffffffffffff1610611a6f57604051633bbde0bf60e21b815260040160405180910390fd5b60005460408051606081018252878152602081018790526fffffffffffffffffffffffffffffffff86168183015290516304b98e1d60e31b81526001600160a01b03909216916325cc70e891611ac7916004016133d4565b602060405180830381865afa158015611ae4573d6000803e3d6000fd5b505050506040513d601f19601f820116820180604052508101906118c99190612fec565b606080611b188360000151611e27565b611b258460200151611e27565b611b328560400151611e27565b611b3f8660600151611e27565b611b4c8760800151611ebf565b604051602001611b60959493929190613405565b60408051601f198184030181529190529392505050565b611ba5600b60169054906101000a900461ffff16823360006040518060200160405280600081525087611ef6565b5050565b611bb381836131d4565b3414611c015760405162461bcd60e51b815260206004820152601260248201527f696e73756666696369656e7420746f6b656e000000000000000000000000000060448201526064016108a1565b6000836001600160a01b03168360405160006040518083038185875af1925050503d8060008114611c4e576040519150601f19603f3d011682016040523d82523d6000602084013e611c53565b606091505b5050905080610e385760405162461bcd60e51b815260206004820152601660248201527f616d6f756e74207472616e73666572206661696c65640000000000000000000060448201526064016108a1565b611cd66040518060a0016040528060008152602001600081526020016000815260200160008152602001606081525090565b611d086040518060a0016040528060008152602001600081526020016000815260200160008152602001606081525090565b6000611d14848261202c565b9083529050611d23848261202c565b60208401919091529050611d37848261202c565b60408401919091529050611d4b848261202c565b60608401919091529050611d5f848261215d565b5060808301525092915050565b6002546001600160a01b03848116911614611d9a57604051631b495ecf60e31b815260040160405180910390fd5b60005467ffffffffffffffff858116600160a81b9092041614611dd05760405163373bc12160e11b815260040160405180910390fd5b8051600003611df25760405163820bf1e560e01b815260040160405180910390fd5b611dfa611546565b6001600160a01b03166378d60cd782846040518363ffffffff1660e01b81526004016118fb929190613470565b60606001600160ff1b03821115611e805760405162461bcd60e51b815260206004820152601b60248201527f56616c756520657863656564732075696e743235352072616e6765000000000060448201526064016108a1565b60405160208082526000601f5b82821015611eaf5785811a826020860101536001919091019060001901611e8d565b5050506040818101905292915050565b8051606090611ecd8161226a565b83604051602001611edf9291906134cd565b604051602081830303815290604052915050919050565b61ffff86166000908152600c602052604081208054611f1490612fb2565b80601f0160208091040260200160405190810160405280929190818152602001828054611f4090612fb2565b8015611f8d5780601f10611f6257610100808354040283529160200191611f8d565b820191906000526020600020905b815481529060010190602001808311611f7057829003601f168201915b505050505090508051600003611fb65760405163020b35a160e01b815260040160405180910390fd5b600b5460405162c5803160e81b81526001600160a01b039091169063c5803100908490611ff1908b9086908c908c908c908c906004016134fc565b6000604051808303818588803b15801561200a57600080fd5b505af115801561201e573d6000803e3d6000fd5b505050505050505050505050565b600080835183602061203e91906131d4565b1115801561205557506120528360206131d4565b83105b6120ad5760405162461bcd60e51b815260206004820152602360248201527f4e65787455696e743235352c206f66667365742065786365656473206d6178696044820152626d756d60e81b60648201526084016108a1565b600060405160206000600182038760208a0101515b838310156120e25780821a838601536001830192506001820391506120c2565b50505081016040525190506001600160ff1b038111156121445760405162461bcd60e51b815260206004820152601760248201527f56616c75652065786365656473207468652072616e676500000000000000000060448201526064016108a1565b806121508560206131d4565b92509250505b9250929050565b606060008061216c8585612334565b865190955090915061217e82866131d4565b11158015612194575061219181856131d4565b84105b6121ec5760405162461bcd60e51b8152602060048201526024808201527f4e65787456617242797465732c206f66667365742065786365656473206d6178604482015263696d756d60e01b60648201526084016108a1565b60608115801561220757604051915060208201604052612251565b6040519150601f8316801560200281840101848101888315602002848c0101015b81831015612240578051835260209283019201612228565b5050848452601f01601f1916604052505b508061225d83876131d4565b9350935050509250929050565b606060fd8267ffffffffffffffff16101561229f57604080516001815260f884901b6020820152602181019091525b92915050565b61ffff8267ffffffffffffffff16116122ef576122bf60fd60f81b612538565b6122c88361255f565b6040516020016122d99291906134cd565b6040516020818303038152906040529050919050565b63ffffffff8267ffffffffffffffff161161231a57612311607f60f91b612538565b6122c8836125a2565b61232b6001600160f81b0319612538565b6122c8836125e5565b60008060006123438585612628565b9450905060006001600160f81b0319821660fd60f81b036123db5761236886866126b0565b955061ffff16905060fd8110801590612383575061ffff8111155b6123cf5760405162461bcd60e51b815260206004820152601f60248201527f4e65787455696e7431362c2076616c7565206f7574736964652072616e67650060448201526064016108a1565b92508391506121569050565b6001600160f81b03198216607f60f91b03612465576123fa8686612769565b955063ffffffff16905061ffff81118015612419575063ffffffff8111155b6123cf5760405162461bcd60e51b815260206004820181905260248201527f4e65787456617255696e742c2076616c7565206f7574736964652072616e676560448201526064016108a1565b6001600160f81b031980831690036124e257612481868661283a565b955067ffffffffffffffff16905063ffffffff81116123cf5760405162461bcd60e51b815260206004820181905260248201527f4e65787456617255696e742c2076616c7565206f7574736964652072616e676560448201526064016108a1565b5060f881901c60fd81106123cf5760405162461bcd60e51b815260206004820181905260248201527f4e65787456617255696e742c2076616c7565206f7574736964652072616e676560448201526064016108a1565b60408051600181526001600160f81b03198316602082015260218101909152606090612299565b6040516002808252606091906000601f5b828210156125925785811a826020860101536001919091019060001901612570565b5050506022810160405292915050565b6040516004808252606091906000601f5b828210156125d55785811a8260208601015360019190910190600019016125b3565b5050506024810160405292915050565b6040516008808252606091906000601f5b828210156126185785811a8260208601015360019190910190600019016125f6565b5050506028810160405292915050565b600080835183600161263a91906131d4565b11158015612651575061264e8360016131d4565b83105b61269d5760405162461bcd60e51b815260206004820181905260248201527f4e657874427974652c204f66667365742065786365656473206d6178696d756d60448201526064016108a1565b83830160200151806121508560016131d4565b60008083518360026126c291906131d4565b111580156126d957506126d68360026131d4565b83105b6127305760405162461bcd60e51b815260206004820152602260248201527f4e65787455696e7431362c206f66667365742065786365656473206d6178696d604482015261756d60f01b60648201526084016108a1565b6000604051846020870101518060011a82538060001a60018301535060028101604052601e8103519150508084600261215091906131d4565b600080835183600461277b91906131d4565b11158015612792575061278f8360046131d4565b83105b6127e95760405162461bcd60e51b815260206004820152602260248201527f4e65787455696e7433322c206f66667365742065786365656473206d6178696d604482015261756d60f01b60648201526084016108a1565b600060405160046000600182038760208a0101515b8383101561281e5780821a838601536001830192506001820391506127fe565b505050016040819052601f1901519050806121508560046131d4565b600080835183600861284c91906131d4565b1115801561286357506128608360086131d4565b83105b6128ba5760405162461bcd60e51b815260206004820152602260248201527f4e65787455696e7436342c206f66667365742065786365656473206d6178696d604482015261756d60f01b60648201526084016108a1565b600060405160086000600182038760208a0101515b838310156128ef5780821a838601536001830192506001820391506128cf565b505050016040819052601f1901519050806121508560086131d4565b803561ffff811681146115e057600080fd5b634e487b7160e01b600052604160045260246000fd5b6040516060810167ffffffffffffffff811182821017156129565761295661291d565b60405290565b604051610100810167ffffffffffffffff811182821017156129565761295661291d565b604051601f8201601f1916810167ffffffffffffffff811182821017156129a9576129a961291d565b604052919050565b600067ffffffffffffffff8211156129cb576129cb61291d565b50601f01601f191660200190565b60006129ec6129e7846129b1565b612980565b9050828152838383011115612a0057600080fd5b828260208301376000602084830101529392505050565b600082601f830112612a2857600080fd5b612a37838335602085016129d9565b9392505050565b803567ffffffffffffffff811681146115e057600080fd5b60008060008060808587031215612a6c57600080fd5b612a758561290b565b9350602085013567ffffffffffffffff811115612a9157600080fd5b612a9d87828801612a17565b935050612aac60408601612a3e565b9150606085013567ffffffffffffffff811115612ac857600080fd5b612ad487828801612a17565b91505092959194509250565b600060208284031215612af257600080fd5b612a378261290b565b60005b83811015612b16578181015183820152602001612afe565b50506000910152565b60008151808452612b37816020860160208601612afb565b601f01601f19169290920160200192915050565b602081526000612a376020830184612b1f565b60008083601f840112612b7057600080fd5b50813567ffffffffffffffff811115612b8857600080fd5b60208301915083602082850101111561215657600080fd5b600080600060408486031215612bb557600080fd5b612bbe8461290b565b9250602084013567ffffffffffffffff811115612bda57600080fd5b612be686828701612b5e565b9497909650939450505050565b6020810160028310612c1557634e487b7160e01b600052602160045260246000fd5b91905290565b6001600160a01b03811681146117b557600080fd5b600060208284031215612c4257600080fd5b813567ffffffffffffffff811115612c5957600080fd5b820160608185031215612c6b57600080fd5b612c73612933565b612c7c82612a3e565b8152602082013567ffffffffffffffff811115612c9857600080fd5b8201601f81018613612ca957600080fd5b612cb8868235602084016129d9565b60208301525060408201359150612cce82612c1b565b60408101919091529392505050565b60008060408385031215612cf057600080fd5b612cf98361290b565b91506020830135612d0981612c1b565b809150509250929050565b600080600060608486031215612d2957600080fd5b612d328461290b565b9250602084013567ffffffffffffffff811115612d4e57600080fd5b612d5a86828701612a17565b925050612d6960408501612a3e565b90509250925092565b80356fffffffffffffffffffffffffffffffff811681146115e057600080fd5b60006101008284031215612da557600080fd5b612dad61295c565b8235815260208084013590820152604080840135908201529050612dd360608301612d72565b6060820152608082013567ffffffffffffffff811115612df257600080fd5b612dfe84828501612a17565b60808301525060a0828101359082015260c0808301359082015260e09182013591810191909152919050565b600060208284031215612e3c57600080fd5b813567ffffffffffffffff811115612e5357600080fd5b612e5f84828501612d92565b949350505050565b600080600060608486031215612e7c57600080fd5b833567ffffffffffffffff811115612e9357600080fd5b612e9f86828701612d92565b93505060208401359150604084013567ffffffffffffffff811115612ec357600080fd5b612ecf86828701612a17565b9150509250925092565b600080600080600060808688031215612ef157600080fd5b612efa8661290b565b9450612f086020870161290b565b935060408601359250606086013567ffffffffffffffff811115612f2b57600080fd5b612f3788828901612b5e565b969995985093965092949392505050565b600060208284031215612f5a57600080fd5b8135612a3781612c1b565b60008060008060808587031215612f7b57600080fd5b612f848561290b565b9350612f926020860161290b565b92506040850135612fa281612c1b565b9396929550929360600135925050565b600181811c90821680612fc657607f821691505b602082108103612fe657634e487b7160e01b600052602260045260246000fd5b50919050565b600060208284031215612ffe57600080fd5b5051919050565b8183823760009101908152919050565b601f82111561305c57806000526020600020601f840160051c8101602085101561303c5750805b601f840160051c820191505b818110156109c15760008155600101613048565b505050565b815167ffffffffffffffff81111561307b5761307b61291d565b61308f816130898454612fb2565b84613015565b6020601f8211600181146130c357600083156130ab5750848201515b600019600385901b1c1916600184901b1784556109c1565b600084815260208120601f198516915b828110156130f357878501518255602094850194600190920191016130d3565b50848210156131115786840151600019600387901b60f8161c191681555b50505050600190811b01905550565b81835281816020850137506000828201602090810191909152601f909101601f19169091010190565b61ffff841681526040602082015260006118c9604083018486613120565b60006020828403121561317957600080fd5b81518015158114612a3757600080fd5b602081526001600160a01b0382511660208201526001600160a01b0360208301511660408201526040820151606082015260006060830151608080840152612e5f60a0840182612b1f565b8082018082111561229957634e487b7160e01b600052601160045260246000fd5b61ffff8616815261ffff85166020820152836040820152608060608201526000613223608083018486613120565b979650505050505050565b60008251613240818460208701612afb565b9190910192915050565b60006020828403121561325c57600080fd5b8151612a3781612c1b565b67ffffffffffffffff83111561327f5761327f61291d565b6132938361328d8354612fb2565b83613015565b6000601f8411600181146132c757600085156132af5750838201355b600019600387901b1c1916600186901b1783556109c1565b600083815260209020601f19861690835b828110156132f857868501358255602094850194600190920191016132d8565b50868210156133155760001960f88860031b161c19848701351681555b505060018560011b0183555050505050565b60006020828403121561333957600080fd5b815167ffffffffffffffff81111561335057600080fd5b8201601f8101841361336157600080fd5b805161336f6129e7826129b1565b81815285602083850101111561338457600080fd5b6118c9826020830160208601612afb565b61ffff851681526080602082015260006133b26080830186612b1f565b67ffffffffffffffff8516604084015282810360608401526132238185612b1f565b60608101818360005b60038110156133fc5781518352602092830192909101906001016133dd565b50505092915050565b60008651613417818460208b01612afb565b86519083019061342b818360208b01612afb565b865191019061343e818360208a01612afb565b8551910190613451818360208901612afb565b8451910190613464818360208801612afb565b01979650505050505050565b60408152825160408201526020830151606082015260408301516080820152606083015160a08201526000608084015160a060c08401526134b460e0840182612b1f565b9150506001600160a01b03831660208301529392505050565b600083516134df818460208801612afb565b8351908301906134f3818360208801612afb565b01949350505050565b61ffff8716815260c06020820152600061351960c0830188612b1f565b828103604084015261352b8188612b1f565b90506001600160a01b03861660608401526001600160a01b038516608084015282810360a084015261355d8185612b1f565b999850505050505050505056fea2646970667358221220bf92d41f02bf6d0aedb1762749a9815140cb31e968e618d254127d9a4378409064736f6c634300081a0033",
  "linkReferences": {},
  "deployedLinkReferences": {}
}