{
  "_format": "hh-sol-artifact-1",
  "contractName": "MystikoV2AxelarERC20",
  "sourceName": "contracts/core/deposit/axelar/MystikoV2AxelarERC20.sol",
  "abi": [
    {
      "inputs": [
        {
          "internalType": "contract IHasher3",
          "name": "_hasher3",
          "type": "address"
        },
        {
          "internalType": "contract IERC20Metadata",
          "name": "_token",
          "type": "address"
        }
      ],
      "stateMutability": "nonpayable",
      "type": "constructor"
    },
    {
      "inputs": [],
      "name": "AmountLessThanZero",
      "type": "error"
    },
    {
      "inputs": [],
      "name": "AmountTooLarge",
      "type": "error"
    },
    {
      "inputs": [],
      "name": "AmountTooSmall",
      "type": "error"
    },
    {
      "inputs": [],
      "name": "BridgeFeeTooFew",
      "type": "error"
    },
    {
      "inputs": [],
      "name": "CommitmentHashIncorrect",
      "type": "error"
    },
    {
      "inputs": [],
      "name": "DepositsDisabled",
      "type": "error"
    },
    {
      "inputs": [],
      "name": "ExecutorFeeTooFew",
      "type": "error"
    },
    {
      "inputs": [],
      "name": "FromChainIdNotMatched",
      "type": "error"
    },
    {
      "inputs": [],
      "name": "FromProxyAddressNotMatched",
      "type": "error"
    },
    {
      "inputs": [],
      "name": "HashKGreaterThanFieldSize",
      "type": "error"
    },
    {
      "inputs": [
        {
          "internalType": "string",
          "name": "param",
          "type": "string"
        }
      ],
      "name": "Invalid",
      "type": "error"
    },
    {
      "inputs": [],
      "name": "MinAmountGreaterThanMaxAmount",
      "type": "error"
    },
    {
      "inputs": [],
      "name": "NotApprovedByGateway",
      "type": "error"
    },
    {
      "inputs": [],
      "name": "NotChanged",
      "type": "error"
    },
    {
      "inputs": [],
      "name": "OnlyOperator",
      "type": "error"
    },
    {
      "inputs": [],
      "name": "RandomSGreaterThanFieldSize",
      "type": "error"
    },
    {
      "inputs": [],
      "name": "RollupFeeToFew",
      "type": "error"
    },
    {
      "inputs": [],
      "name": "SanctionedAddress",
      "type": "error"
    },
    {
      "anonymous": false,
      "inputs": [
        {
          "indexed": false,
          "internalType": "string",
          "name": "peerChainName",
          "type": "string"
        },
        {
          "indexed": false,
          "internalType": "string",
          "name": "destinationAddress",
          "type": "string"
        }
      ],
      "name": "CallContractMessage",
      "type": "event"
    },
    {
      "anonymous": false,
      "inputs": [
        {
          "indexed": true,
          "internalType": "uint256",
          "name": "commitment",
          "type": "uint256"
        }
      ],
      "name": "CommitmentCrossChain",
      "type": "event"
    },
    {
      "anonymous": false,
      "inputs": [
        {
          "indexed": false,
          "internalType": "uint256",
          "name": "maxAmount",
          "type": "uint256"
        },
        {
          "indexed": false,
          "internalType": "uint256",
          "name": "minAmount",
          "type": "uint256"
        }
      ],
      "name": "DepositAmountLimits",
      "type": "event"
    },
    {
      "anonymous": false,
      "inputs": [
        {
          "indexed": false,
          "internalType": "bool",
          "name": "state",
          "type": "bool"
        }
      ],
      "name": "DepositsDisabled",
      "type": "event"
    },
    {
      "anonymous": false,
      "inputs": [
        {
          "indexed": false,
          "internalType": "uint256",
          "name": "minBridgeFee",
          "type": "uint256"
        }
      ],
      "name": "MinBridgeFee",
      "type": "event"
    },
    {
      "anonymous": false,
      "inputs": [
        {
          "indexed": false,
          "internalType": "uint256",
          "name": "minExecutorFee",
          "type": "uint256"
        }
      ],
      "name": "MinExecutorFee",
      "type": "event"
    },
    {
      "anonymous": false,
      "inputs": [
        {
          "indexed": true,
          "internalType": "address",
          "name": "operator",
          "type": "address"
        }
      ],
      "name": "OperatorChanged",
      "type": "event"
    },
    {
      "anonymous": false,
      "inputs": [
        {
          "indexed": false,
          "internalType": "uint256",
          "name": "peerMinExecutorFee",
          "type": "uint256"
        }
      ],
      "name": "PeerMinExecutorFee",
      "type": "event"
    },
    {
      "anonymous": false,
      "inputs": [
        {
          "indexed": false,
          "internalType": "uint256",
          "name": "peerMinRollupFee",
          "type": "uint256"
        }
      ],
      "name": "PeerMinRollupFee",
      "type": "event"
    },
    {
      "anonymous": false,
      "inputs": [
        {
          "indexed": false,
          "internalType": "bool",
          "name": "state",
          "type": "bool"
        }
      ],
      "name": "SanctionsCheck",
      "type": "event"
    },
    {
      "anonymous": false,
      "inputs": [
        {
          "indexed": false,
          "internalType": "contract ISanctionsList",
          "name": "sanctions",
          "type": "address"
        }
      ],
      "name": "SanctionsList",
      "type": "event"
    },
    {
      "inputs": [],
      "name": "assetDecimals",
      "outputs": [
        {
          "internalType": "uint8",
          "name": "",
          "type": "uint8"
        }
      ],
      "stateMutability": "view",
      "type": "function"
    },
    {
      "inputs": [],
      "name": "assetName",
      "outputs": [
        {
          "internalType": "string",
          "name": "",
          "type": "string"
        }
      ],
      "stateMutability": "view",
      "type": "function"
    },
    {
      "inputs": [],
      "name": "assetSymbol",
      "outputs": [
        {
          "internalType": "string",
          "name": "",
          "type": "string"
        }
      ],
      "stateMutability": "view",
      "type": "function"
    },
    {
      "inputs": [],
      "name": "assetType",
      "outputs": [
        {
          "internalType": "enum AssetPool.AssetType",
          "name": "",
          "type": "uint8"
        }
      ],
      "stateMutability": "pure",
      "type": "function"
    },
    {
      "inputs": [],
      "name": "bridgeProxyAddress",
      "outputs": [
        {
          "internalType": "address",
          "name": "",
          "type": "address"
        }
      ],
      "stateMutability": "view",
      "type": "function"
    },
    {
      "inputs": [],
      "name": "bridgeType",
      "outputs": [
        {
          "internalType": "string",
          "name": "",
          "type": "string"
        }
      ],
      "stateMutability": "pure",
      "type": "function"
    },
    {
      "inputs": [
        {
          "internalType": "address",
          "name": "_newOperator",
          "type": "address"
        }
      ],
      "name": "changeOperator",
      "outputs": [],
      "stateMutability": "nonpayable",
      "type": "function"
    },
    {
      "inputs": [
        {
          "components": [
            {
              "internalType": "uint256",
              "name": "amount",
              "type": "uint256"
            },
            {
              "internalType": "uint256",
              "name": "commitment",
              "type": "uint256"
            },
            {
              "internalType": "uint256",
              "name": "hashK",
              "type": "uint256"
            },
            {
              "internalType": "uint128",
              "name": "randomS",
              "type": "uint128"
            },
            {
              "internalType": "bytes",
              "name": "encryptedNote",
              "type": "bytes"
            },
            {
              "internalType": "uint256",
              "name": "bridgeFee",
              "type": "uint256"
            },
            {
              "internalType": "uint256",
              "name": "executorFee",
              "type": "uint256"
            },
            {
              "internalType": "uint256",
              "name": "rollupFee",
              "type": "uint256"
            }
          ],
          "internalType": "struct IMystikoBridge.DepositRequest",
          "name": "_request",
          "type": "tuple"
        }
      ],
      "name": "deposit",
      "outputs": [],
      "stateMutability": "payable",
      "type": "function"
    },
    {
      "inputs": [],
      "name": "disableSanctionsCheck",
      "outputs": [],
      "stateMutability": "nonpayable",
      "type": "function"
    },
    {
      "inputs": [],
      "name": "enableSanctionsCheck",
      "outputs": [],
      "stateMutability": "nonpayable",
      "type": "function"
    },
    {
      "inputs": [
        {
          "internalType": "bytes32",
          "name": "commandId",
          "type": "bytes32"
        },
        {
          "internalType": "string",
          "name": "sourceChain",
          "type": "string"
        },
        {
          "internalType": "string",
          "name": "sourceAddress",
          "type": "string"
        },
        {
          "internalType": "bytes",
          "name": "payload",
          "type": "bytes"
        }
      ],
      "name": "execute",
      "outputs": [],
      "stateMutability": "nonpayable",
      "type": "function"
    },
    {
      "inputs": [
        {
          "internalType": "bytes32",
          "name": "commandId",
          "type": "bytes32"
        },
        {
          "internalType": "string",
          "name": "sourceChain",
          "type": "string"
        },
        {
          "internalType": "string",
          "name": "sourceAddress",
          "type": "string"
        },
        {
          "internalType": "bytes",
          "name": "payload",
          "type": "bytes"
        },
        {
          "internalType": "string",
          "name": "tokenSymbol",
          "type": "string"
        },
        {
          "internalType": "uint256",
          "name": "amount",
          "type": "uint256"
        }
      ],
      "name": "executeWithToken",
      "outputs": [],
      "stateMutability": "nonpayable",
      "type": "function"
    },
    {
      "inputs": [],
      "name": "gateway",
      "outputs": [
        {
          "internalType": "contract IAxelarGateway",
          "name": "",
          "type": "address"
        }
      ],
      "stateMutability": "view",
      "type": "function"
    },
    {
      "inputs": [],
      "name": "getAssociatedCommitmentPool",
      "outputs": [
        {
          "internalType": "address",
          "name": "",
          "type": "address"
        }
      ],
      "stateMutability": "view",
      "type": "function"
    },
    {
      "inputs": [],
      "name": "getMaxAmount",
      "outputs": [
        {
          "internalType": "uint256",
          "name": "",
          "type": "uint256"
        }
      ],
      "stateMutability": "view",
      "type": "function"
    },
    {
      "inputs": [],
      "name": "getMinAmount",
      "outputs": [
        {
          "internalType": "uint256",
          "name": "",
          "type": "uint256"
        }
      ],
      "stateMutability": "view",
      "type": "function"
    },
    {
      "inputs": [],
      "name": "getMinBridgeFee",
      "outputs": [
        {
          "internalType": "uint256",
          "name": "",
          "type": "uint256"
        }
      ],
      "stateMutability": "view",
      "type": "function"
    },
    {
      "inputs": [],
      "name": "getMinExecutorFee",
      "outputs": [
        {
          "internalType": "uint256",
          "name": "",
          "type": "uint256"
        }
      ],
      "stateMutability": "view",
      "type": "function"
    },
    {
      "inputs": [],
      "name": "getPeerMinExecutorFee",
      "outputs": [
        {
          "internalType": "uint256",
          "name": "",
          "type": "uint256"
        }
      ],
      "stateMutability": "view",
      "type": "function"
    },
    {
      "inputs": [],
      "name": "getPeerMinRollupFee",
      "outputs": [
        {
          "internalType": "uint256",
          "name": "",
          "type": "uint256"
        }
      ],
      "stateMutability": "view",
      "type": "function"
    },
    {
      "inputs": [],
      "name": "isDepositsDisabled",
      "outputs": [
        {
          "internalType": "bool",
          "name": "",
          "type": "bool"
        }
      ],
      "stateMutability": "view",
      "type": "function"
    },
    {
      "inputs": [],
      "name": "peerChainId",
      "outputs": [
        {
          "internalType": "uint64",
          "name": "",
          "type": "uint64"
        }
      ],
      "stateMutability": "view",
      "type": "function"
    },
    {
      "inputs": [],
      "name": "peerChainName",
      "outputs": [
        {
          "internalType": "string",
          "name": "",
          "type": "string"
        }
      ],
      "stateMutability": "view",
      "type": "function"
    },
    {
      "inputs": [],
      "name": "peerContract",
      "outputs": [
        {
          "internalType": "address",
          "name": "",
          "type": "address"
        }
      ],
      "stateMutability": "view",
      "type": "function"
    },
    {
      "inputs": [],
      "name": "sanctionsCheck",
      "outputs": [
        {
          "internalType": "bool",
          "name": "",
          "type": "bool"
        }
      ],
      "stateMutability": "view",
      "type": "function"
    },
    {
      "inputs": [],
      "name": "sanctionsList",
      "outputs": [
        {
          "internalType": "contract ISanctionsList",
          "name": "",
          "type": "address"
        }
      ],
      "stateMutability": "view",
      "type": "function"
    },
    {
      "inputs": [
        {
          "internalType": "address",
          "name": "_commitmentPoolAddress",
          "type": "address"
        }
      ],
      "name": "setAssociatedCommitmentPool",
      "outputs": [],
      "stateMutability": "nonpayable",
      "type": "function"
    },
    {
      "inputs": [
        {
          "internalType": "address",
          "name": "_gasReceiver",
          "type": "address"
        }
      ],
      "name": "setAxelarGasReceiver",
      "outputs": [],
      "stateMutability": "nonpayable",
      "type": "function"
    },
    {
      "inputs": [
        {
          "internalType": "address",
          "name": "_bridgeProxyAddress",
          "type": "address"
        }
      ],
      "name": "setBridgeProxyAddress",
      "outputs": [],
      "stateMutability": "nonpayable",
      "type": "function"
    },
    {
      "inputs": [
        {
          "internalType": "bool",
          "name": "_state",
          "type": "bool"
        }
      ],
      "name": "setDepositsDisabled",
      "outputs": [],
      "stateMutability": "nonpayable",
      "type": "function"
    },
    {
      "inputs": [
        {
          "internalType": "uint256",
          "name": "_minBridgeFee",
          "type": "uint256"
        }
      ],
      "name": "setMinBridgeFee",
      "outputs": [],
      "stateMutability": "nonpayable",
      "type": "function"
    },
    {
      "inputs": [
        {
          "internalType": "uint256",
          "name": "_minExecutorFee",
          "type": "uint256"
        }
      ],
      "name": "setMinExecutorFee",
      "outputs": [],
      "stateMutability": "nonpayable",
      "type": "function"
    },
    {
      "inputs": [
        {
          "internalType": "uint64",
          "name": "_peerChainId",
          "type": "uint64"
        },
        {
          "internalType": "string",
          "name": "_peerChainName",
          "type": "string"
        },
        {
          "internalType": "address",
          "name": "_peerContract",
          "type": "address"
        }
      ],
      "name": "setPeerContract",
      "outputs": [],
      "stateMutability": "nonpayable",
      "type": "function"
    },
    {
      "inputs": [
        {
          "internalType": "uint256",
          "name": "_peerMinExecutorFee",
          "type": "uint256"
        }
      ],
      "name": "setPeerMinExecutorFee",
      "outputs": [],
      "stateMutability": "nonpayable",
      "type": "function"
    },
    {
      "inputs": [
        {
          "internalType": "uint256",
          "name": "_peerMinRollupFee",
          "type": "uint256"
        }
      ],
      "name": "setPeerMinRollupFee",
      "outputs": [],
      "stateMutability": "nonpayable",
      "type": "function"
    },
    {
      "inputs": [
        {
          "internalType": "uint256",
          "name": "_maxAmount",
          "type": "uint256"
        },
        {
          "internalType": "uint256",
          "name": "_minAmount",
          "type": "uint256"
        }
      ],
      "name": "updateDepositAmountLimits",
      "outputs": [],
      "stateMutability": "nonpayable",
      "type": "function"
    },
    {
      "inputs": [
        {
          "internalType": "contract ISanctionsList",
          "name": "_sanction",
          "type": "address"
        }
      ],
      "name": "updateSanctionsListAddress",
      "outputs": [],
      "stateMutability": "nonpayable",
      "type": "function"
    }
  ],
  "bytecode": "0x6080604052600080546001600160a81b031916740140c57923924b5c5c5455c48d93317139addac8fb1790553480156200003857600080fd5b50604051620033ad380380620033ad8339810160408190526200005b9162000098565b600c8054336001600160a01b0319918216179091556001805482166001600160a01b03948516179055600f805490911691909216179055620000f0565b60008060408385031215620000ac57600080fd5b8251620000b981620000d7565b6020840151909250620000cc81620000d7565b809150509250929050565b6001600160a01b0381168114620000ed57600080fd5b50565b6132ad80620001006000396000f3fe60806040526004361061026a5760003560e01c80637d2c852011610153578063dd757c34116100cb578063ea0cde851161007f578063ed6ea33a11610064578063ed6ea33a146106ce578063efbfb2ae146106ed578063f4ad17c61461070257600080fd5b8063ea0cde851461068e578063ec571c6a146106ae57600080fd5b8063df420737116100b0578063df4207371461062e578063e19abef81461064e578063e8183c441461066e57600080fd5b8063dd757c34146105fb578063ddac5dc11461061057600080fd5b8063b1c3942211610122578063c9230c5d11610107578063c9230c5d14610590578063cdfceeba146105a5578063cfc7e2da146105e657600080fd5b8063b1c3942214610538578063c2d416011461056957600080fd5b80637d2c8520146104d0578063825b5f8d146104f05780639a03636c14610505578063a3bc64f21461051857600080fd5b80632421e155116101e657806349160658116101b5578063521ff0571161019a578063521ff0571461047b5780635898a0a81461049b5780635e10b2b7146104b057600080fd5b806349160658146104465780634e3c10b71461046657600080fd5b80632421e155146103a45780632cd26d45146103ea57806330f49cac1461040a5780633fe3347a1461042a57600080fd5b8063153dc4501161023d57806319e75d6e1161022257806319e75d6e146103445780631a98b2e01461036457806321e32d551461038457600080fd5b8063153dc45014610302578063176de7a81461032257600080fd5b806301dbf19f1461026f57806306394c9b146102865780630ba95909146102a6578063116191b6146102ca575b600080fd5b34801561027b57600080fd5b50610284610717565b005b34801561029257600080fd5b506102846102a136600461292b565b61079b565b3480156102b257600080fd5b506007545b6040519081526020015b60405180910390f35b3480156102d657600080fd5b50600d546102ea906001600160a01b031681565b6040516001600160a01b0390911681526020016102c1565b34801561030e57600080fd5b5061028461031d366004612c35565b61083f565b34801561032e57600080fd5b506103376108a6565b6040516102c19190612fff565b34801561035057600080fd5b5061028461035f366004612c35565b61092c565b34801561037057600080fd5b5061028461037f366004612a26565b61098b565b34801561039057600080fd5b506004546102ea906001600160a01b031681565b3480156103b057600080fd5b5060408051808201909152600681527f6178656c617200000000000000000000000000000000000000000000000000006020820152610337565b3480156103f657600080fd5b506005546102ea906001600160a01b031681565b34801561041657600080fd5b5061028461042536600461292b565b610b0d565b34801561043657600080fd5b5060006040516102c19190612fd7565b34801561045257600080fd5b50610284610461366004612982565b610b86565b34801561047257600080fd5b50610337610c06565b34801561048757600080fd5b50610284610496366004612c35565b610c94565b3480156104a757600080fd5b50600a546102b7565b3480156104bc57600080fd5b506102846104cb366004612c35565b610d47565b3480156104dc57600080fd5b506102846104eb366004612c89565b610da7565b3480156104fc57600080fd5b50600b546102b7565b610284610513366004612b77565b610e44565b34801561052457600080fd5b5061028461053336600461292b565b611054565b34801561054457600080fd5b5060005461055990600160a01b900460ff1681565b60405190151581526020016102c1565b34801561057557600080fd5b5061057e6110a1565b60405160ff90911681526020016102c1565b34801561059c57600080fd5b5061033761111e565b3480156105b157600080fd5b506002546105cd90600160a01b900467ffffffffffffffff1681565b60405167ffffffffffffffff90911681526020016102c1565b3480156105f257600080fd5b506006546102b7565b34801561060757600080fd5b50610284611163565b34801561061c57600080fd5b506002546001600160a01b03166102ea565b34801561063a57600080fd5b5061028461064936600461292b565b6111db565b34801561065a57600080fd5b5061028461066936600461292b565b611228565b34801561067a57600080fd5b50610284610689366004612c67565b611275565b34801561069a57600080fd5b506102846106a9366004612948565b611308565b3480156106ba57600080fd5b506000546102ea906001600160a01b031681565b3480156106da57600080fd5b50600c54600160a01b900460ff16610559565b3480156106f957600080fd5b506008546102b7565b34801561070e57600080fd5b506009546102b7565b600c546001600160a01b03163314610742576040516327e1f1e560e01b815260040160405180910390fd5b6000805460ff60a01b1916600160a01b908117918290556040517fa5ffe1601eb93a7fefd0d0eeb5fc94a2f65475f333836fe2b87fd7bbf59520699261079192900460ff161515815260200190565b60405180910390a1565b600c546001600160a01b031633146107c6576040516327e1f1e560e01b815260040160405180910390fd5b600c546001600160a01b03828116911614156107f5576040516336a1c33f60e01b815260040160405180910390fd5b600c80546001600160a01b0319166001600160a01b0383169081179091556040517f4721129e0e676ed6a92909bb24e853ccdd63ad72280cc2e974e38e480e0e6e5490600090a250565b600c546001600160a01b0316331461086a576040516327e1f1e560e01b815260040160405180910390fd5b600a8190556040518181527f14988234d3e50a12aeec2d6ee595b70c2fae163caff28baab5802b122bf2a753906020015b60405180910390a150565b600f54604080516395d89b4160e01b815290516060926001600160a01b0316916395d89b41916004808301926000929190829003018186803b1580156108eb57600080fd5b505afa1580156108ff573d6000803e3d6000fd5b505050506040513d6000823e601f3d908101601f191682016040526109279190810190612b00565b905090565b600c546001600160a01b03163314610957576040516327e1f1e560e01b815260040160405180910390fd5b60088190556040518181527e91f5f5db3092e39ecb701218d4af20b7571e0429595937c334f3acd14fe2fe9060200161089b565b6000858560405161099d929190612e22565b604051908190038120600d54631876eed960e01b83529092506001600160a01b031690631876eed9906109e4908e908e908e908e908e9089908d908d908d90600401612f78565b602060405180830381600087803b1580156109fe57600080fd5b505af1158015610a12573d6000803e3d6000fd5b505050506040513d601f19601f82011682018060405250810190610a369190612965565b610a5357604051631403112d60e21b815260040160405180910390fd5b610b008a8a8080601f01602080910402602001604051908101604052809392919081815260200183838082843760009201919091525050604080516020601f8e018190048102820181019092528c815292508c91508b908190840183828082843760009201919091525050604080516020601f8b018190048102820181019092528981528c93508b9250908a908a90819084018382808284376000920191909152508a9250611380915050565b5050505050505050505050565b600c546001600160a01b03163314610b38576040516327e1f1e560e01b815260040160405180910390fd5b600080546001600160a01b0319166001600160a01b0383169081179091556040519081527fbe1808917e09814fca7d80289a9760a4065f10d624ac1aee0b9f903c4f5d92b19060200161089b565b610bfd86868080601f01602080910402602001604051908101604052809392919081815260200183838082843760009201919091525050604080516020601f8a0181900481028201810190925288815292508891508790819084018382808284376000920191909152508792508691506113889050565b50505050505050565b60038054610c13906131d4565b80601f0160208091040260200160405190810160405280929190818152602001828054610c3f906131d4565b8015610c8c5780601f10610c6157610100808354040283529160200191610c8c565b820191906000526020600020905b815481529060010190602001808311610c6f57829003601f168201915b505050505081565b600c546001600160a01b03163314610cbf576040516327e1f1e560e01b815260040160405180910390fd5b80610d12576040516314e8955b60e21b815260206004820152601760248201527f70656572206d696e696d616c20726f6c6c75702066656500000000000000000060448201526064015b60405180910390fd5b600b8190556040518181527f878075a8e8aa1c7c15e6932752520f7812bf5744785e6df605373729da4155459060200161089b565b600c546001600160a01b03163314610d72576040516327e1f1e560e01b815260040160405180910390fd5b60098190556040518181527f88d210dfa198f7519579294721f90c771153a7b49101eefb95147037cc8ce4819060200161089b565b600c546001600160a01b03163314610dd2576040516327e1f1e560e01b815260040160405180910390fd5b600280547fffffffff0000000000000000ffffffffffffffffffffffffffffffffffffffff16600160a01b67ffffffffffffffff8616021790558151610e1f9060039060208501906127d2565b50600480546001600160a01b0319166001600160a01b03929092169190911790555050565b600c54600160a01b900460ff1615610e6f57604051630e2f42c960e31b815260040160405180910390fd5b60065481511015610e935760405163617ab12d60e11b815260040160405180910390fd5b60075481511115610eb757604051630625040160e01b815260040160405180910390fd5b6008548160a001511015610ede5760405163c4d8d00d60e01b815260040160405180910390fd5b600a548160c001511015610f05576040516355a6d6a160e11b815260040160405180910390fd5b600b548160e001511015610f2c5760405163784f02bd60e11b815260040160405180910390fd5b6000610f45826040015183600001518460600151611400565b905080826020015114610f6b576040516301bfaa2560e51b815260040160405180910390fd5b610f7433611528565b15610f9257604051632e70c0b160e01b815260040160405180910390fd5b6040805160a081018252835181526020808501519082015260c08401519181019190915260e08301516060820152608080840151908201526000610fd5826115c5565b9050610fe58460a0015182611634565b60025460e085015160c08601518651611020936001600160a01b0316929161100c9161315a565b611016919061315a565b8660a00151611761565b60208401516040517fd106eb38b3368b7c294e36fae5513fdefe880be5abfad529b37b044f2fdd2dbe90600090a250505050565b600c546001600160a01b0316331461107f576040516327e1f1e560e01b815260040160405180910390fd5b600580546001600160a01b0319166001600160a01b0392909216919091179055565b600f546040805163313ce56760e01b815290516000926001600160a01b03169163313ce567916004808301926020929190829003018186803b1580156110e657600080fd5b505afa1580156110fa573d6000803e3d6000fd5b505050506040513d601f19601f820116820180604052508101906109279190612d0a565b600f54604080516306fdde0360e01b815290516060926001600160a01b0316916306fdde03916004808301926000929190829003018186803b1580156108eb57600080fd5b600c546001600160a01b0316331461118e576040516327e1f1e560e01b815260040160405180910390fd5b6000805460ff60a01b1916908190556040517fa5ffe1601eb93a7fefd0d0eeb5fc94a2f65475f333836fe2b87fd7bbf59520699161079191600160a01b90910460ff161515815260200190565b600c546001600160a01b03163314611206576040516327e1f1e560e01b815260040160405180910390fd5b600e80546001600160a01b0319166001600160a01b0392909216919091179055565b600c546001600160a01b03163314611253576040516327e1f1e560e01b815260040160405180910390fd5b600280546001600160a01b0319166001600160a01b0392909216919091179055565b600c546001600160a01b031633146112a0576040516327e1f1e560e01b815260040160405180910390fd5b818111156112c157604051636003e82160e11b815260040160405180910390fd5b6007829055600681905560408051838152602081018390527f7633004c7a229869aeea10db4ff3e57e3b1534aeb2c9e72c5db25f965895c330910160405180910390a15050565b600c546001600160a01b03163314611333576040516327e1f1e560e01b815260040160405180910390fd5b600c8054821515600160a01b0260ff60a01b199091161790556040517fcd162c6fc24285bfbe399ec0cc2ce2c380ad27d2eb1fca418c652df1257e7e099061089b90831515815260200190565b505050505050565b60006113c983838080601f0160208091040260200160405190810160405280939291908181526020018383808284376000920191909152506117cd92505050565b6002546004549192506113f991600160a01b90910467ffffffffffffffff16906001600160a01b03163284611895565b5050505050565b60007f30644e72e131a029b85045b68181585d2833e84879b9709143e1f593f00000018085106114435760405163805f2a4960e01b815260040160405180910390fd5b80836fffffffffffffffffffffffffffffffff161061147557604051633bbde0bf60e21b815260040160405180910390fd5b60015460408051606081018252878152602081018790526fffffffffffffffffffffffffffffffff86168183015290516304b98e1d60e31b81526001600160a01b03909216916325cc70e8916114cd91600401612f47565b60206040518083038186803b1580156114e557600080fd5b505afa1580156114f9573d6000803e3d6000fd5b505050506040513d601f19601f8201168201806040525081019061151d9190612c4e565b9150505b9392505050565b60008054600160a01b900460ff1661154257506000919050565b60005460405163df592f7d60e01b81526001600160a01b0384811660048301529091169063df592f7d9060240160206040518083038186803b15801561158757600080fd5b505afa15801561159b573d6000803e3d6000fd5b505050506040513d601f19601f820116820180604052508101906115bf9190612965565b92915050565b6060806115d58360000151611982565b6115e28460200151611982565b6115ef8560400151611982565b6115fc8660600151611982565b6116098760800151611a1a565b60405160200161161d959493929190612e7d565b60408051601f198184030181529190529392505050565b60045460009061164e906001600160a01b03166014611a51565b905082156116c457600e54604051630c93e3bb60e01b81526001600160a01b0390911690630c93e3bb908590611691903090600390879089903390600401612ee8565b6000604051808303818588803b1580156116aa57600080fd5b505af11580156116be573d6000803e3d6000fd5b50505050505b7fe68d82569479581bf9793b8672c8f40b6d3ad0545719dc0579fb3ee30919d3ef6003826040516116f6929190613012565b60405180910390a1600554604051631c92115f60e01b81526001600160a01b0390911690631c92115f906117339060039085908790600401613037565b600060405180830381600087803b15801561174d57600080fd5b505af1158015610bfd573d6000803e3d6000fd5b8034146117b05760405162461bcd60e51b815260206004820152601360248201527f62726964676520666565206d69736d61746368000000000000000000000000006044820152606401610d09565b600f546117c8906001600160a01b0316338585611bfa565b505050565b6117ff6040518060a0016040528060008152602001600081526020016000815260200160008152602001606081525090565b6118316040518060a0016040528060008152602001600081526020016000815260200160008152602001606081525090565b600061183d8482611c6f565b908352905061184c8482611c6f565b602084019190915290506118608482611c6f565b604084019190915290506118748482611c6f565b606084019190915290506118888482611da0565b5060808301525092915050565b6004546001600160a01b038481169116146118c357604051631440e07960e11b815260040160405180910390fd5b60025467ffffffffffffffff858116600160a01b90920416146118f957604051633876304f60e21b815260040160405180910390fd5b80516119185760405163820bf1e560e01b815260040160405180910390fd5b6002546040516378d60cd760e01b81526001600160a01b03909116906378d60cd79061194a908490869060040161307a565b600060405180830381600087803b15801561196457600080fd5b505af1158015611978573d6000803e3d6000fd5b5050505050505050565b60606001600160ff1b038211156119db5760405162461bcd60e51b815260206004820152601b60248201527f56616c756520657863656564732075696e743235352072616e676500000000006044820152606401610d09565b60405160208082526000601f5b82821015611a0a5785811a8260208601015360019190910190600019016119e8565b5050506040818101905292915050565b8051606090611a2881611ead565b83604051602001611a3a929190612e4e565b604051602081830303815290604052915050919050565b60606000611a60836002613172565b611a6b90600261315a565b67ffffffffffffffff811115611a8357611a8361323b565b6040519080825280601f01601f191660200182016040528015611aad576020820181803683370190505b509050600360fc1b81600081518110611ac857611ac8613225565b60200101906001600160f81b031916908160001a905350600f60fb1b81600181518110611af757611af7613225565b60200101906001600160f81b031916908160001a9053506000611b1b846002613172565b611b2690600161315a565b90505b6001811115611bab577f303132333435363738396162636465660000000000000000000000000000000085600f1660108110611b6757611b67613225565b1a60f81b828281518110611b7d57611b7d613225565b60200101906001600160f81b031916908160001a90535060049490941c93611ba4816131bd565b9050611b29565b5083156115215760405162461bcd60e51b815260206004820181905260248201527f537472696e67733a20686578206c656e67746820696e73756666696369656e746044820152606401610d09565b604080516001600160a01b0385811660248301528416604482015260648082018490528251808303909101815260849091019091526020810180517bffffffffffffffffffffffffffffffffffffffffffffffffffffffff166323b872dd60e01b179052611c69908590611f7a565b50505050565b6000808351836020611c81919061315a565b11158015611c985750611c9583602061315a565b83105b611cf05760405162461bcd60e51b815260206004820152602360248201527f4e65787455696e743235352c206f66667365742065786365656473206d6178696044820152626d756d60e81b6064820152608401610d09565b600060405160206000600182038760208a0101515b83831015611d255780821a83860153600183019250600182039150611d05565b50505081016040525190506001600160ff1b03811115611d875760405162461bcd60e51b815260206004820152601760248201527f56616c75652065786365656473207468652072616e67650000000000000000006044820152606401610d09565b80611d9385602061315a565b92509250505b9250929050565b6060600080611daf858561205f565b8651909550909150611dc1828661315a565b11158015611dd75750611dd4818561315a565b84105b611e2f5760405162461bcd60e51b8152602060048201526024808201527f4e65787456617242797465732c206f66667365742065786365656473206d6178604482015263696d756d60e01b6064820152608401610d09565b606081158015611e4a57604051915060208201604052611e94565b6040519150601f8316801560200281840101848101888315602002848c0101015b81831015611e83578051835260209283019201611e6b565b5050848452601f01601f1916604052505b5080611ea0838761315a565b9350935050509250929050565b606060fd8267ffffffffffffffff161015611ee057604080516001815260f884901b6020820152602181019091526115bf565b61ffff8267ffffffffffffffff1611611f3057611f0060fd60f81b612265565b611f098361228c565b604051602001611f1a929190612e4e565b6040516020818303038152906040529050919050565b63ffffffff8267ffffffffffffffff1611611f5b57611f52607f60f91b612265565b611f09836122cf565b611f6c6001600160f81b0319612265565b611f0983612312565b919050565b6000611fcf826040518060400160405280602081526020017f5361666545524332303a206c6f772d6c6576656c2063616c6c206661696c6564815250856001600160a01b03166123559092919063ffffffff16565b8051909150156117c85780806020019051810190611fed9190612965565b6117c85760405162461bcd60e51b815260206004820152602a60248201527f5361666545524332303a204552433230206f7065726174696f6e20646964206e60448201527f6f742073756363656564000000000000000000000000000000000000000000006064820152608401610d09565b600080600061206e858561236c565b94509050600060fd60f81b6001600160f81b0319831614156121075761209486866123f4565b955061ffff16905060fd81108015906120af575061ffff8111155b6120fb5760405162461bcd60e51b815260206004820152601f60248201527f4e65787455696e7431362c2076616c7565206f7574736964652072616e6765006044820152606401610d09565b9250839150611d999050565b607f60f91b6001600160f81b0319831614156121925761212786866124ad565b955063ffffffff16905061ffff81118015612146575063ffffffff8111155b6120fb5760405162461bcd60e51b815260206004820181905260248201527f4e65787456617255696e742c2076616c7565206f7574736964652072616e67656044820152606401610d09565b6001600160f81b0319808316141561220f576121ae868661257f565b955067ffffffffffffffff16905063ffffffff81116120fb5760405162461bcd60e51b815260206004820181905260248201527f4e65787456617255696e742c2076616c7565206f7574736964652072616e67656044820152606401610d09565b5060f881901c60fd81106120fb5760405162461bcd60e51b815260206004820181905260248201527f4e65787456617255696e742c2076616c7565206f7574736964652072616e67656044820152606401610d09565b60408051600181526001600160f81b031983166020820152602181019091526060906115bf565b6040516002808252606091906000601f5b828210156122bf5785811a82602086010153600191909101906000190161229d565b5050506022810160405292915050565b6040516004808252606091906000601f5b828210156123025785811a8260208601015360019190910190600019016122e0565b5050506024810160405292915050565b6040516008808252606091906000601f5b828210156123455785811a826020860101536001919091019060001901612323565b5050506028810160405292915050565b60606123648484600085612651565b949350505050565b600080835183600161237e919061315a565b11158015612395575061239283600161315a565b83105b6123e15760405162461bcd60e51b815260206004820181905260248201527f4e657874427974652c204f66667365742065786365656473206d6178696d756d6044820152606401610d09565b8383016020015180611d9385600161315a565b6000808351836002612406919061315a565b1115801561241d575061241a83600261315a565b83105b6124745760405162461bcd60e51b815260206004820152602260248201527f4e65787455696e7431362c206f66667365742065786365656473206d6178696d604482015261756d60f01b6064820152608401610d09565b6000604051846020870101518060011a82538060001a60018301535060028101604052601e81035191505080846002611d93919061315a565b60008083518360046124bf919061315a565b111580156124d657506124d383600461315a565b83105b61252d5760405162461bcd60e51b815260206004820152602260248201527f4e65787455696e7433322c206f66667365742065786365656473206d6178696d604482015261756d60f01b6064820152608401610d09565b600060405160046000600182038760208a0101515b838310156125625780821a83860153600183019250600182039150612542565b505050818101604052602003900351905080611d9385600461315a565b6000808351836008612591919061315a565b111580156125a857506125a583600861315a565b83105b6125ff5760405162461bcd60e51b815260206004820152602260248201527f4e65787455696e7436342c206f66667365742065786365656473206d6178696d604482015261756d60f01b6064820152608401610d09565b600060405160086000600182038760208a0101515b838310156126345780821a83860153600183019250600182039150612614565b505050818101604052602003900351905080611d9385600861315a565b6060824710156126c95760405162461bcd60e51b815260206004820152602660248201527f416464726573733a20696e73756666696369656e742062616c616e636520666f60448201527f722063616c6c00000000000000000000000000000000000000000000000000006064820152608401610d09565b6001600160a01b0385163b6127205760405162461bcd60e51b815260206004820152601d60248201527f416464726573733a2063616c6c20746f206e6f6e2d636f6e74726163740000006044820152606401610d09565b600080866001600160a01b0316858760405161273c9190612e32565b60006040518083038185875af1925050503d8060008114612779576040519150601f19603f3d011682016040523d82523d6000602084013e61277e565b606091505b509150915061278e828286612799565b979650505050505050565b606083156127a8575081611521565b8251156127b85782518084602001fd5b8160405162461bcd60e51b8152600401610d099190612fff565b8280546127de906131d4565b90600052602060002090601f0160209004810192826128005760008555612846565b82601f1061281957805160ff1916838001178555612846565b82800160010185558215612846579182015b8281111561284657825182559160200191906001019061282b565b50612852929150612856565b5090565b5b808211156128525760008155600101612857565b600061287e61287984613132565b613101565b905082815283838301111561289257600080fd5b828260208301376000602084830101529392505050565b60008083601f8401126128bb57600080fd5b50813567ffffffffffffffff8111156128d357600080fd5b602083019150836020828501011115611d9957600080fd5b600082601f8301126128fc57600080fd5b6115218383356020850161286b565b80356fffffffffffffffffffffffffffffffff81168114611f7557600080fd5b60006020828403121561293d57600080fd5b813561152181613251565b60006020828403121561295a57600080fd5b813561152181613269565b60006020828403121561297757600080fd5b815161152181613269565b60008060008060008060006080888a03121561299d57600080fd5b87359650602088013567ffffffffffffffff808211156129bc57600080fd5b6129c88b838c016128a9565b909850965060408a01359150808211156129e157600080fd5b6129ed8b838c016128a9565b909650945060608a0135915080821115612a0657600080fd5b50612a138a828b016128a9565b989b979a50959850939692959293505050565b60008060008060008060008060008060c08b8d031215612a4557600080fd5b8a35995060208b013567ffffffffffffffff80821115612a6457600080fd5b612a708e838f016128a9565b909b50995060408d0135915080821115612a8957600080fd5b612a958e838f016128a9565b909950975060608d0135915080821115612aae57600080fd5b612aba8e838f016128a9565b909750955060808d0135915080821115612ad357600080fd5b50612ae08d828e016128a9565b9150809450508092505060a08b013590509295989b9194979a5092959850565b600060208284031215612b1257600080fd5b815167ffffffffffffffff811115612b2957600080fd5b8201601f81018413612b3a57600080fd5b8051612b4861287982613132565b818152856020838501011115612b5d57600080fd5b612b6e826020830160208601613191565b95945050505050565b600060208284031215612b8957600080fd5b813567ffffffffffffffff80821115612ba157600080fd5b908301906101008286031215612bb657600080fd5b612bbe6130d7565b823581526020830135602082015260408301356040820152612be26060840161290b565b6060820152608083013582811115612bf957600080fd5b612c05878286016128eb565b60808301525060a083013560a082015260c083013560c082015260e083013560e082015280935050505092915050565b600060208284031215612c4757600080fd5b5035919050565b600060208284031215612c6057600080fd5b5051919050565b60008060408385031215612c7a57600080fd5b50508035926020909101359150565b600080600060608486031215612c9e57600080fd5b833567ffffffffffffffff8082168214612cb757600080fd5b90935060208501359080821115612ccd57600080fd5b508401601f81018613612cdf57600080fd5b612cee8682356020840161286b565b9250506040840135612cff81613251565b809150509250925092565b600060208284031215612d1c57600080fd5b815160ff8116811461152157600080fd5b60008151808452612d45816020860160208601613191565b601f01601f19169290920160200192915050565b81835281816020850137506000828201602090810191909152601f909101601f19169091010190565b8054600090600181811c9080831680612d9c57607f831692505b6020808410821415612dbe57634e487b7160e01b600052602260045260246000fd5b83885260208801828015612dd95760018114612dea57612e15565b60ff19871682528282019750612e15565b60008981526020902060005b87811015612e0f57815484820152908601908401612df6565b83019850505b5050505050505092915050565b8183823760009101908152919050565b60008251612e44818460208701613191565b9190910192915050565b60008351612e60818460208801613191565b835190830190612e74818360208801613191565b01949350505050565b60008651612e8f818460208b01613191565b865190830190612ea3818360208b01613191565b8651910190612eb6818360208a01613191565b8551910190612ec9818360208901613191565b8451910190612edc818360208801613191565b01979650505050505050565b60006001600160a01b03808816835260a06020840152612f0b60a0840188612d82565b8381036040850152612f1d8188612d2d565b90508381036060850152612f318187612d2d565b9250508084166080840152509695505050505050565b60608101818360005b6003811015612f6f578151835260209283019290910190600101612f50565b50505092915050565b89815260c060208201526000612f9260c083018a8c612d59565b8281036040840152612fa581898b612d59565b90508660608401528281036080840152612fc0818688612d59565b9150508260a08301529a9950505050505050505050565b6020810160028310612ff957634e487b7160e01b600052602160045260246000fd5b91905290565b6020815260006115216020830184612d2d565b6040815260006130256040830185612d82565b828103602084015261151d8185612d2d565b60608152600061304a6060830186612d82565b828103602084015261305c8186612d2d565b905082810360408401526130708185612d2d565b9695505050505050565b60408152825160408201526020830151606082015260408301516080820152606083015160a08201526000608084015160a060c08401526130be60e0840182612d2d565b9150506001600160a01b03831660208301529392505050565b604051610100810167ffffffffffffffff811182821017156130fb576130fb61323b565b60405290565b604051601f8201601f1916810167ffffffffffffffff8111828210171561312a5761312a61323b565b604052919050565b600067ffffffffffffffff82111561314c5761314c61323b565b50601f01601f191660200190565b6000821982111561316d5761316d61320f565b500190565b600081600019048311821515161561318c5761318c61320f565b500290565b60005b838110156131ac578181015183820152602001613194565b83811115611c695750506000910152565b6000816131cc576131cc61320f565b506000190190565b600181811c908216806131e857607f821691505b6020821081141561320957634e487b7160e01b600052602260045260246000fd5b50919050565b634e487b7160e01b600052601160045260246000fd5b634e487b7160e01b600052603260045260246000fd5b634e487b7160e01b600052604160045260246000fd5b6001600160a01b038116811461326657600080fd5b50565b801515811461326657600080fdfea2646970667358221220b0982901f4d410ddd53eefb58c8212bdf4fe92c76357250ce942bd436faf89d564736f6c63430008070033",
  "linkReferences": {},
  "deployedLinkReferences": {}
}