{
  "_format": "hh-sol-artifact-1",
  "contractName": "MystikoV2LoopMain",
  "sourceName": "contracts/core/deposit/loop/MystikoV2LoopMain.sol",
  "abi": [
    {
      "inputs": [
        {
          "internalType": "contract IHasher3",
          "name": "_hasher3",
          "type": "address"
        },
        {
          "internalType": "address",
          "name": "_settingsCenter",
          "type": "address"
        },
        {
          "components": [
            {
              "internalType": "uint256",
              "name": "minAmount",
              "type": "uint256"
            },
            {
              "internalType": "uint256",
              "name": "maxAmount",
              "type": "uint256"
            }
          ],
          "internalType": "struct IMystikoLoop.LocalConfig",
          "name": "_localConfig",
          "type": "tuple"
        }
      ],
      "stateMutability": "nonpayable",
      "type": "constructor"
    },
    {
      "inputs": [],
      "name": "AmountTooLarge",
      "type": "error"
    },
    {
      "inputs": [],
      "name": "AmountTooSmall",
      "type": "error"
    },
    {
      "inputs": [],
      "name": "AssociatedPoolNotSet",
      "type": "error"
    },
    {
      "inputs": [],
      "name": "CertificateInvalid",
      "type": "error"
    },
    {
      "inputs": [],
      "name": "CommitmentHashIncorrect",
      "type": "error"
    },
    {
      "inputs": [],
      "name": "DepositsDisabled",
      "type": "error"
    },
    {
      "inputs": [],
      "name": "HashKGreaterThanFieldSize",
      "type": "error"
    },
    {
      "inputs": [],
      "name": "NotSupport",
      "type": "error"
    },
    {
      "inputs": [],
      "name": "RandomSGreaterThanFieldSize",
      "type": "error"
    },
    {
      "inputs": [],
      "name": "SanctionedAddress",
      "type": "error"
    },
    {
      "inputs": [],
      "name": "assetAddress",
      "outputs": [
        {
          "internalType": "address",
          "name": "",
          "type": "address"
        }
      ],
      "stateMutability": "pure",
      "type": "function"
    },
    {
      "inputs": [],
      "name": "assetType",
      "outputs": [
        {
          "internalType": "enum AssetPool.AssetType",
          "name": "",
          "type": "uint8"
        }
      ],
      "stateMutability": "pure",
      "type": "function"
    },
    {
      "inputs": [],
      "name": "bridgeType",
      "outputs": [
        {
          "internalType": "string",
          "name": "",
          "type": "string"
        }
      ],
      "stateMutability": "pure",
      "type": "function"
    },
    {
      "inputs": [
        {
          "components": [
            {
              "internalType": "uint256",
              "name": "amount",
              "type": "uint256"
            },
            {
              "internalType": "uint256",
              "name": "commitment",
              "type": "uint256"
            },
            {
              "internalType": "uint256",
              "name": "hashK",
              "type": "uint256"
            },
            {
              "internalType": "uint128",
              "name": "randomS",
              "type": "uint128"
            },
            {
              "internalType": "bytes",
              "name": "encryptedNote",
              "type": "bytes"
            },
            {
              "internalType": "uint256",
              "name": "rollupFee",
              "type": "uint256"
            }
          ],
          "internalType": "struct IMystikoLoop.DepositRequest",
          "name": "_request",
          "type": "tuple"
        },
        {
          "internalType": "uint256",
          "name": "_certificateDeadline",
          "type": "uint256"
        },
        {
          "internalType": "bytes",
          "name": "_certificateSignature",
          "type": "bytes"
        }
      ],
      "name": "certDeposit",
      "outputs": [],
      "stateMutability": "payable",
      "type": "function"
    },
    {
      "inputs": [
        {
          "components": [
            {
              "internalType": "uint256",
              "name": "amount",
              "type": "uint256"
            },
            {
              "internalType": "uint256",
              "name": "commitment",
              "type": "uint256"
            },
            {
              "internalType": "uint256",
              "name": "hashK",
              "type": "uint256"
            },
            {
              "internalType": "uint128",
              "name": "randomS",
              "type": "uint128"
            },
            {
              "internalType": "bytes",
              "name": "encryptedNote",
              "type": "bytes"
            },
            {
              "internalType": "uint256",
              "name": "rollupFee",
              "type": "uint256"
            }
          ],
          "internalType": "struct IMystikoLoop.DepositRequest",
          "name": "_request",
          "type": "tuple"
        }
      ],
      "name": "deposit",
      "outputs": [],
      "stateMutability": "payable",
      "type": "function"
    },
    {
      "inputs": [],
      "name": "getAssociatedCommitmentPool",
      "outputs": [
        {
          "internalType": "address",
          "name": "",
          "type": "address"
        }
      ],
      "stateMutability": "view",
      "type": "function"
    },
    {
      "inputs": [],
      "name": "getMaxAmount",
      "outputs": [
        {
          "internalType": "uint256",
          "name": "",
          "type": "uint256"
        }
      ],
      "stateMutability": "view",
      "type": "function"
    },
    {
      "inputs": [],
      "name": "getMinAmount",
      "outputs": [
        {
          "internalType": "uint256",
          "name": "",
          "type": "uint256"
        }
      ],
      "stateMutability": "view",
      "type": "function"
    },
    {
      "inputs": [],
      "name": "isDepositsDisabled",
      "outputs": [
        {
          "internalType": "bool",
          "name": "",
          "type": "bool"
        }
      ],
      "stateMutability": "view",
      "type": "function"
    },
    {
      "inputs": [],
      "name": "settings",
      "outputs": [
        {
          "internalType": "contract MystikoSettings",
          "name": "",
          "type": "address"
        }
      ],
      "stateMutability": "view",
      "type": "function"
    }
  ],
  "bytecode": "0x608060405234801561001057600080fd5b50604051610f63380380610f6383398101604081905261002f91610086565b600080546001600160a01b039485166001600160a01b03199182161790915581516001556020909101516002556003805492909316911617905561011a565b6001600160a01b038116811461008357600080fd5b50565b6000806000838503608081121561009c57600080fd5b84516100a78161006e565b60208601519094506100b88161006e565b92506040603f19820112156100cc57600080fd5b50604080519081016001600160401b03811182821017156100fd57634e487b7160e01b600052604160045260246000fd5b604090815285015181526060909401516020850152509093909250565b610e3a806101296000396000f3fe6080604052600436106100b15760003560e01c8063cfc7e2da11610069578063e06174e41161004e578063e06174e414610194578063ed6ea33a146101b4578063f6afe88f146101d957600080fd5b8063cfc7e2da1461016a578063ddac5dc11461017f57600080fd5b80632421e1551161009a5780632421e155146101065780633c245a6f146101395780633fe3347a1461014e57600080fd5b80630ba95909146100b65780631ba46cfd146100de575b600080fd5b3480156100c257600080fd5b506100cb6101ec565b6040519081526020015b60405180910390f35b3480156100ea57600080fd5b5060005b6040516001600160a01b0390911681526020016100d5565b34801561011257600080fd5b50604080518082018252600481526306c6f6f760e41b602082015290516100d59190610a47565b61014c610147366004610bc9565b610275565b005b34801561015a57600080fd5b5060016040516100d59190610c3b565b34801561017657600080fd5b506100cb610580565b34801561018b57600080fd5b506100ee610607565b3480156101a057600080fd5b506003546100ee906001600160a01b031681565b3480156101c057600080fd5b506101c96106a6565b60405190151581526020016100d5565b61014c6101e7366004610c63565b610718565b60035460405163473a063160e01b815230600482015260009182916001600160a01b039091169063473a063190602401602060405180830381865afa158015610239573d6000803e3d6000fd5b505050506040513d601f19601f8201168201806040525081019061025d9190610ca0565b9050801561026b578061026f565b6002545b91505090565b60035460405163bb07320560e01b81523060048201526001600160a01b039091169063bb07320590602401602060405180830381865afa1580156102bd573d6000803e3d6000fd5b505050506040513d601f19601f820116820180604052508101906102e19190610cb9565b156102ff57604051630e2f42c960e31b815260040160405180910390fd5b600360009054906101000a90046001600160a01b03166001600160a01b031663bc5877066040518163ffffffff1660e01b8152600401602060405180830381865afa158015610352573d6000803e3d6000fd5b505050506040513d601f19601f820116820180604052508101906103769190610cb9565b156104435760006040518060800160405280326001600160a01b0316815260200161039f600090565b6001600160a01b039081168252602082018690526040918201859052600354915163849e8b9f60e01b8152929350169063849e8b9f906103e3908490600401610cdb565b602060405180830381865afa158015610400573d6000803e3d6000fd5b505050506040513d601f19601f820116820180604052508101906104249190610cb9565b61044157604051633042041f60e21b815260040160405180910390fd5b505b61044b610580565b8351101561046c5760405163617ab12d60e11b815260040160405180910390fd5b6104746101ec565b8351111561049557604051630625040160e01b815260040160405180910390fd5b60006104ae846040015185600001518660600151610731565b9050808460200151146104d4576040516301bfaa2560e51b815260040160405180910390fd5b60035460405163df592f7d60e01b81523260048201526001600160a01b039091169063df592f7d90602401602060405180830381865afa15801561051c573d6000803e3d6000fd5b505050506040513d601f19601f820116820180604052508101906105409190610cb9565b1561055e57604051632e70c0b160e01b815260040160405180910390fd5b61057a846000015185602001518660a001518760800151610848565b50505050565b600354604051635525984960e01b815230600482015260009182916001600160a01b0390911690635525984990602401602060405180830381865afa1580156105cd573d6000803e3d6000fd5b505050506040513d601f19601f820116820180604052508101906105f19190610ca0565b905080156105ff578061026f565b505060015490565b6003546040516341fb697960e01b815230600482015260009182916001600160a01b03909116906341fb697990602401602060405180830381865afa158015610654573d6000803e3d6000fd5b505050506040513d601f19601f820116820180604052508101906106789190610d26565b90506001600160a01b0381166106a1576040516306f3d63360e51b815260040160405180910390fd5b919050565b60035460405163bb07320560e01b81523060048201526000916001600160a01b03169063bb07320590602401602060405180830381865afa1580156106ef573d6000803e3d6000fd5b505050506040513d601f19601f820116820180604052508101906107139190610cb9565b905090565b60405163e7a24ff960e01b815260040160405180910390fd5b60007f30644e72e131a029b85045b68181585d2833e84879b9709143e1f593f00000018085106107745760405163805f2a4960e01b815260040160405180910390fd5b80836fffffffffffffffffffffffffffffffff16106107a657604051633bbde0bf60e21b815260040160405180910390fd5b60005460408051606081018252878152602081018790526fffffffffffffffffffffffffffffffff86168183015290516304b98e1d60e31b81526001600160a01b03909216916325cc70e8916107fe91600401610d4f565b602060405180830381865afa15801561081b573d6000803e3d6000fd5b505050506040513d601f19601f8201168201806040525081019061083f9190610ca0565b95945050505050565b60006040518060a0016040528086815260200185815260200160008152602001848152602001838152509050600061087e610607565b6040516378d60cd760e01b81529091506001600160a01b038216906378d60cd7906108b0908590600090600401610d80565b600060405180830381600087803b1580156108ca57600080fd5b505af11580156108de573d6000803e3d6000fd5b505050506108f98185886108f29190610ddd565b6000610901565b505050505050565b61090b8183610ddd565b341461095e5760405162461bcd60e51b815260206004820152601260248201527f696e73756666696369656e7420746f6b656e000000000000000000000000000060448201526064015b60405180910390fd5b6000836001600160a01b03168360405160006040518083038185875af1925050503d80600081146109ab576040519150601f19603f3d011682016040523d82523d6000602084013e6109b0565b606091505b505090508061057a5760405162461bcd60e51b815260206004820152601660248201527f616d6f756e74207472616e73666572206661696c6564000000000000000000006044820152606401610955565b6000815180845260005b81811015610a2757602081850181015186830182015201610a0b565b506000602082860101526020601f19601f83011685010191505092915050565b602081526000610a5a6020830184610a01565b9392505050565b634e487b7160e01b600052604160045260246000fd5b60405160c0810167ffffffffffffffff81118282101715610a9a57610a9a610a61565b60405290565b600082601f830112610ab157600080fd5b813567ffffffffffffffff811115610acb57610acb610a61565b604051601f8201601f19908116603f0116810167ffffffffffffffff81118282101715610afa57610afa610a61565b604052818152838201602001851015610b1257600080fd5b816020850160208301376000918101602001919091529392505050565b600060c08284031215610b4157600080fd5b610b49610a77565b823581526020808401359082015260408084013590820152905060608201356fffffffffffffffffffffffffffffffff81168114610b8657600080fd5b6060820152608082013567ffffffffffffffff811115610ba557600080fd5b610bb184828501610aa0565b60808301525060a09182013591810191909152919050565b600080600060608486031215610bde57600080fd5b833567ffffffffffffffff811115610bf557600080fd5b610c0186828701610b2f565b93505060208401359150604084013567ffffffffffffffff811115610c2557600080fd5b610c3186828701610aa0565b9150509250925092565b6020810160028310610c5d57634e487b7160e01b600052602160045260246000fd5b91905290565b600060208284031215610c7557600080fd5b813567ffffffffffffffff811115610c8c57600080fd5b610c9884828501610b2f565b949350505050565b600060208284031215610cb257600080fd5b5051919050565b600060208284031215610ccb57600080fd5b81518015158114610a5a57600080fd5b602081526001600160a01b0382511660208201526001600160a01b0360208301511660408201526040820151606082015260006060830151608080840152610c9860a0840182610a01565b600060208284031215610d3857600080fd5b81516001600160a01b0381168114610a5a57600080fd5b60608101818360005b6003811015610d77578151835260209283019290910190600101610d58565b50505092915050565b60408152825160408201526020830151606082015260408301516080820152606083015160a08201526000608084015160a060c0840152610dc460e0840182610a01565b9150506001600160a01b03831660208301529392505050565b80820180821115610dfe57634e487b7160e01b600052601160045260246000fd5b9291505056fea2646970667358221220611d371b450d8941bbc6987319e4dd4b5f9d7799659c5ba53eadcde451f5606b64736f6c634300081a0033",
  "linkReferences": {},
  "deployedLinkReferences": {}
}