{
  "_format": "hh-sol-artifact-1",
  "contractName": "MystikoV2LayerZeroERC20",
  "sourceName": "contracts/core/deposit/layerzero/MystikoV2LayerZeroERC20.sol",
  "abi": [
    {
      "inputs": [
        {
          "internalType": "contract IHasher3",
          "name": "_hasher3",
          "type": "address"
        },
        {
          "internalType": "contract IERC20Metadata",
          "name": "_token",
          "type": "address"
        }
      ],
      "stateMutability": "nonpayable",
      "type": "constructor"
    },
    {
      "inputs": [],
      "name": "AmountLessThanZero",
      "type": "error"
    },
    {
      "inputs": [],
      "name": "AmountTooLarge",
      "type": "error"
    },
    {
      "inputs": [],
      "name": "AmountTooSmall",
      "type": "error"
    },
    {
      "inputs": [],
      "name": "BridgeFeeTooFew",
      "type": "error"
    },
    {
      "inputs": [],
      "name": "CallIsNotLzApp",
      "type": "error"
    },
    {
      "inputs": [],
      "name": "CommitmentHashIncorrect",
      "type": "error"
    },
    {
      "inputs": [],
      "name": "DepositsDisabled",
      "type": "error"
    },
    {
      "inputs": [],
      "name": "DestinationChainIsNotTrusted",
      "type": "error"
    },
    {
      "inputs": [],
      "name": "ExecutorFeeTooFew",
      "type": "error"
    },
    {
      "inputs": [],
      "name": "FromChainIdNotMatched",
      "type": "error"
    },
    {
      "inputs": [],
      "name": "FromProxyAddressNotMatched",
      "type": "error"
    },
    {
      "inputs": [],
      "name": "HashKGreaterThanFieldSize",
      "type": "error"
    },
    {
      "inputs": [
        {
          "internalType": "string",
          "name": "param",
          "type": "string"
        }
      ],
      "name": "Invalid",
      "type": "error"
    },
    {
      "inputs": [],
      "name": "MinAmountGreaterThanMaxAmount",
      "type": "error"
    },
    {
      "inputs": [],
      "name": "NoStoredMessage",
      "type": "error"
    },
    {
      "inputs": [],
      "name": "NotChanged",
      "type": "error"
    },
    {
      "inputs": [],
      "name": "OnlyOperator",
      "type": "error"
    },
    {
      "inputs": [],
      "name": "RandomSGreaterThanFieldSize",
      "type": "error"
    },
    {
      "inputs": [],
      "name": "RollupFeeToFew",
      "type": "error"
    },
    {
      "inputs": [],
      "name": "SanctionedAddress",
      "type": "error"
    },
    {
      "anonymous": false,
      "inputs": [
        {
          "indexed": true,
          "internalType": "uint256",
          "name": "commitment",
          "type": "uint256"
        }
      ],
      "name": "CommitmentCrossChain",
      "type": "event"
    },
    {
      "anonymous": false,
      "inputs": [
        {
          "indexed": false,
          "internalType": "uint256",
          "name": "maxAmount",
          "type": "uint256"
        },
        {
          "indexed": false,
          "internalType": "uint256",
          "name": "minAmount",
          "type": "uint256"
        }
      ],
      "name": "DepositAmountLimits",
      "type": "event"
    },
    {
      "anonymous": false,
      "inputs": [
        {
          "indexed": false,
          "internalType": "bool",
          "name": "state",
          "type": "bool"
        }
      ],
      "name": "DepositsDisabled",
      "type": "event"
    },
    {
      "anonymous": false,
      "inputs": [
        {
          "indexed": false,
          "internalType": "uint16",
          "name": "_srcChainId",
          "type": "uint16"
        },
        {
          "indexed": false,
          "internalType": "bytes",
          "name": "_srcAddress",
          "type": "bytes"
        },
        {
          "indexed": false,
          "internalType": "uint64",
          "name": "_nonce",
          "type": "uint64"
        },
        {
          "indexed": false,
          "internalType": "bytes",
          "name": "_payload",
          "type": "bytes"
        }
      ],
      "name": "MessageFailed",
      "type": "event"
    },
    {
      "anonymous": false,
      "inputs": [
        {
          "indexed": false,
          "internalType": "uint256",
          "name": "minBridgeFee",
          "type": "uint256"
        }
      ],
      "name": "MinBridgeFee",
      "type": "event"
    },
    {
      "anonymous": false,
      "inputs": [
        {
          "indexed": false,
          "internalType": "uint256",
          "name": "minExecutorFee",
          "type": "uint256"
        }
      ],
      "name": "MinExecutorFee",
      "type": "event"
    },
    {
      "anonymous": false,
      "inputs": [
        {
          "indexed": true,
          "internalType": "address",
          "name": "operator",
          "type": "address"
        }
      ],
      "name": "OperatorChanged",
      "type": "event"
    },
    {
      "anonymous": false,
      "inputs": [
        {
          "indexed": true,
          "internalType": "address",
          "name": "previousOwner",
          "type": "address"
        },
        {
          "indexed": true,
          "internalType": "address",
          "name": "newOwner",
          "type": "address"
        }
      ],
      "name": "OwnershipTransferred",
      "type": "event"
    },
    {
      "anonymous": false,
      "inputs": [
        {
          "indexed": false,
          "internalType": "uint256",
          "name": "peerMinExecutorFee",
          "type": "uint256"
        }
      ],
      "name": "PeerMinExecutorFee",
      "type": "event"
    },
    {
      "anonymous": false,
      "inputs": [
        {
          "indexed": false,
          "internalType": "uint256",
          "name": "peerMinRollupFee",
          "type": "uint256"
        }
      ],
      "name": "PeerMinRollupFee",
      "type": "event"
    },
    {
      "anonymous": false,
      "inputs": [
        {
          "indexed": false,
          "internalType": "bool",
          "name": "state",
          "type": "bool"
        }
      ],
      "name": "SanctionsCheck",
      "type": "event"
    },
    {
      "anonymous": false,
      "inputs": [
        {
          "indexed": false,
          "internalType": "contract ISanctionsList",
          "name": "sanctions",
          "type": "address"
        }
      ],
      "name": "SanctionsList",
      "type": "event"
    },
    {
      "anonymous": false,
      "inputs": [
        {
          "indexed": false,
          "internalType": "uint16",
          "name": "_srcChainId",
          "type": "uint16"
        },
        {
          "indexed": false,
          "internalType": "bytes",
          "name": "_srcAddress",
          "type": "bytes"
        }
      ],
      "name": "SetTrustedRemote",
      "type": "event"
    },
    {
      "inputs": [],
      "name": "assetDecimals",
      "outputs": [
        {
          "internalType": "uint8",
          "name": "",
          "type": "uint8"
        }
      ],
      "stateMutability": "view",
      "type": "function"
    },
    {
      "inputs": [],
      "name": "assetName",
      "outputs": [
        {
          "internalType": "string",
          "name": "",
          "type": "string"
        }
      ],
      "stateMutability": "view",
      "type": "function"
    },
    {
      "inputs": [],
      "name": "assetSymbol",
      "outputs": [
        {
          "internalType": "string",
          "name": "",
          "type": "string"
        }
      ],
      "stateMutability": "view",
      "type": "function"
    },
    {
      "inputs": [],
      "name": "assetType",
      "outputs": [
        {
          "internalType": "enum AssetPool.AssetType",
          "name": "",
          "type": "uint8"
        }
      ],
      "stateMutability": "pure",
      "type": "function"
    },
    {
      "inputs": [],
      "name": "bridgeProxyAddress",
      "outputs": [
        {
          "internalType": "address",
          "name": "",
          "type": "address"
        }
      ],
      "stateMutability": "view",
      "type": "function"
    },
    {
      "inputs": [],
      "name": "bridgeType",
      "outputs": [
        {
          "internalType": "string",
          "name": "",
          "type": "string"
        }
      ],
      "stateMutability": "pure",
      "type": "function"
    },
    {
      "inputs": [
        {
          "internalType": "address",
          "name": "_newOperator",
          "type": "address"
        }
      ],
      "name": "changeOperator",
      "outputs": [],
      "stateMutability": "nonpayable",
      "type": "function"
    },
    {
      "inputs": [
        {
          "components": [
            {
              "internalType": "uint256",
              "name": "amount",
              "type": "uint256"
            },
            {
              "internalType": "uint256",
              "name": "commitment",
              "type": "uint256"
            },
            {
              "internalType": "uint256",
              "name": "hashK",
              "type": "uint256"
            },
            {
              "internalType": "uint128",
              "name": "randomS",
              "type": "uint128"
            },
            {
              "internalType": "bytes",
              "name": "encryptedNote",
              "type": "bytes"
            },
            {
              "internalType": "uint256",
              "name": "bridgeFee",
              "type": "uint256"
            },
            {
              "internalType": "uint256",
              "name": "executorFee",
              "type": "uint256"
            },
            {
              "internalType": "uint256",
              "name": "rollupFee",
              "type": "uint256"
            }
          ],
          "internalType": "struct IMystikoBridge.DepositRequest",
          "name": "_request",
          "type": "tuple"
        }
      ],
      "name": "deposit",
      "outputs": [],
      "stateMutability": "payable",
      "type": "function"
    },
    {
      "inputs": [],
      "name": "disableSanctionsCheck",
      "outputs": [],
      "stateMutability": "nonpayable",
      "type": "function"
    },
    {
      "inputs": [],
      "name": "enableSanctionsCheck",
      "outputs": [],
      "stateMutability": "nonpayable",
      "type": "function"
    },
    {
      "inputs": [
        {
          "internalType": "uint16",
          "name": "",
          "type": "uint16"
        },
        {
          "internalType": "bytes",
          "name": "",
          "type": "bytes"
        },
        {
          "internalType": "uint64",
          "name": "",
          "type": "uint64"
        }
      ],
      "name": "failedMessages",
      "outputs": [
        {
          "internalType": "bytes32",
          "name": "",
          "type": "bytes32"
        }
      ],
      "stateMutability": "view",
      "type": "function"
    },
    {
      "inputs": [
        {
          "internalType": "uint16",
          "name": "_srcChainId",
          "type": "uint16"
        },
        {
          "internalType": "bytes",
          "name": "_srcAddress",
          "type": "bytes"
        }
      ],
      "name": "forceResumeReceive",
      "outputs": [],
      "stateMutability": "nonpayable",
      "type": "function"
    },
    {
      "inputs": [],
      "name": "getAssociatedCommitmentPool",
      "outputs": [
        {
          "internalType": "address",
          "name": "",
          "type": "address"
        }
      ],
      "stateMutability": "view",
      "type": "function"
    },
    {
      "inputs": [
        {
          "internalType": "uint16",
          "name": "_version",
          "type": "uint16"
        },
        {
          "internalType": "uint16",
          "name": "_chainId",
          "type": "uint16"
        },
        {
          "internalType": "address",
          "name": "",
          "type": "address"
        },
        {
          "internalType": "uint256",
          "name": "_configType",
          "type": "uint256"
        }
      ],
      "name": "getConfig",
      "outputs": [
        {
          "internalType": "bytes",
          "name": "",
          "type": "bytes"
        }
      ],
      "stateMutability": "view",
      "type": "function"
    },
    {
      "inputs": [],
      "name": "getMaxAmount",
      "outputs": [
        {
          "internalType": "uint256",
          "name": "",
          "type": "uint256"
        }
      ],
      "stateMutability": "view",
      "type": "function"
    },
    {
      "inputs": [],
      "name": "getMinAmount",
      "outputs": [
        {
          "internalType": "uint256",
          "name": "",
          "type": "uint256"
        }
      ],
      "stateMutability": "view",
      "type": "function"
    },
    {
      "inputs": [],
      "name": "getMinBridgeFee",
      "outputs": [
        {
          "internalType": "uint256",
          "name": "",
          "type": "uint256"
        }
      ],
      "stateMutability": "view",
      "type": "function"
    },
    {
      "inputs": [],
      "name": "getMinExecutorFee",
      "outputs": [
        {
          "internalType": "uint256",
          "name": "",
          "type": "uint256"
        }
      ],
      "stateMutability": "view",
      "type": "function"
    },
    {
      "inputs": [],
      "name": "getPeerMinExecutorFee",
      "outputs": [
        {
          "internalType": "uint256",
          "name": "",
          "type": "uint256"
        }
      ],
      "stateMutability": "view",
      "type": "function"
    },
    {
      "inputs": [],
      "name": "getPeerMinRollupFee",
      "outputs": [
        {
          "internalType": "uint256",
          "name": "",
          "type": "uint256"
        }
      ],
      "stateMutability": "view",
      "type": "function"
    },
    {
      "inputs": [],
      "name": "isDepositsDisabled",
      "outputs": [
        {
          "internalType": "bool",
          "name": "",
          "type": "bool"
        }
      ],
      "stateMutability": "view",
      "type": "function"
    },
    {
      "inputs": [
        {
          "internalType": "uint16",
          "name": "_srcChainId",
          "type": "uint16"
        },
        {
          "internalType": "bytes",
          "name": "_srcAddress",
          "type": "bytes"
        }
      ],
      "name": "isTrustedRemote",
      "outputs": [
        {
          "internalType": "bool",
          "name": "",
          "type": "bool"
        }
      ],
      "stateMutability": "view",
      "type": "function"
    },
    {
      "inputs": [],
      "name": "localLayerZeroChainId",
      "outputs": [
        {
          "internalType": "uint16",
          "name": "",
          "type": "uint16"
        }
      ],
      "stateMutability": "view",
      "type": "function"
    },
    {
      "inputs": [],
      "name": "lzEndpoint",
      "outputs": [
        {
          "internalType": "contract ILayerZeroEndpoint",
          "name": "",
          "type": "address"
        }
      ],
      "stateMutability": "view",
      "type": "function"
    },
    {
      "inputs": [
        {
          "internalType": "uint16",
          "name": "_srcChainId",
          "type": "uint16"
        },
        {
          "internalType": "bytes",
          "name": "_srcAddress",
          "type": "bytes"
        },
        {
          "internalType": "uint64",
          "name": "_nonce",
          "type": "uint64"
        },
        {
          "internalType": "bytes",
          "name": "_payload",
          "type": "bytes"
        }
      ],
      "name": "lzReceive",
      "outputs": [],
      "stateMutability": "nonpayable",
      "type": "function"
    },
    {
      "inputs": [
        {
          "internalType": "uint16",
          "name": "_srcChainId",
          "type": "uint16"
        },
        {
          "internalType": "bytes",
          "name": "_srcAddress",
          "type": "bytes"
        },
        {
          "internalType": "uint64",
          "name": "_nonce",
          "type": "uint64"
        },
        {
          "internalType": "bytes",
          "name": "_payload",
          "type": "bytes"
        }
      ],
      "name": "nonblockingLzReceive",
      "outputs": [],
      "stateMutability": "nonpayable",
      "type": "function"
    },
    {
      "inputs": [],
      "name": "owner",
      "outputs": [
        {
          "internalType": "address",
          "name": "",
          "type": "address"
        }
      ],
      "stateMutability": "view",
      "type": "function"
    },
    {
      "inputs": [],
      "name": "peerChainId",
      "outputs": [
        {
          "internalType": "uint64",
          "name": "",
          "type": "uint64"
        }
      ],
      "stateMutability": "view",
      "type": "function"
    },
    {
      "inputs": [],
      "name": "peerChainName",
      "outputs": [
        {
          "internalType": "string",
          "name": "",
          "type": "string"
        }
      ],
      "stateMutability": "view",
      "type": "function"
    },
    {
      "inputs": [],
      "name": "peerContract",
      "outputs": [
        {
          "internalType": "address",
          "name": "",
          "type": "address"
        }
      ],
      "stateMutability": "view",
      "type": "function"
    },
    {
      "inputs": [],
      "name": "peerLayerZeroChainId",
      "outputs": [
        {
          "internalType": "uint16",
          "name": "",
          "type": "uint16"
        }
      ],
      "stateMutability": "view",
      "type": "function"
    },
    {
      "inputs": [],
      "name": "renounceOwnership",
      "outputs": [],
      "stateMutability": "nonpayable",
      "type": "function"
    },
    {
      "inputs": [
        {
          "internalType": "uint16",
          "name": "_srcChainId",
          "type": "uint16"
        },
        {
          "internalType": "bytes",
          "name": "_srcAddress",
          "type": "bytes"
        },
        {
          "internalType": "uint64",
          "name": "_nonce",
          "type": "uint64"
        },
        {
          "internalType": "bytes",
          "name": "_payload",
          "type": "bytes"
        }
      ],
      "name": "retryMessage",
      "outputs": [],
      "stateMutability": "payable",
      "type": "function"
    },
    {
      "inputs": [],
      "name": "sanctionsCheck",
      "outputs": [
        {
          "internalType": "bool",
          "name": "",
          "type": "bool"
        }
      ],
      "stateMutability": "view",
      "type": "function"
    },
    {
      "inputs": [],
      "name": "sanctionsList",
      "outputs": [
        {
          "internalType": "contract ISanctionsList",
          "name": "",
          "type": "address"
        }
      ],
      "stateMutability": "view",
      "type": "function"
    },
    {
      "inputs": [
        {
          "internalType": "address",
          "name": "_commitmentPoolAddress",
          "type": "address"
        }
      ],
      "name": "setAssociatedCommitmentPool",
      "outputs": [],
      "stateMutability": "nonpayable",
      "type": "function"
    },
    {
      "inputs": [
        {
          "internalType": "address",
          "name": "_bridgeProxyAddress",
          "type": "address"
        }
      ],
      "name": "setBridgeProxyAddress",
      "outputs": [],
      "stateMutability": "nonpayable",
      "type": "function"
    },
    {
      "inputs": [
        {
          "internalType": "uint16",
          "name": "_version",
          "type": "uint16"
        },
        {
          "internalType": "uint16",
          "name": "_chainId",
          "type": "uint16"
        },
        {
          "internalType": "uint256",
          "name": "_configType",
          "type": "uint256"
        },
        {
          "internalType": "bytes",
          "name": "_config",
          "type": "bytes"
        }
      ],
      "name": "setConfig",
      "outputs": [],
      "stateMutability": "nonpayable",
      "type": "function"
    },
    {
      "inputs": [
        {
          "internalType": "bool",
          "name": "_state",
          "type": "bool"
        }
      ],
      "name": "setDepositsDisabled",
      "outputs": [],
      "stateMutability": "nonpayable",
      "type": "function"
    },
    {
      "inputs": [
        {
          "internalType": "uint16",
          "name": "_lzChainId",
          "type": "uint16"
        },
        {
          "internalType": "address",
          "name": "_lzEndpoint",
          "type": "address"
        }
      ],
      "name": "setEndpoint",
      "outputs": [],
      "stateMutability": "nonpayable",
      "type": "function"
    },
    {
      "inputs": [
        {
          "internalType": "uint256",
          "name": "_minBridgeFee",
          "type": "uint256"
        }
      ],
      "name": "setMinBridgeFee",
      "outputs": [],
      "stateMutability": "nonpayable",
      "type": "function"
    },
    {
      "inputs": [
        {
          "internalType": "uint256",
          "name": "_minExecutorFee",
          "type": "uint256"
        }
      ],
      "name": "setMinExecutorFee",
      "outputs": [],
      "stateMutability": "nonpayable",
      "type": "function"
    },
    {
      "inputs": [
        {
          "internalType": "uint64",
          "name": "_peerChainId",
          "type": "uint64"
        },
        {
          "internalType": "string",
          "name": "_peerChainName",
          "type": "string"
        },
        {
          "internalType": "address",
          "name": "_peerContract",
          "type": "address"
        }
      ],
      "name": "setPeerContract",
      "outputs": [],
      "stateMutability": "nonpayable",
      "type": "function"
    },
    {
      "inputs": [
        {
          "internalType": "uint256",
          "name": "_peerMinExecutorFee",
          "type": "uint256"
        }
      ],
      "name": "setPeerMinExecutorFee",
      "outputs": [],
      "stateMutability": "nonpayable",
      "type": "function"
    },
    {
      "inputs": [
        {
          "internalType": "uint256",
          "name": "_peerMinRollupFee",
          "type": "uint256"
        }
      ],
      "name": "setPeerMinRollupFee",
      "outputs": [],
      "stateMutability": "nonpayable",
      "type": "function"
    },
    {
      "inputs": [
        {
          "internalType": "uint16",
          "name": "_version",
          "type": "uint16"
        }
      ],
      "name": "setReceiveVersion",
      "outputs": [],
      "stateMutability": "nonpayable",
      "type": "function"
    },
    {
      "inputs": [
        {
          "internalType": "uint16",
          "name": "_version",
          "type": "uint16"
        }
      ],
      "name": "setSendVersion",
      "outputs": [],
      "stateMutability": "nonpayable",
      "type": "function"
    },
    {
      "inputs": [
        {
          "internalType": "uint16",
          "name": "_peerLayerZeroChainId",
          "type": "uint16"
        },
        {
          "internalType": "bytes",
          "name": "_peerAddress",
          "type": "bytes"
        }
      ],
      "name": "setTrustedRemote",
      "outputs": [],
      "stateMutability": "nonpayable",
      "type": "function"
    },
    {
      "inputs": [
        {
          "internalType": "address",
          "name": "newOwner",
          "type": "address"
        }
      ],
      "name": "transferOwnership",
      "outputs": [],
      "stateMutability": "nonpayable",
      "type": "function"
    },
    {
      "inputs": [
        {
          "internalType": "uint16",
          "name": "",
          "type": "uint16"
        }
      ],
      "name": "trustedRemoteLookup",
      "outputs": [
        {
          "internalType": "bytes",
          "name": "",
          "type": "bytes"
        }
      ],
      "stateMutability": "view",
      "type": "function"
    },
    {
      "inputs": [
        {
          "internalType": "uint256",
          "name": "_maxAmount",
          "type": "uint256"
        },
        {
          "internalType": "uint256",
          "name": "_minAmount",
          "type": "uint256"
        }
      ],
      "name": "updateDepositAmountLimits",
      "outputs": [],
      "stateMutability": "nonpayable",
      "type": "function"
    },
    {
      "inputs": [
        {
          "internalType": "contract ISanctionsList",
          "name": "_sanction",
          "type": "address"
        }
      ],
      "name": "updateSanctionsListAddress",
      "outputs": [],
      "stateMutability": "nonpayable",
      "type": "function"
    }
  ],
  "bytecode": "0x6080604052600080546001600160a81b031916740140c57923924b5c5c5455c48d93317139addac8fb1790553480156200003857600080fd5b5060405162003da838038062003da88339810160408190526200005b9162000114565b600c8054336001600160a01b031991821617909155600180549091166001600160a01b038416179055808262000098620000923390565b620000c2565b50601180546001600160a01b0319166001600160a01b0392909216919091179055506200016c9050565b600d80546001600160a01b038381166001600160a01b0319831681179093556040519116919082907f8be0079c531659141344cd1fd0a4f28419497f9722a3daafe3b4186f6b6457e090600090a35050565b600080604083850312156200012857600080fd5b8251620001358162000153565b6020840151909250620001488162000153565b809150509250929050565b6001600160a01b03811681146200016957600080fd5b50565b613c2c806200017c6000396000f3fe60806040526004361061033d5760003560e01c80637533d788116101b0578063d1deba1f116100ec578063eb8d72b711610095578063efbfb2ae1161006f578063efbfb2ae1461098c578063f2fde38b146109a1578063f4ad17c6146109c1578063f5ecbdbc146109d657600080fd5b8063eb8d72b71461092d578063ec571c6a1461094d578063ed6ea33a1461096d57600080fd5b8063e19abef8116100c6578063e19abef8146108cd578063e8183c44146108ed578063ea0cde851461090d57600080fd5b8063d1deba1f14610887578063dd757c341461089a578063ddac5dc1146108af57600080fd5b8063b1c3942211610159578063c9230c5d11610133578063c9230c5d146107fc578063cbed8b9c14610811578063cdfceeba14610831578063cfc7e2da1461087257600080fd5b8063b1c3942214610794578063b353aaa7146107b5578063c2d41601146107d557600080fd5b80638da5cb5b1161018a5780638da5cb5b146107435780639a03636c14610761578063a3bc64f21461077457600080fd5b80637533d788146106ee5780637d2c85201461070e578063825b5f8d1461072e57600080fd5b8063302d5f4b1161027f5780634ee7ded6116102285780635b8c41e6116102025780635b8c41e61461064a5780635e10b2b71461069957806366ad5c8a146106b9578063715018a6146106d957600080fd5b80634ee7ded6146105f5578063521ff057146106155780635898a0a81461063557600080fd5b80633fe3347a116102595780633fe3347a146105a457806342d65a8d146105c05780634e3c10b7146105e057600080fd5b8063302d5f4b1461053257806330f49cac146105545780633d8b38f61461057457600080fd5b806310ddb137116102ec57806319e75d6e116102c657806319e75d6e1461047457806321e32d55146104945780632421e155146104cc5780632cd26d451461051257600080fd5b806310ddb13714610412578063153dc45014610432578063176de7a81461045257600080fd5b806306394c9b1161031d57806306394c9b146103b357806307e0db17146103d35780630ba95909146103f357600080fd5b80621d35671461034257806297a0631461036457806301dbf19f1461039e575b600080fd5b34801561034e57600080fd5b5061036261035d3660046135a9565b6109f6565b005b34801561037057600080fd5b50600e5461038690600160b01b900461ffff1681565b60405161ffff90911681526020015b60405180910390f35b3480156103aa57600080fd5b50610362610b7d565b3480156103bf57600080fd5b506103626103ce366004613348565b610c01565b3480156103df57600080fd5b506103626103ee3660046134a6565b610ca5565b3480156103ff57600080fd5b506007545b604051908152602001610395565b34801561041e57600080fd5b5061036261042d3660046134a6565b610d5d565b34801561043e57600080fd5b5061036261044d3660046136ea565b610deb565b34801561045e57600080fd5b50610467610e52565b6040516103959190613923565b34801561048057600080fd5b5061036261048f3660046136ea565b610ed8565b3480156104a057600080fd5b506004546104b4906001600160a01b031681565b6040516001600160a01b039091168152602001610395565b3480156104d857600080fd5b5060408051808201909152600981527f6c617965725a65726f00000000000000000000000000000000000000000000006020820152610467565b34801561051e57600080fd5b506005546104b4906001600160a01b031681565b34801561053e57600080fd5b50600e5461038690600160a01b900461ffff1681565b34801561056057600080fd5b5061036261056f366004613348565b610f37565b34801561058057600080fd5b5061059461058f3660046134f8565b610fb0565b6040519015158152602001610395565b3480156105b057600080fd5b5060006040516103959190613936565b3480156105cc57600080fd5b506103626105db3660046134f8565b61107d565b3480156105ec57600080fd5b50610467611142565b34801561060157600080fd5b506103626106103660046134c1565b6111d0565b34801561062157600080fd5b506103626106303660046136ea565b61127f565b34801561064157600080fd5b50600a54610404565b34801561065657600080fd5b5061040461066536600461354b565b6010602090815260009384526040808520845180860184018051928152908401958401959095209452929052825290205481565b3480156106a557600080fd5b506103626106b43660046136ea565b61132d565b3480156106c557600080fd5b506103626106d43660046135a9565b61138d565b3480156106e557600080fd5b506103626113bf565b3480156106fa57600080fd5b506104676107093660046134a6565b611425565b34801561071a57600080fd5b5061036261072936600461373e565b61143e565b34801561073a57600080fd5b50600b54610404565b34801561074f57600080fd5b50600d546001600160a01b03166104b4565b61036261076f3660046133e8565b6114db565b34801561078057600080fd5b5061036261078f366004613348565b6116eb565b3480156107a057600080fd5b5060005461059490600160a01b900460ff1681565b3480156107c157600080fd5b50600e546104b4906001600160a01b031681565b3480156107e157600080fd5b506107ea611738565b60405160ff9091168152602001610395565b34801561080857600080fd5b506104676117b5565b34801561081d57600080fd5b5061036261082c36600461367b565b6117fa565b34801561083d57600080fd5b5060025461085990600160a01b900467ffffffffffffffff1681565b60405167ffffffffffffffff9091168152602001610395565b34801561087e57600080fd5b50600654610404565b6103626108953660046135a9565b6118c5565b3480156108a657600080fd5b506103626119d5565b3480156108bb57600080fd5b506002546001600160a01b03166104b4565b3480156108d957600080fd5b506103626108e8366004613348565b611a4d565b3480156108f957600080fd5b5061036261090836600461371c565b611a9a565b34801561091957600080fd5b50610362610928366004613365565b611b2d565b34801561093957600080fd5b506103626109483660046134f8565b611ba5565b34801561095957600080fd5b506000546104b4906001600160a01b031681565b34801561097957600080fd5b50600c54600160a01b900460ff16610594565b34801561099857600080fd5b50600854610404565b3480156109ad57600080fd5b506103626109bc366004613348565b611c93565b3480156109cd57600080fd5b50600954610404565b3480156109e257600080fd5b506104676109f136600461362e565b611d75565b600e546001600160a01b0316336001600160a01b031614610a5f576040516314e8955b60e21b815260206004820152600f60248201527f656e64706f696e742063616c6c6572000000000000000000000000000000000060448201526064015b60405180910390fd5b61ffff84166000908152600f602052604081208054610a7d90613b82565b80601f0160208091040260200160405190810160405280929190818152602001828054610aa990613b82565b8015610af65780601f10610acb57610100808354040283529160200191610af6565b820191906000526020600020905b815481529060010190602001808311610ad957829003601f168201915b5050505050905080518451141580610b1c57508080519060200120848051906020012014155b15610b6a576040516314e8955b60e21b815260206004820152601760248201527f736f757263652073656e64696e6720636f6e74726163740000000000000000006044820152606401610a56565b610b7685858585611e17565b5050505050565b600c546001600160a01b03163314610ba8576040516327e1f1e560e01b815260040160405180910390fd5b6000805460ff60a01b1916600160a01b908117918290556040517fa5ffe1601eb93a7fefd0d0eeb5fc94a2f65475f333836fe2b87fd7bbf595206992610bf792900460ff161515815260200190565b60405180910390a1565b600c546001600160a01b03163314610c2c576040516327e1f1e560e01b815260040160405180910390fd5b600c546001600160a01b0382811691161415610c5b576040516336a1c33f60e01b815260040160405180910390fd5b600c80546001600160a01b0319166001600160a01b0383169081179091556040517f4721129e0e676ed6a92909bb24e853ccdd63ad72280cc2e974e38e480e0e6e5490600090a250565b600d546001600160a01b03163314610cff5760405162461bcd60e51b815260206004820181905260248201527f4f776e61626c653a2063616c6c6572206973206e6f7420746865206f776e65726044820152606401610a56565b600e546040516307e0db1760e01b815261ffff831660048201526001600160a01b03909116906307e0db17906024015b600060405180830381600087803b158015610d4957600080fd5b505af1158015610b76573d6000803e3d6000fd5b600d546001600160a01b03163314610db75760405162461bcd60e51b815260206004820181905260248201527f4f776e61626c653a2063616c6c6572206973206e6f7420746865206f776e65726044820152606401610a56565b600e546040516310ddb13760e01b815261ffff831660048201526001600160a01b03909116906310ddb13790602401610d2f565b600c546001600160a01b03163314610e16576040516327e1f1e560e01b815260040160405180910390fd5b600a8190556040518181527f14988234d3e50a12aeec2d6ee595b70c2fae163caff28baab5802b122bf2a753906020015b60405180910390a150565b601154604080516395d89b4160e01b815290516060926001600160a01b0316916395d89b41916004808301926000929190829003018186803b158015610e9757600080fd5b505afa158015610eab573d6000803e3d6000fd5b505050506040513d6000823e601f3d908101601f19168201604052610ed3919081019061339f565b905090565b600c546001600160a01b03163314610f03576040516327e1f1e560e01b815260040160405180910390fd5b60088190556040518181527e91f5f5db3092e39ecb701218d4af20b7571e0429595937c334f3acd14fe2fe90602001610e47565b600c546001600160a01b03163314610f62576040516327e1f1e560e01b815260040160405180910390fd5b600080546001600160a01b0319166001600160a01b0383169081179091556040519081527fbe1808917e09814fca7d80289a9760a4065f10d624ac1aee0b9f903c4f5d92b190602001610e47565b61ffff83166000908152600f602052604081208054829190610fd190613b82565b80601f0160208091040260200160405190810160405280929190818152602001828054610ffd90613b82565b801561104a5780601f1061101f5761010080835404028352916020019161104a565b820191906000526020600020905b81548152906001019060200180831161102d57829003601f168201915b50505050509050838360405161106192919061382c565b60405180910390208180519060200120149150505b9392505050565b600d546001600160a01b031633146110d75760405162461bcd60e51b815260206004820181905260248201527f4f776e61626c653a2063616c6c6572206973206e6f7420746865206f776e65726044820152606401610a56565b600e546040516342d65a8d60e01b81526001600160a01b03909116906342d65a8d9061110b908690869086906004016139bb565b600060405180830381600087803b15801561112557600080fd5b505af1158015611139573d6000803e3d6000fd5b50505050505050565b6003805461114f90613b82565b80601f016020809104026020016040519081016040528092919081815260200182805461117b90613b82565b80156111c85780601f1061119d576101008083540402835291602001916111c8565b820191906000526020600020905b8154815290600101906020018083116111ab57829003601f168201915b505050505081565b600d546001600160a01b0316331461122a5760405162461bcd60e51b815260206004820181905260248201527f4f776e61626c653a2063616c6c6572206973206e6f7420746865206f776e65726044820152606401610a56565b600e80547fffffffffffffffffffff0000000000000000000000000000000000000000000016600160a01b61ffff94909416939093026001600160a01b031916929092176001600160a01b0391909116179055565b600c546001600160a01b031633146112aa576040516327e1f1e560e01b815260040160405180910390fd5b806112f8576040516314e8955b60e21b815260206004820152601760248201527f70656572206d696e696d616c20726f6c6c7570206665650000000000000000006044820152606401610a56565b600b8190556040518181527f878075a8e8aa1c7c15e6932752520f7812bf5744785e6df605373729da41554590602001610e47565b600c546001600160a01b03163314611358576040516327e1f1e560e01b815260040160405180910390fd5b60098190556040518181527f88d210dfa198f7519579294721f90c771153a7b49101eefb95147037cc8ce48190602001610e47565b3330146113ad576040516371f50ec160e11b815260040160405180910390fd5b6113b984848484611e78565b50505050565b600d546001600160a01b031633146114195760405162461bcd60e51b815260206004820181905260248201527f4f776e61626c653a2063616c6c6572206973206e6f7420746865206f776e65726044820152606401610a56565b6114236000611eb3565b565b600f602052600090815260409020805461114f90613b82565b600c546001600160a01b03163314611469576040516327e1f1e560e01b815260040160405180910390fd5b600280547fffffffff0000000000000000ffffffffffffffffffffffffffffffffffffffff16600160a01b67ffffffffffffffff86160217905581516114b6906003906020850190613121565b50600480546001600160a01b0319166001600160a01b03929092169190911790555050565b600c54600160a01b900460ff161561150657604051630e2f42c960e31b815260040160405180910390fd5b6006548151101561152a5760405163617ab12d60e11b815260040160405180910390fd5b6007548151111561154e57604051630625040160e01b815260040160405180910390fd5b6008548160a0015110156115755760405163c4d8d00d60e01b815260040160405180910390fd5b600a548160c00151101561159c576040516355a6d6a160e11b815260040160405180910390fd5b600b548160e0015110156115c35760405163784f02bd60e11b815260040160405180910390fd5b60006115dc826040015183600001518460600151611f05565b905080826020015114611602576040516301bfaa2560e51b815260040160405180910390fd5b61160b33612022565b1561162957604051632e70c0b160e01b815260040160405180910390fd5b6040805160a081018252835181526020808501519082015260c08401519181019190915260e0830151606082015260808084015190820152600061166c826120bf565b905061167c8460a001518261212e565b60025460e085015160c086015186516116b7936001600160a01b031692916116a391613b30565b6116ad9190613b30565b8660a00151612160565b60208401516040517fd106eb38b3368b7c294e36fae5513fdefe880be5abfad529b37b044f2fdd2dbe90600090a250505050565b600c546001600160a01b03163314611716576040516327e1f1e560e01b815260040160405180910390fd5b600580546001600160a01b0319166001600160a01b0392909216919091179055565b6011546040805163313ce56760e01b815290516000926001600160a01b03169163313ce567916004808301926020929190829003018186803b15801561177d57600080fd5b505afa158015611791573d6000803e3d6000fd5b505050506040513d601f19601f82011682018060405250810190610ed391906137b4565b601154604080516306fdde0360e01b815290516060926001600160a01b0316916306fdde03916004808301926000929190829003018186803b158015610e9757600080fd5b600d546001600160a01b031633146118545760405162461bcd60e51b815260206004820181905260248201527f4f776e61626c653a2063616c6c6572206973206e6f7420746865206f776e65726044820152606401610a56565b600e546040516332fb62e760e21b81526001600160a01b039091169063cbed8b9c9061188c9088908890889088908890600401613a7f565b600060405180830381600087803b1580156118a657600080fd5b505af11580156118ba573d6000803e3d6000fd5b505050505050505050565b61ffff841660009081526010602052604080822090516118e690869061383c565b908152604080516020928190038301902067ffffffffffffffff86166000908152925290205490508061192c57604051632b96c98560e21b815260040160405180910390fd5b815160208301208114611982576040516314e8955b60e21b815260206004820152600760248201527f7061796c6f6164000000000000000000000000000000000000000000000000006044820152606401610a56565b61ffff851660009081526010602052604080822090516119a390879061383c565b908152604080516020928190038301902067ffffffffffffffff871660009081529252902055610b7685858585611e78565b600c546001600160a01b03163314611a00576040516327e1f1e560e01b815260040160405180910390fd5b6000805460ff60a01b1916908190556040517fa5ffe1601eb93a7fefd0d0eeb5fc94a2f65475f333836fe2b87fd7bbf595206991610bf791600160a01b90910460ff161515815260200190565b600c546001600160a01b03163314611a78576040516327e1f1e560e01b815260040160405180910390fd5b600280546001600160a01b0319166001600160a01b0392909216919091179055565b600c546001600160a01b03163314611ac5576040516327e1f1e560e01b815260040160405180910390fd5b81811115611ae657604051636003e82160e11b815260040160405180910390fd5b6007829055600681905560408051838152602081018390527f7633004c7a229869aeea10db4ff3e57e3b1534aeb2c9e72c5db25f965895c330910160405180910390a15050565b600c546001600160a01b03163314611b58576040516327e1f1e560e01b815260040160405180910390fd5b600c8054821515600160a01b0260ff60a01b199091161790556040517fcd162c6fc24285bfbe399ec0cc2ce2c380ad27d2eb1fca418c652df1257e7e0990610e4790831515815260200190565b600d546001600160a01b03163314611bff5760405162461bcd60e51b815260206004820181905260248201527f4f776e61626c653a2063616c6c6572206973206e6f7420746865206f776e65726044820152606401610a56565b600e80547fffffffffffffffff0000ffffffffffffffffffffffffffffffffffffffffffff16600160b01b61ffff8616908102919091179091556000908152600f60205260409020611c529083836131a5565b507ffa41487ad5d6728f0b19276fa1eddc16558578f5109fc39d2dc33c3230470dab838383604051611c86939291906139bb565b60405180910390a1505050565b600d546001600160a01b03163314611ced5760405162461bcd60e51b815260206004820181905260248201527f4f776e61626c653a2063616c6c6572206973206e6f7420746865206f776e65726044820152606401610a56565b6001600160a01b038116611d695760405162461bcd60e51b815260206004820152602660248201527f4f776e61626c653a206e6577206f776e657220697320746865207a65726f206160448201527f64647265737300000000000000000000000000000000000000000000000000006064820152608401610a56565b611d7281611eb3565b50565b600e54604051633d7b2f6f60e21b815261ffff808716600483015285166024820152306044820152606481018390526060916001600160a01b03169063f5ecbdbc9060840160006040518083038186803b158015611dd257600080fd5b505afa158015611de6573d6000803e3d6000fd5b505050506040513d6000823e601f3d908101601f19168201604052611e0e919081019061339f565b95945050505050565b604051633356ae4560e11b815230906366ad5c8a90611e40908790879087908790600401613a40565b600060405180830381600087803b158015611e5a57600080fd5b505af1158015611e6e573d6000803e3d6000fd5b5050505050505050565b6000611e83826121cc565b600254600454919250610b7691600160a01b90910467ffffffffffffffff16906001600160a01b03163284612294565b600d80546001600160a01b038381166001600160a01b0319831681179093556040519116919082907f8be0079c531659141344cd1fd0a4f28419497f9722a3daafe3b4186f6b6457e090600090a35050565b60007f30644e72e131a029b85045b68181585d2833e84879b9709143e1f593f0000001808510611f485760405163805f2a4960e01b815260040160405180910390fd5b80836fffffffffffffffffffffffffffffffff1610611f7a57604051633bbde0bf60e21b815260040160405180910390fd5b60015460408051606081018252878152602081018790526fffffffffffffffffffffffffffffffff86168183015290516304b98e1d60e31b81526001600160a01b03909216916325cc70e891611fd2916004016138f2565b60206040518083038186803b158015611fea57600080fd5b505afa158015611ffe573d6000803e3d6000fd5b505050506040513d601f19601f82011682018060405250810190611e0e9190613703565b60008054600160a01b900460ff1661203c57506000919050565b60005460405163df592f7d60e01b81526001600160a01b0384811660048301529091169063df592f7d9060240160206040518083038186803b15801561208157600080fd5b505afa158015612095573d6000803e3d6000fd5b505050506040513d601f19601f820116820180604052508101906120b99190613382565b92915050565b6060806120cf8360000151612349565b6120dc8460200151612349565b6120e98560400151612349565b6120f68660600151612349565b61210387608001516123e1565b604051602001612117959493929190613887565b60408051601f198184030181529190529392505050565b61215c600e60169054906101000a900461ffff16823360006040518060200160405280600081525087612418565b5050565b8034146121af5760405162461bcd60e51b815260206004820152601360248201527f62726964676520666565206d69736d61746368000000000000000000000000006044820152606401610a56565b6011546121c7906001600160a01b031633858561254f565b505050565b6121fe6040518060a0016040528060008152602001600081526020016000815260200160008152602001606081525090565b6122306040518060a0016040528060008152602001600081526020016000815260200160008152602001606081525090565b600061223c84826125be565b908352905061224b84826125be565b6020840191909152905061225f84826125be565b6040840191909152905061227384826125be565b6060840191909152905061228784826126ef565b5060808301525092915050565b6004546001600160a01b038481169116146122c257604051631440e07960e11b815260040160405180910390fd5b60025467ffffffffffffffff858116600160a01b90920416146122f857604051633876304f60e21b815260040160405180910390fd5b80516123175760405163820bf1e560e01b815260040160405180910390fd5b6002546040516378d60cd760e01b81526001600160a01b03909116906378d60cd790611e40908490869060040161395e565b60606001600160ff1b038211156123a25760405162461bcd60e51b815260206004820152601b60248201527f56616c756520657863656564732075696e743235352072616e676500000000006044820152606401610a56565b60405160208082526000601f5b828210156123d15785811a8260208601015360019190910190600019016123af565b5050506040818101905292915050565b80516060906123ef816127fc565b83604051602001612401929190613858565b604051602081830303815290604052915050919050565b61ffff86166000908152600f60205260408120805461243690613b82565b80601f016020809104026020016040519081016040528092919081815260200182805461246290613b82565b80156124af5780601f10612484576101008083540402835291602001916124af565b820191906000526020600020905b81548152906001019060200180831161249257829003601f168201915b505050505090508051600014156124d95760405163020b35a160e01b815260040160405180910390fd5b600e5460405162c5803160e81b81526001600160a01b039091169063c5803100908490612514908b9086908c908c908c908c906004016139d9565b6000604051808303818588803b15801561252d57600080fd5b505af1158015612541573d6000803e3d6000fd5b505050505050505050505050565b604080516001600160a01b0385811660248301528416604482015260648082018490528251808303909101815260849091019091526020810180517bffffffffffffffffffffffffffffffffffffffffffffffffffffffff166323b872dd60e01b1790526113b99085906128c9565b60008083518360206125d09190613b30565b111580156125e757506125e4836020613b30565b83105b61263f5760405162461bcd60e51b815260206004820152602360248201527f4e65787455696e743235352c206f66667365742065786365656473206d6178696044820152626d756d60e81b6064820152608401610a56565b600060405160206000600182038760208a0101515b838310156126745780821a83860153600183019250600182039150612654565b50505081016040525190506001600160ff1b038111156126d65760405162461bcd60e51b815260206004820152601760248201527f56616c75652065786365656473207468652072616e67650000000000000000006044820152606401610a56565b806126e2856020613b30565b92509250505b9250929050565b60606000806126fe85856129ae565b86519095509091506127108286613b30565b1115801561272657506127238185613b30565b84105b61277e5760405162461bcd60e51b8152602060048201526024808201527f4e65787456617242797465732c206f66667365742065786365656473206d6178604482015263696d756d60e01b6064820152608401610a56565b606081158015612799576040519150602082016040526127e3565b6040519150601f8316801560200281840101848101888315602002848c0101015b818310156127d25780518352602092830192016127ba565b5050848452601f01601f1916604052505b50806127ef8387613b30565b9350935050509250929050565b606060fd8267ffffffffffffffff16101561282f57604080516001815260f884901b6020820152602181019091526120b9565b61ffff8267ffffffffffffffff161161287f5761284f60fd60f81b612bb4565b61285883612bdb565b604051602001612869929190613858565b6040516020818303038152906040529050919050565b63ffffffff8267ffffffffffffffff16116128aa576128a1607f60f91b612bb4565b61285883612c1e565b6128bb6001600160f81b0319612bb4565b61285883612c61565b919050565b600061291e826040518060400160405280602081526020017f5361666545524332303a206c6f772d6c6576656c2063616c6c206661696c6564815250856001600160a01b0316612ca49092919063ffffffff16565b8051909150156121c7578080602001905181019061293c9190613382565b6121c75760405162461bcd60e51b815260206004820152602a60248201527f5361666545524332303a204552433230206f7065726174696f6e20646964206e60448201527f6f742073756363656564000000000000000000000000000000000000000000006064820152608401610a56565b60008060006129bd8585612cbb565b94509050600060fd60f81b6001600160f81b031983161415612a56576129e38686612d43565b955061ffff16905060fd81108015906129fe575061ffff8111155b612a4a5760405162461bcd60e51b815260206004820152601f60248201527f4e65787455696e7431362c2076616c7565206f7574736964652072616e6765006044820152606401610a56565b92508391506126e89050565b607f60f91b6001600160f81b031983161415612ae157612a768686612dfc565b955063ffffffff16905061ffff81118015612a95575063ffffffff8111155b612a4a5760405162461bcd60e51b815260206004820181905260248201527f4e65787456617255696e742c2076616c7565206f7574736964652072616e67656044820152606401610a56565b6001600160f81b03198083161415612b5e57612afd8686612ece565b955067ffffffffffffffff16905063ffffffff8111612a4a5760405162461bcd60e51b815260206004820181905260248201527f4e65787456617255696e742c2076616c7565206f7574736964652072616e67656044820152606401610a56565b5060f881901c60fd8110612a4a5760405162461bcd60e51b815260206004820181905260248201527f4e65787456617255696e742c2076616c7565206f7574736964652072616e67656044820152606401610a56565b60408051600181526001600160f81b031983166020820152602181019091526060906120b9565b6040516002808252606091906000601f5b82821015612c0e5785811a826020860101536001919091019060001901612bec565b5050506022810160405292915050565b6040516004808252606091906000601f5b82821015612c515785811a826020860101536001919091019060001901612c2f565b5050506024810160405292915050565b6040516008808252606091906000601f5b82821015612c945785811a826020860101536001919091019060001901612c72565b5050506028810160405292915050565b6060612cb38484600085612fa0565b949350505050565b6000808351836001612ccd9190613b30565b11158015612ce45750612ce1836001613b30565b83105b612d305760405162461bcd60e51b815260206004820181905260248201527f4e657874427974652c204f66667365742065786365656473206d6178696d756d6044820152606401610a56565b83830160200151806126e2856001613b30565b6000808351836002612d559190613b30565b11158015612d6c5750612d69836002613b30565b83105b612dc35760405162461bcd60e51b815260206004820152602260248201527f4e65787455696e7431362c206f66667365742065786365656473206d6178696d604482015261756d60f01b6064820152608401610a56565b6000604051846020870101518060011a82538060001a60018301535060028101604052601e810351915050808460026126e29190613b30565b6000808351836004612e0e9190613b30565b11158015612e255750612e22836004613b30565b83105b612e7c5760405162461bcd60e51b815260206004820152602260248201527f4e65787455696e7433322c206f66667365742065786365656473206d6178696d604482015261756d60f01b6064820152608401610a56565b600060405160046000600182038760208a0101515b83831015612eb15780821a83860153600183019250600182039150612e91565b5050508181016040526020039003519050806126e2856004613b30565b6000808351836008612ee09190613b30565b11158015612ef75750612ef4836008613b30565b83105b612f4e5760405162461bcd60e51b815260206004820152602260248201527f4e65787455696e7436342c206f66667365742065786365656473206d6178696d604482015261756d60f01b6064820152608401610a56565b600060405160086000600182038760208a0101515b83831015612f835780821a83860153600183019250600182039150612f63565b5050508181016040526020039003519050806126e2856008613b30565b6060824710156130185760405162461bcd60e51b815260206004820152602660248201527f416464726573733a20696e73756666696369656e742062616c616e636520666f60448201527f722063616c6c00000000000000000000000000000000000000000000000000006064820152608401610a56565b6001600160a01b0385163b61306f5760405162461bcd60e51b815260206004820152601d60248201527f416464726573733a2063616c6c20746f206e6f6e2d636f6e74726163740000006044820152606401610a56565b600080866001600160a01b0316858760405161308b919061383c565b60006040518083038185875af1925050503d80600081146130c8576040519150601f19603f3d011682016040523d82523d6000602084013e6130cd565b606091505b50915091506130dd8282866130e8565b979650505050505050565b606083156130f7575081611076565b8251156131075782518084602001fd5b8160405162461bcd60e51b8152600401610a569190613923565b82805461312d90613b82565b90600052602060002090601f01602090048101928261314f5760008555613195565b82601f1061316857805160ff1916838001178555613195565b82800160010185558215613195579182015b8281111561319557825182559160200191906001019061317a565b506131a1929150613219565b5090565b8280546131b190613b82565b90600052602060002090601f0160209004810192826131d35760008555613195565b82601f106131ec5782800160ff19823516178555613195565b82800160010185558215613195579182015b828111156131955782358255916020019190600101906131fe565b5b808211156131a1576000815560010161321a565b600061324161323c84613b08565b613ad7565b905082815283838301111561325557600080fd5b828260208301376000602084830101529392505050565b600061327a61323c84613b08565b905082815283838301111561328e57600080fd5b611076836020830184613b56565b60008083601f8401126132ae57600080fd5b50813567ffffffffffffffff8111156132c657600080fd5b6020830191508360208285010111156126e857600080fd5b600082601f8301126132ef57600080fd5b6110768383356020850161322e565b80356fffffffffffffffffffffffffffffffff811681146128c457600080fd5b803561ffff811681146128c457600080fd5b803567ffffffffffffffff811681146128c457600080fd5b60006020828403121561335a57600080fd5b813561107681613bd3565b60006020828403121561337757600080fd5b813561107681613be8565b60006020828403121561339457600080fd5b815161107681613be8565b6000602082840312156133b157600080fd5b815167ffffffffffffffff8111156133c857600080fd5b8201601f810184136133d957600080fd5b612cb38482516020840161326c565b6000602082840312156133fa57600080fd5b813567ffffffffffffffff8082111561341257600080fd5b90830190610100828603121561342757600080fd5b61342f613aad565b823581526020830135602082015260408301356040820152613453606084016132fe565b606082015260808301358281111561346a57600080fd5b613476878286016132de565b60808301525060a083013560a082015260c083013560c082015260e083013560e082015280935050505092915050565b6000602082840312156134b857600080fd5b6110768261331e565b600080604083850312156134d457600080fd5b6134dd8361331e565b915060208301356134ed81613bd3565b809150509250929050565b60008060006040848603121561350d57600080fd5b6135168461331e565b9250602084013567ffffffffffffffff81111561353257600080fd5b61353e8682870161329c565b9497909650939450505050565b60008060006060848603121561356057600080fd5b6135698461331e565b9250602084013567ffffffffffffffff81111561358557600080fd5b613591868287016132de565b9250506135a060408501613330565b90509250925092565b600080600080608085870312156135bf57600080fd5b6135c88561331e565b9350602085013567ffffffffffffffff808211156135e557600080fd5b6135f1888389016132de565b94506135ff60408801613330565b9350606087013591508082111561361557600080fd5b50613622878288016132de565b91505092959194509250565b6000806000806080858703121561364457600080fd5b61364d8561331e565b935061365b6020860161331e565b9250604085013561366b81613bd3565b9396929550929360600135925050565b60008060008060006080868803121561369357600080fd5b61369c8661331e565b94506136aa6020870161331e565b935060408601359250606086013567ffffffffffffffff8111156136cd57600080fd5b6136d98882890161329c565b969995985093965092949392505050565b6000602082840312156136fc57600080fd5b5035919050565b60006020828403121561371557600080fd5b5051919050565b6000806040838503121561372f57600080fd5b50508035926020909101359150565b60008060006060848603121561375357600080fd5b61375c84613330565b9250602084013567ffffffffffffffff81111561377857600080fd5b8401601f8101861361378957600080fd5b6137988682356020840161322e565b92505060408401356137a981613bd3565b809150509250925092565b6000602082840312156137c657600080fd5b815160ff8116811461107657600080fd5b81835281816020850137506000828201602090810191909152601f909101601f19169091010190565b60008151808452613818816020860160208601613b56565b601f01601f19169290920160200192915050565b8183823760009101908152919050565b6000825161384e818460208701613b56565b9190910192915050565b6000835161386a818460208801613b56565b83519083019061387e818360208801613b56565b01949350505050565b60008651613899818460208b01613b56565b8651908301906138ad818360208b01613b56565b86519101906138c0818360208a01613b56565b85519101906138d3818360208901613b56565b84519101906138e6818360208801613b56565b01979650505050505050565b60608101818360005b600381101561391a5781518352602092830192909101906001016138fb565b50505092915050565b6020815260006110766020830184613800565b602081016002831061395857634e487b7160e01b600052602160045260246000fd5b91905290565b60408152825160408201526020830151606082015260408301516080820152606083015160a08201526000608084015160a060c08401526139a260e0840182613800565b9150506001600160a01b03831660208301529392505050565b61ffff84168152604060208201526000611e0e6040830184866137d7565b61ffff8716815260c0602082015260006139f660c0830188613800565b8281036040840152613a088188613800565b6001600160a01b0387811660608601528616608085015283810360a08501529050613a338185613800565b9998505050505050505050565b61ffff85168152608060208201526000613a5d6080830186613800565b67ffffffffffffffff8516604084015282810360608401526130dd8185613800565b600061ffff8088168352808716602084015250846040830152608060608301526130dd6080830184866137d7565b604051610100810167ffffffffffffffff81118282101715613ad157613ad1613bbd565b60405290565b604051601f8201601f1916810167ffffffffffffffff81118282101715613b0057613b00613bbd565b604052919050565b600067ffffffffffffffff821115613b2257613b22613bbd565b50601f01601f191660200190565b60008219821115613b5157634e487b7160e01b600052601160045260246000fd5b500190565b60005b83811015613b71578181015183820152602001613b59565b838111156113b95750506000910152565b600181811c90821680613b9657607f821691505b60208210811415613bb757634e487b7160e01b600052602260045260246000fd5b50919050565b634e487b7160e01b600052604160045260246000fd5b6001600160a01b0381168114611d7257600080fd5b8015158114611d7257600080fdfea2646970667358221220f18f4084adc5f2cbe1e7236e87c68de15df2b24fc0193ca8ed0807edaa66c2af64736f6c63430008070033",
  "linkReferences": {},
  "deployedLinkReferences": {}
}