{
  "_format": "hh-sol-artifact-1",
  "contractName": "MystikoV2AxelarERC20",
  "sourceName": "contracts/core/deposit/axelar/MystikoV2AxelarERC20.sol",
  "abi": [
    {
      "inputs": [
        {
          "internalType": "contract IHasher3",
          "name": "_hasher3",
          "type": "address"
        },
        {
          "internalType": "contract IERC20Metadata",
          "name": "_token",
          "type": "address"
        },
        {
          "internalType": "address",
          "name": "_bridgeProxyAddress",
          "type": "address"
        },
        {
          "internalType": "address",
          "name": "_settingsCenter",
          "type": "address"
        },
        {
          "components": [
            {
              "internalType": "uint256",
              "name": "minAmount",
              "type": "uint256"
            },
            {
              "internalType": "uint256",
              "name": "maxAmount",
              "type": "uint256"
            },
            {
              "internalType": "uint256",
              "name": "minBridgeFee",
              "type": "uint256"
            }
          ],
          "internalType": "struct IMystikoBridge.LocalConfig",
          "name": "_localConfig",
          "type": "tuple"
        },
        {
          "components": [
            {
              "internalType": "uint256",
              "name": "peerMinExecutorFee",
              "type": "uint256"
            },
            {
              "internalType": "uint256",
              "name": "peerMinRollupFee",
              "type": "uint256"
            }
          ],
          "internalType": "struct IMystikoBridge.PeerConfig",
          "name": "_peerConfig",
          "type": "tuple"
        },
        {
          "internalType": "address",
          "name": "_gasReceiver",
          "type": "address"
        }
      ],
      "stateMutability": "nonpayable",
      "type": "constructor"
    },
    {
      "inputs": [
        {
          "internalType": "address",
          "name": "target",
          "type": "address"
        }
      ],
      "name": "AddressEmptyCode",
      "type": "error"
    },
    {
      "inputs": [
        {
          "internalType": "address",
          "name": "account",
          "type": "address"
        }
      ],
      "name": "AddressInsufficientBalance",
      "type": "error"
    },
    {
      "inputs": [],
      "name": "AmountLessThanZero",
      "type": "error"
    },
    {
      "inputs": [],
      "name": "AmountTooLarge",
      "type": "error"
    },
    {
      "inputs": [],
      "name": "AmountTooSmall",
      "type": "error"
    },
    {
      "inputs": [],
      "name": "AssociatedPoolNotSet",
      "type": "error"
    },
    {
      "inputs": [],
      "name": "BridgeFeeTooFew",
      "type": "error"
    },
    {
      "inputs": [],
      "name": "CertificateInvalid",
      "type": "error"
    },
    {
      "inputs": [],
      "name": "CommitmentHashIncorrect",
      "type": "error"
    },
    {
      "inputs": [],
      "name": "DepositsDisabled",
      "type": "error"
    },
    {
      "inputs": [],
      "name": "ExecutorFeeTooFew",
      "type": "error"
    },
    {
      "inputs": [],
      "name": "FailedInnerCall",
      "type": "error"
    },
    {
      "inputs": [],
      "name": "HashKGreaterThanFieldSize",
      "type": "error"
    },
    {
      "inputs": [],
      "name": "NotApprovedByGateway",
      "type": "error"
    },
    {
      "inputs": [],
      "name": "NotSupport",
      "type": "error"
    },
    {
      "inputs": [],
      "name": "PeerChainIdNotMatched",
      "type": "error"
    },
    {
      "inputs": [],
      "name": "PeerContractAlreadySet",
      "type": "error"
    },
    {
      "inputs": [],
      "name": "PeerContractNotMatched",
      "type": "error"
    },
    {
      "inputs": [],
      "name": "RandomSGreaterThanFieldSize",
      "type": "error"
    },
    {
      "inputs": [],
      "name": "RollupFeeToFew",
      "type": "error"
    },
    {
      "inputs": [
        {
          "internalType": "address",
          "name": "token",
          "type": "address"
        }
      ],
      "name": "SafeERC20FailedOperation",
      "type": "error"
    },
    {
      "inputs": [],
      "name": "SanctionedAddress",
      "type": "error"
    },
    {
      "inputs": [
        {
          "internalType": "uint256",
          "name": "value",
          "type": "uint256"
        },
        {
          "internalType": "uint256",
          "name": "length",
          "type": "uint256"
        }
      ],
      "name": "StringsInsufficientHexLength",
      "type": "error"
    },
    {
      "anonymous": false,
      "inputs": [
        {
          "indexed": false,
          "internalType": "string",
          "name": "peerChainName",
          "type": "string"
        },
        {
          "indexed": false,
          "internalType": "string",
          "name": "destinationAddress",
          "type": "string"
        }
      ],
      "name": "CallContractMessage",
      "type": "event"
    },
    {
      "anonymous": false,
      "inputs": [
        {
          "indexed": true,
          "internalType": "uint256",
          "name": "commitment",
          "type": "uint256"
        }
      ],
      "name": "CommitmentCrossChain",
      "type": "event"
    },
    {
      "inputs": [],
      "name": "assetAddress",
      "outputs": [
        {
          "internalType": "address",
          "name": "",
          "type": "address"
        }
      ],
      "stateMutability": "view",
      "type": "function"
    },
    {
      "inputs": [],
      "name": "assetDecimals",
      "outputs": [
        {
          "internalType": "uint8",
          "name": "",
          "type": "uint8"
        }
      ],
      "stateMutability": "view",
      "type": "function"
    },
    {
      "inputs": [],
      "name": "assetName",
      "outputs": [
        {
          "internalType": "string",
          "name": "",
          "type": "string"
        }
      ],
      "stateMutability": "view",
      "type": "function"
    },
    {
      "inputs": [],
      "name": "assetSymbol",
      "outputs": [
        {
          "internalType": "string",
          "name": "",
          "type": "string"
        }
      ],
      "stateMutability": "view",
      "type": "function"
    },
    {
      "inputs": [],
      "name": "assetType",
      "outputs": [
        {
          "internalType": "enum AssetPool.AssetType",
          "name": "",
          "type": "uint8"
        }
      ],
      "stateMutability": "pure",
      "type": "function"
    },
    {
      "inputs": [],
      "name": "bridgeProxyAddress",
      "outputs": [
        {
          "internalType": "address",
          "name": "",
          "type": "address"
        }
      ],
      "stateMutability": "view",
      "type": "function"
    },
    {
      "inputs": [],
      "name": "bridgeType",
      "outputs": [
        {
          "internalType": "string",
          "name": "",
          "type": "string"
        }
      ],
      "stateMutability": "pure",
      "type": "function"
    },
    {
      "inputs": [
        {
          "components": [
            {
              "internalType": "uint256",
              "name": "amount",
              "type": "uint256"
            },
            {
              "internalType": "uint256",
              "name": "commitment",
              "type": "uint256"
            },
            {
              "internalType": "uint256",
              "name": "hashK",
              "type": "uint256"
            },
            {
              "internalType": "uint128",
              "name": "randomS",
              "type": "uint128"
            },
            {
              "internalType": "bytes",
              "name": "encryptedNote",
              "type": "bytes"
            },
            {
              "internalType": "uint256",
              "name": "bridgeFee",
              "type": "uint256"
            },
            {
              "internalType": "uint256",
              "name": "executorFee",
              "type": "uint256"
            },
            {
              "internalType": "uint256",
              "name": "rollupFee",
              "type": "uint256"
            }
          ],
          "internalType": "struct IMystikoBridge.DepositRequest",
          "name": "_request",
          "type": "tuple"
        },
        {
          "internalType": "uint256",
          "name": "_certificateDeadline",
          "type": "uint256"
        },
        {
          "internalType": "bytes",
          "name": "_certificateSignature",
          "type": "bytes"
        }
      ],
      "name": "certDeposit",
      "outputs": [],
      "stateMutability": "payable",
      "type": "function"
    },
    {
      "inputs": [],
      "name": "defaultMaxAmount",
      "outputs": [
        {
          "internalType": "uint256",
          "name": "",
          "type": "uint256"
        }
      ],
      "stateMutability": "view",
      "type": "function"
    },
    {
      "inputs": [],
      "name": "defaultMinAmount",
      "outputs": [
        {
          "internalType": "uint256",
          "name": "",
          "type": "uint256"
        }
      ],
      "stateMutability": "view",
      "type": "function"
    },
    {
      "inputs": [],
      "name": "defaultMinBridgeFee",
      "outputs": [
        {
          "internalType": "uint256",
          "name": "",
          "type": "uint256"
        }
      ],
      "stateMutability": "view",
      "type": "function"
    },
    {
      "inputs": [],
      "name": "defaultPeerMinExecutorFee",
      "outputs": [
        {
          "internalType": "uint256",
          "name": "",
          "type": "uint256"
        }
      ],
      "stateMutability": "view",
      "type": "function"
    },
    {
      "inputs": [],
      "name": "defaultPeerMinRollupFee",
      "outputs": [
        {
          "internalType": "uint256",
          "name": "",
          "type": "uint256"
        }
      ],
      "stateMutability": "view",
      "type": "function"
    },
    {
      "inputs": [
        {
          "components": [
            {
              "internalType": "uint256",
              "name": "amount",
              "type": "uint256"
            },
            {
              "internalType": "uint256",
              "name": "commitment",
              "type": "uint256"
            },
            {
              "internalType": "uint256",
              "name": "hashK",
              "type": "uint256"
            },
            {
              "internalType": "uint128",
              "name": "randomS",
              "type": "uint128"
            },
            {
              "internalType": "bytes",
              "name": "encryptedNote",
              "type": "bytes"
            },
            {
              "internalType": "uint256",
              "name": "bridgeFee",
              "type": "uint256"
            },
            {
              "internalType": "uint256",
              "name": "executorFee",
              "type": "uint256"
            },
            {
              "internalType": "uint256",
              "name": "rollupFee",
              "type": "uint256"
            }
          ],
          "internalType": "struct IMystikoBridge.DepositRequest",
          "name": "_request",
          "type": "tuple"
        }
      ],
      "name": "deposit",
      "outputs": [],
      "stateMutability": "payable",
      "type": "function"
    },
    {
      "inputs": [
        {
          "internalType": "bytes32",
          "name": "commandId",
          "type": "bytes32"
        },
        {
          "internalType": "string",
          "name": "sourceChain",
          "type": "string"
        },
        {
          "internalType": "string",
          "name": "sourceAddress",
          "type": "string"
        },
        {
          "internalType": "bytes",
          "name": "payload",
          "type": "bytes"
        }
      ],
      "name": "execute",
      "outputs": [],
      "stateMutability": "nonpayable",
      "type": "function"
    },
    {
      "inputs": [
        {
          "internalType": "bytes32",
          "name": "commandId",
          "type": "bytes32"
        },
        {
          "internalType": "string",
          "name": "sourceChain",
          "type": "string"
        },
        {
          "internalType": "string",
          "name": "sourceAddress",
          "type": "string"
        },
        {
          "internalType": "bytes",
          "name": "payload",
          "type": "bytes"
        },
        {
          "internalType": "string",
          "name": "tokenSymbol",
          "type": "string"
        },
        {
          "internalType": "uint256",
          "name": "amount",
          "type": "uint256"
        }
      ],
      "name": "executeWithToken",
      "outputs": [],
      "stateMutability": "nonpayable",
      "type": "function"
    },
    {
      "inputs": [],
      "name": "gateway",
      "outputs": [
        {
          "internalType": "contract IAxelarGateway",
          "name": "",
          "type": "address"
        }
      ],
      "stateMutability": "view",
      "type": "function"
    },
    {
      "inputs": [],
      "name": "getAssociatedCommitmentPool",
      "outputs": [
        {
          "internalType": "address",
          "name": "",
          "type": "address"
        }
      ],
      "stateMutability": "view",
      "type": "function"
    },
    {
      "inputs": [],
      "name": "getMaxAmount",
      "outputs": [
        {
          "internalType": "uint256",
          "name": "",
          "type": "uint256"
        }
      ],
      "stateMutability": "view",
      "type": "function"
    },
    {
      "inputs": [],
      "name": "getMinAmount",
      "outputs": [
        {
          "internalType": "uint256",
          "name": "",
          "type": "uint256"
        }
      ],
      "stateMutability": "view",
      "type": "function"
    },
    {
      "inputs": [],
      "name": "getMinBridgeFee",
      "outputs": [
        {
          "internalType": "uint256",
          "name": "",
          "type": "uint256"
        }
      ],
      "stateMutability": "view",
      "type": "function"
    },
    {
      "inputs": [],
      "name": "getMinExecutorFee",
      "outputs": [
        {
          "internalType": "uint256",
          "name": "",
          "type": "uint256"
        }
      ],
      "stateMutability": "view",
      "type": "function"
    },
    {
      "inputs": [],
      "name": "getPeerMinRollupFee",
      "outputs": [
        {
          "internalType": "uint256",
          "name": "",
          "type": "uint256"
        }
      ],
      "stateMutability": "view",
      "type": "function"
    },
    {
      "inputs": [],
      "name": "isDepositsDisabled",
      "outputs": [
        {
          "internalType": "bool",
          "name": "",
          "type": "bool"
        }
      ],
      "stateMutability": "view",
      "type": "function"
    },
    {
      "inputs": [],
      "name": "isPeerContractSet",
      "outputs": [
        {
          "internalType": "bool",
          "name": "",
          "type": "bool"
        }
      ],
      "stateMutability": "view",
      "type": "function"
    },
    {
      "inputs": [],
      "name": "peerChainId",
      "outputs": [
        {
          "internalType": "uint64",
          "name": "",
          "type": "uint64"
        }
      ],
      "stateMutability": "view",
      "type": "function"
    },
    {
      "inputs": [],
      "name": "peerChainName",
      "outputs": [
        {
          "internalType": "string",
          "name": "",
          "type": "string"
        }
      ],
      "stateMutability": "view",
      "type": "function"
    },
    {
      "inputs": [],
      "name": "peerContract",
      "outputs": [
        {
          "internalType": "address",
          "name": "",
          "type": "address"
        }
      ],
      "stateMutability": "view",
      "type": "function"
    },
    {
      "inputs": [
        {
          "components": [
            {
              "internalType": "uint64",
              "name": "peerChainId",
              "type": "uint64"
            },
            {
              "internalType": "string",
              "name": "peerChainName",
              "type": "string"
            },
            {
              "internalType": "address",
              "name": "peerContract",
              "type": "address"
            }
          ],
          "internalType": "struct IMystikoBridge.PeerContract",
          "name": "_peerContract",
          "type": "tuple"
        }
      ],
      "name": "setPeerContract",
      "outputs": [],
      "stateMutability": "nonpayable",
      "type": "function"
    },
    {
      "inputs": [],
      "name": "settings",
      "outputs": [
        {
          "internalType": "contract MystikoBridgeSettings",
          "name": "",
          "type": "address"
        }
      ],
      "stateMutability": "view",
      "type": "function"
    }
  ],
  "bytecode": "0x60806040526000805460ff60a01b1916905534801561001d57600080fd5b506040516132f13803806132f183398101604081905261003c91610179565b600080546001600160a01b03199081166001600160a01b03998a1617909155600880548216968916969096179095558251600355602080840151600455604090930151600555815160065591015160075560098054841692861692909217909155600b80548316918516919091179055600c805490911691909216179055610238565b6001600160a01b03811681146100d457600080fd5b50565b80516100e2816100bf565b919050565b604051606081016001600160401b038111828210171561011757634e487b7160e01b600052604160045260246000fd5b60405290565b60006040828403121561012f57600080fd5b604080519081016001600160401b038111828210171561015f57634e487b7160e01b600052604160045260246000fd5b604052825181526020928301519281019290925250919050565b600080600080600080600087890361014081121561019657600080fd5b88516101a1816100bf565b60208a01519098506101b2816100bf565b60408a01519097506101c3816100bf565b60608a01519096506101d4816100bf565b94506060607f19820112156101e857600080fd5b506101f16100e7565b6080890151815260a0890151602082015260c08901516040820152925061021b8960e08a0161011d565b915061022a61012089016100d7565b905092959891949750929550565b6130aa806102476000396000f3fe6080604052600436106101cd5760003560e01c80639a03636c116100f7578063d0b436bd11610095578063efbfb2ae11610064578063efbfb2ae1461050a578063f4ad17c61461051f578063fa750f5614610534578063fb3e3d731461055557600080fd5b8063d0b436bd1461049a578063ddac5dc1146104b0578063e06174e4146104c5578063ed6ea33a146104e557600080fd5b8063cb5c029a116100d1578063cb5c029a1461041b578063cbe342851461042e578063cdfceeba14610444578063cfc7e2da1461048557600080fd5b80639a03636c146103cc578063c2d41601146103df578063c9230c5d1461040657600080fd5b80632cd26d451161016f5780634dde6fbc1161013e5780634dde6fbc146103765780634e3c10b71461038c578063640c0b36146103a1578063825b5f8d146103b757600080fd5b80632cd26d45146102fa5780633fe3347a1461031a578063422e002814610336578063491606581461035657600080fd5b80631a98b2e0116101ab5780631a98b2e0146102545780631ba46cfd1461027657806321e32d55146102945780632421e155146102b457600080fd5b80630ba95909146101d2578063116191b6146101fa578063176de7a814610232575b600080fd5b3480156101de57600080fd5b506101e761056b565b6040519081526020015b60405180910390f35b34801561020657600080fd5b50600a5461021a906001600160a01b031681565b6040516001600160a01b0390911681526020016101f1565b34801561023e57600080fd5b506102476105f4565b6040516101f191906124fe565b34801561026057600080fd5b5061027461026f366004612553565b61066b565b005b34801561028257600080fd5b50600c546001600160a01b031661021a565b3480156102a057600080fd5b5060025461021a906001600160a01b031681565b3480156102c057600080fd5b5060408051808201909152600681527f6178656c617200000000000000000000000000000000000000000000000000006020820152610247565b34801561030657600080fd5b5060085461021a906001600160a01b031681565b34801561032657600080fd5b5060006040516101f19190612640565b34801561034257600080fd5b50610274610351366004612777565b6107de565b34801561036257600080fd5b50610274610371366004612833565b6108cb565b34801561038257600080fd5b506101e760055481565b34801561039857600080fd5b5061024761094b565b3480156103ad57600080fd5b506101e760065481565b3480156103c357600080fd5b506101e76109d9565b6102746103da3660046129bb565b610a60565b3480156103eb57600080fd5b506103f4610a79565b60405160ff90911681526020016101f1565b34801561041257600080fd5b50610247610ae7565b6102746104293660046129f8565b610b31565b34801561043a57600080fd5b506101e760075481565b34801561045057600080fd5b5060005461046c90600160a81b900467ffffffffffffffff1681565b60405167ffffffffffffffff90911681526020016101f1565b34801561049157600080fd5b506101e7610f66565b3480156104a657600080fd5b506101e760045481565b3480156104bc57600080fd5b5061021a610fed565b3480156104d157600080fd5b5060095461021a906001600160a01b031681565b3480156104f157600080fd5b506104fa61108c565b60405190151581526020016101f1565b34801561051657600080fd5b506101e76110f9565b34801561052b57600080fd5b506101e7611180565b34801561054057600080fd5b506000546104fa90600160a01b900460ff1681565b34801561056157600080fd5b506101e760035481565b60095460405163473a063160e01b815230600482015260009182916001600160a01b039091169063473a063190602401602060405180830381865afa1580156105b8573d6000803e3d6000fd5b505050506040513d601f19601f820116820180604052508101906105dc9190612a6a565b905080156105ea57806105ee565b6004545b91505090565b600c54604080516395d89b4160e01b815290516060926001600160a01b0316916395d89b419160048083019260009291908290030181865afa15801561063e573d6000803e3d6000fd5b505050506040513d6000823e601f3d908101601f191682016040526106669190810190612a83565b905090565b6000858560405161067d929190612afa565b604051908190038120600a54631876eed960e01b83529092506001600160a01b031690631876eed9906106c4908e908e908e908e908e9089908d908d908d90600401612b33565b6020604051808303816000875af11580156106e3573d6000803e3d6000fd5b505050506040513d601f19601f820116820180604052508101906107079190612b92565b61072457604051631403112d60e21b815260040160405180910390fd5b6107d18a8a8080601f01602080910402602001604051908101604052809392919081815260200183838082843760009201919091525050604080516020601f8e018190048102820181019092528c815292508c91508b908190840183828082843760009201919091525050604080516020601f8b018190048102820181019092528981528c93508b9250908a908a90819084018382808284376000920191909152508a9250611207915050565b5050505050505050505050565b600054600160a01b900460ff161561080957604051636d8f115160e11b815260040160405180910390fd5b80516000805467ffffffffffffffff909216600160a81b027fffffff0000000000000000ffffffffffffffffffffffffffffffffffffffffff909216919091179055602081015160019061085d9082612c35565b5060400151600280546001600160a01b039092167fffffffffffffffffffffffff0000000000000000000000000000000000000000909216919091179055600080547fffffffffffffffffffffff00ffffffffffffffffffffffffffffffffffffffff16600160a01b179055565b61094286868080601f01602080910402602001604051908101604052809392919081815260200183838082843760009201919091525050604080516020601f8a01819004810282018101909252888152925088915087908190840183828082843760009201919091525087925086915061120f9050565b50505050505050565b6001805461095890612bb4565b80601f016020809104026020016040519081016040528092919081815260200182805461098490612bb4565b80156109d15780601f106109a6576101008083540402835291602001916109d1565b820191906000526020600020905b8154815290600101906020018083116109b457829003601f168201915b505050505081565b6009546040516361863c0360e11b815230600482015260009182916001600160a01b039091169063c30c780690602401602060405180830381865afa158015610a26573d6000803e3d6000fd5b505050506040513d601f19601f82011682018060405250810190610a4a9190612a6a565b90508015610a5857806105ee565b505060075490565b60405163e7a24ff960e01b815260040160405180910390fd5b600c546040805163313ce56760e01b815290516000926001600160a01b03169163313ce5679160048083019260209291908290030181865afa158015610ac3573d6000803e3d6000fd5b505050506040513d601f19601f820116820180604052508101906106669190612cf4565b600c54604080516306fdde0360e01b815290516060926001600160a01b0316916306fdde039160048083019260009291908290030181865afa15801561063e573d6000803e3d6000fd5b60095460405163bb07320560e01b81523060048201526001600160a01b039091169063bb07320590602401602060405180830381865afa158015610b79573d6000803e3d6000fd5b505050506040513d601f19601f82011682018060405250810190610b9d9190612b92565b15610bbb57604051630e2f42c960e31b815260040160405180910390fd5b600960009054906101000a90046001600160a01b03166001600160a01b031663bc5877066040518163ffffffff1660e01b8152600401602060405180830381865afa158015610c0e573d6000803e3d6000fd5b505050506040513d601f19601f82011682018060405250810190610c329190612b92565b15610d095760006040518060800160405280326001600160a01b03168152602001610c65600c546001600160a01b031690565b6001600160a01b039081168252602082018690526040918201859052600954915163849e8b9f60e01b8152929350169063849e8b9f90610ca9908490600401612d17565b602060405180830381865afa158015610cc6573d6000803e3d6000fd5b505050506040513d601f19601f82011682018060405250810190610cea9190612b92565b610d0757604051633042041f60e21b815260040160405180910390fd5b505b610d11610f66565b83511015610d325760405163617ab12d60e11b815260040160405180910390fd5b610d3a61056b565b83511115610d5b57604051630625040160e01b815260040160405180910390fd5b610d636110f9565b8360a001511015610d875760405163c4d8d00d60e01b815260040160405180910390fd5b610d8f611180565b8360c001511015610db3576040516355a6d6a160e11b815260040160405180910390fd5b610dbb6109d9565b8360e001511015610ddf5760405163784f02bd60e11b815260040160405180910390fd5b6000610df8846040015185600001518660600151611287565b905080846020015114610e1e576040516301bfaa2560e51b815260040160405180910390fd5b60095460405163df592f7d60e01b81523260048201526001600160a01b039091169063df592f7d90602401602060405180830381865afa158015610e66573d6000803e3d6000fd5b505050506040513d601f19601f82011682018060405250810190610e8a9190612b92565b15610ea857604051632e70c0b160e01b815260040160405180910390fd5b6040805160a081018252855181526020808701519082015260c08601519181019190915260e08501516060820152608080860151908201526000610eeb826113a0565b9050610efb8660a001518261140f565b610f30610f06610fed565b60e088015160c08901518951610f1c9190612d78565b610f269190612d78565b8860a0015161153c565b60208601516040517fd106eb38b3368b7c294e36fae5513fdefe880be5abfad529b37b044f2fdd2dbe90600090a2505050505050565b600954604051635525984960e01b815230600482015260009182916001600160a01b0390911690635525984990602401602060405180830381865afa158015610fb3573d6000803e3d6000fd5b505050506040513d601f19601f82011682018060405250810190610fd79190612a6a565b90508015610fe557806105ee565b505060035490565b6009546040516341fb697960e01b815230600482015260009182916001600160a01b03909116906341fb697990602401602060405180830381865afa15801561103a573d6000803e3d6000fd5b505050506040513d601f19601f8201168201806040525081019061105e9190612d8b565b90506001600160a01b038116611087576040516306f3d63360e51b815260040160405180910390fd5b919050565b60095460405163bb07320560e01b81523060048201526000916001600160a01b03169063bb07320590602401602060405180830381865afa1580156110d5573d6000803e3d6000fd5b505050506040513d601f19601f820116820180604052508101906106669190612b92565b600954604051637b52b00d60e01b815230600482015260009182916001600160a01b0390911690637b52b00d90602401602060405180830381865afa158015611146573d6000803e3d6000fd5b505050506040513d601f19601f8201168201806040525081019061116a9190612a6a565b9050801561117857806105ee565b505060055490565b600954604051634f314f9d60e11b815230600482015260009182916001600160a01b0390911690639e629f3a90602401602060405180830381865afa1580156111cd573d6000803e3d6000fd5b505050506040513d601f19601f820116820180604052508101906111f19190612a6a565b905080156111ff57806105ee565b505060065490565b505050505050565b600061125083838080601f0160208091040260200160405190810160405280939291908181526020018383808284376000920191909152506115ad92505050565b60005460025491925061128091600160a81b90910467ffffffffffffffff16906001600160a01b03163284611675565b5050505050565b60007f30644e72e131a029b85045b68181585d2833e84879b9709143e1f593f00000018085106112ca5760405163805f2a4960e01b815260040160405180910390fd5b80836fffffffffffffffffffffffffffffffff16106112fc57604051633bbde0bf60e21b815260040160405180910390fd5b60005460408051606081018252878152602081018790526fffffffffffffffffffffffffffffffff86168183015290516304b98e1d60e31b81526001600160a01b03909216916325cc70e89161135491600401612da8565b602060405180830381865afa158015611371573d6000803e3d6000fd5b505050506040513d601f19601f820116820180604052508101906113959190612a6a565b9150505b9392505050565b6060806113b08360000151611768565b6113bd8460200151611768565b6113ca8560400151611768565b6113d78660600151611768565b6113e48760800151611800565b6040516020016113f8959493929190612dd9565b60408051601f198184030181529190529392505050565b600254600090611429906001600160a01b03166014611837565b9050821561149f57600b54604051630c93e3bb60e01b81526001600160a01b0390911690630c93e3bb90859061146c903090600190879089903390600401612ec6565b6000604051808303818588803b15801561148557600080fd5b505af1158015611499573d6000803e3d6000fd5b50505050505b7fe68d82569479581bf9793b8672c8f40b6d3ad0545719dc0579fb3ee30919d3ef6001826040516114d1929190612f2a565b60405180910390a1600854604051631c92115f60e01b81526001600160a01b0390911690631c92115f9061150e9060019085908790600401612f4f565b600060405180830381600087803b15801561152857600080fd5b505af1158015610942573d6000803e3d6000fd5b8034146115905760405162461bcd60e51b815260206004820152601360248201527f62726964676520666565206d69736d617463680000000000000000000000000060448201526064015b60405180910390fd5b600c546115a8906001600160a01b03163385856119c6565b505050565b6115df6040518060a0016040528060008152602001600081526020016000815260200160008152602001606081525090565b6116116040518060a0016040528060008152602001600081526020016000815260200160008152602001606081525090565b600061161d8482611a3b565b908352905061162c8482611a3b565b602084019190915290506116408482611a3b565b604084019190915290506116548482611a3b565b606084019190915290506116688482611b6c565b5060808301525092915050565b6002546001600160a01b038481169116146116a357604051631b495ecf60e31b815260040160405180910390fd5b60005467ffffffffffffffff858116600160a81b90920416146116d95760405163373bc12160e11b815260040160405180910390fd5b80516000036116fb5760405163820bf1e560e01b815260040160405180910390fd5b611703610fed565b6001600160a01b03166378d60cd782846040518363ffffffff1660e01b8152600401611730929190612f88565b600060405180830381600087803b15801561174a57600080fd5b505af115801561175e573d6000803e3d6000fd5b5050505050505050565b60606001600160ff1b038211156117c15760405162461bcd60e51b815260206004820152601b60248201527f56616c756520657863656564732075696e743235352072616e676500000000006044820152606401611587565b60405160208082526000601f5b828210156117f05785811a8260208601015360019190910190600019016117ce565b5050506040818101905292915050565b805160609061180e81611c79565b83604051602001611820929190612fe5565b604051602081830303815290604052915050919050565b6060826000611847846002613014565b611852906002612d78565b67ffffffffffffffff81111561186a5761186a612668565b6040519080825280601f01601f191660200182016040528015611894576020820181803683370190505b509050600360fc1b816000815181106118af576118af61302b565b60200101906001600160f81b031916908160001a905350600f60fb1b816001815181106118de576118de61302b565b60200101906001600160f81b031916908160001a9053506000611902856002613014565b61190d906001612d78565b90505b6001811115611992577f303132333435363738396162636465660000000000000000000000000000000083600f166010811061194e5761194e61302b565b1a60f81b8282815181106119645761196461302b565b60200101906001600160f81b031916908160001a90535060049290921c9161198b81613041565b9050611910565b5081156119bc5760405163e22e27eb60e01b81526004810186905260248101859052604401611587565b9150505b92915050565b604080516001600160a01b0385811660248301528416604482015260648082018490528251808303909101815260849091019091526020810180517bffffffffffffffffffffffffffffffffffffffffffffffffffffffff166323b872dd60e01b179052611a35908590611d41565b50505050565b6000808351836020611a4d9190612d78565b11158015611a645750611a61836020612d78565b83105b611abc5760405162461bcd60e51b815260206004820152602360248201527f4e65787455696e743235352c206f66667365742065786365656473206d6178696044820152626d756d60e81b6064820152608401611587565b600060405160206000600182038760208a0101515b83831015611af15780821a83860153600183019250600182039150611ad1565b50505081016040525190506001600160ff1b03811115611b535760405162461bcd60e51b815260206004820152601760248201527f56616c75652065786365656473207468652072616e67650000000000000000006044820152606401611587565b80611b5f856020612d78565b92509250505b9250929050565b6060600080611b7b8585611da4565b8651909550909150611b8d8286612d78565b11158015611ba35750611ba08185612d78565b84105b611bfb5760405162461bcd60e51b8152602060048201526024808201527f4e65787456617242797465732c206f66667365742065786365656473206d6178604482015263696d756d60e01b6064820152608401611587565b606081158015611c1657604051915060208201604052611c60565b6040519150601f8316801560200281840101848101888315602002848c0101015b81831015611c4f578051835260209283019201611c37565b5050848452601f01601f1916604052505b5080611c6c8387612d78565b9350935050509250929050565b606060fd8267ffffffffffffffff161015611cac57604080516001815260f884901b6020820152602181019091526119c0565b61ffff8267ffffffffffffffff1611611cfc57611ccc60fd60f81b611fa8565b611cd583611fcf565b604051602001611ce6929190612fe5565b6040516020818303038152906040529050919050565b63ffffffff8267ffffffffffffffff1611611d2757611d1e607f60f91b611fa8565b611cd583612012565b611d386001600160f81b0319611fa8565b611cd583612055565b6000611d566001600160a01b03841683612098565b90508051600014158015611d7b575080806020019051810190611d799190612b92565b155b156115a857604051635274afe760e01b81526001600160a01b0384166004820152602401611587565b6000806000611db385856120a6565b9450905060006001600160f81b0319821660fd60f81b03611e4b57611dd8868661212e565b955061ffff16905060fd8110801590611df3575061ffff8111155b611e3f5760405162461bcd60e51b815260206004820152601f60248201527f4e65787455696e7431362c2076616c7565206f7574736964652072616e6765006044820152606401611587565b9250839150611b659050565b6001600160f81b03198216607f60f91b03611ed557611e6a86866121e7565b955063ffffffff16905061ffff81118015611e89575063ffffffff8111155b611e3f5760405162461bcd60e51b815260206004820181905260248201527f4e65787456617255696e742c2076616c7565206f7574736964652072616e67656044820152606401611587565b6001600160f81b03198083169003611f5257611ef186866122b8565b955067ffffffffffffffff16905063ffffffff8111611e3f5760405162461bcd60e51b815260206004820181905260248201527f4e65787456617255696e742c2076616c7565206f7574736964652072616e67656044820152606401611587565b5060f881901c60fd8110611e3f5760405162461bcd60e51b815260206004820181905260248201527f4e65787456617255696e742c2076616c7565206f7574736964652072616e67656044820152606401611587565b60408051600181526001600160f81b031983166020820152602181019091526060906119c0565b6040516002808252606091906000601f5b828210156120025785811a826020860101536001919091019060001901611fe0565b5050506022810160405292915050565b6040516004808252606091906000601f5b828210156120455785811a826020860101536001919091019060001901612023565b5050506024810160405292915050565b6040516008808252606091906000601f5b828210156120885785811a826020860101536001919091019060001901612066565b5050506028810160405292915050565b606061139983836000612389565b60008083518360016120b89190612d78565b111580156120cf57506120cc836001612d78565b83105b61211b5760405162461bcd60e51b815260206004820181905260248201527f4e657874427974652c204f66667365742065786365656473206d6178696d756d6044820152606401611587565b8383016020015180611b5f856001612d78565b60008083518360026121409190612d78565b111580156121575750612154836002612d78565b83105b6121ae5760405162461bcd60e51b815260206004820152602260248201527f4e65787455696e7431362c206f66667365742065786365656473206d6178696d604482015261756d60f01b6064820152608401611587565b6000604051846020870101518060011a82538060001a60018301535060028101604052601e81035191505080846002611b5f9190612d78565b60008083518360046121f99190612d78565b11158015612210575061220d836004612d78565b83105b6122675760405162461bcd60e51b815260206004820152602260248201527f4e65787455696e7433322c206f66667365742065786365656473206d6178696d604482015261756d60f01b6064820152608401611587565b600060405160046000600182038760208a0101515b8383101561229c5780821a8386015360018301925060018203915061227c565b505050016040819052601f190151905080611b5f856004612d78565b60008083518360086122ca9190612d78565b111580156122e157506122de836008612d78565b83105b6123385760405162461bcd60e51b815260206004820152602260248201527f4e65787455696e7436342c206f66667365742065786365656473206d6178696d604482015261756d60f01b6064820152608401611587565b600060405160086000600182038760208a0101515b8383101561236d5780821a8386015360018301925060018203915061234d565b505050016040819052601f190151905080611b5f856008612d78565b6060814710156123ae5760405163cd78605960e01b8152306004820152602401611587565b600080856001600160a01b031684866040516123ca9190613058565b60006040518083038185875af1925050503d8060008114612407576040519150601f19603f3d011682016040523d82523d6000602084013e61240c565b606091505b509150915061241c868383612426565b9695505050505050565b60608261243b5761243682612482565b611399565b815115801561245257506001600160a01b0384163b155b1561247b57604051639996b31560e01b81526001600160a01b0385166004820152602401611587565b5080611399565b8051156124925780518082602001fd5b604051630a12f52160e11b815260040160405180910390fd5b50565b60005b838110156124c95781810151838201526020016124b1565b50506000910152565b600081518084526124ea8160208601602086016124ae565b601f01601f19169290920160200192915050565b60208152600061139960208301846124d2565b60008083601f84011261252357600080fd5b50813567ffffffffffffffff81111561253b57600080fd5b602083019150836020828501011115611b6557600080fd5b60008060008060008060008060008060c08b8d03121561257257600080fd5b8a35995060208b013567ffffffffffffffff81111561259057600080fd5b61259c8d828e01612511565b909a5098505060408b013567ffffffffffffffff8111156125bc57600080fd5b6125c88d828e01612511565b90985096505060608b013567ffffffffffffffff8111156125e857600080fd5b6125f48d828e01612511565b90965094505060808b013567ffffffffffffffff81111561261457600080fd5b6126208d828e01612511565b9b9e9a9d50989b979a96999598949794969560a090950135949350505050565b602081016002831061266257634e487b7160e01b600052602160045260246000fd5b91905290565b634e487b7160e01b600052604160045260246000fd5b6040516060810167ffffffffffffffff811182821017156126a1576126a1612668565b60405290565b604051610100810167ffffffffffffffff811182821017156126a1576126a1612668565b604051601f8201601f1916810167ffffffffffffffff811182821017156126f4576126f4612668565b604052919050565b600067ffffffffffffffff82111561271657612716612668565b50601f01601f191660200190565b6000612737612732846126fc565b6126cb565b905082815283838301111561274b57600080fd5b828260208301376000602084830101529392505050565b6001600160a01b03811681146124ab57600080fd5b60006020828403121561278957600080fd5b813567ffffffffffffffff8111156127a057600080fd5b8201606081850312156127b257600080fd5b6127ba61267e565b813567ffffffffffffffff811681146127d257600080fd5b8152602082013567ffffffffffffffff8111156127ee57600080fd5b8201601f810186136127ff57600080fd5b61280e86823560208401612724565b6020830152506040820135915061282482612762565b60408101919091529392505050565b60008060008060008060006080888a03121561284e57600080fd5b87359650602088013567ffffffffffffffff81111561286c57600080fd5b6128788a828b01612511565b909750955050604088013567ffffffffffffffff81111561289857600080fd5b6128a48a828b01612511565b909550935050606088013567ffffffffffffffff8111156128c457600080fd5b6128d08a828b01612511565b989b979a50959850939692959293505050565b80356fffffffffffffffffffffffffffffffff8116811461108757600080fd5b600082601f83011261291457600080fd5b61139983833560208501612724565b6000610100828403121561293657600080fd5b61293e6126a7565b8235815260208084013590820152604080840135908201529050612964606083016128e3565b6060820152608082013567ffffffffffffffff81111561298357600080fd5b61298f84828501612903565b60808301525060a0828101359082015260c0808301359082015260e09182013591810191909152919050565b6000602082840312156129cd57600080fd5b813567ffffffffffffffff8111156129e457600080fd5b6129f084828501612923565b949350505050565b600080600060608486031215612a0d57600080fd5b833567ffffffffffffffff811115612a2457600080fd5b612a3086828701612923565b93505060208401359150604084013567ffffffffffffffff811115612a5457600080fd5b612a6086828701612903565b9150509250925092565b600060208284031215612a7c57600080fd5b5051919050565b600060208284031215612a9557600080fd5b815167ffffffffffffffff811115612aac57600080fd5b8201601f81018413612abd57600080fd5b8051612acb612732826126fc565b818152856020838501011115612ae057600080fd5b612af18260208301602086016124ae565b95945050505050565b8183823760009101908152919050565b81835281816020850137506000828201602090810191909152601f909101601f19169091010190565b89815260c060208201526000612b4d60c083018a8c612b0a565b8281036040840152612b6081898b612b0a565b90508660608401528281036080840152612b7b818688612b0a565b9150508260a08301529a9950505050505050505050565b600060208284031215612ba457600080fd5b8151801515811461139957600080fd5b600181811c90821680612bc857607f821691505b602082108103612be857634e487b7160e01b600052602260045260246000fd5b50919050565b601f8211156115a857806000526020600020601f840160051c81016020851015612c155750805b601f840160051c820191505b818110156112805760008155600101612c21565b815167ffffffffffffffff811115612c4f57612c4f612668565b612c6381612c5d8454612bb4565b84612bee565b6020601f821160018114612c975760008315612c7f5750848201515b600019600385901b1c1916600184901b178455611280565b600084815260208120601f198516915b82811015612cc75787850151825560209485019460019092019101612ca7565b5084821015612ce55786840151600019600387901b60f8161c191681555b50505050600190811b01905550565b600060208284031215612d0657600080fd5b815160ff8116811461139957600080fd5b602081526001600160a01b0382511660208201526001600160a01b03602083015116604082015260408201516060820152600060608301516080808401526129f060a08401826124d2565b634e487b7160e01b600052601160045260246000fd5b808201808211156119c0576119c0612d62565b600060208284031215612d9d57600080fd5b815161139981612762565b60608101818360005b6003811015612dd0578151835260209283019290910190600101612db1565b50505092915050565b60008651612deb818460208b016124ae565b865190830190612dff818360208b016124ae565b8651910190612e12818360208a016124ae565b8551910190612e258183602089016124ae565b8451910190612e388183602088016124ae565b01979650505050505050565b60008154612e5181612bb4565b808552600182168015612e6b5760018114612e8757612dd0565b60ff1983166020870152602082151560051b8701019350612dd0565b84600052602060002060005b83811015612eb55781546020828a010152600182019150602081019050612e93565b870160200194505050505092915050565b6001600160a01b038616815260a060208201526000612ee860a0830187612e44565b8281036040840152612efa81876124d2565b90508281036060840152612f0e81866124d2565b9150506001600160a01b03831660808301529695505050505050565b604081526000612f3d6040830185612e44565b828103602084015261139581856124d2565b606081526000612f626060830186612e44565b8281036020840152612f7481866124d2565b9050828103604084015261241c81856124d2565b60408152825160408201526020830151606082015260408301516080820152606083015160a08201526000608084015160a060c0840152612fcc60e08401826124d2565b9150506001600160a01b03831660208301529392505050565b60008351612ff78184602088016124ae565b83519083019061300b8183602088016124ae565b01949350505050565b80820281158282048414176119c0576119c0612d62565b634e487b7160e01b600052603260045260246000fd5b60008161305057613050612d62565b506000190190565b6000825161306a8184602087016124ae565b919091019291505056fea264697066735822122029aa7adebcfc3cafbef8d0650aa1dbaa4efd2132f562e94aa56c9e475a168a8964736f6c634300081a0033",
  "linkReferences": {},
  "deployedLinkReferences": {}
}