{
  "_format": "hh-sol-artifact-1",
  "contractName": "MystikoV2CelerERC20",
  "sourceName": "contracts/core/deposit/celer/MystikoV2CelerERC20.sol",
  "abi": [
    {
      "inputs": [
        {
          "internalType": "contract IHasher3",
          "name": "_hasher3",
          "type": "address"
        },
        {
          "internalType": "contract IERC20Metadata",
          "name": "_token",
          "type": "address"
        }
      ],
      "stateMutability": "nonpayable",
      "type": "constructor"
    },
    {
      "inputs": [],
      "name": "AmountLessThanZero",
      "type": "error"
    },
    {
      "inputs": [],
      "name": "AmountTooLarge",
      "type": "error"
    },
    {
      "inputs": [],
      "name": "AmountTooSmall",
      "type": "error"
    },
    {
      "inputs": [],
      "name": "BridgeFeeTooFew",
      "type": "error"
    },
    {
      "inputs": [],
      "name": "CommitmentHashIncorrect",
      "type": "error"
    },
    {
      "inputs": [],
      "name": "DepositsDisabled",
      "type": "error"
    },
    {
      "inputs": [],
      "name": "ExecutorFeeTooFew",
      "type": "error"
    },
    {
      "inputs": [],
      "name": "FromChainIdNotMatched",
      "type": "error"
    },
    {
      "inputs": [],
      "name": "FromProxyAddressNotMatched",
      "type": "error"
    },
    {
      "inputs": [],
      "name": "HashKGreaterThanFieldSize",
      "type": "error"
    },
    {
      "inputs": [
        {
          "internalType": "string",
          "name": "param",
          "type": "string"
        }
      ],
      "name": "Invalid",
      "type": "error"
    },
    {
      "inputs": [],
      "name": "MinAmountGreaterThanMaxAmount",
      "type": "error"
    },
    {
      "inputs": [],
      "name": "NotChanged",
      "type": "error"
    },
    {
      "inputs": [],
      "name": "OnlyOperator",
      "type": "error"
    },
    {
      "inputs": [],
      "name": "RandomSGreaterThanFieldSize",
      "type": "error"
    },
    {
      "inputs": [],
      "name": "RollupFeeToFew",
      "type": "error"
    },
    {
      "inputs": [],
      "name": "SanctionedAddress",
      "type": "error"
    },
    {
      "inputs": [],
      "name": "SenderIsNotBridgeProxy",
      "type": "error"
    },
    {
      "anonymous": false,
      "inputs": [
        {
          "indexed": true,
          "internalType": "uint256",
          "name": "commitment",
          "type": "uint256"
        }
      ],
      "name": "CommitmentCrossChain",
      "type": "event"
    },
    {
      "anonymous": false,
      "inputs": [
        {
          "indexed": false,
          "internalType": "uint256",
          "name": "maxAmount",
          "type": "uint256"
        },
        {
          "indexed": false,
          "internalType": "uint256",
          "name": "minAmount",
          "type": "uint256"
        }
      ],
      "name": "DepositAmountLimits",
      "type": "event"
    },
    {
      "anonymous": false,
      "inputs": [
        {
          "indexed": false,
          "internalType": "bool",
          "name": "state",
          "type": "bool"
        }
      ],
      "name": "DepositsDisabled",
      "type": "event"
    },
    {
      "anonymous": false,
      "inputs": [
        {
          "indexed": false,
          "internalType": "uint256",
          "name": "minBridgeFee",
          "type": "uint256"
        }
      ],
      "name": "MinBridgeFee",
      "type": "event"
    },
    {
      "anonymous": false,
      "inputs": [
        {
          "indexed": false,
          "internalType": "uint256",
          "name": "minExecutorFee",
          "type": "uint256"
        }
      ],
      "name": "MinExecutorFee",
      "type": "event"
    },
    {
      "anonymous": false,
      "inputs": [
        {
          "indexed": true,
          "internalType": "address",
          "name": "operator",
          "type": "address"
        }
      ],
      "name": "OperatorChanged",
      "type": "event"
    },
    {
      "anonymous": false,
      "inputs": [
        {
          "indexed": false,
          "internalType": "uint256",
          "name": "peerMinExecutorFee",
          "type": "uint256"
        }
      ],
      "name": "PeerMinExecutorFee",
      "type": "event"
    },
    {
      "anonymous": false,
      "inputs": [
        {
          "indexed": false,
          "internalType": "uint256",
          "name": "peerMinRollupFee",
          "type": "uint256"
        }
      ],
      "name": "PeerMinRollupFee",
      "type": "event"
    },
    {
      "anonymous": false,
      "inputs": [
        {
          "indexed": false,
          "internalType": "bool",
          "name": "state",
          "type": "bool"
        }
      ],
      "name": "SanctionsCheck",
      "type": "event"
    },
    {
      "anonymous": false,
      "inputs": [
        {
          "indexed": false,
          "internalType": "contract ISanctionsList",
          "name": "sanctions",
          "type": "address"
        }
      ],
      "name": "SanctionsList",
      "type": "event"
    },
    {
      "inputs": [],
      "name": "assetDecimals",
      "outputs": [
        {
          "internalType": "uint8",
          "name": "",
          "type": "uint8"
        }
      ],
      "stateMutability": "view",
      "type": "function"
    },
    {
      "inputs": [],
      "name": "assetName",
      "outputs": [
        {
          "internalType": "string",
          "name": "",
          "type": "string"
        }
      ],
      "stateMutability": "view",
      "type": "function"
    },
    {
      "inputs": [],
      "name": "assetSymbol",
      "outputs": [
        {
          "internalType": "string",
          "name": "",
          "type": "string"
        }
      ],
      "stateMutability": "view",
      "type": "function"
    },
    {
      "inputs": [],
      "name": "assetType",
      "outputs": [
        {
          "internalType": "enum AssetPool.AssetType",
          "name": "",
          "type": "uint8"
        }
      ],
      "stateMutability": "pure",
      "type": "function"
    },
    {
      "inputs": [],
      "name": "bridgeProxyAddress",
      "outputs": [
        {
          "internalType": "address",
          "name": "",
          "type": "address"
        }
      ],
      "stateMutability": "view",
      "type": "function"
    },
    {
      "inputs": [],
      "name": "bridgeType",
      "outputs": [
        {
          "internalType": "string",
          "name": "",
          "type": "string"
        }
      ],
      "stateMutability": "pure",
      "type": "function"
    },
    {
      "inputs": [
        {
          "internalType": "address",
          "name": "_newOperator",
          "type": "address"
        }
      ],
      "name": "changeOperator",
      "outputs": [],
      "stateMutability": "nonpayable",
      "type": "function"
    },
    {
      "inputs": [
        {
          "components": [
            {
              "internalType": "uint256",
              "name": "amount",
              "type": "uint256"
            },
            {
              "internalType": "uint256",
              "name": "commitment",
              "type": "uint256"
            },
            {
              "internalType": "uint256",
              "name": "hashK",
              "type": "uint256"
            },
            {
              "internalType": "uint128",
              "name": "randomS",
              "type": "uint128"
            },
            {
              "internalType": "bytes",
              "name": "encryptedNote",
              "type": "bytes"
            },
            {
              "internalType": "uint256",
              "name": "bridgeFee",
              "type": "uint256"
            },
            {
              "internalType": "uint256",
              "name": "executorFee",
              "type": "uint256"
            },
            {
              "internalType": "uint256",
              "name": "rollupFee",
              "type": "uint256"
            }
          ],
          "internalType": "struct IMystikoBridge.DepositRequest",
          "name": "_request",
          "type": "tuple"
        }
      ],
      "name": "deposit",
      "outputs": [],
      "stateMutability": "payable",
      "type": "function"
    },
    {
      "inputs": [],
      "name": "disableSanctionsCheck",
      "outputs": [],
      "stateMutability": "nonpayable",
      "type": "function"
    },
    {
      "inputs": [],
      "name": "enableSanctionsCheck",
      "outputs": [],
      "stateMutability": "nonpayable",
      "type": "function"
    },
    {
      "inputs": [
        {
          "internalType": "address",
          "name": "_sender",
          "type": "address"
        },
        {
          "internalType": "uint64",
          "name": "_srcChainId",
          "type": "uint64"
        },
        {
          "internalType": "bytes",
          "name": "_message",
          "type": "bytes"
        },
        {
          "internalType": "address",
          "name": "_executor",
          "type": "address"
        }
      ],
      "name": "executeMessage",
      "outputs": [
        {
          "internalType": "bool",
          "name": "",
          "type": "bool"
        }
      ],
      "stateMutability": "payable",
      "type": "function"
    },
    {
      "inputs": [],
      "name": "getAssociatedCommitmentPool",
      "outputs": [
        {
          "internalType": "address",
          "name": "",
          "type": "address"
        }
      ],
      "stateMutability": "view",
      "type": "function"
    },
    {
      "inputs": [],
      "name": "getMaxAmount",
      "outputs": [
        {
          "internalType": "uint256",
          "name": "",
          "type": "uint256"
        }
      ],
      "stateMutability": "view",
      "type": "function"
    },
    {
      "inputs": [],
      "name": "getMinAmount",
      "outputs": [
        {
          "internalType": "uint256",
          "name": "",
          "type": "uint256"
        }
      ],
      "stateMutability": "view",
      "type": "function"
    },
    {
      "inputs": [],
      "name": "getMinBridgeFee",
      "outputs": [
        {
          "internalType": "uint256",
          "name": "",
          "type": "uint256"
        }
      ],
      "stateMutability": "view",
      "type": "function"
    },
    {
      "inputs": [],
      "name": "getMinExecutorFee",
      "outputs": [
        {
          "internalType": "uint256",
          "name": "",
          "type": "uint256"
        }
      ],
      "stateMutability": "view",
      "type": "function"
    },
    {
      "inputs": [],
      "name": "getPeerMinExecutorFee",
      "outputs": [
        {
          "internalType": "uint256",
          "name": "",
          "type": "uint256"
        }
      ],
      "stateMutability": "view",
      "type": "function"
    },
    {
      "inputs": [],
      "name": "getPeerMinRollupFee",
      "outputs": [
        {
          "internalType": "uint256",
          "name": "",
          "type": "uint256"
        }
      ],
      "stateMutability": "view",
      "type": "function"
    },
    {
      "inputs": [],
      "name": "isDepositsDisabled",
      "outputs": [
        {
          "internalType": "bool",
          "name": "",
          "type": "bool"
        }
      ],
      "stateMutability": "view",
      "type": "function"
    },
    {
      "inputs": [],
      "name": "peerChainId",
      "outputs": [
        {
          "internalType": "uint64",
          "name": "",
          "type": "uint64"
        }
      ],
      "stateMutability": "view",
      "type": "function"
    },
    {
      "inputs": [],
      "name": "peerChainName",
      "outputs": [
        {
          "internalType": "string",
          "name": "",
          "type": "string"
        }
      ],
      "stateMutability": "view",
      "type": "function"
    },
    {
      "inputs": [],
      "name": "peerContract",
      "outputs": [
        {
          "internalType": "address",
          "name": "",
          "type": "address"
        }
      ],
      "stateMutability": "view",
      "type": "function"
    },
    {
      "inputs": [],
      "name": "sanctionsCheck",
      "outputs": [
        {
          "internalType": "bool",
          "name": "",
          "type": "bool"
        }
      ],
      "stateMutability": "view",
      "type": "function"
    },
    {
      "inputs": [],
      "name": "sanctionsList",
      "outputs": [
        {
          "internalType": "contract ISanctionsList",
          "name": "",
          "type": "address"
        }
      ],
      "stateMutability": "view",
      "type": "function"
    },
    {
      "inputs": [
        {
          "internalType": "address",
          "name": "_commitmentPoolAddress",
          "type": "address"
        }
      ],
      "name": "setAssociatedCommitmentPool",
      "outputs": [],
      "stateMutability": "nonpayable",
      "type": "function"
    },
    {
      "inputs": [
        {
          "internalType": "address",
          "name": "_bridgeProxyAddress",
          "type": "address"
        }
      ],
      "name": "setBridgeProxyAddress",
      "outputs": [],
      "stateMutability": "nonpayable",
      "type": "function"
    },
    {
      "inputs": [
        {
          "internalType": "bool",
          "name": "_state",
          "type": "bool"
        }
      ],
      "name": "setDepositsDisabled",
      "outputs": [],
      "stateMutability": "nonpayable",
      "type": "function"
    },
    {
      "inputs": [
        {
          "internalType": "uint256",
          "name": "_minBridgeFee",
          "type": "uint256"
        }
      ],
      "name": "setMinBridgeFee",
      "outputs": [],
      "stateMutability": "nonpayable",
      "type": "function"
    },
    {
      "inputs": [
        {
          "internalType": "uint256",
          "name": "_minExecutorFee",
          "type": "uint256"
        }
      ],
      "name": "setMinExecutorFee",
      "outputs": [],
      "stateMutability": "nonpayable",
      "type": "function"
    },
    {
      "inputs": [
        {
          "internalType": "uint64",
          "name": "_peerChainId",
          "type": "uint64"
        },
        {
          "internalType": "string",
          "name": "_peerChainName",
          "type": "string"
        },
        {
          "internalType": "address",
          "name": "_peerContract",
          "type": "address"
        }
      ],
      "name": "setPeerContract",
      "outputs": [],
      "stateMutability": "nonpayable",
      "type": "function"
    },
    {
      "inputs": [
        {
          "internalType": "uint256",
          "name": "_peerMinExecutorFee",
          "type": "uint256"
        }
      ],
      "name": "setPeerMinExecutorFee",
      "outputs": [],
      "stateMutability": "nonpayable",
      "type": "function"
    },
    {
      "inputs": [
        {
          "internalType": "uint256",
          "name": "_peerMinRollupFee",
          "type": "uint256"
        }
      ],
      "name": "setPeerMinRollupFee",
      "outputs": [],
      "stateMutability": "nonpayable",
      "type": "function"
    },
    {
      "inputs": [
        {
          "internalType": "uint256",
          "name": "_maxAmount",
          "type": "uint256"
        },
        {
          "internalType": "uint256",
          "name": "_minAmount",
          "type": "uint256"
        }
      ],
      "name": "updateDepositAmountLimits",
      "outputs": [],
      "stateMutability": "nonpayable",
      "type": "function"
    },
    {
      "inputs": [
        {
          "internalType": "contract ISanctionsList",
          "name": "_sanction",
          "type": "address"
        }
      ],
      "name": "updateSanctionsListAddress",
      "outputs": [],
      "stateMutability": "nonpayable",
      "type": "function"
    }
  ],
  "bytecode": "0x6080604052600080546001600160a81b031916740140c57923924b5c5c5455c48d93317139addac8fb1790553480156200003857600080fd5b5060405162002b2e38038062002b2e8339810160408190526200005b9162000098565b600c8054336001600160a01b0319918216179091556001805482166001600160a01b03948516179055600d805490911691909216179055620000f0565b60008060408385031215620000ac57600080fd5b8251620000b981620000d7565b6020840151909250620000cc81620000d7565b809150509250929050565b6001600160a01b0381168114620000ed57600080fd5b50565b612a2e80620001006000396000f3fe6080604052600436106102195760003560e01c80639a03636c1161011d578063dd757c34116100b0578063ea0cde851161007f578063ed6ea33a11610064578063ed6ea33a14610610578063efbfb2ae1461062f578063f4ad17c61461064457600080fd5b8063ea0cde85146105d0578063ec571c6a146105f057600080fd5b8063dd757c341461055d578063ddac5dc114610572578063e19abef814610590578063e8183c44146105b057600080fd5b8063c2d41601116100ec578063c2d41601146104cb578063c9230c5d146104f2578063cdfceeba14610507578063cfc7e2da1461054857600080fd5b80639a03636c146104545780639c649fdf14610467578063a3bc64f21461048a578063b1c39422146104aa57600080fd5b80632cd26d45116101b0578063521ff0571161017f5780635e10b2b7116101645780635e10b2b7146103ff5780637d2c85201461041f578063825b5f8d1461043f57600080fd5b8063521ff057146103ca5780635898a0a8146103ea57600080fd5b80632cd26d451461035957806330f49cac146103795780633fe3347a146103995780634e3c10b7146103b557600080fd5b8063176de7a8116101ec578063176de7a81461029957806319e75d6e146102bb57806321e32d55146102db5780632421e1551461031357600080fd5b806301dbf19f1461021e57806306394c9b146102355780630ba9590914610255578063153dc45014610279575b600080fd5b34801561022a57600080fd5b50610233610659565b005b34801561024157600080fd5b506102336102503660046123ab565b6106dd565b34801561026157600080fd5b506007545b6040519081526020015b60405180910390f35b34801561028557600080fd5b506102336102943660046125e2565b610781565b3480156102a557600080fd5b506102ae6107e8565b604051610270919061283c565b3480156102c757600080fd5b506102336102d63660046125e2565b61086e565b3480156102e757600080fd5b506004546102fb906001600160a01b031681565b6040516001600160a01b039091168152602001610270565b34801561031f57600080fd5b5060408051808201909152600581527f63656c657200000000000000000000000000000000000000000000000000000060208201526102ae565b34801561036557600080fd5b506005546102fb906001600160a01b031681565b34801561038557600080fd5b506102336103943660046123ab565b6108cd565b3480156103a557600080fd5b5060006040516102709190612814565b3480156103c157600080fd5b506102ae610946565b3480156103d657600080fd5b506102336103e53660046125e2565b6109d4565b3480156103f657600080fd5b50600a54610266565b34801561040b57600080fd5b5061023361041a3660046125e2565b610a87565b34801561042b57600080fd5b5061023361043a366004612636565b610ae7565b34801561044b57600080fd5b50600b54610266565b610233610462366004612524565b610b84565b61047a6104753660046123c8565b610d94565b6040519015158152602001610270565b34801561049657600080fd5b506102336104a53660046123ab565b610e1e565b3480156104b657600080fd5b5060005461047a90600160a01b900460ff1681565b3480156104d757600080fd5b506104e0610e6b565b60405160ff9091168152602001610270565b3480156104fe57600080fd5b506102ae610ee8565b34801561051357600080fd5b5060025461052f90600160a01b900467ffffffffffffffff1681565b60405167ffffffffffffffff9091168152602001610270565b34801561055457600080fd5b50600654610266565b34801561056957600080fd5b50610233610f2d565b34801561057e57600080fd5b506002546001600160a01b03166102fb565b34801561059c57600080fd5b506102336105ab3660046123ab565b610fa5565b3480156105bc57600080fd5b506102336105cb366004612614565b610ff2565b3480156105dc57600080fd5b506102336105eb366004612473565b611085565b3480156105fc57600080fd5b506000546102fb906001600160a01b031681565b34801561061c57600080fd5b50600c54600160a01b900460ff1661047a565b34801561063b57600080fd5b50600854610266565b34801561065057600080fd5b50600954610266565b600c546001600160a01b03163314610684576040516327e1f1e560e01b815260040160405180910390fd5b6000805460ff60a01b1916600160a01b908117918290556040517fa5ffe1601eb93a7fefd0d0eeb5fc94a2f65475f333836fe2b87fd7bbf5952069926106d392900460ff161515815260200190565b60405180910390a1565b600c546001600160a01b03163314610708576040516327e1f1e560e01b815260040160405180910390fd5b600c546001600160a01b0382811691161415610737576040516336a1c33f60e01b815260040160405180910390fd5b600c80546001600160a01b0319166001600160a01b0383169081179091556040517f4721129e0e676ed6a92909bb24e853ccdd63ad72280cc2e974e38e480e0e6e5490600090a250565b600c546001600160a01b031633146107ac576040516327e1f1e560e01b815260040160405180910390fd5b600a8190556040518181527f14988234d3e50a12aeec2d6ee595b70c2fae163caff28baab5802b122bf2a753906020015b60405180910390a150565b600d54604080516395d89b4160e01b815290516060926001600160a01b0316916395d89b41916004808301926000929190829003018186803b15801561082d57600080fd5b505afa158015610841573d6000803e3d6000fd5b505050506040513d6000823e601f3d908101601f1916820160405261086991908101906124ad565b905090565b600c546001600160a01b03163314610899576040516327e1f1e560e01b815260040160405180910390fd5b60088190556040518181527e91f5f5db3092e39ecb701218d4af20b7571e0429595937c334f3acd14fe2fe906020016107dd565b600c546001600160a01b031633146108f8576040516327e1f1e560e01b815260040160405180910390fd5b600080546001600160a01b0319166001600160a01b0383169081179091556040519081527fbe1808917e09814fca7d80289a9760a4065f10d624ac1aee0b9f903c4f5d92b1906020016107dd565b6003805461095390612981565b80601f016020809104026020016040519081016040528092919081815260200182805461097f90612981565b80156109cc5780601f106109a1576101008083540402835291602001916109cc565b820191906000526020600020905b8154815290600101906020018083116109af57829003601f168201915b505050505081565b600c546001600160a01b031633146109ff576040516327e1f1e560e01b815260040160405180910390fd5b80610a52576040516314e8955b60e21b815260206004820152601760248201527f70656572206d696e696d616c20726f6c6c75702066656500000000000000000060448201526064015b60405180910390fd5b600b8190556040518181527f878075a8e8aa1c7c15e6932752520f7812bf5744785e6df605373729da415545906020016107dd565b600c546001600160a01b03163314610ab2576040516327e1f1e560e01b815260040160405180910390fd5b60098190556040518181527f88d210dfa198f7519579294721f90c771153a7b49101eefb95147037cc8ce481906020016107dd565b600c546001600160a01b03163314610b12576040516327e1f1e560e01b815260040160405180910390fd5b600280547fffffffff0000000000000000ffffffffffffffffffffffffffffffffffffffff16600160a01b67ffffffffffffffff8616021790558151610b5f90600390602085019061227c565b50600480546001600160a01b0319166001600160a01b03929092169190911790555050565b600c54600160a01b900460ff1615610baf57604051630e2f42c960e31b815260040160405180910390fd5b60065481511015610bd35760405163617ab12d60e11b815260040160405180910390fd5b60075481511115610bf757604051630625040160e01b815260040160405180910390fd5b6008548160a001511015610c1e5760405163c4d8d00d60e01b815260040160405180910390fd5b600a548160c001511015610c45576040516355a6d6a160e11b815260040160405180910390fd5b600b548160e001511015610c6c5760405163784f02bd60e11b815260040160405180910390fd5b6000610c858260400151836000015184606001516110fd565b905080826020015114610cab576040516301bfaa2560e51b815260040160405180910390fd5b610cb433611225565b15610cd257604051632e70c0b160e01b815260040160405180910390fd5b6040805160a081018252835181526020808501519082015260c08401519181019190915260e08301516060820152608080840151908201526000610d15826112c2565b9050610d258460a0015182611331565b60025460e085015160c08601518651610d60936001600160a01b03169291610d4c9161292f565b610d56919061292f565b8660a001516113b4565b60208401516040517fd106eb38b3368b7c294e36fae5513fdefe880be5abfad529b37b044f2fdd2dbe90600090a250505050565b6005546000906001600160a01b03163314610dc257604051633dca01cf60e11b815260040160405180910390fd5b6000610e0385858080601f01602080910402602001604051908101604052809392919081815260200183838082843760009201919091525061142092505050565b9050610e11868885846114e8565b5060019695505050505050565b600c546001600160a01b03163314610e49576040516327e1f1e560e01b815260040160405180910390fd5b600580546001600160a01b0319166001600160a01b0392909216919091179055565b600d546040805163313ce56760e01b815290516000926001600160a01b03169163313ce567916004808301926020929190829003018186803b158015610eb057600080fd5b505afa158015610ec4573d6000803e3d6000fd5b505050506040513d601f19601f8201168201806040525081019061086991906126ac565b600d54604080516306fdde0360e01b815290516060926001600160a01b0316916306fdde03916004808301926000929190829003018186803b15801561082d57600080fd5b600c546001600160a01b03163314610f58576040516327e1f1e560e01b815260040160405180910390fd5b6000805460ff60a01b1916908190556040517fa5ffe1601eb93a7fefd0d0eeb5fc94a2f65475f333836fe2b87fd7bbf5952069916106d391600160a01b90910460ff161515815260200190565b600c546001600160a01b03163314610fd0576040516327e1f1e560e01b815260040160405180910390fd5b600280546001600160a01b0319166001600160a01b0392909216919091179055565b600c546001600160a01b0316331461101d576040516327e1f1e560e01b815260040160405180910390fd5b8181111561103e57604051636003e82160e11b815260040160405180910390fd5b6007829055600681905560408051838152602081018390527f7633004c7a229869aeea10db4ff3e57e3b1534aeb2c9e72c5db25f965895c330910160405180910390a15050565b600c546001600160a01b031633146110b0576040516327e1f1e560e01b815260040160405180910390fd5b600c8054821515600160a01b0260ff60a01b199091161790556040517fcd162c6fc24285bfbe399ec0cc2ce2c380ad27d2eb1fca418c652df1257e7e09906107dd90831515815260200190565b60007f30644e72e131a029b85045b68181585d2833e84879b9709143e1f593f00000018085106111405760405163805f2a4960e01b815260040160405180910390fd5b80836fffffffffffffffffffffffffffffffff161061117257604051633bbde0bf60e21b815260040160405180910390fd5b60015460408051606081018252878152602081018790526fffffffffffffffffffffffffffffffff86168183015290516304b98e1d60e31b81526001600160a01b03909216916325cc70e8916111ca916004016127e3565b60206040518083038186803b1580156111e257600080fd5b505afa1580156111f6573d6000803e3d6000fd5b505050506040513d601f19601f8201168201806040525081019061121a91906125fb565b9150505b9392505050565b60008054600160a01b900460ff1661123f57506000919050565b60005460405163df592f7d60e01b81526001600160a01b0384811660048301529091169063df592f7d9060240160206040518083038186803b15801561128457600080fd5b505afa158015611298573d6000803e3d6000fd5b505050506040513d601f19601f820116820180604052508101906112bc9190612490565b92915050565b6060806112d283600001516115d5565b6112df84602001516115d5565b6112ec85604001516115d5565b6112f986606001516115d5565b611306876080015161166d565b60405160200161131a959493929190612746565b60408051601f198184030181529190529392505050565b60055460048054600254604051634f9e72ad60e11b81526001600160a01b0394851694639f3ce55a94889461137e94921692600160a01b90920467ffffffffffffffff16918891016127b1565b6000604051808303818588803b15801561139757600080fd5b505af11580156113ab573d6000803e3d6000fd5b50505050505050565b8034146114035760405162461bcd60e51b815260206004820152601360248201527f62726964676520666565206d69736d61746368000000000000000000000000006044820152606401610a49565b600d5461141b906001600160a01b03163385856116a4565b505050565b6114526040518060a0016040528060008152602001600081526020016000815260200160008152602001606081525090565b6114846040518060a0016040528060008152602001600081526020016000815260200160008152602001606081525090565b60006114908482611719565b908352905061149f8482611719565b602084019190915290506114b38482611719565b604084019190915290506114c78482611719565b606084019190915290506114db848261184a565b5060808301525092915050565b6004546001600160a01b0384811691161461151657604051631440e07960e11b815260040160405180910390fd5b60025467ffffffffffffffff858116600160a01b909204161461154c57604051633876304f60e21b815260040160405180910390fd5b805161156b5760405163820bf1e560e01b815260040160405180910390fd5b6002546040516378d60cd760e01b81526001600160a01b03909116906378d60cd79061159d908490869060040161284f565b600060405180830381600087803b1580156115b757600080fd5b505af11580156115cb573d6000803e3d6000fd5b5050505050505050565b60606001600160ff1b0382111561162e5760405162461bcd60e51b815260206004820152601b60248201527f56616c756520657863656564732075696e743235352072616e676500000000006044820152606401610a49565b60405160208082526000601f5b8282101561165d5785811a82602086010153600191909101906000190161163b565b5050506040818101905292915050565b805160609061167b81611957565b8360405160200161168d929190612717565b604051602081830303815290604052915050919050565b604080516001600160a01b0385811660248301528416604482015260648082018490528251808303909101815260849091019091526020810180517bffffffffffffffffffffffffffffffffffffffffffffffffffffffff166323b872dd60e01b179052611713908590611a24565b50505050565b600080835183602061172b919061292f565b11158015611742575061173f83602061292f565b83105b61179a5760405162461bcd60e51b815260206004820152602360248201527f4e65787455696e743235352c206f66667365742065786365656473206d6178696044820152626d756d60e81b6064820152608401610a49565b600060405160206000600182038760208a0101515b838310156117cf5780821a838601536001830192506001820391506117af565b50505081016040525190506001600160ff1b038111156118315760405162461bcd60e51b815260206004820152601760248201527f56616c75652065786365656473207468652072616e67650000000000000000006044820152606401610a49565b8061183d85602061292f565b92509250505b9250929050565b60606000806118598585611b09565b865190955090915061186b828661292f565b11158015611881575061187e818561292f565b84105b6118d95760405162461bcd60e51b8152602060048201526024808201527f4e65787456617242797465732c206f66667365742065786365656473206d6178604482015263696d756d60e01b6064820152608401610a49565b6060811580156118f45760405191506020820160405261193e565b6040519150601f8316801560200281840101848101888315602002848c0101015b8183101561192d578051835260209283019201611915565b5050848452601f01601f1916604052505b508061194a838761292f565b9350935050509250929050565b606060fd8267ffffffffffffffff16101561198a57604080516001815260f884901b6020820152602181019091526112bc565b61ffff8267ffffffffffffffff16116119da576119aa60fd60f81b611d0f565b6119b383611d36565b6040516020016119c4929190612717565b6040516020818303038152906040529050919050565b63ffffffff8267ffffffffffffffff1611611a05576119fc607f60f91b611d0f565b6119b383611d79565b611a166001600160f81b0319611d0f565b6119b383611dbc565b919050565b6000611a79826040518060400160405280602081526020017f5361666545524332303a206c6f772d6c6576656c2063616c6c206661696c6564815250856001600160a01b0316611dff9092919063ffffffff16565b80519091501561141b5780806020019051810190611a979190612490565b61141b5760405162461bcd60e51b815260206004820152602a60248201527f5361666545524332303a204552433230206f7065726174696f6e20646964206e60448201527f6f742073756363656564000000000000000000000000000000000000000000006064820152608401610a49565b6000806000611b188585611e16565b94509050600060fd60f81b6001600160f81b031983161415611bb157611b3e8686611e9e565b955061ffff16905060fd8110801590611b59575061ffff8111155b611ba55760405162461bcd60e51b815260206004820152601f60248201527f4e65787455696e7431362c2076616c7565206f7574736964652072616e6765006044820152606401610a49565b92508391506118439050565b607f60f91b6001600160f81b031983161415611c3c57611bd18686611f57565b955063ffffffff16905061ffff81118015611bf0575063ffffffff8111155b611ba55760405162461bcd60e51b815260206004820181905260248201527f4e65787456617255696e742c2076616c7565206f7574736964652072616e67656044820152606401610a49565b6001600160f81b03198083161415611cb957611c588686612029565b955067ffffffffffffffff16905063ffffffff8111611ba55760405162461bcd60e51b815260206004820181905260248201527f4e65787456617255696e742c2076616c7565206f7574736964652072616e67656044820152606401610a49565b5060f881901c60fd8110611ba55760405162461bcd60e51b815260206004820181905260248201527f4e65787456617255696e742c2076616c7565206f7574736964652072616e67656044820152606401610a49565b60408051600181526001600160f81b031983166020820152602181019091526060906112bc565b6040516002808252606091906000601f5b82821015611d695785811a826020860101536001919091019060001901611d47565b5050506022810160405292915050565b6040516004808252606091906000601f5b82821015611dac5785811a826020860101536001919091019060001901611d8a565b5050506024810160405292915050565b6040516008808252606091906000601f5b82821015611def5785811a826020860101536001919091019060001901611dcd565b5050506028810160405292915050565b6060611e0e84846000856120fb565b949350505050565b6000808351836001611e28919061292f565b11158015611e3f5750611e3c83600161292f565b83105b611e8b5760405162461bcd60e51b815260206004820181905260248201527f4e657874427974652c204f66667365742065786365656473206d6178696d756d6044820152606401610a49565b838301602001518061183d85600161292f565b6000808351836002611eb0919061292f565b11158015611ec75750611ec483600261292f565b83105b611f1e5760405162461bcd60e51b815260206004820152602260248201527f4e65787455696e7431362c206f66667365742065786365656473206d6178696d604482015261756d60f01b6064820152608401610a49565b6000604051846020870101518060011a82538060001a60018301535060028101604052601e8103519150508084600261183d919061292f565b6000808351836004611f69919061292f565b11158015611f805750611f7d83600461292f565b83105b611fd75760405162461bcd60e51b815260206004820152602260248201527f4e65787455696e7433322c206f66667365742065786365656473206d6178696d604482015261756d60f01b6064820152608401610a49565b600060405160046000600182038760208a0101515b8383101561200c5780821a83860153600183019250600182039150611fec565b50505081810160405260200390035190508061183d85600461292f565b600080835183600861203b919061292f565b11158015612052575061204f83600861292f565b83105b6120a95760405162461bcd60e51b815260206004820152602260248201527f4e65787455696e7436342c206f66667365742065786365656473206d6178696d604482015261756d60f01b6064820152608401610a49565b600060405160086000600182038760208a0101515b838310156120de5780821a838601536001830192506001820391506120be565b50505081810160405260200390035190508061183d85600861292f565b6060824710156121735760405162461bcd60e51b815260206004820152602660248201527f416464726573733a20696e73756666696369656e742062616c616e636520666f60448201527f722063616c6c00000000000000000000000000000000000000000000000000006064820152608401610a49565b6001600160a01b0385163b6121ca5760405162461bcd60e51b815260206004820152601d60248201527f416464726573733a2063616c6c20746f206e6f6e2d636f6e74726163740000006044820152606401610a49565b600080866001600160a01b031685876040516121e691906126fb565b60006040518083038185875af1925050503d8060008114612223576040519150601f19603f3d011682016040523d82523d6000602084013e612228565b606091505b5091509150612238828286612243565b979650505050505050565b6060831561225257508161121e565b8251156122625782518084602001fd5b8160405162461bcd60e51b8152600401610a49919061283c565b82805461228890612981565b90600052602060002090601f0160209004810192826122aa57600085556122f0565b82601f106122c357805160ff19168380011785556122f0565b828001600101855582156122f0579182015b828111156122f05782518255916020019190600101906122d5565b506122fc929150612300565b5090565b5b808211156122fc5760008155600101612301565b600061232861232384612907565b6128d6565b905082815283838301111561233c57600080fd5b828260208301376000602084830101529392505050565b600082601f83011261236457600080fd5b61121e83833560208501612315565b80356fffffffffffffffffffffffffffffffff81168114611a1f57600080fd5b803567ffffffffffffffff81168114611a1f57600080fd5b6000602082840312156123bd57600080fd5b813561121e816129d2565b6000806000806000608086880312156123e057600080fd5b85356123eb816129d2565b94506123f960208701612393565b9350604086013567ffffffffffffffff8082111561241657600080fd5b818801915088601f83011261242a57600080fd5b81358181111561243957600080fd5b89602082850101111561244b57600080fd5b6020830195508094505050506060860135612465816129d2565b809150509295509295909350565b60006020828403121561248557600080fd5b813561121e816129ea565b6000602082840312156124a257600080fd5b815161121e816129ea565b6000602082840312156124bf57600080fd5b815167ffffffffffffffff8111156124d657600080fd5b8201601f810184136124e757600080fd5b80516124f561232382612907565b81815285602083850101111561250a57600080fd5b61251b826020830160208601612955565b95945050505050565b60006020828403121561253657600080fd5b813567ffffffffffffffff8082111561254e57600080fd5b90830190610100828603121561256357600080fd5b61256b6128ac565b82358152602083013560208201526040830135604082015261258f60608401612373565b60608201526080830135828111156125a657600080fd5b6125b287828601612353565b60808301525060a083013560a082015260c083013560c082015260e083013560e082015280935050505092915050565b6000602082840312156125f457600080fd5b5035919050565b60006020828403121561260d57600080fd5b5051919050565b6000806040838503121561262757600080fd5b50508035926020909101359150565b60008060006060848603121561264b57600080fd5b61265484612393565b9250602084013567ffffffffffffffff81111561267057600080fd5b8401601f8101861361268157600080fd5b61269086823560208401612315565b92505060408401356126a1816129d2565b809150509250925092565b6000602082840312156126be57600080fd5b815160ff8116811461121e57600080fd5b600081518084526126e7816020860160208601612955565b601f01601f19169290920160200192915050565b6000825161270d818460208701612955565b9190910192915050565b60008351612729818460208801612955565b83519083019061273d818360208801612955565b01949350505050565b60008651612758818460208b01612955565b86519083019061276c818360208b01612955565b865191019061277f818360208a01612955565b8551910190612792818360208901612955565b84519101906127a5818360208801612955565b01979650505050505050565b6001600160a01b038416815267ffffffffffffffff8316602082015260606040820152600061251b60608301846126cf565b60608101818360005b600381101561280b5781518352602092830192909101906001016127ec565b50505092915050565b602081016002831061283657634e487b7160e01b600052602160045260246000fd5b91905290565b60208152600061121e60208301846126cf565b60408152825160408201526020830151606082015260408301516080820152606083015160a08201526000608084015160a060c084015261289360e08401826126cf565b9150506001600160a01b03831660208301529392505050565b604051610100810167ffffffffffffffff811182821017156128d0576128d06129bc565b60405290565b604051601f8201601f1916810167ffffffffffffffff811182821017156128ff576128ff6129bc565b604052919050565b600067ffffffffffffffff821115612921576129216129bc565b50601f01601f191660200190565b6000821982111561295057634e487b7160e01b600052601160045260246000fd5b500190565b60005b83811015612970578181015183820152602001612958565b838111156117135750506000910152565b600181811c9082168061299557607f821691505b602082108114156129b657634e487b7160e01b600052602260045260246000fd5b50919050565b634e487b7160e01b600052604160045260246000fd5b6001600160a01b03811681146129e757600080fd5b50565b80151581146129e757600080fdfea26469706673582212205dcfcd9d208a292590322d0997dd231e8a3b7f09ed9565dd96c6ed170be4f09664736f6c63430008070033",
  "linkReferences": {},
  "deployedLinkReferences": {}
}