{
  "_format": "hh-sol-artifact-1",
  "contractName": "MystikoV2TBridgeMain",
  "sourceName": "contracts/core/deposit/tbridge/MystikoV2TBridgeMain.sol",
  "abi": [
    {
      "inputs": [
        {
          "internalType": "contract IHasher3",
          "name": "_hasher3",
          "type": "address"
        }
      ],
      "stateMutability": "nonpayable",
      "type": "constructor"
    },
    {
      "inputs": [],
      "name": "AmountLessThanZero",
      "type": "error"
    },
    {
      "inputs": [],
      "name": "AmountTooLarge",
      "type": "error"
    },
    {
      "inputs": [],
      "name": "AmountTooSmall",
      "type": "error"
    },
    {
      "inputs": [],
      "name": "BridgeFeeTooFew",
      "type": "error"
    },
    {
      "inputs": [],
      "name": "CommitmentHashIncorrect",
      "type": "error"
    },
    {
      "inputs": [],
      "name": "DepositsDisabled",
      "type": "error"
    },
    {
      "inputs": [],
      "name": "ExecutorFeeTooFew",
      "type": "error"
    },
    {
      "inputs": [],
      "name": "FromChainIdNotMatched",
      "type": "error"
    },
    {
      "inputs": [],
      "name": "FromProxyAddressNotMatched",
      "type": "error"
    },
    {
      "inputs": [],
      "name": "HashKGreaterThanFieldSize",
      "type": "error"
    },
    {
      "inputs": [
        {
          "internalType": "string",
          "name": "param",
          "type": "string"
        }
      ],
      "name": "Invalid",
      "type": "error"
    },
    {
      "inputs": [],
      "name": "MinAmountGreaterThanMaxAmount",
      "type": "error"
    },
    {
      "inputs": [],
      "name": "NotChanged",
      "type": "error"
    },
    {
      "inputs": [],
      "name": "OnlyOperator",
      "type": "error"
    },
    {
      "inputs": [],
      "name": "RandomSGreaterThanFieldSize",
      "type": "error"
    },
    {
      "inputs": [],
      "name": "RollupFeeToFew",
      "type": "error"
    },
    {
      "inputs": [],
      "name": "SanctionedAddress",
      "type": "error"
    },
    {
      "inputs": [],
      "name": "SenderIsNotBridgeProxy",
      "type": "error"
    },
    {
      "anonymous": false,
      "inputs": [
        {
          "indexed": true,
          "internalType": "uint256",
          "name": "commitment",
          "type": "uint256"
        }
      ],
      "name": "CommitmentCrossChain",
      "type": "event"
    },
    {
      "anonymous": false,
      "inputs": [
        {
          "indexed": false,
          "internalType": "uint256",
          "name": "maxAmount",
          "type": "uint256"
        },
        {
          "indexed": false,
          "internalType": "uint256",
          "name": "minAmount",
          "type": "uint256"
        }
      ],
      "name": "DepositAmountLimits",
      "type": "event"
    },
    {
      "anonymous": false,
      "inputs": [
        {
          "indexed": false,
          "internalType": "bool",
          "name": "state",
          "type": "bool"
        }
      ],
      "name": "DepositsDisabled",
      "type": "event"
    },
    {
      "anonymous": false,
      "inputs": [
        {
          "indexed": false,
          "internalType": "uint256",
          "name": "minBridgeFee",
          "type": "uint256"
        }
      ],
      "name": "MinBridgeFee",
      "type": "event"
    },
    {
      "anonymous": false,
      "inputs": [
        {
          "indexed": false,
          "internalType": "uint256",
          "name": "minExecutorFee",
          "type": "uint256"
        }
      ],
      "name": "MinExecutorFee",
      "type": "event"
    },
    {
      "anonymous": false,
      "inputs": [
        {
          "indexed": true,
          "internalType": "address",
          "name": "operator",
          "type": "address"
        }
      ],
      "name": "OperatorChanged",
      "type": "event"
    },
    {
      "anonymous": false,
      "inputs": [
        {
          "indexed": false,
          "internalType": "uint256",
          "name": "peerMinExecutorFee",
          "type": "uint256"
        }
      ],
      "name": "PeerMinExecutorFee",
      "type": "event"
    },
    {
      "anonymous": false,
      "inputs": [
        {
          "indexed": false,
          "internalType": "uint256",
          "name": "peerMinRollupFee",
          "type": "uint256"
        }
      ],
      "name": "PeerMinRollupFee",
      "type": "event"
    },
    {
      "anonymous": false,
      "inputs": [
        {
          "indexed": false,
          "internalType": "bool",
          "name": "state",
          "type": "bool"
        }
      ],
      "name": "SanctionsCheck",
      "type": "event"
    },
    {
      "anonymous": false,
      "inputs": [
        {
          "indexed": false,
          "internalType": "contract ISanctionsList",
          "name": "sanctions",
          "type": "address"
        }
      ],
      "name": "SanctionsList",
      "type": "event"
    },
    {
      "inputs": [],
      "name": "assetType",
      "outputs": [
        {
          "internalType": "enum AssetPool.AssetType",
          "name": "",
          "type": "uint8"
        }
      ],
      "stateMutability": "pure",
      "type": "function"
    },
    {
      "inputs": [],
      "name": "bridgeProxyAddress",
      "outputs": [
        {
          "internalType": "address",
          "name": "",
          "type": "address"
        }
      ],
      "stateMutability": "view",
      "type": "function"
    },
    {
      "inputs": [],
      "name": "bridgeType",
      "outputs": [
        {
          "internalType": "string",
          "name": "",
          "type": "string"
        }
      ],
      "stateMutability": "pure",
      "type": "function"
    },
    {
      "inputs": [
        {
          "internalType": "address",
          "name": "_newOperator",
          "type": "address"
        }
      ],
      "name": "changeOperator",
      "outputs": [],
      "stateMutability": "nonpayable",
      "type": "function"
    },
    {
      "inputs": [
        {
          "internalType": "uint64",
          "name": "_fromChainId",
          "type": "uint64"
        },
        {
          "internalType": "address",
          "name": "_fromContract",
          "type": "address"
        },
        {
          "internalType": "bytes",
          "name": "_message",
          "type": "bytes"
        },
        {
          "internalType": "address",
          "name": "_executor",
          "type": "address"
        }
      ],
      "name": "crossChainSyncTx",
      "outputs": [
        {
          "internalType": "bool",
          "name": "",
          "type": "bool"
        }
      ],
      "stateMutability": "nonpayable",
      "type": "function"
    },
    {
      "inputs": [
        {
          "components": [
            {
              "internalType": "uint256",
              "name": "amount",
              "type": "uint256"
            },
            {
              "internalType": "uint256",
              "name": "commitment",
              "type": "uint256"
            },
            {
              "internalType": "uint256",
              "name": "hashK",
              "type": "uint256"
            },
            {
              "internalType": "uint128",
              "name": "randomS",
              "type": "uint128"
            },
            {
              "internalType": "bytes",
              "name": "encryptedNote",
              "type": "bytes"
            },
            {
              "internalType": "uint256",
              "name": "bridgeFee",
              "type": "uint256"
            },
            {
              "internalType": "uint256",
              "name": "executorFee",
              "type": "uint256"
            },
            {
              "internalType": "uint256",
              "name": "rollupFee",
              "type": "uint256"
            }
          ],
          "internalType": "struct IMystikoBridge.DepositRequest",
          "name": "_request",
          "type": "tuple"
        }
      ],
      "name": "deposit",
      "outputs": [],
      "stateMutability": "payable",
      "type": "function"
    },
    {
      "inputs": [],
      "name": "disableSanctionsCheck",
      "outputs": [],
      "stateMutability": "nonpayable",
      "type": "function"
    },
    {
      "inputs": [],
      "name": "enableSanctionsCheck",
      "outputs": [],
      "stateMutability": "nonpayable",
      "type": "function"
    },
    {
      "inputs": [],
      "name": "getAssociatedCommitmentPool",
      "outputs": [
        {
          "internalType": "address",
          "name": "",
          "type": "address"
        }
      ],
      "stateMutability": "view",
      "type": "function"
    },
    {
      "inputs": [],
      "name": "getMaxAmount",
      "outputs": [
        {
          "internalType": "uint256",
          "name": "",
          "type": "uint256"
        }
      ],
      "stateMutability": "view",
      "type": "function"
    },
    {
      "inputs": [],
      "name": "getMinAmount",
      "outputs": [
        {
          "internalType": "uint256",
          "name": "",
          "type": "uint256"
        }
      ],
      "stateMutability": "view",
      "type": "function"
    },
    {
      "inputs": [],
      "name": "getMinBridgeFee",
      "outputs": [
        {
          "internalType": "uint256",
          "name": "",
          "type": "uint256"
        }
      ],
      "stateMutability": "view",
      "type": "function"
    },
    {
      "inputs": [],
      "name": "getMinExecutorFee",
      "outputs": [
        {
          "internalType": "uint256",
          "name": "",
          "type": "uint256"
        }
      ],
      "stateMutability": "view",
      "type": "function"
    },
    {
      "inputs": [],
      "name": "getPeerMinExecutorFee",
      "outputs": [
        {
          "internalType": "uint256",
          "name": "",
          "type": "uint256"
        }
      ],
      "stateMutability": "view",
      "type": "function"
    },
    {
      "inputs": [],
      "name": "getPeerMinRollupFee",
      "outputs": [
        {
          "internalType": "uint256",
          "name": "",
          "type": "uint256"
        }
      ],
      "stateMutability": "view",
      "type": "function"
    },
    {
      "inputs": [],
      "name": "isDepositsDisabled",
      "outputs": [
        {
          "internalType": "bool",
          "name": "",
          "type": "bool"
        }
      ],
      "stateMutability": "view",
      "type": "function"
    },
    {
      "inputs": [],
      "name": "peerChainId",
      "outputs": [
        {
          "internalType": "uint64",
          "name": "",
          "type": "uint64"
        }
      ],
      "stateMutability": "view",
      "type": "function"
    },
    {
      "inputs": [],
      "name": "peerChainName",
      "outputs": [
        {
          "internalType": "string",
          "name": "",
          "type": "string"
        }
      ],
      "stateMutability": "view",
      "type": "function"
    },
    {
      "inputs": [],
      "name": "peerContract",
      "outputs": [
        {
          "internalType": "address",
          "name": "",
          "type": "address"
        }
      ],
      "stateMutability": "view",
      "type": "function"
    },
    {
      "inputs": [],
      "name": "sanctionsCheck",
      "outputs": [
        {
          "internalType": "bool",
          "name": "",
          "type": "bool"
        }
      ],
      "stateMutability": "view",
      "type": "function"
    },
    {
      "inputs": [],
      "name": "sanctionsList",
      "outputs": [
        {
          "internalType": "contract ISanctionsList",
          "name": "",
          "type": "address"
        }
      ],
      "stateMutability": "view",
      "type": "function"
    },
    {
      "inputs": [
        {
          "internalType": "address",
          "name": "_commitmentPoolAddress",
          "type": "address"
        }
      ],
      "name": "setAssociatedCommitmentPool",
      "outputs": [],
      "stateMutability": "nonpayable",
      "type": "function"
    },
    {
      "inputs": [
        {
          "internalType": "address",
          "name": "_bridgeProxyAddress",
          "type": "address"
        }
      ],
      "name": "setBridgeProxyAddress",
      "outputs": [],
      "stateMutability": "nonpayable",
      "type": "function"
    },
    {
      "inputs": [
        {
          "internalType": "bool",
          "name": "_state",
          "type": "bool"
        }
      ],
      "name": "setDepositsDisabled",
      "outputs": [],
      "stateMutability": "nonpayable",
      "type": "function"
    },
    {
      "inputs": [
        {
          "internalType": "uint256",
          "name": "_minBridgeFee",
          "type": "uint256"
        }
      ],
      "name": "setMinBridgeFee",
      "outputs": [],
      "stateMutability": "nonpayable",
      "type": "function"
    },
    {
      "inputs": [
        {
          "internalType": "uint256",
          "name": "_minExecutorFee",
          "type": "uint256"
        }
      ],
      "name": "setMinExecutorFee",
      "outputs": [],
      "stateMutability": "nonpayable",
      "type": "function"
    },
    {
      "inputs": [
        {
          "internalType": "uint64",
          "name": "_peerChainId",
          "type": "uint64"
        },
        {
          "internalType": "string",
          "name": "_peerChainName",
          "type": "string"
        },
        {
          "internalType": "address",
          "name": "_peerContract",
          "type": "address"
        }
      ],
      "name": "setPeerContract",
      "outputs": [],
      "stateMutability": "nonpayable",
      "type": "function"
    },
    {
      "inputs": [
        {
          "internalType": "uint256",
          "name": "_peerMinExecutorFee",
          "type": "uint256"
        }
      ],
      "name": "setPeerMinExecutorFee",
      "outputs": [],
      "stateMutability": "nonpayable",
      "type": "function"
    },
    {
      "inputs": [
        {
          "internalType": "uint256",
          "name": "_peerMinRollupFee",
          "type": "uint256"
        }
      ],
      "name": "setPeerMinRollupFee",
      "outputs": [],
      "stateMutability": "nonpayable",
      "type": "function"
    },
    {
      "inputs": [
        {
          "internalType": "uint256",
          "name": "_maxAmount",
          "type": "uint256"
        },
        {
          "internalType": "uint256",
          "name": "_minAmount",
          "type": "uint256"
        }
      ],
      "name": "updateDepositAmountLimits",
      "outputs": [],
      "stateMutability": "nonpayable",
      "type": "function"
    },
    {
      "inputs": [
        {
          "internalType": "contract ISanctionsList",
          "name": "_sanction",
          "type": "address"
        }
      ],
      "name": "updateSanctionsListAddress",
      "outputs": [],
      "stateMutability": "nonpayable",
      "type": "function"
    }
  ],
  "bytecode": "0x6080604052600080546001600160a81b031916740140c57923924b5c5c5455c48d93317139addac8fb1790553480156200003857600080fd5b50604051620025ff380380620025ff8339810160408190526200005b916200008f565b600c80546001600160a01b03199081163317909155600180546001600160a01b0390931692909116919091179055620000c1565b600060208284031215620000a257600080fd5b81516001600160a01b0381168114620000ba57600080fd5b9392505050565b61252e80620000d16000396000f3fe6080604052600436106101d85760003560e01c8063825b5f8d11610102578063ddac5dc111610095578063ec571c6a11610064578063ec571c6a14610567578063ed6ea33a14610587578063efbfb2ae146105a6578063f4ad17c6146105bb57600080fd5b8063ddac5dc1146104e9578063e19abef814610507578063e8183c4414610527578063ea0cde851461054757600080fd5b8063b1c39422116100d1578063b1c394221461045d578063cdfceeba1461047e578063cfc7e2da146104bf578063dd757c34146104d457600080fd5b8063825b5f8d146103e557806382d21cd8146103fa5780639a03636c1461042a578063a3bc64f21461043d57600080fd5b80632cd26d451161017a578063521ff05711610149578063521ff057146103705780635898a0a8146103905780635e10b2b7146103a55780637d2c8520146103c557600080fd5b80632cd26d45146102ff57806330f49cac1461031f5780633fe3347a1461033f5780634e3c10b71461035b57600080fd5b8063153dc450116101b6578063153dc4501461023857806319e75d6e1461025857806321e32d55146102785780632421e155146102b057600080fd5b806301dbf19f146101dd57806306394c9b146101f45780630ba9590914610214575b600080fd5b3480156101e957600080fd5b506101f26105d0565b005b34801561020057600080fd5b506101f261020f366004611fba565b610654565b34801561022057600080fd5b506007545b6040519081526020015b60405180910390f35b34801561024457600080fd5b506101f26102533660046120cf565b6106f8565b34801561026457600080fd5b506101f26102733660046120cf565b61075f565b34801561028457600080fd5b50600454610298906001600160a01b031681565b6040516001600160a01b03909116815260200161022f565b3480156102bc57600080fd5b5060408051808201909152600781527f746272696467650000000000000000000000000000000000000000000000000060208201525b60405161022f9190612395565b34801561030b57600080fd5b50600554610298906001600160a01b031681565b34801561032b57600080fd5b506101f261033a366004611fba565b6107be565b34801561034b57600080fd5b50600160405161022f919061236d565b34801561036757600080fd5b506102f2610837565b34801561037c57600080fd5b506101f261038b3660046120cf565b6108c5565b34801561039c57600080fd5b50600a54610225565b3480156103b157600080fd5b506101f26103c03660046120cf565b610978565b3480156103d157600080fd5b506101f26103e03660046121ce565b6109d8565b3480156103f157600080fd5b50600b54610225565b34801561040657600080fd5b5061041a610415366004612123565b610a75565b604051901515815260200161022f565b6101f2610438366004612011565b610aff565b34801561044957600080fd5b506101f2610458366004611fba565b610d0f565b34801561046957600080fd5b5060005461041a90600160a01b900460ff1681565b34801561048a57600080fd5b506002546104a690600160a01b900467ffffffffffffffff1681565b60405167ffffffffffffffff909116815260200161022f565b3480156104cb57600080fd5b50600654610225565b3480156104e057600080fd5b506101f2610d5c565b3480156104f557600080fd5b506002546001600160a01b0316610298565b34801561051357600080fd5b506101f2610522366004611fba565b610dd4565b34801561053357600080fd5b506101f2610542366004612101565b610e21565b34801561055357600080fd5b506101f2610562366004611fd7565b610eb4565b34801561057357600080fd5b50600054610298906001600160a01b031681565b34801561059357600080fd5b50600c54600160a01b900460ff1661041a565b3480156105b257600080fd5b50600854610225565b3480156105c757600080fd5b50600954610225565b600c546001600160a01b031633146105fb576040516327e1f1e560e01b815260040160405180910390fd5b6000805460ff60a01b1916600160a01b908117918290556040517fa5ffe1601eb93a7fefd0d0eeb5fc94a2f65475f333836fe2b87fd7bbf59520699261064a92900460ff161515815260200190565b60405180910390a1565b600c546001600160a01b0316331461067f576040516327e1f1e560e01b815260040160405180910390fd5b600c546001600160a01b03828116911614156106ae576040516336a1c33f60e01b815260040160405180910390fd5b600c80546001600160a01b0319166001600160a01b0383169081179091556040517f4721129e0e676ed6a92909bb24e853ccdd63ad72280cc2e974e38e480e0e6e5490600090a250565b600c546001600160a01b03163314610723576040516327e1f1e560e01b815260040160405180910390fd5b600a8190556040518181527f14988234d3e50a12aeec2d6ee595b70c2fae163caff28baab5802b122bf2a753906020015b60405180910390a150565b600c546001600160a01b0316331461078a576040516327e1f1e560e01b815260040160405180910390fd5b60088190556040518181527e91f5f5db3092e39ecb701218d4af20b7571e0429595937c334f3acd14fe2fe90602001610754565b600c546001600160a01b031633146107e9576040516327e1f1e560e01b815260040160405180910390fd5b600080546001600160a01b0319166001600160a01b0383169081179091556040519081527fbe1808917e09814fca7d80289a9760a4065f10d624ac1aee0b9f903c4f5d92b190602001610754565b6003805461084490612481565b80601f016020809104026020016040519081016040528092919081815260200182805461087090612481565b80156108bd5780601f10610892576101008083540402835291602001916108bd565b820191906000526020600020905b8154815290600101906020018083116108a057829003601f168201915b505050505081565b600c546001600160a01b031633146108f0576040516327e1f1e560e01b815260040160405180910390fd5b80610943576040516314e8955b60e21b815260206004820152601760248201527f70656572206d696e696d616c20726f6c6c75702066656500000000000000000060448201526064015b60405180910390fd5b600b8190556040518181527f878075a8e8aa1c7c15e6932752520f7812bf5744785e6df605373729da41554590602001610754565b600c546001600160a01b031633146109a3576040516327e1f1e560e01b815260040160405180910390fd5b60098190556040518181527f88d210dfa198f7519579294721f90c771153a7b49101eefb95147037cc8ce48190602001610754565b600c546001600160a01b03163314610a03576040516327e1f1e560e01b815260040160405180910390fd5b600280547fffffffff0000000000000000ffffffffffffffffffffffffffffffffffffffff16600160a01b67ffffffffffffffff8616021790558151610a50906003906020850190611e4c565b50600480546001600160a01b0319166001600160a01b03929092169190911790555050565b6005546000906001600160a01b03163314610aa357604051633dca01cf60e11b815260040160405180910390fd5b6000610ae485858080601f016020809104026020016040519081016040528093929190818152602001838380828437600092019190915250610f2c92505050565b9050610af287878584610ff4565b5060019695505050505050565b600c54600160a01b900460ff1615610b2a57604051630e2f42c960e31b815260040160405180910390fd5b60065481511015610b4e5760405163617ab12d60e11b815260040160405180910390fd5b60075481511115610b7257604051630625040160e01b815260040160405180910390fd5b6008548160a001511015610b995760405163c4d8d00d60e01b815260040160405180910390fd5b600a548160c001511015610bc0576040516355a6d6a160e11b815260040160405180910390fd5b600b548160e001511015610be75760405163784f02bd60e11b815260040160405180910390fd5b6000610c008260400151836000015184606001516110e1565b905080826020015114610c26576040516301bfaa2560e51b815260040160405180910390fd5b610c2f33611207565b15610c4d57604051632e70c0b160e01b815260040160405180910390fd5b6040805160a081018252835181526020808501519082015260c08401519181019190915260e08301516060820152608080840151908201526000610c90826112a4565b9050610ca08460a0015182611313565b60025460e085015160c08601518651610cdb936001600160a01b03169291610cc79161242f565b610cd1919061242f565b8660a00151611396565b60208401516040517fd106eb38b3368b7c294e36fae5513fdefe880be5abfad529b37b044f2fdd2dbe90600090a250505050565b600c546001600160a01b03163314610d3a576040516327e1f1e560e01b815260040160405180910390fd5b600580546001600160a01b0319166001600160a01b0392909216919091179055565b600c546001600160a01b03163314610d87576040516327e1f1e560e01b815260040160405180910390fd5b6000805460ff60a01b1916908190556040517fa5ffe1601eb93a7fefd0d0eeb5fc94a2f65475f333836fe2b87fd7bbf59520699161064a91600160a01b90910460ff161515815260200190565b600c546001600160a01b03163314610dff576040516327e1f1e560e01b815260040160405180910390fd5b600280546001600160a01b0319166001600160a01b0392909216919091179055565b600c546001600160a01b03163314610e4c576040516327e1f1e560e01b815260040160405180910390fd5b81811115610e6d57604051636003e82160e11b815260040160405180910390fd5b6007829055600681905560408051838152602081018390527f7633004c7a229869aeea10db4ff3e57e3b1534aeb2c9e72c5db25f965895c330910160405180910390a15050565b600c546001600160a01b03163314610edf576040516327e1f1e560e01b815260040160405180910390fd5b600c8054821515600160a01b0260ff60a01b199091161790556040517fcd162c6fc24285bfbe399ec0cc2ce2c380ad27d2eb1fca418c652df1257e7e099061075490831515815260200190565b610f5e6040518060a0016040528060008152602001600081526020016000815260200160008152602001606081525090565b610f906040518060a0016040528060008152602001600081526020016000815260200160008152602001606081525090565b6000610f9c8482611497565b9083529050610fab8482611497565b60208401919091529050610fbf8482611497565b60408401919091529050610fd38482611497565b60608401919091529050610fe784826115c8565b5060808301525092915050565b6004546001600160a01b0384811691161461102257604051631440e07960e11b815260040160405180910390fd5b60025467ffffffffffffffff858116600160a01b909204161461105857604051633876304f60e21b815260040160405180910390fd5b80516110775760405163820bf1e560e01b815260040160405180910390fd5b6002546040516378d60cd760e01b81526001600160a01b03909116906378d60cd7906110a990849086906004016123a8565b600060405180830381600087803b1580156110c357600080fd5b505af11580156110d7573d6000803e3d6000fd5b5050505050505050565b60007f30644e72e131a029b85045b68181585d2833e84879b9709143e1f593f00000018085106111245760405163805f2a4960e01b815260040160405180910390fd5b80836fffffffffffffffffffffffffffffffff161061115657604051633bbde0bf60e21b815260040160405180910390fd5b60015460408051606081018252878152602081018790526fffffffffffffffffffffffffffffffff86168183015290516304b98e1d60e31b81526001600160a01b03909216916325cc70e8916111ae9160040161233c565b60206040518083038186803b1580156111c657600080fd5b505afa1580156111da573d6000803e3d6000fd5b505050506040513d601f19601f820116820180604052508101906111fe91906120e8565b95945050505050565b60008054600160a01b900460ff1661122157506000919050565b60005460405163df592f7d60e01b81526001600160a01b0384811660048301529091169063df592f7d9060240160206040518083038186803b15801561126657600080fd5b505afa15801561127a573d6000803e3d6000fd5b505050506040513d601f19601f8201168201806040525081019061129e9190611ff4565b92915050565b6060806112b483600001516116d5565b6112c184602001516116d5565b6112ce85604001516116d5565b6112db86606001516116d5565b6112e8876080015161176d565b6040516020016112fc95949392919061229f565b60408051601f198184030181529190529392505050565b6005546004805460025460405163c81739cd60e01b81526001600160a01b039485169463c81739cd94889461136094921692600160a01b90920467ffffffffffffffff169188910161230a565b6000604051808303818588803b15801561137957600080fd5b505af115801561138d573d6000803e3d6000fd5b50505050505050565b6113a0818361242f565b34146113ee5760405162461bcd60e51b815260206004820152601260248201527f696e73756666696369656e7420746f6b656e0000000000000000000000000000604482015260640161093a565b6000836001600160a01b03168360405160006040518083038185875af1925050503d806000811461143b576040519150601f19603f3d011682016040523d82523d6000602084013e611440565b606091505b50509050806114915760405162461bcd60e51b815260206004820152601660248201527f616d6f756e74207472616e73666572206661696c656400000000000000000000604482015260640161093a565b50505050565b60008083518360206114a9919061242f565b111580156114c057506114bd83602061242f565b83105b6115185760405162461bcd60e51b815260206004820152602360248201527f4e65787455696e743235352c206f66667365742065786365656473206d6178696044820152626d756d60e81b606482015260840161093a565b600060405160206000600182038760208a0101515b8383101561154d5780821a8386015360018301925060018203915061152d565b50505081016040525190506001600160ff1b038111156115af5760405162461bcd60e51b815260206004820152601760248201527f56616c75652065786365656473207468652072616e6765000000000000000000604482015260640161093a565b806115bb85602061242f565b92509250505b9250929050565b60606000806115d785856117a4565b86519095509091506115e9828661242f565b111580156115ff57506115fc818561242f565b84105b6116575760405162461bcd60e51b8152602060048201526024808201527f4e65787456617242797465732c206f66667365742065786365656473206d6178604482015263696d756d60e01b606482015260840161093a565b606081158015611672576040519150602082016040526116bc565b6040519150601f8316801560200281840101848101888315602002848c0101015b818310156116ab578051835260209283019201611693565b5050848452601f01601f1916604052505b50806116c8838761242f565b9350935050509250929050565b60606001600160ff1b0382111561172e5760405162461bcd60e51b815260206004820152601b60248201527f56616c756520657863656564732075696e743235352072616e67650000000000604482015260640161093a565b60405160208082526000601f5b8282101561175d5785811a82602086010153600191909101906000190161173b565b5050506040818101905292915050565b805160609061177b816119aa565b8360405160200161178d929190612270565b604051602081830303815290604052915050919050565b60008060006117b38585611a77565b94509050600060fd60f81b6001600160f81b03198316141561184c576117d98686611aff565b955061ffff16905060fd81108015906117f4575061ffff8111155b6118405760405162461bcd60e51b815260206004820152601f60248201527f4e65787455696e7431362c2076616c7565206f7574736964652072616e676500604482015260640161093a565b92508391506115c19050565b607f60f91b6001600160f81b0319831614156118d75761186c8686611bb8565b955063ffffffff16905061ffff8111801561188b575063ffffffff8111155b6118405760405162461bcd60e51b815260206004820181905260248201527f4e65787456617255696e742c2076616c7565206f7574736964652072616e6765604482015260640161093a565b6001600160f81b03198083161415611954576118f38686611c8a565b955067ffffffffffffffff16905063ffffffff81116118405760405162461bcd60e51b815260206004820181905260248201527f4e65787456617255696e742c2076616c7565206f7574736964652072616e6765604482015260640161093a565b5060f881901c60fd81106118405760405162461bcd60e51b815260206004820181905260248201527f4e65787456617255696e742c2076616c7565206f7574736964652072616e6765604482015260640161093a565b606060fd8267ffffffffffffffff1610156119dd57604080516001815260f884901b60208201526021810190915261129e565b61ffff8267ffffffffffffffff1611611a2d576119fd60fd60f81b611d5c565b611a0683611d83565b604051602001611a17929190612270565b6040516020818303038152906040529050919050565b63ffffffff8267ffffffffffffffff1611611a5857611a4f607f60f91b611d5c565b611a0683611dc6565b611a696001600160f81b0319611d5c565b611a0683611e09565b919050565b6000808351836001611a89919061242f565b11158015611aa05750611a9d83600161242f565b83105b611aec5760405162461bcd60e51b815260206004820181905260248201527f4e657874427974652c204f66667365742065786365656473206d6178696d756d604482015260640161093a565b83830160200151806115bb85600161242f565b6000808351836002611b11919061242f565b11158015611b285750611b2583600261242f565b83105b611b7f5760405162461bcd60e51b815260206004820152602260248201527f4e65787455696e7431362c206f66667365742065786365656473206d6178696d604482015261756d60f01b606482015260840161093a565b6000604051846020870101518060011a82538060001a60018301535060028101604052601e810351915050808460026115bb919061242f565b6000808351836004611bca919061242f565b11158015611be15750611bde83600461242f565b83105b611c385760405162461bcd60e51b815260206004820152602260248201527f4e65787455696e7433322c206f66667365742065786365656473206d6178696d604482015261756d60f01b606482015260840161093a565b600060405160046000600182038760208a0101515b83831015611c6d5780821a83860153600183019250600182039150611c4d565b5050508181016040526020039003519050806115bb85600461242f565b6000808351836008611c9c919061242f565b11158015611cb35750611cb083600861242f565b83105b611d0a5760405162461bcd60e51b815260206004820152602260248201527f4e65787455696e7436342c206f66667365742065786365656473206d6178696d604482015261756d60f01b606482015260840161093a565b600060405160086000600182038760208a0101515b83831015611d3f5780821a83860153600183019250600182039150611d1f565b5050508181016040526020039003519050806115bb85600861242f565b60408051600181526001600160f81b0319831660208201526021810190915260609061129e565b6040516002808252606091906000601f5b82821015611db65785811a826020860101536001919091019060001901611d94565b5050506022810160405292915050565b6040516004808252606091906000601f5b82821015611df95785811a826020860101536001919091019060001901611dd7565b5050506024810160405292915050565b6040516008808252606091906000601f5b82821015611e3c5785811a826020860101536001919091019060001901611e1a565b5050506028810160405292915050565b828054611e5890612481565b90600052602060002090601f016020900481019282611e7a5760008555611ec0565b82601f10611e9357805160ff1916838001178555611ec0565b82800160010185558215611ec0579182015b82811115611ec0578251825591602001919060010190611ea5565b50611ecc929150611ed0565b5090565b5b80821115611ecc5760008155600101611ed1565b600067ffffffffffffffff80841115611f0057611f006124bc565b604051601f8501601f19908116603f01168101908282118183101715611f2857611f286124bc565b81604052809350858152868686011115611f4157600080fd5b858560208301376000602087830101525050509392505050565b600082601f830112611f6c57600080fd5b611f7b83833560208501611ee5565b9392505050565b80356fffffffffffffffffffffffffffffffff81168114611a7257600080fd5b803567ffffffffffffffff81168114611a7257600080fd5b600060208284031215611fcc57600080fd5b8135611f7b816124d2565b600060208284031215611fe957600080fd5b8135611f7b816124ea565b60006020828403121561200657600080fd5b8151611f7b816124ea565b60006020828403121561202357600080fd5b813567ffffffffffffffff8082111561203b57600080fd5b90830190610100828603121561205057600080fd5b612058612405565b82358152602083013560208201526040830135604082015261207c60608401611f82565b606082015260808301358281111561209357600080fd5b61209f87828601611f5b565b60808301525060a083013560a082015260c083013560c082015260e083013560e082015280935050505092915050565b6000602082840312156120e157600080fd5b5035919050565b6000602082840312156120fa57600080fd5b5051919050565b6000806040838503121561211457600080fd5b50508035926020909101359150565b60008060008060006080868803121561213b57600080fd5b61214486611fa2565b94506020860135612154816124d2565b9350604086013567ffffffffffffffff8082111561217157600080fd5b818801915088601f83011261218557600080fd5b81358181111561219457600080fd5b8960208285010111156121a657600080fd5b60208301955080945050505060608601356121c0816124d2565b809150509295509295909350565b6000806000606084860312156121e357600080fd5b6121ec84611fa2565b9250602084013567ffffffffffffffff81111561220857600080fd5b8401601f8101861361221957600080fd5b61222886823560208401611ee5565b9250506040840135612239816124d2565b809150509250925092565b6000815180845261225c816020860160208601612455565b601f01601f19169290920160200192915050565b60008351612282818460208801612455565b835190830190612296818360208801612455565b01949350505050565b600086516122b1818460208b01612455565b8651908301906122c5818360208b01612455565b86519101906122d8818360208a01612455565b85519101906122eb818360208901612455565b84519101906122fe818360208801612455565b01979650505050505050565b6001600160a01b038416815267ffffffffffffffff831660208201526060604082015260006111fe6060830184612244565b60608101818360005b6003811015612364578151835260209283019290910190600101612345565b50505092915050565b602081016002831061238f57634e487b7160e01b600052602160045260246000fd5b91905290565b602081526000611f7b6020830184612244565b60408152825160408201526020830151606082015260408301516080820152606083015160a08201526000608084015160a060c08401526123ec60e0840182612244565b9150506001600160a01b03831660208301529392505050565b604051610100810167ffffffffffffffff81118282101715612429576124296124bc565b60405290565b6000821982111561245057634e487b7160e01b600052601160045260246000fd5b500190565b60005b83811015612470578181015183820152602001612458565b838111156114915750506000910152565b600181811c9082168061249557607f821691505b602082108114156124b657634e487b7160e01b600052602260045260246000fd5b50919050565b634e487b7160e01b600052604160045260246000fd5b6001600160a01b03811681146124e757600080fd5b50565b80151581146124e757600080fdfea2646970667358221220bef820681d1ad8d7875a554634e97a0aa4a1962303d49a2271ce2ec092b8689064736f6c63430008070033",
  "linkReferences": {},
  "deployedLinkReferences": {}
}