{
  "_format": "hh-sol-artifact-1",
  "contractName": "MystikoV2CelerMain",
  "sourceName": "contracts/core/deposit/celer/MystikoV2CelerMain.sol",
  "abi": [
    {
      "inputs": [
        {
          "internalType": "contract IHasher3",
          "name": "_hasher3",
          "type": "address"
        },
        {
          "internalType": "address",
          "name": "_bridgeProxyAddress",
          "type": "address"
        },
        {
          "internalType": "address",
          "name": "_settingsCenter",
          "type": "address"
        },
        {
          "components": [
            {
              "internalType": "uint256",
              "name": "minAmount",
              "type": "uint256"
            },
            {
              "internalType": "uint256",
              "name": "maxAmount",
              "type": "uint256"
            },
            {
              "internalType": "uint256",
              "name": "minBridgeFee",
              "type": "uint256"
            }
          ],
          "internalType": "struct IMystikoBridge.LocalConfig",
          "name": "_localConfig",
          "type": "tuple"
        },
        {
          "components": [
            {
              "internalType": "uint256",
              "name": "peerMinExecutorFee",
              "type": "uint256"
            },
            {
              "internalType": "uint256",
              "name": "peerMinRollupFee",
              "type": "uint256"
            }
          ],
          "internalType": "struct IMystikoBridge.PeerConfig",
          "name": "_peerConfig",
          "type": "tuple"
        }
      ],
      "stateMutability": "nonpayable",
      "type": "constructor"
    },
    {
      "inputs": [],
      "name": "AmountLessThanZero",
      "type": "error"
    },
    {
      "inputs": [],
      "name": "AmountTooLarge",
      "type": "error"
    },
    {
      "inputs": [],
      "name": "AmountTooSmall",
      "type": "error"
    },
    {
      "inputs": [],
      "name": "AssociatedPoolNotSet",
      "type": "error"
    },
    {
      "inputs": [],
      "name": "BridgeFeeTooFew",
      "type": "error"
    },
    {
      "inputs": [],
      "name": "CertificateInvalid",
      "type": "error"
    },
    {
      "inputs": [],
      "name": "CommitmentHashIncorrect",
      "type": "error"
    },
    {
      "inputs": [],
      "name": "DepositsDisabled",
      "type": "error"
    },
    {
      "inputs": [],
      "name": "ExecutorFeeTooFew",
      "type": "error"
    },
    {
      "inputs": [],
      "name": "HashKGreaterThanFieldSize",
      "type": "error"
    },
    {
      "inputs": [],
      "name": "NotSupport",
      "type": "error"
    },
    {
      "inputs": [],
      "name": "PeerChainIdNotMatched",
      "type": "error"
    },
    {
      "inputs": [],
      "name": "PeerContractAlreadySet",
      "type": "error"
    },
    {
      "inputs": [],
      "name": "PeerContractNotMatched",
      "type": "error"
    },
    {
      "inputs": [],
      "name": "RandomSGreaterThanFieldSize",
      "type": "error"
    },
    {
      "inputs": [],
      "name": "RollupFeeToFew",
      "type": "error"
    },
    {
      "inputs": [],
      "name": "SanctionedAddress",
      "type": "error"
    },
    {
      "inputs": [],
      "name": "SenderIsNotBridgeProxy",
      "type": "error"
    },
    {
      "anonymous": false,
      "inputs": [
        {
          "indexed": true,
          "internalType": "uint256",
          "name": "commitment",
          "type": "uint256"
        }
      ],
      "name": "CommitmentCrossChain",
      "type": "event"
    },
    {
      "inputs": [],
      "name": "assetAddress",
      "outputs": [
        {
          "internalType": "address",
          "name": "",
          "type": "address"
        }
      ],
      "stateMutability": "pure",
      "type": "function"
    },
    {
      "inputs": [],
      "name": "assetType",
      "outputs": [
        {
          "internalType": "enum AssetPool.AssetType",
          "name": "",
          "type": "uint8"
        }
      ],
      "stateMutability": "pure",
      "type": "function"
    },
    {
      "inputs": [],
      "name": "bridgeProxyAddress",
      "outputs": [
        {
          "internalType": "address",
          "name": "",
          "type": "address"
        }
      ],
      "stateMutability": "view",
      "type": "function"
    },
    {
      "inputs": [],
      "name": "bridgeType",
      "outputs": [
        {
          "internalType": "string",
          "name": "",
          "type": "string"
        }
      ],
      "stateMutability": "pure",
      "type": "function"
    },
    {
      "inputs": [
        {
          "components": [
            {
              "internalType": "uint256",
              "name": "amount",
              "type": "uint256"
            },
            {
              "internalType": "uint256",
              "name": "commitment",
              "type": "uint256"
            },
            {
              "internalType": "uint256",
              "name": "hashK",
              "type": "uint256"
            },
            {
              "internalType": "uint128",
              "name": "randomS",
              "type": "uint128"
            },
            {
              "internalType": "bytes",
              "name": "encryptedNote",
              "type": "bytes"
            },
            {
              "internalType": "uint256",
              "name": "bridgeFee",
              "type": "uint256"
            },
            {
              "internalType": "uint256",
              "name": "executorFee",
              "type": "uint256"
            },
            {
              "internalType": "uint256",
              "name": "rollupFee",
              "type": "uint256"
            }
          ],
          "internalType": "struct IMystikoBridge.DepositRequest",
          "name": "_request",
          "type": "tuple"
        },
        {
          "internalType": "uint256",
          "name": "_certificateDeadline",
          "type": "uint256"
        },
        {
          "internalType": "bytes",
          "name": "_certificateSignature",
          "type": "bytes"
        }
      ],
      "name": "certDeposit",
      "outputs": [],
      "stateMutability": "payable",
      "type": "function"
    },
    {
      "inputs": [],
      "name": "defaultMaxAmount",
      "outputs": [
        {
          "internalType": "uint256",
          "name": "",
          "type": "uint256"
        }
      ],
      "stateMutability": "view",
      "type": "function"
    },
    {
      "inputs": [],
      "name": "defaultMinAmount",
      "outputs": [
        {
          "internalType": "uint256",
          "name": "",
          "type": "uint256"
        }
      ],
      "stateMutability": "view",
      "type": "function"
    },
    {
      "inputs": [],
      "name": "defaultMinBridgeFee",
      "outputs": [
        {
          "internalType": "uint256",
          "name": "",
          "type": "uint256"
        }
      ],
      "stateMutability": "view",
      "type": "function"
    },
    {
      "inputs": [],
      "name": "defaultPeerMinExecutorFee",
      "outputs": [
        {
          "internalType": "uint256",
          "name": "",
          "type": "uint256"
        }
      ],
      "stateMutability": "view",
      "type": "function"
    },
    {
      "inputs": [],
      "name": "defaultPeerMinRollupFee",
      "outputs": [
        {
          "internalType": "uint256",
          "name": "",
          "type": "uint256"
        }
      ],
      "stateMutability": "view",
      "type": "function"
    },
    {
      "inputs": [
        {
          "components": [
            {
              "internalType": "uint256",
              "name": "amount",
              "type": "uint256"
            },
            {
              "internalType": "uint256",
              "name": "commitment",
              "type": "uint256"
            },
            {
              "internalType": "uint256",
              "name": "hashK",
              "type": "uint256"
            },
            {
              "internalType": "uint128",
              "name": "randomS",
              "type": "uint128"
            },
            {
              "internalType": "bytes",
              "name": "encryptedNote",
              "type": "bytes"
            },
            {
              "internalType": "uint256",
              "name": "bridgeFee",
              "type": "uint256"
            },
            {
              "internalType": "uint256",
              "name": "executorFee",
              "type": "uint256"
            },
            {
              "internalType": "uint256",
              "name": "rollupFee",
              "type": "uint256"
            }
          ],
          "internalType": "struct IMystikoBridge.DepositRequest",
          "name": "_request",
          "type": "tuple"
        }
      ],
      "name": "deposit",
      "outputs": [],
      "stateMutability": "payable",
      "type": "function"
    },
    {
      "inputs": [
        {
          "internalType": "address",
          "name": "_sender",
          "type": "address"
        },
        {
          "internalType": "uint64",
          "name": "_srcChainId",
          "type": "uint64"
        },
        {
          "internalType": "bytes",
          "name": "_message",
          "type": "bytes"
        },
        {
          "internalType": "address",
          "name": "_executor",
          "type": "address"
        }
      ],
      "name": "executeMessage",
      "outputs": [
        {
          "internalType": "bool",
          "name": "",
          "type": "bool"
        }
      ],
      "stateMutability": "payable",
      "type": "function"
    },
    {
      "inputs": [],
      "name": "getAssociatedCommitmentPool",
      "outputs": [
        {
          "internalType": "address",
          "name": "",
          "type": "address"
        }
      ],
      "stateMutability": "view",
      "type": "function"
    },
    {
      "inputs": [],
      "name": "getMaxAmount",
      "outputs": [
        {
          "internalType": "uint256",
          "name": "",
          "type": "uint256"
        }
      ],
      "stateMutability": "view",
      "type": "function"
    },
    {
      "inputs": [],
      "name": "getMinAmount",
      "outputs": [
        {
          "internalType": "uint256",
          "name": "",
          "type": "uint256"
        }
      ],
      "stateMutability": "view",
      "type": "function"
    },
    {
      "inputs": [],
      "name": "getMinBridgeFee",
      "outputs": [
        {
          "internalType": "uint256",
          "name": "",
          "type": "uint256"
        }
      ],
      "stateMutability": "view",
      "type": "function"
    },
    {
      "inputs": [],
      "name": "getMinExecutorFee",
      "outputs": [
        {
          "internalType": "uint256",
          "name": "",
          "type": "uint256"
        }
      ],
      "stateMutability": "view",
      "type": "function"
    },
    {
      "inputs": [],
      "name": "getPeerMinRollupFee",
      "outputs": [
        {
          "internalType": "uint256",
          "name": "",
          "type": "uint256"
        }
      ],
      "stateMutability": "view",
      "type": "function"
    },
    {
      "inputs": [],
      "name": "isDepositsDisabled",
      "outputs": [
        {
          "internalType": "bool",
          "name": "",
          "type": "bool"
        }
      ],
      "stateMutability": "view",
      "type": "function"
    },
    {
      "inputs": [],
      "name": "isPeerContractSet",
      "outputs": [
        {
          "internalType": "bool",
          "name": "",
          "type": "bool"
        }
      ],
      "stateMutability": "view",
      "type": "function"
    },
    {
      "inputs": [],
      "name": "peerChainId",
      "outputs": [
        {
          "internalType": "uint64",
          "name": "",
          "type": "uint64"
        }
      ],
      "stateMutability": "view",
      "type": "function"
    },
    {
      "inputs": [],
      "name": "peerChainName",
      "outputs": [
        {
          "internalType": "string",
          "name": "",
          "type": "string"
        }
      ],
      "stateMutability": "view",
      "type": "function"
    },
    {
      "inputs": [],
      "name": "peerContract",
      "outputs": [
        {
          "internalType": "address",
          "name": "",
          "type": "address"
        }
      ],
      "stateMutability": "view",
      "type": "function"
    },
    {
      "inputs": [
        {
          "components": [
            {
              "internalType": "uint64",
              "name": "peerChainId",
              "type": "uint64"
            },
            {
              "internalType": "string",
              "name": "peerChainName",
              "type": "string"
            },
            {
              "internalType": "address",
              "name": "peerContract",
              "type": "address"
            }
          ],
          "internalType": "struct IMystikoBridge.PeerContract",
          "name": "_peerContract",
          "type": "tuple"
        }
      ],
      "name": "setPeerContract",
      "outputs": [],
      "stateMutability": "nonpayable",
      "type": "function"
    },
    {
      "inputs": [],
      "name": "settings",
      "outputs": [
        {
          "internalType": "contract MystikoBridgeSettings",
          "name": "",
          "type": "address"
        }
      ],
      "stateMutability": "view",
      "type": "function"
    }
  ],
  "bytecode": "0x60806040526000805460ff60a01b1916905534801561001d57600080fd5b5060405161270038038061270083398101604081905261003c9161011d565b600080546001600160a01b039687166001600160a01b0319918216179091556008805495871695821695909517909455815160035560208083015160045560409092015160055580516006550151600755600980549190931691161790556101d7565b6001600160a01b03811681146100b457600080fd5b50565b604051606081016001600160401b03811182821017156100e757634e487b7160e01b600052604160045260246000fd5b60405290565b604080519081016001600160401b03811182821017156100e757634e487b7160e01b600052604160045260246000fd5b600080600080600085870361010081121561013757600080fd5b86516101428161009f565b60208801519096506101538161009f565b60408801519095506101648161009f565b93506060605f198201121561017857600080fd5b6101806100b7565b606088015181526080880151602082015260a088015160408083019190915290935060bf19820112156101b257600080fd5b506101bb6100ed565b60c0870151815260e09096015160208701525092959194509290565b61251a806101e66000396000f3fe6080604052600436106101965760003560e01c80639c649fdf116100e1578063ddac5dc11161008a578063efbfb2ae11610064578063efbfb2ae14610423578063f4ad17c614610438578063fa750f561461044d578063fb3e3d731461046e57600080fd5b8063ddac5dc1146103d9578063e06174e4146103ee578063ed6ea33a1461040e57600080fd5b8063cdfceeba116100bb578063cdfceeba1461036d578063cfc7e2da146103ae578063d0b436bd146103c357600080fd5b80639c649fdf14610321578063cb5c029a14610344578063cbe342851461035757600080fd5b8063422e002811610143578063640c0b361161011d578063640c0b36146102e3578063825b5f8d146102f95780639a03636c1461030e57600080fd5b8063422e0028146102965780634dde6fbc146102b85780634e3c10b7146102ce57600080fd5b80632421e155116101745780632421e1551461020b5780632cd26d451461025a5780633fe3347a1461027a57600080fd5b80630ba959091461019b5780631ba46cfd146101c357806321e32d55146101eb575b600080fd5b3480156101a757600080fd5b506101b0610484565b6040519081526020015b60405180910390f35b3480156101cf57600080fd5b5060005b6040516001600160a01b0390911681526020016101ba565b3480156101f757600080fd5b506002546101d3906001600160a01b031681565b34801561021757600080fd5b5060408051808201909152600581527f63656c657200000000000000000000000000000000000000000000000000000060208201525b6040516101ba9190611d4e565b34801561026657600080fd5b506008546101d3906001600160a01b031681565b34801561028657600080fd5b5060016040516101ba9190611d68565b3480156102a257600080fd5b506102b66102b1366004611e9d565b61050d565b005b3480156102c457600080fd5b506101b060055481565b3480156102da57600080fd5b5061024d6105fa565b3480156102ef57600080fd5b506101b060065481565b34801561030557600080fd5b506101b0610688565b6102b661031c366004612022565b61070f565b61033461032f36600461205f565b610728565b60405190151581526020016101ba565b6102b661035236600461210c565b6107b2565b34801561036357600080fd5b506101b060075481565b34801561037957600080fd5b5060005461039590600160a81b900467ffffffffffffffff1681565b60405167ffffffffffffffff90911681526020016101ba565b3480156103ba57600080fd5b506101b0610bdd565b3480156103cf57600080fd5b506101b060045481565b3480156103e557600080fd5b506101d3610c64565b3480156103fa57600080fd5b506009546101d3906001600160a01b031681565b34801561041a57600080fd5b50610334610d03565b34801561042f57600080fd5b506101b0610d75565b34801561044457600080fd5b506101b0610dfc565b34801561045957600080fd5b5060005461033490600160a01b900460ff1681565b34801561047a57600080fd5b506101b060035481565b60095460405163473a063160e01b815230600482015260009182916001600160a01b039091169063473a063190602401602060405180830381865afa1580156104d1573d6000803e3d6000fd5b505050506040513d601f19601f820116820180604052508101906104f5919061217e565b905080156105035780610507565b6004545b91505090565b600054600160a01b900460ff161561053857604051636d8f115160e11b815260040160405180910390fd5b80516000805467ffffffffffffffff909216600160a81b027fffffff0000000000000000ffffffffffffffffffffffffffffffffffffffffff909216919091179055602081015160019061058c9082612220565b5060400151600280546001600160a01b039092167fffffffffffffffffffffffff0000000000000000000000000000000000000000909216919091179055600080547fffffffffffffffffffffff00ffffffffffffffffffffffffffffffffffffffff16600160a01b179055565b6001805461060790612197565b80601f016020809104026020016040519081016040528092919081815260200182805461063390612197565b80156106805780601f1061065557610100808354040283529160200191610680565b820191906000526020600020905b81548152906001019060200180831161066357829003601f168201915b505050505081565b6009546040516361863c0360e11b815230600482015260009182916001600160a01b039091169063c30c780690602401602060405180830381865afa1580156106d5573d6000803e3d6000fd5b505050506040513d601f19601f820116820180604052508101906106f9919061217e565b905080156107075780610507565b505060075490565b60405163e7a24ff960e01b815260040160405180910390fd5b6008546000906001600160a01b0316331461075657604051633dca01cf60e11b815260040160405180910390fd5b600061079785858080601f016020809104026020016040519081016040528093929190818152602001838380828437600092019190915250610e8392505050565b90506107a586888584610f4b565b5060019695505050505050565b60095460405163bb07320560e01b81523060048201526001600160a01b039091169063bb07320590602401602060405180830381865afa1580156107fa573d6000803e3d6000fd5b505050506040513d601f19601f8201168201806040525081019061081e91906122df565b1561083c57604051630e2f42c960e31b815260040160405180910390fd5b600960009054906101000a90046001600160a01b03166001600160a01b031663bc5877066040518163ffffffff1660e01b8152600401602060405180830381865afa15801561088f573d6000803e3d6000fd5b505050506040513d601f19601f820116820180604052508101906108b391906122df565b156109805760006040518060800160405280326001600160a01b031681526020016108dc600090565b6001600160a01b039081168252602082018690526040918201859052600954915163849e8b9f60e01b8152929350169063849e8b9f90610920908490600401612301565b602060405180830381865afa15801561093d573d6000803e3d6000fd5b505050506040513d601f19601f8201168201806040525081019061096191906122df565b61097e57604051633042041f60e21b815260040160405180910390fd5b505b610988610bdd565b835110156109a95760405163617ab12d60e11b815260040160405180910390fd5b6109b1610484565b835111156109d257604051630625040160e01b815260040160405180910390fd5b6109da610d75565b8360a0015110156109fe5760405163c4d8d00d60e01b815260040160405180910390fd5b610a06610dfc565b8360c001511015610a2a576040516355a6d6a160e11b815260040160405180910390fd5b610a32610688565b8360e001511015610a565760405163784f02bd60e11b815260040160405180910390fd5b6000610a6f84604001518560000151866060015161103e565b905080846020015114610a95576040516301bfaa2560e51b815260040160405180910390fd5b60095460405163df592f7d60e01b81523260048201526001600160a01b039091169063df592f7d90602401602060405180830381865afa158015610add573d6000803e3d6000fd5b505050506040513d601f19601f82011682018060405250810190610b0191906122df565b15610b1f57604051632e70c0b160e01b815260040160405180910390fd5b6040805160a081018252855181526020808701519082015260c08601519181019190915260e08501516060820152608080860151908201526000610b6282611155565b9050610b728660a00151826111c4565b610ba7610b7d610c64565b60e088015160c08901518951610b93919061234c565b610b9d919061234c565b8860a0015161124a565b60208601516040517fd106eb38b3368b7c294e36fae5513fdefe880be5abfad529b37b044f2fdd2dbe90600090a2505050505050565b600954604051635525984960e01b815230600482015260009182916001600160a01b0390911690635525984990602401602060405180830381865afa158015610c2a573d6000803e3d6000fd5b505050506040513d601f19601f82011682018060405250810190610c4e919061217e565b90508015610c5c5780610507565b505060035490565b6009546040516341fb697960e01b815230600482015260009182916001600160a01b03909116906341fb697990602401602060405180830381865afa158015610cb1573d6000803e3d6000fd5b505050506040513d601f19601f82011682018060405250810190610cd5919061236d565b90506001600160a01b038116610cfe576040516306f3d63360e51b815260040160405180910390fd5b919050565b60095460405163bb07320560e01b81523060048201526000916001600160a01b03169063bb07320590602401602060405180830381865afa158015610d4c573d6000803e3d6000fd5b505050506040513d601f19601f82011682018060405250810190610d7091906122df565b905090565b600954604051637b52b00d60e01b815230600482015260009182916001600160a01b0390911690637b52b00d90602401602060405180830381865afa158015610dc2573d6000803e3d6000fd5b505050506040513d601f19601f82011682018060405250810190610de6919061217e565b90508015610df45780610507565b505060055490565b600954604051634f314f9d60e11b815230600482015260009182916001600160a01b0390911690639e629f3a90602401602060405180830381865afa158015610e49573d6000803e3d6000fd5b505050506040513d601f19601f82011682018060405250810190610e6d919061217e565b90508015610e7b5780610507565b505060065490565b610eb56040518060a0016040528060008152602001600081526020016000815260200160008152602001606081525090565b610ee76040518060a0016040528060008152602001600081526020016000815260200160008152602001606081525090565b6000610ef38482611350565b9083529050610f028482611350565b60208401919091529050610f168482611350565b60408401919091529050610f2a8482611350565b60608401919091529050610f3e8482611481565b5060808301525092915050565b6002546001600160a01b03848116911614610f7957604051631b495ecf60e31b815260040160405180910390fd5b60005467ffffffffffffffff858116600160a81b9092041614610faf5760405163373bc12160e11b815260040160405180910390fd5b8051600003610fd15760405163820bf1e560e01b815260040160405180910390fd5b610fd9610c64565b6001600160a01b03166378d60cd782846040518363ffffffff1660e01b815260040161100692919061238a565b600060405180830381600087803b15801561102057600080fd5b505af1158015611034573d6000803e3d6000fd5b5050505050505050565b60007f30644e72e131a029b85045b68181585d2833e84879b9709143e1f593f00000018085106110815760405163805f2a4960e01b815260040160405180910390fd5b80836fffffffffffffffffffffffffffffffff16106110b357604051633bbde0bf60e21b815260040160405180910390fd5b60005460408051606081018252878152602081018790526fffffffffffffffffffffffffffffffff86168183015290516304b98e1d60e31b81526001600160a01b03909216916325cc70e89161110b916004016123e7565b602060405180830381865afa158015611128573d6000803e3d6000fd5b505050506040513d601f19601f8201168201806040525081019061114c919061217e565b95945050505050565b606080611165836000015161158e565b611172846020015161158e565b61117f856040015161158e565b61118c866060015161158e565b6111998760800151611626565b6040516020016111ad959493929190612418565b60408051601f198184030181529190529392505050565b600854600254600054604051634f9e72ad60e11b81526001600160a01b0393841693639f3ce55a93879361121493919092169167ffffffffffffffff600160a81b90910416908790600401612483565b6000604051808303818588803b15801561122d57600080fd5b505af1158015611241573d6000803e3d6000fd5b50505050505050565b611254818361234c565b34146112a75760405162461bcd60e51b815260206004820152601260248201527f696e73756666696369656e7420746f6b656e000000000000000000000000000060448201526064015b60405180910390fd5b6000836001600160a01b03168360405160006040518083038185875af1925050503d80600081146112f4576040519150601f19603f3d011682016040523d82523d6000602084013e6112f9565b606091505b505090508061134a5760405162461bcd60e51b815260206004820152601660248201527f616d6f756e74207472616e73666572206661696c656400000000000000000000604482015260640161129e565b50505050565b6000808351836020611362919061234c565b11158015611379575061137683602061234c565b83105b6113d15760405162461bcd60e51b815260206004820152602360248201527f4e65787455696e743235352c206f66667365742065786365656473206d6178696044820152626d756d60e81b606482015260840161129e565b600060405160206000600182038760208a0101515b838310156114065780821a838601536001830192506001820391506113e6565b50505081016040525190506001600160ff1b038111156114685760405162461bcd60e51b815260206004820152601760248201527f56616c75652065786365656473207468652072616e6765000000000000000000604482015260640161129e565b8061147485602061234c565b92509250505b9250929050565b6060600080611490858561165d565b86519095509091506114a2828661234c565b111580156114b857506114b5818561234c565b84105b6115105760405162461bcd60e51b8152602060048201526024808201527f4e65787456617242797465732c206f66667365742065786365656473206d6178604482015263696d756d60e01b606482015260840161129e565b60608115801561152b57604051915060208201604052611575565b6040519150601f8316801560200281840101848101888315602002848c0101015b8183101561156457805183526020928301920161154c565b5050848452601f01601f1916604052505b5080611581838761234c565b9350935050509250929050565b60606001600160ff1b038211156115e75760405162461bcd60e51b815260206004820152601b60248201527f56616c756520657863656564732075696e743235352072616e67650000000000604482015260640161129e565b60405160208082526000601f5b828210156116165785811a8260208601015360019190910190600019016115f4565b5050506040818101905292915050565b805160609061163481611861565b836040516020016116469291906124b5565b604051602081830303815290604052915050919050565b600080600061166c858561192b565b9450905060006001600160f81b0319821660fd60f81b036117045761169186866119b3565b955061ffff16905060fd81108015906116ac575061ffff8111155b6116f85760405162461bcd60e51b815260206004820152601f60248201527f4e65787455696e7431362c2076616c7565206f7574736964652072616e676500604482015260640161129e565b925083915061147a9050565b6001600160f81b03198216607f60f91b0361178e576117238686611a6c565b955063ffffffff16905061ffff81118015611742575063ffffffff8111155b6116f85760405162461bcd60e51b815260206004820181905260248201527f4e65787456617255696e742c2076616c7565206f7574736964652072616e6765604482015260640161129e565b6001600160f81b0319808316900361180b576117aa8686611b3d565b955067ffffffffffffffff16905063ffffffff81116116f85760405162461bcd60e51b815260206004820181905260248201527f4e65787456617255696e742c2076616c7565206f7574736964652072616e6765604482015260640161129e565b5060f881901c60fd81106116f85760405162461bcd60e51b815260206004820181905260248201527f4e65787456617255696e742c2076616c7565206f7574736964652072616e6765604482015260640161129e565b606060fd8267ffffffffffffffff16101561189657604080516001815260f884901b6020820152602181019091525b92915050565b61ffff8267ffffffffffffffff16116118e6576118b660fd60f81b611c0e565b6118bf83611c35565b6040516020016118d09291906124b5565b6040516020818303038152906040529050919050565b63ffffffff8267ffffffffffffffff161161191157611908607f60f91b611c0e565b6118bf83611c78565b6119226001600160f81b0319611c0e565b6118bf83611cbb565b600080835183600161193d919061234c565b11158015611954575061195183600161234c565b83105b6119a05760405162461bcd60e51b815260206004820181905260248201527f4e657874427974652c204f66667365742065786365656473206d6178696d756d604482015260640161129e565b838301602001518061147485600161234c565b60008083518360026119c5919061234c565b111580156119dc57506119d983600261234c565b83105b611a335760405162461bcd60e51b815260206004820152602260248201527f4e65787455696e7431362c206f66667365742065786365656473206d6178696d604482015261756d60f01b606482015260840161129e565b6000604051846020870101518060011a82538060001a60018301535060028101604052601e81035191505080846002611474919061234c565b6000808351836004611a7e919061234c565b11158015611a955750611a9283600461234c565b83105b611aec5760405162461bcd60e51b815260206004820152602260248201527f4e65787455696e7433322c206f66667365742065786365656473206d6178696d604482015261756d60f01b606482015260840161129e565b600060405160046000600182038760208a0101515b83831015611b215780821a83860153600183019250600182039150611b01565b505050016040819052601f19015190508061147485600461234c565b6000808351836008611b4f919061234c565b11158015611b665750611b6383600861234c565b83105b611bbd5760405162461bcd60e51b815260206004820152602260248201527f4e65787455696e7436342c206f66667365742065786365656473206d6178696d604482015261756d60f01b606482015260840161129e565b600060405160086000600182038760208a0101515b83831015611bf25780821a83860153600183019250600182039150611bd2565b505050016040819052601f19015190508061147485600861234c565b60408051600181526001600160f81b03198316602082015260218101909152606090611890565b6040516002808252606091906000601f5b82821015611c685785811a826020860101536001919091019060001901611c46565b5050506022810160405292915050565b6040516004808252606091906000601f5b82821015611cab5785811a826020860101536001919091019060001901611c89565b5050506024810160405292915050565b6040516008808252606091906000601f5b82821015611cee5785811a826020860101536001919091019060001901611ccc565b5050506028810160405292915050565b60005b83811015611d19578181015183820152602001611d01565b50506000910152565b60008151808452611d3a816020860160208601611cfe565b601f01601f19169290920160200192915050565b602081526000611d616020830184611d22565b9392505050565b6020810160028310611d8a57634e487b7160e01b600052602160045260246000fd5b91905290565b634e487b7160e01b600052604160045260246000fd5b6040516060810167ffffffffffffffff81118282101715611dc957611dc9611d90565b60405290565b604051610100810167ffffffffffffffff81118282101715611dc957611dc9611d90565b803567ffffffffffffffff81168114610cfe57600080fd5b60008067ffffffffffffffff841115611e2657611e26611d90565b50604051601f19601f85018116603f0116810181811067ffffffffffffffff82111715611e5557611e55611d90565b604052838152905080828401851015611e6d57600080fd5b83836020830137600060208583010152509392505050565b6001600160a01b0381168114611e9a57600080fd5b50565b600060208284031215611eaf57600080fd5b813567ffffffffffffffff811115611ec657600080fd5b820160608185031215611ed857600080fd5b611ee0611da6565b611ee982611df3565b8152602082013567ffffffffffffffff811115611f0557600080fd5b8201601f81018613611f1657600080fd5b611f2586823560208401611e0b565b60208301525060408201359150611f3b82611e85565b60408101919091529392505050565b80356fffffffffffffffffffffffffffffffff81168114610cfe57600080fd5b600082601f830112611f7b57600080fd5b611d6183833560208501611e0b565b60006101008284031215611f9d57600080fd5b611fa5611dcf565b8235815260208084013590820152604080840135908201529050611fcb60608301611f4a565b6060820152608082013567ffffffffffffffff811115611fea57600080fd5b611ff684828501611f6a565b60808301525060a0828101359082015260c0808301359082015260e09182013591810191909152919050565b60006020828403121561203457600080fd5b813567ffffffffffffffff81111561204b57600080fd5b61205784828501611f8a565b949350505050565b60008060008060006080868803121561207757600080fd5b853561208281611e85565b945061209060208701611df3565b9350604086013567ffffffffffffffff8111156120ac57600080fd5b8601601f810188136120bd57600080fd5b803567ffffffffffffffff8111156120d457600080fd5b8860208284010111156120e657600080fd5b6020919091019350915060608601356120fe81611e85565b809150509295509295909350565b60008060006060848603121561212157600080fd5b833567ffffffffffffffff81111561213857600080fd5b61214486828701611f8a565b93505060208401359150604084013567ffffffffffffffff81111561216857600080fd5b61217486828701611f6a565b9150509250925092565b60006020828403121561219057600080fd5b5051919050565b600181811c908216806121ab57607f821691505b6020821081036121cb57634e487b7160e01b600052602260045260246000fd5b50919050565b601f82111561221b57806000526020600020601f840160051c810160208510156121f85750805b601f840160051c820191505b818110156122185760008155600101612204565b50505b505050565b815167ffffffffffffffff81111561223a5761223a611d90565b61224e816122488454612197565b846121d1565b6020601f821160018114612282576000831561226a5750848201515b600019600385901b1c1916600184901b178455612218565b600084815260208120601f198516915b828110156122b25787850151825560209485019460019092019101612292565b50848210156122d05786840151600019600387901b60f8161c191681555b50505050600190811b01905550565b6000602082840312156122f157600080fd5b81518015158114611d6157600080fd5b602081526001600160a01b0382511660208201526001600160a01b036020830151166040820152604082015160608201526000606083015160808084015261205760a0840182611d22565b8082018082111561189057634e487b7160e01b600052601160045260246000fd5b60006020828403121561237f57600080fd5b8151611d6181611e85565b60408152825160408201526020830151606082015260408301516080820152606083015160a08201526000608084015160a060c08401526123ce60e0840182611d22565b9150506001600160a01b03831660208301529392505050565b60608101818360005b600381101561240f5781518352602092830192909101906001016123f0565b50505092915050565b6000865161242a818460208b01611cfe565b86519083019061243e818360208b01611cfe565b8651910190612451818360208a01611cfe565b8551910190612464818360208901611cfe565b8451910190612477818360208801611cfe565b01979650505050505050565b6001600160a01b038416815267ffffffffffffffff8316602082015260606040820152600061114c6060830184611d22565b600083516124c7818460208801611cfe565b8351908301906124db818360208801611cfe565b0194935050505056fea26469706673582212205d31f12f90aecfc8ba8c1b9cbb35b893e25388647119454da1e3de3ac9287afa64736f6c634300081a0033",
  "linkReferences": {},
  "deployedLinkReferences": {}
}