{
  "_format": "hh-sol-artifact-1",
  "contractName": "MystikoV2TBridgeERC20",
  "sourceName": "contracts/core/deposit/tbridge/MystikoV2TBridgeERC20.sol",
  "abi": [
    {
      "inputs": [
        {
          "internalType": "contract IHasher3",
          "name": "_hasher3",
          "type": "address"
        },
        {
          "internalType": "contract IERC20Metadata",
          "name": "_token",
          "type": "address"
        }
      ],
      "stateMutability": "nonpayable",
      "type": "constructor"
    },
    {
      "inputs": [],
      "name": "AmountLessThanZero",
      "type": "error"
    },
    {
      "inputs": [],
      "name": "AmountTooLarge",
      "type": "error"
    },
    {
      "inputs": [],
      "name": "AmountTooSmall",
      "type": "error"
    },
    {
      "inputs": [],
      "name": "BridgeFeeTooFew",
      "type": "error"
    },
    {
      "inputs": [],
      "name": "CommitmentHashIncorrect",
      "type": "error"
    },
    {
      "inputs": [],
      "name": "DepositsDisabled",
      "type": "error"
    },
    {
      "inputs": [],
      "name": "ExecutorFeeTooFew",
      "type": "error"
    },
    {
      "inputs": [],
      "name": "FromChainIdNotMatched",
      "type": "error"
    },
    {
      "inputs": [],
      "name": "FromProxyAddressNotMatched",
      "type": "error"
    },
    {
      "inputs": [],
      "name": "HashKGreaterThanFieldSize",
      "type": "error"
    },
    {
      "inputs": [
        {
          "internalType": "string",
          "name": "param",
          "type": "string"
        }
      ],
      "name": "Invalid",
      "type": "error"
    },
    {
      "inputs": [],
      "name": "MinAmountGreaterThanMaxAmount",
      "type": "error"
    },
    {
      "inputs": [],
      "name": "NotChanged",
      "type": "error"
    },
    {
      "inputs": [],
      "name": "OnlyOperator",
      "type": "error"
    },
    {
      "inputs": [],
      "name": "RandomSGreaterThanFieldSize",
      "type": "error"
    },
    {
      "inputs": [],
      "name": "RollupFeeToFew",
      "type": "error"
    },
    {
      "inputs": [],
      "name": "SanctionedAddress",
      "type": "error"
    },
    {
      "inputs": [],
      "name": "SenderIsNotBridgeProxy",
      "type": "error"
    },
    {
      "anonymous": false,
      "inputs": [
        {
          "indexed": true,
          "internalType": "uint256",
          "name": "commitment",
          "type": "uint256"
        }
      ],
      "name": "CommitmentCrossChain",
      "type": "event"
    },
    {
      "anonymous": false,
      "inputs": [
        {
          "indexed": false,
          "internalType": "uint256",
          "name": "maxAmount",
          "type": "uint256"
        },
        {
          "indexed": false,
          "internalType": "uint256",
          "name": "minAmount",
          "type": "uint256"
        }
      ],
      "name": "DepositAmountLimits",
      "type": "event"
    },
    {
      "anonymous": false,
      "inputs": [
        {
          "indexed": false,
          "internalType": "bool",
          "name": "state",
          "type": "bool"
        }
      ],
      "name": "DepositsDisabled",
      "type": "event"
    },
    {
      "anonymous": false,
      "inputs": [
        {
          "indexed": false,
          "internalType": "uint256",
          "name": "minBridgeFee",
          "type": "uint256"
        }
      ],
      "name": "MinBridgeFee",
      "type": "event"
    },
    {
      "anonymous": false,
      "inputs": [
        {
          "indexed": false,
          "internalType": "uint256",
          "name": "minExecutorFee",
          "type": "uint256"
        }
      ],
      "name": "MinExecutorFee",
      "type": "event"
    },
    {
      "anonymous": false,
      "inputs": [
        {
          "indexed": true,
          "internalType": "address",
          "name": "operator",
          "type": "address"
        }
      ],
      "name": "OperatorChanged",
      "type": "event"
    },
    {
      "anonymous": false,
      "inputs": [
        {
          "indexed": false,
          "internalType": "uint256",
          "name": "peerMinExecutorFee",
          "type": "uint256"
        }
      ],
      "name": "PeerMinExecutorFee",
      "type": "event"
    },
    {
      "anonymous": false,
      "inputs": [
        {
          "indexed": false,
          "internalType": "uint256",
          "name": "peerMinRollupFee",
          "type": "uint256"
        }
      ],
      "name": "PeerMinRollupFee",
      "type": "event"
    },
    {
      "anonymous": false,
      "inputs": [
        {
          "indexed": false,
          "internalType": "bool",
          "name": "state",
          "type": "bool"
        }
      ],
      "name": "SanctionsCheck",
      "type": "event"
    },
    {
      "anonymous": false,
      "inputs": [
        {
          "indexed": false,
          "internalType": "contract ISanctionsList",
          "name": "sanctions",
          "type": "address"
        }
      ],
      "name": "SanctionsList",
      "type": "event"
    },
    {
      "inputs": [],
      "name": "assetDecimals",
      "outputs": [
        {
          "internalType": "uint8",
          "name": "",
          "type": "uint8"
        }
      ],
      "stateMutability": "view",
      "type": "function"
    },
    {
      "inputs": [],
      "name": "assetName",
      "outputs": [
        {
          "internalType": "string",
          "name": "",
          "type": "string"
        }
      ],
      "stateMutability": "view",
      "type": "function"
    },
    {
      "inputs": [],
      "name": "assetSymbol",
      "outputs": [
        {
          "internalType": "string",
          "name": "",
          "type": "string"
        }
      ],
      "stateMutability": "view",
      "type": "function"
    },
    {
      "inputs": [],
      "name": "assetType",
      "outputs": [
        {
          "internalType": "enum AssetPool.AssetType",
          "name": "",
          "type": "uint8"
        }
      ],
      "stateMutability": "pure",
      "type": "function"
    },
    {
      "inputs": [],
      "name": "bridgeProxyAddress",
      "outputs": [
        {
          "internalType": "address",
          "name": "",
          "type": "address"
        }
      ],
      "stateMutability": "view",
      "type": "function"
    },
    {
      "inputs": [],
      "name": "bridgeType",
      "outputs": [
        {
          "internalType": "string",
          "name": "",
          "type": "string"
        }
      ],
      "stateMutability": "pure",
      "type": "function"
    },
    {
      "inputs": [
        {
          "internalType": "address",
          "name": "_newOperator",
          "type": "address"
        }
      ],
      "name": "changeOperator",
      "outputs": [],
      "stateMutability": "nonpayable",
      "type": "function"
    },
    {
      "inputs": [
        {
          "internalType": "uint64",
          "name": "_fromChainId",
          "type": "uint64"
        },
        {
          "internalType": "address",
          "name": "_fromContract",
          "type": "address"
        },
        {
          "internalType": "bytes",
          "name": "_message",
          "type": "bytes"
        },
        {
          "internalType": "address",
          "name": "_executor",
          "type": "address"
        }
      ],
      "name": "crossChainSyncTx",
      "outputs": [
        {
          "internalType": "bool",
          "name": "",
          "type": "bool"
        }
      ],
      "stateMutability": "nonpayable",
      "type": "function"
    },
    {
      "inputs": [
        {
          "components": [
            {
              "internalType": "uint256",
              "name": "amount",
              "type": "uint256"
            },
            {
              "internalType": "uint256",
              "name": "commitment",
              "type": "uint256"
            },
            {
              "internalType": "uint256",
              "name": "hashK",
              "type": "uint256"
            },
            {
              "internalType": "uint128",
              "name": "randomS",
              "type": "uint128"
            },
            {
              "internalType": "bytes",
              "name": "encryptedNote",
              "type": "bytes"
            },
            {
              "internalType": "uint256",
              "name": "bridgeFee",
              "type": "uint256"
            },
            {
              "internalType": "uint256",
              "name": "executorFee",
              "type": "uint256"
            },
            {
              "internalType": "uint256",
              "name": "rollupFee",
              "type": "uint256"
            }
          ],
          "internalType": "struct IMystikoBridge.DepositRequest",
          "name": "_request",
          "type": "tuple"
        }
      ],
      "name": "deposit",
      "outputs": [],
      "stateMutability": "payable",
      "type": "function"
    },
    {
      "inputs": [],
      "name": "disableSanctionsCheck",
      "outputs": [],
      "stateMutability": "nonpayable",
      "type": "function"
    },
    {
      "inputs": [],
      "name": "enableSanctionsCheck",
      "outputs": [],
      "stateMutability": "nonpayable",
      "type": "function"
    },
    {
      "inputs": [],
      "name": "getAssociatedCommitmentPool",
      "outputs": [
        {
          "internalType": "address",
          "name": "",
          "type": "address"
        }
      ],
      "stateMutability": "view",
      "type": "function"
    },
    {
      "inputs": [],
      "name": "getMaxAmount",
      "outputs": [
        {
          "internalType": "uint256",
          "name": "",
          "type": "uint256"
        }
      ],
      "stateMutability": "view",
      "type": "function"
    },
    {
      "inputs": [],
      "name": "getMinAmount",
      "outputs": [
        {
          "internalType": "uint256",
          "name": "",
          "type": "uint256"
        }
      ],
      "stateMutability": "view",
      "type": "function"
    },
    {
      "inputs": [],
      "name": "getMinBridgeFee",
      "outputs": [
        {
          "internalType": "uint256",
          "name": "",
          "type": "uint256"
        }
      ],
      "stateMutability": "view",
      "type": "function"
    },
    {
      "inputs": [],
      "name": "getMinExecutorFee",
      "outputs": [
        {
          "internalType": "uint256",
          "name": "",
          "type": "uint256"
        }
      ],
      "stateMutability": "view",
      "type": "function"
    },
    {
      "inputs": [],
      "name": "getPeerMinExecutorFee",
      "outputs": [
        {
          "internalType": "uint256",
          "name": "",
          "type": "uint256"
        }
      ],
      "stateMutability": "view",
      "type": "function"
    },
    {
      "inputs": [],
      "name": "getPeerMinRollupFee",
      "outputs": [
        {
          "internalType": "uint256",
          "name": "",
          "type": "uint256"
        }
      ],
      "stateMutability": "view",
      "type": "function"
    },
    {
      "inputs": [],
      "name": "isDepositsDisabled",
      "outputs": [
        {
          "internalType": "bool",
          "name": "",
          "type": "bool"
        }
      ],
      "stateMutability": "view",
      "type": "function"
    },
    {
      "inputs": [],
      "name": "peerChainId",
      "outputs": [
        {
          "internalType": "uint64",
          "name": "",
          "type": "uint64"
        }
      ],
      "stateMutability": "view",
      "type": "function"
    },
    {
      "inputs": [],
      "name": "peerChainName",
      "outputs": [
        {
          "internalType": "string",
          "name": "",
          "type": "string"
        }
      ],
      "stateMutability": "view",
      "type": "function"
    },
    {
      "inputs": [],
      "name": "peerContract",
      "outputs": [
        {
          "internalType": "address",
          "name": "",
          "type": "address"
        }
      ],
      "stateMutability": "view",
      "type": "function"
    },
    {
      "inputs": [],
      "name": "sanctionsCheck",
      "outputs": [
        {
          "internalType": "bool",
          "name": "",
          "type": "bool"
        }
      ],
      "stateMutability": "view",
      "type": "function"
    },
    {
      "inputs": [],
      "name": "sanctionsList",
      "outputs": [
        {
          "internalType": "contract ISanctionsList",
          "name": "",
          "type": "address"
        }
      ],
      "stateMutability": "view",
      "type": "function"
    },
    {
      "inputs": [
        {
          "internalType": "address",
          "name": "_commitmentPoolAddress",
          "type": "address"
        }
      ],
      "name": "setAssociatedCommitmentPool",
      "outputs": [],
      "stateMutability": "nonpayable",
      "type": "function"
    },
    {
      "inputs": [
        {
          "internalType": "address",
          "name": "_bridgeProxyAddress",
          "type": "address"
        }
      ],
      "name": "setBridgeProxyAddress",
      "outputs": [],
      "stateMutability": "nonpayable",
      "type": "function"
    },
    {
      "inputs": [
        {
          "internalType": "bool",
          "name": "_state",
          "type": "bool"
        }
      ],
      "name": "setDepositsDisabled",
      "outputs": [],
      "stateMutability": "nonpayable",
      "type": "function"
    },
    {
      "inputs": [
        {
          "internalType": "uint256",
          "name": "_minBridgeFee",
          "type": "uint256"
        }
      ],
      "name": "setMinBridgeFee",
      "outputs": [],
      "stateMutability": "nonpayable",
      "type": "function"
    },
    {
      "inputs": [
        {
          "internalType": "uint256",
          "name": "_minExecutorFee",
          "type": "uint256"
        }
      ],
      "name": "setMinExecutorFee",
      "outputs": [],
      "stateMutability": "nonpayable",
      "type": "function"
    },
    {
      "inputs": [
        {
          "internalType": "uint64",
          "name": "_peerChainId",
          "type": "uint64"
        },
        {
          "internalType": "string",
          "name": "_peerChainName",
          "type": "string"
        },
        {
          "internalType": "address",
          "name": "_peerContract",
          "type": "address"
        }
      ],
      "name": "setPeerContract",
      "outputs": [],
      "stateMutability": "nonpayable",
      "type": "function"
    },
    {
      "inputs": [
        {
          "internalType": "uint256",
          "name": "_peerMinExecutorFee",
          "type": "uint256"
        }
      ],
      "name": "setPeerMinExecutorFee",
      "outputs": [],
      "stateMutability": "nonpayable",
      "type": "function"
    },
    {
      "inputs": [
        {
          "internalType": "uint256",
          "name": "_peerMinRollupFee",
          "type": "uint256"
        }
      ],
      "name": "setPeerMinRollupFee",
      "outputs": [],
      "stateMutability": "nonpayable",
      "type": "function"
    },
    {
      "inputs": [
        {
          "internalType": "uint256",
          "name": "_maxAmount",
          "type": "uint256"
        },
        {
          "internalType": "uint256",
          "name": "_minAmount",
          "type": "uint256"
        }
      ],
      "name": "updateDepositAmountLimits",
      "outputs": [],
      "stateMutability": "nonpayable",
      "type": "function"
    },
    {
      "inputs": [
        {
          "internalType": "contract ISanctionsList",
          "name": "_sanction",
          "type": "address"
        }
      ],
      "name": "updateSanctionsListAddress",
      "outputs": [],
      "stateMutability": "nonpayable",
      "type": "function"
    }
  ],
  "bytecode": "0x6080604052600080546001600160a81b031916740140c57923924b5c5c5455c48d93317139addac8fb1790553480156200003857600080fd5b5060405162002b3b38038062002b3b8339810160408190526200005b9162000098565b600c8054336001600160a01b0319918216179091556001805482166001600160a01b03948516179055600d805490911691909216179055620000f0565b60008060408385031215620000ac57600080fd5b8251620000b981620000d7565b6020840151909250620000cc81620000d7565b809150509250929050565b6001600160a01b0381168114620000ed57600080fd5b50565b612a3b80620001006000396000f3fe6080604052600436106102195760003560e01c806382d21cd81161011d578063dd757c34116100b0578063ea0cde851161007f578063ed6ea33a11610064578063ed6ea33a1461061d578063efbfb2ae1461063c578063f4ad17c61461065157600080fd5b8063ea0cde85146105dd578063ec571c6a146105fd57600080fd5b8063dd757c341461056a578063ddac5dc11461057f578063e19abef81461059d578063e8183c44146105bd57600080fd5b8063c2d41601116100ec578063c2d41601146104d8578063c9230c5d146104ff578063cdfceeba14610514578063cfc7e2da1461055557600080fd5b806382d21cd8146104545780639a03636c14610484578063a3bc64f214610497578063b1c39422146104b757600080fd5b80632cd26d45116101b0578063521ff0571161017f5780635e10b2b7116101645780635e10b2b7146103ff5780637d2c85201461041f578063825b5f8d1461043f57600080fd5b8063521ff057146103ca5780635898a0a8146103ea57600080fd5b80632cd26d451461035957806330f49cac146103795780633fe3347a146103995780634e3c10b7146103b557600080fd5b8063176de7a8116101ec578063176de7a81461029957806319e75d6e146102bb57806321e32d55146102db5780632421e1551461031357600080fd5b806301dbf19f1461021e57806306394c9b146102355780630ba9590914610255578063153dc45014610279575b600080fd5b34801561022a57600080fd5b50610233610666565b005b34801561024157600080fd5b506102336102503660046123b8565b6106ea565b34801561026157600080fd5b506007545b6040519081526020015b60405180910390f35b34801561028557600080fd5b50610233610294366004612544565b61078e565b3480156102a557600080fd5b506102ae6107f5565b6040516102709190612849565b3480156102c757600080fd5b506102336102d6366004612544565b61087b565b3480156102e757600080fd5b506004546102fb906001600160a01b031681565b6040516001600160a01b039091168152602001610270565b34801561031f57600080fd5b5060408051808201909152600781527f746272696467650000000000000000000000000000000000000000000000000060208201526102ae565b34801561036557600080fd5b506005546102fb906001600160a01b031681565b34801561038557600080fd5b506102336103943660046123b8565b6108da565b3480156103a557600080fd5b5060006040516102709190612821565b3480156103c157600080fd5b506102ae610953565b3480156103d657600080fd5b506102336103e5366004612544565b6109e1565b3480156103f657600080fd5b50600a54610266565b34801561040b57600080fd5b5061023361041a366004612544565b610a94565b34801561042b57600080fd5b5061023361043a366004612643565b610af4565b34801561044b57600080fd5b50600b54610266565b34801561046057600080fd5b5061047461046f366004612598565b610b91565b6040519015158152602001610270565b610233610492366004612486565b610c1b565b3480156104a357600080fd5b506102336104b23660046123b8565b610e2b565b3480156104c357600080fd5b5060005461047490600160a01b900460ff1681565b3480156104e457600080fd5b506104ed610e78565b60405160ff9091168152602001610270565b34801561050b57600080fd5b506102ae610ef5565b34801561052057600080fd5b5060025461053c90600160a01b900467ffffffffffffffff1681565b60405167ffffffffffffffff9091168152602001610270565b34801561056157600080fd5b50600654610266565b34801561057657600080fd5b50610233610f3a565b34801561058b57600080fd5b506002546001600160a01b03166102fb565b3480156105a957600080fd5b506102336105b83660046123b8565b610fb2565b3480156105c957600080fd5b506102336105d8366004612576565b610fff565b3480156105e957600080fd5b506102336105f83660046123d5565b611092565b34801561060957600080fd5b506000546102fb906001600160a01b031681565b34801561062957600080fd5b50600c54600160a01b900460ff16610474565b34801561064857600080fd5b50600854610266565b34801561065d57600080fd5b50600954610266565b600c546001600160a01b03163314610691576040516327e1f1e560e01b815260040160405180910390fd5b6000805460ff60a01b1916600160a01b908117918290556040517fa5ffe1601eb93a7fefd0d0eeb5fc94a2f65475f333836fe2b87fd7bbf5952069926106e092900460ff161515815260200190565b60405180910390a1565b600c546001600160a01b03163314610715576040516327e1f1e560e01b815260040160405180910390fd5b600c546001600160a01b0382811691161415610744576040516336a1c33f60e01b815260040160405180910390fd5b600c80546001600160a01b0319166001600160a01b0383169081179091556040517f4721129e0e676ed6a92909bb24e853ccdd63ad72280cc2e974e38e480e0e6e5490600090a250565b600c546001600160a01b031633146107b9576040516327e1f1e560e01b815260040160405180910390fd5b600a8190556040518181527f14988234d3e50a12aeec2d6ee595b70c2fae163caff28baab5802b122bf2a753906020015b60405180910390a150565b600d54604080516395d89b4160e01b815290516060926001600160a01b0316916395d89b41916004808301926000929190829003018186803b15801561083a57600080fd5b505afa15801561084e573d6000803e3d6000fd5b505050506040513d6000823e601f3d908101601f19168201604052610876919081019061240f565b905090565b600c546001600160a01b031633146108a6576040516327e1f1e560e01b815260040160405180910390fd5b60088190556040518181527e91f5f5db3092e39ecb701218d4af20b7571e0429595937c334f3acd14fe2fe906020016107ea565b600c546001600160a01b03163314610905576040516327e1f1e560e01b815260040160405180910390fd5b600080546001600160a01b0319166001600160a01b0383169081179091556040519081527fbe1808917e09814fca7d80289a9760a4065f10d624ac1aee0b9f903c4f5d92b1906020016107ea565b600380546109609061298e565b80601f016020809104026020016040519081016040528092919081815260200182805461098c9061298e565b80156109d95780601f106109ae576101008083540402835291602001916109d9565b820191906000526020600020905b8154815290600101906020018083116109bc57829003601f168201915b505050505081565b600c546001600160a01b03163314610a0c576040516327e1f1e560e01b815260040160405180910390fd5b80610a5f576040516314e8955b60e21b815260206004820152601760248201527f70656572206d696e696d616c20726f6c6c75702066656500000000000000000060448201526064015b60405180910390fd5b600b8190556040518181527f878075a8e8aa1c7c15e6932752520f7812bf5744785e6df605373729da415545906020016107ea565b600c546001600160a01b03163314610abf576040516327e1f1e560e01b815260040160405180910390fd5b60098190556040518181527f88d210dfa198f7519579294721f90c771153a7b49101eefb95147037cc8ce481906020016107ea565b600c546001600160a01b03163314610b1f576040516327e1f1e560e01b815260040160405180910390fd5b600280547fffffffff0000000000000000ffffffffffffffffffffffffffffffffffffffff16600160a01b67ffffffffffffffff8616021790558151610b6c906003906020850190612289565b50600480546001600160a01b0319166001600160a01b03929092169190911790555050565b6005546000906001600160a01b03163314610bbf57604051633dca01cf60e11b815260040160405180910390fd5b6000610c0085858080601f01602080910402602001604051908101604052809392919081815260200183838082843760009201919091525061110a92505050565b9050610c0e878785846111d2565b5060019695505050505050565b600c54600160a01b900460ff1615610c4657604051630e2f42c960e31b815260040160405180910390fd5b60065481511015610c6a5760405163617ab12d60e11b815260040160405180910390fd5b60075481511115610c8e57604051630625040160e01b815260040160405180910390fd5b6008548160a001511015610cb55760405163c4d8d00d60e01b815260040160405180910390fd5b600a548160c001511015610cdc576040516355a6d6a160e11b815260040160405180910390fd5b600b548160e001511015610d035760405163784f02bd60e11b815260040160405180910390fd5b6000610d1c8260400151836000015184606001516112bf565b905080826020015114610d42576040516301bfaa2560e51b815260040160405180910390fd5b610d4b336113e7565b15610d6957604051632e70c0b160e01b815260040160405180910390fd5b6040805160a081018252835181526020808501519082015260c08401519181019190915260e08301516060820152608080840151908201526000610dac82611484565b9050610dbc8460a00151826114f3565b60025460e085015160c08601518651610df7936001600160a01b03169291610de39161293c565b610ded919061293c565b8660a00151611576565b60208401516040517fd106eb38b3368b7c294e36fae5513fdefe880be5abfad529b37b044f2fdd2dbe90600090a250505050565b600c546001600160a01b03163314610e56576040516327e1f1e560e01b815260040160405180910390fd5b600580546001600160a01b0319166001600160a01b0392909216919091179055565b600d546040805163313ce56760e01b815290516000926001600160a01b03169163313ce567916004808301926020929190829003018186803b158015610ebd57600080fd5b505afa158015610ed1573d6000803e3d6000fd5b505050506040513d601f19601f8201168201806040525081019061087691906126b9565b600d54604080516306fdde0360e01b815290516060926001600160a01b0316916306fdde03916004808301926000929190829003018186803b15801561083a57600080fd5b600c546001600160a01b03163314610f65576040516327e1f1e560e01b815260040160405180910390fd5b6000805460ff60a01b1916908190556040517fa5ffe1601eb93a7fefd0d0eeb5fc94a2f65475f333836fe2b87fd7bbf5952069916106e091600160a01b90910460ff161515815260200190565b600c546001600160a01b03163314610fdd576040516327e1f1e560e01b815260040160405180910390fd5b600280546001600160a01b0319166001600160a01b0392909216919091179055565b600c546001600160a01b0316331461102a576040516327e1f1e560e01b815260040160405180910390fd5b8181111561104b57604051636003e82160e11b815260040160405180910390fd5b6007829055600681905560408051838152602081018390527f7633004c7a229869aeea10db4ff3e57e3b1534aeb2c9e72c5db25f965895c330910160405180910390a15050565b600c546001600160a01b031633146110bd576040516327e1f1e560e01b815260040160405180910390fd5b600c8054821515600160a01b0260ff60a01b199091161790556040517fcd162c6fc24285bfbe399ec0cc2ce2c380ad27d2eb1fca418c652df1257e7e09906107ea90831515815260200190565b61113c6040518060a0016040528060008152602001600081526020016000815260200160008152602001606081525090565b61116e6040518060a0016040528060008152602001600081526020016000815260200160008152602001606081525090565b600061117a84826115e2565b908352905061118984826115e2565b6020840191909152905061119d84826115e2565b604084019190915290506111b184826115e2565b606084019190915290506111c58482611713565b5060808301525092915050565b6004546001600160a01b0384811691161461120057604051631440e07960e11b815260040160405180910390fd5b60025467ffffffffffffffff858116600160a01b909204161461123657604051633876304f60e21b815260040160405180910390fd5b80516112555760405163820bf1e560e01b815260040160405180910390fd5b6002546040516378d60cd760e01b81526001600160a01b03909116906378d60cd790611287908490869060040161285c565b600060405180830381600087803b1580156112a157600080fd5b505af11580156112b5573d6000803e3d6000fd5b5050505050505050565b60007f30644e72e131a029b85045b68181585d2833e84879b9709143e1f593f00000018085106113025760405163805f2a4960e01b815260040160405180910390fd5b80836fffffffffffffffffffffffffffffffff161061133457604051633bbde0bf60e21b815260040160405180910390fd5b60015460408051606081018252878152602081018790526fffffffffffffffffffffffffffffffff86168183015290516304b98e1d60e31b81526001600160a01b03909216916325cc70e89161138c916004016127f0565b60206040518083038186803b1580156113a457600080fd5b505afa1580156113b8573d6000803e3d6000fd5b505050506040513d601f19601f820116820180604052508101906113dc919061255d565b9150505b9392505050565b60008054600160a01b900460ff1661140157506000919050565b60005460405163df592f7d60e01b81526001600160a01b0384811660048301529091169063df592f7d9060240160206040518083038186803b15801561144657600080fd5b505afa15801561145a573d6000803e3d6000fd5b505050506040513d601f19601f8201168201806040525081019061147e91906123f2565b92915050565b6060806114948360000151611820565b6114a18460200151611820565b6114ae8560400151611820565b6114bb8660600151611820565b6114c887608001516118b8565b6040516020016114dc959493929190612753565b60408051601f198184030181529190529392505050565b6005546004805460025460405163c81739cd60e01b81526001600160a01b039485169463c81739cd94889461154094921692600160a01b90920467ffffffffffffffff16918891016127be565b6000604051808303818588803b15801561155957600080fd5b505af115801561156d573d6000803e3d6000fd5b50505050505050565b8034146115c55760405162461bcd60e51b815260206004820152601360248201527f62726964676520666565206d69736d61746368000000000000000000000000006044820152606401610a56565b600d546115dd906001600160a01b03163385856118ef565b505050565b60008083518360206115f4919061293c565b1115801561160b575061160883602061293c565b83105b6116635760405162461bcd60e51b815260206004820152602360248201527f4e65787455696e743235352c206f66667365742065786365656473206d6178696044820152626d756d60e81b6064820152608401610a56565b600060405160206000600182038760208a0101515b838310156116985780821a83860153600183019250600182039150611678565b50505081016040525190506001600160ff1b038111156116fa5760405162461bcd60e51b815260206004820152601760248201527f56616c75652065786365656473207468652072616e67650000000000000000006044820152606401610a56565b8061170685602061293c565b92509250505b9250929050565b60606000806117228585611964565b8651909550909150611734828661293c565b1115801561174a5750611747818561293c565b84105b6117a25760405162461bcd60e51b8152602060048201526024808201527f4e65787456617242797465732c206f66667365742065786365656473206d6178604482015263696d756d60e01b6064820152608401610a56565b6060811580156117bd57604051915060208201604052611807565b6040519150601f8316801560200281840101848101888315602002848c0101015b818310156117f65780518352602092830192016117de565b5050848452601f01601f1916604052505b5080611813838761293c565b9350935050509250929050565b60606001600160ff1b038211156118795760405162461bcd60e51b815260206004820152601b60248201527f56616c756520657863656564732075696e743235352072616e676500000000006044820152606401610a56565b60405160208082526000601f5b828210156118a85785811a826020860101536001919091019060001901611886565b5050506040818101905292915050565b80516060906118c681611b6a565b836040516020016118d8929190612724565b604051602081830303815290604052915050919050565b604080516001600160a01b0385811660248301528416604482015260648082018490528251808303909101815260849091019091526020810180517bffffffffffffffffffffffffffffffffffffffffffffffffffffffff166323b872dd60e01b17905261195e908590611c37565b50505050565b60008060006119738585611d1c565b94509050600060fd60f81b6001600160f81b031983161415611a0c576119998686611da4565b955061ffff16905060fd81108015906119b4575061ffff8111155b611a005760405162461bcd60e51b815260206004820152601f60248201527f4e65787455696e7431362c2076616c7565206f7574736964652072616e6765006044820152606401610a56565b925083915061170c9050565b607f60f91b6001600160f81b031983161415611a9757611a2c8686611e5d565b955063ffffffff16905061ffff81118015611a4b575063ffffffff8111155b611a005760405162461bcd60e51b815260206004820181905260248201527f4e65787456617255696e742c2076616c7565206f7574736964652072616e67656044820152606401610a56565b6001600160f81b03198083161415611b1457611ab38686611f2f565b955067ffffffffffffffff16905063ffffffff8111611a005760405162461bcd60e51b815260206004820181905260248201527f4e65787456617255696e742c2076616c7565206f7574736964652072616e67656044820152606401610a56565b5060f881901c60fd8110611a005760405162461bcd60e51b815260206004820181905260248201527f4e65787456617255696e742c2076616c7565206f7574736964652072616e67656044820152606401610a56565b606060fd8267ffffffffffffffff161015611b9d57604080516001815260f884901b60208201526021810190915261147e565b61ffff8267ffffffffffffffff1611611bed57611bbd60fd60f81b612001565b611bc683612028565b604051602001611bd7929190612724565b6040516020818303038152906040529050919050565b63ffffffff8267ffffffffffffffff1611611c1857611c0f607f60f91b612001565b611bc68361206b565b611c296001600160f81b0319612001565b611bc6836120ae565b919050565b6000611c8c826040518060400160405280602081526020017f5361666545524332303a206c6f772d6c6576656c2063616c6c206661696c6564815250856001600160a01b03166120f19092919063ffffffff16565b8051909150156115dd5780806020019051810190611caa91906123f2565b6115dd5760405162461bcd60e51b815260206004820152602a60248201527f5361666545524332303a204552433230206f7065726174696f6e20646964206e60448201527f6f742073756363656564000000000000000000000000000000000000000000006064820152608401610a56565b6000808351836001611d2e919061293c565b11158015611d455750611d4283600161293c565b83105b611d915760405162461bcd60e51b815260206004820181905260248201527f4e657874427974652c204f66667365742065786365656473206d6178696d756d6044820152606401610a56565b838301602001518061170685600161293c565b6000808351836002611db6919061293c565b11158015611dcd5750611dca83600261293c565b83105b611e245760405162461bcd60e51b815260206004820152602260248201527f4e65787455696e7431362c206f66667365742065786365656473206d6178696d604482015261756d60f01b6064820152608401610a56565b6000604051846020870101518060011a82538060001a60018301535060028101604052601e81035191505080846002611706919061293c565b6000808351836004611e6f919061293c565b11158015611e865750611e8383600461293c565b83105b611edd5760405162461bcd60e51b815260206004820152602260248201527f4e65787455696e7433322c206f66667365742065786365656473206d6178696d604482015261756d60f01b6064820152608401610a56565b600060405160046000600182038760208a0101515b83831015611f125780821a83860153600183019250600182039150611ef2565b50505081810160405260200390035190508061170685600461293c565b6000808351836008611f41919061293c565b11158015611f585750611f5583600861293c565b83105b611faf5760405162461bcd60e51b815260206004820152602260248201527f4e65787455696e7436342c206f66667365742065786365656473206d6178696d604482015261756d60f01b6064820152608401610a56565b600060405160086000600182038760208a0101515b83831015611fe45780821a83860153600183019250600182039150611fc4565b50505081810160405260200390035190508061170685600861293c565b60408051600181526001600160f81b0319831660208201526021810190915260609061147e565b6040516002808252606091906000601f5b8282101561205b5785811a826020860101536001919091019060001901612039565b5050506022810160405292915050565b6040516004808252606091906000601f5b8282101561209e5785811a82602086010153600191909101906000190161207c565b5050506024810160405292915050565b6040516008808252606091906000601f5b828210156120e15785811a8260208601015360019190910190600019016120bf565b5050506028810160405292915050565b60606121008484600085612108565b949350505050565b6060824710156121805760405162461bcd60e51b815260206004820152602660248201527f416464726573733a20696e73756666696369656e742062616c616e636520666f60448201527f722063616c6c00000000000000000000000000000000000000000000000000006064820152608401610a56565b6001600160a01b0385163b6121d75760405162461bcd60e51b815260206004820152601d60248201527f416464726573733a2063616c6c20746f206e6f6e2d636f6e74726163740000006044820152606401610a56565b600080866001600160a01b031685876040516121f39190612708565b60006040518083038185875af1925050503d8060008114612230576040519150601f19603f3d011682016040523d82523d6000602084013e612235565b606091505b5091509150612245828286612250565b979650505050505050565b6060831561225f5750816113e0565b82511561226f5782518084602001fd5b8160405162461bcd60e51b8152600401610a569190612849565b8280546122959061298e565b90600052602060002090601f0160209004810192826122b757600085556122fd565b82601f106122d057805160ff19168380011785556122fd565b828001600101855582156122fd579182015b828111156122fd5782518255916020019190600101906122e2565b5061230992915061230d565b5090565b5b80821115612309576000815560010161230e565b600061233561233084612914565b6128e3565b905082815283838301111561234957600080fd5b828260208301376000602084830101529392505050565b600082601f83011261237157600080fd5b6113e083833560208501612322565b80356fffffffffffffffffffffffffffffffff81168114611c3257600080fd5b803567ffffffffffffffff81168114611c3257600080fd5b6000602082840312156123ca57600080fd5b81356113e0816129df565b6000602082840312156123e757600080fd5b81356113e0816129f7565b60006020828403121561240457600080fd5b81516113e0816129f7565b60006020828403121561242157600080fd5b815167ffffffffffffffff81111561243857600080fd5b8201601f8101841361244957600080fd5b805161245761233082612914565b81815285602083850101111561246c57600080fd5b61247d826020830160208601612962565b95945050505050565b60006020828403121561249857600080fd5b813567ffffffffffffffff808211156124b057600080fd5b9083019061010082860312156124c557600080fd5b6124cd6128b9565b8235815260208301356020820152604083013560408201526124f160608401612380565b606082015260808301358281111561250857600080fd5b61251487828601612360565b60808301525060a083013560a082015260c083013560c082015260e083013560e082015280935050505092915050565b60006020828403121561255657600080fd5b5035919050565b60006020828403121561256f57600080fd5b5051919050565b6000806040838503121561258957600080fd5b50508035926020909101359150565b6000806000806000608086880312156125b057600080fd5b6125b9866123a0565b945060208601356125c9816129df565b9350604086013567ffffffffffffffff808211156125e657600080fd5b818801915088601f8301126125fa57600080fd5b81358181111561260957600080fd5b89602082850101111561261b57600080fd5b6020830195508094505050506060860135612635816129df565b809150509295509295909350565b60008060006060848603121561265857600080fd5b612661846123a0565b9250602084013567ffffffffffffffff81111561267d57600080fd5b8401601f8101861361268e57600080fd5b61269d86823560208401612322565b92505060408401356126ae816129df565b809150509250925092565b6000602082840312156126cb57600080fd5b815160ff811681146113e057600080fd5b600081518084526126f4816020860160208601612962565b601f01601f19169290920160200192915050565b6000825161271a818460208701612962565b9190910192915050565b60008351612736818460208801612962565b83519083019061274a818360208801612962565b01949350505050565b60008651612765818460208b01612962565b865190830190612779818360208b01612962565b865191019061278c818360208a01612962565b855191019061279f818360208901612962565b84519101906127b2818360208801612962565b01979650505050505050565b6001600160a01b038416815267ffffffffffffffff8316602082015260606040820152600061247d60608301846126dc565b60608101818360005b60038110156128185781518352602092830192909101906001016127f9565b50505092915050565b602081016002831061284357634e487b7160e01b600052602160045260246000fd5b91905290565b6020815260006113e060208301846126dc565b60408152825160408201526020830151606082015260408301516080820152606083015160a08201526000608084015160a060c08401526128a060e08401826126dc565b9150506001600160a01b03831660208301529392505050565b604051610100810167ffffffffffffffff811182821017156128dd576128dd6129c9565b60405290565b604051601f8201601f1916810167ffffffffffffffff8111828210171561290c5761290c6129c9565b604052919050565b600067ffffffffffffffff82111561292e5761292e6129c9565b50601f01601f191660200190565b6000821982111561295d57634e487b7160e01b600052601160045260246000fd5b500190565b60005b8381101561297d578181015183820152602001612965565b8381111561195e5750506000910152565b600181811c908216806129a257607f821691505b602082108114156129c357634e487b7160e01b600052602260045260246000fd5b50919050565b634e487b7160e01b600052604160045260246000fd5b6001600160a01b03811681146129f457600080fd5b50565b80151581146129f457600080fdfea2646970667358221220dc3eee833c95d51f5e965e70e64fe615a51ffbb5134d067dc6e60ca62907294864736f6c63430008070033",
  "linkReferences": {},
  "deployedLinkReferences": {}
}